{"abi":[{"type":"constructor","inputs":[{"name":"_owner","type":"address","internalType":"address"},{"name":"_priceOracle","type":"address","internalType":"address"},{"name":"_maxSlippageBps","type":"uint256","internalType":"uint256"}],"stateMutability":"nonpayable"},{"type":"function","name":"explainFailure","inputs":[{"name":"data","type":"bytes","internalType":"bytes"}],"outputs":[{"name":"","type":"string","internalType":"string"}],"stateMutability":"pure"},{"type":"function","name":"maxSlippageBps","inputs":[],"outputs":[{"name":"","type":"uint256","internalType":"uint256"}],"stateMutability":"view"},{"type":"function","name":"owner","inputs":[],"outputs":[{"name":"","type":"address","internalType":"address"}],"stateMutability":"view"},{"type":"function","name":"policyType","inputs":[],"outputs":[{"name":"","type":"string","internalType":"string"}],"stateMutability":"pure"},{"type":"function","name":"priceOracle","inputs":[],"outputs":[{"name":"","type":"address","internalType":"address"}],"stateMutability":"view"},{"type":"function","name":"validate","inputs":[{"name":"","type":"address","internalType":"address"},{"name":"trades","type":"tuple[]","internalType":"struct IBatchTrade.Trade[]","components":[{"name":"exchangeName","type":"string","internalType":"string"},{"name":"from","type":"address","internalType":"address"},{"name":"fromAmount","type":"uint256","internalType":"uint256"},{"name":"to","type":"address","internalType":"address"},{"name":"minToReceiveBeforeFees","type":"uint256","internalType":"uint256"},{"name":"data","type":"bytes","internalType":"bytes"},{"name":"signature","type":"bytes","internalType":"bytes"}]},{"name":"","type":"tuple","internalType":"struct IBatchTrade.BatchTradeConfig","components":[{"name":"checkFeelessWallets","type":"bool","internalType":"bool"},{"name":"revertOnError","type":"bool","internalType":"bool"}]}],"outputs":[{"name":"","type":"bool","internalType":"bool"},{"name":"","type":"bytes","internalType":"bytes"}],"stateMutability":"view"},{"type":"error","name":"SlippageFeedMissing","inputs":[{"name":"tradeIndex","type":"uint256","internalType":"uint256"},{"name":"token","type":"address","internalType":"address"}]},{"type":"error","name":"SlippageMinToReceiveTooLow","inputs":[{"name":"tradeIndex","type":"uint256","internalType":"uint256"},{"name":"minToReceive","type":"uint256","internalType":"uint256"},{"name":"minAllowed","type":"uint256","internalType":"uint256"}]},{"type":"error","name":"StringsInsufficientHexLength","inputs":[{"name":"value","type":"uint256","internalType":"uint256"},{"name":"length","type":"uint256","internalType":"uint256"}]}],"bytecode":{"object":"0x60e06040523461005f5761001a610014610166565b91610365565b610022610064565b611ebb6103da8239608051818181610463015261116a015260a051816102d4015260c05181818160a101528181610efe0152610f810152611ebb90f35b61006a565b60405190565b5f80fd5b601f801991011690565b634e487b7160e01b5f52604160045260245ffd5b906100969061006e565b810190811060018060401b038211176100ae57604052565b610078565b906100c66100bf610064565b928361008c565b565b5f80fd5b60018060a01b031690565b6100e0906100cc565b90565b6100ec816100d7565b036100f357565b5f80fd5b90505190610104826100e3565b565b90565b61011281610106565b0361011957565b5f80fd5b9050519061012a82610109565b565b90916060828403126101615761015e610147845f85016100f7565b9361015581602086016100f7565b9360400161011d565b90565b6100c8565b61018461229580380380610179816100b3565b92833981019061012c565b909192565b90565b90565b6101a361019e6101a892610189565b61018c565b6100cc565b90565b6101b49061018f565b90565b60209181520190565b5f7f4f776e6572207a65726f00000000000000000000000000000000000000000000910152565b6101f4600a6020926101b7565b6101fd816101c0565b0190565b6102169060208101905f8183039101526101e7565b90565b1561022057565b610228610064565b62461bcd60e51b81528061023e60048201610201565b0390fd5b5f7f4f7261636c65207a65726f000000000000000000000000000000000000000000910152565b610276600b6020926101b7565b61027f81610242565b0190565b6102989060208101905f818303910152610269565b90565b156102a257565b6102aa610064565b62461bcd60e51b8152806102c060048201610283565b0390fd5b90565b6102db6102d66102e0926102c4565b61018c565b610106565b90565b5f7f536c69707061676520746f6f2068696768000000000000000000000000000000910152565b61031760116020926101b7565b610320816102e3565b0190565b6103399060208101905f81830391015261030a565b90565b1561034357565b61034b610064565b62461bcd60e51b81528061036160048201610324565b0390fd5b61038a8161038361037d6103785f6101ab565b6100d7565b916100d7565b1415610219565b6103af826103a86103a261039d5f6101ab565b6100d7565b916100d7565b141561029b565b6103ce836103c76103c16127106102c7565b91610106565b111561033c565b60a05260c05260805256fe60806040526004361015610013575b6104df565b61001d5f3561007c565b80632630c12f1461007757806357e86eeb146100725780638da5cb5b1461006d578063a5bea16514610068578063b7cc4347146100635763c4aa73950361000e576104aa565b61042c565b6103f6565b6102f6565b610298565b6100fc565b60e01c90565b60405190565b5f80fd5b5f80fd5b5f91031261009a57565b61008c565b7f000000000000000000000000000000000000000000000000000000000000000090565b60018060a01b031690565b6100d7906100c3565b90565b6100e3906100ce565b9052565b91906100fa905f602085019401906100da565b565b3461012c5761010c366004610090565b61012861011761009f565b61011f610082565b918291826100e7565b0390f35b610088565b5f80fd5b61013e816100ce565b0361014557565b5f80fd5b9050359061015682610135565b565b5f80fd5b5f80fd5b5f80fd5b909182601f8301121561019e5781359167ffffffffffffffff831161019957602001926020830284011161019457565b610160565b61015c565b610158565b5f80fd5b908160409103126101b55790565b6101a3565b90608082820312610208576101d1815f8401610149565b92602083013567ffffffffffffffff8111610203576101f583610200928601610164565b9390946040016101a7565b90565b610131565b61008c565b151590565b61021b9061020d565b9052565b5190565b60209181520190565b90825f9392825e0152565b601f801991011690565b61026061026960209361026e936102578161021f565b93848093610223565b9586910161022c565b610237565b0190565b916102959261028860408201935f830190610212565b6020818403910152610241565b90565b346102cd576102b46102ab3660046101ba565b92919091610617565b906102c96102c0610082565b92839283610272565b0390f35b610088565b7f000000000000000000000000000000000000000000000000000000000000000090565b3461032657610306366004610090565b6103226103116102d2565b610319610082565b918291826100e7565b0390f35b610088565b909182601f830112156103655781359167ffffffffffffffff831161036057602001926001830284011161035b57565b610160565b61015c565b610158565b9060208282031261039b575f82013567ffffffffffffffff811161039657610392920161032b565b9091565b610131565b61008c565b5190565b60209181520190565b6103cc6103d56020936103da936103c3816103a0565b938480936103a4565b9586910161022c565b610237565b0190565b6103f39160208201915f8184039101526103ad565b90565b346104275761042361041261040c36600461036a565b90610a74565b61041a610082565b918291826103de565b0390f35b610088565b3461045c5761043c366004610090565b610458610447610c19565b61044f610082565b918291826103de565b0390f35b610088565b7f000000000000000000000000000000000000000000000000000000000000000090565b90565b61049190610485565b9052565b91906104a8905f60208501940190610488565b565b346104da576104ba366004610090565b6104d66104c5610461565b6104cd610082565b91829182610495565b0390f35b610088565b5f80fd5b5f90565b606090565b5090565b90565b90565b61050a61050561050f926104f0565b6104f3565b610485565b90565b600161051e9101610485565b90565b634e487b7160e01b5f52603260045260245ffd5b5f80fd5b903590600160e00381360303821215610550570190565b610535565b9082101561056f57602061056c9202810190610539565b90565b610521565b634e487b7160e01b5f52604160045260245ffd5b9061059290610237565b810190811067ffffffffffffffff8211176105ac57604052565b610574565b906105c46105bd610082565b9283610588565b565b67ffffffffffffffff81116105e4576105e0602091610237565b0190565b610574565b906105fb6105f6836105c6565b6105b1565b918252565b6106095f6105e9565b90565b610614610600565b90565b5091506106226104e3565b5061062b6104e7565b506106378282906104ec565b916106415f6104f6565b5b8061065561064f86610485565b91610485565b101561069a5761067c61067461066d84868591610555565b8390610edc565b91901561020d565b61068f575061068a90610512565b610642565b9493505050505f9190565b505050506001906106a961060c565b90565b606090565b5090565b90565b6106cc6106c76106d1926106b5565b6104f3565b610485565b90565b6106dc610600565b90565b63ffffffff60e01b1690565b1b90565b906106fd61070491836106b1565b91356106df565b9060048110610712575b5090565b61072a9063ffffffff60e01b906004036008026106eb565b165f61070e565b5f80fd5b5f80fd5b90939293848311610759578411610754576001820201920390565b610735565b610731565b91565b61076a81610485565b0361077157565b5f80fd5b9050359061078282610761565b565b61078d906100c3565b90565b61079981610784565b036107a057565b5f80fd5b905035906107b182610790565b565b91906040838203126107db57806107cf6107d8925f8601610775565b936020016107a4565b90565b61008c565b6107f46107ef6107f9926100c3565b6104f3565b6100c3565b90565b610805906107e0565b90565b610811906107fc565b90565b61081d906107e0565b90565b61083461082f610839926100c3565b6104f3565b610485565b90565b90565b61085361084e6108589261083c565b6104f3565b610485565b90565b7f536c6970706167653a20747261646520000000000000000000000000000000009052565b905090565b6108aa6108a192602092610898816103a0565b94858093610880565b9384910161022c565b0190565b7f2066656564206d697373696e6720666f7220746f6b656e2000000000000000009052565b6108f0610900939260106018936108e98161085b565b0190610885565b6108f9816108ae565b0190610885565b90565b610922929161092e91610914610082565b9485926020840192836108d3565b90810382520383610588565b565b90916060828403126109655761096261094b845f8501610775565b936109598160208601610775565b93604001610775565b90565b61008c565b7f206d696e546f52656365697665200000000000000000000000000000000000009052565b7f2062656c6f7720000000000000000000000000000000000000000000000000009052565b6109f79392600e6109d760079460106109e7956109d08161085b565b0190610885565b6109e08161096a565b0190610885565b6109f08161098f565b0190610885565b90565b90610a2791939293610a1b610a0d610082565b9586936020850193846109b4565b90810382520383610588565b565b5f7f536c6970706167653a20756e6b6e6f776e206572726f72000000000000000000910152565b610a5a60176105e9565b90610a6760208301610a29565b565b610a71610a50565b90565b90610a7d6106ac565b50610a898282906106b1565b610a9c610a9660046106b8565b91610485565b10610bc157610aac8282906106ef565b80610ac6610ac0631f9c855f60e21b6106df565b916106df565b14610b4e57610ae4610ade630385c3b560e41b6106df565b916106df565b14610af6575050610af3610a69565b90565b610b39610b45610b2e610b26610b20610b3f95610b4b9790610b1860046106b8565b908092610739565b9061075e565b810190610930565b94919390949361146e565b9361146e565b9161146e565b916109fa565b90565b50610bb8610b9e610b98610b8a610b82610b7c610b9296610bbe9890610b7460046106b8565b908092610739565b9061075e565b8101906107b3565b949094610808565b9361146e565b92610814565b610bb2610bac601492610820565b9161083f565b906116bd565b90610903565b90565b5050610bcb6106d4565b90565b5f7f536c697070616765000000000000000000000000000000000000000000000000910152565b610bff60086105e9565b90610c0c60208301610bce565b565b610c16610bf5565b90565b610c216106ac565b50610c2a610c0e565b90565b610c36906107e0565b90565b610c4290610c2d565b90565b610c4e906107fc565b90565b35610c5b81610135565b90565b60e01b90565b90505190610c7182610761565b565b60ff1690565b610c8281610c73565b03610c8957565b5f80fd5b90505190610c9a82610c79565b565b9190604083820312610cc45780610cb8610cc1925f8601610c64565b93602001610c8d565b90565b61008c565b610cd1610082565b3d5f823e3d90fd5b916020610cfa929493610cf360408201965f830190610488565b01906100da565b565b610d05906107e0565b90565b610d1190610cfc565b90565b610d1d906107fc565b90565b90602082820312610d3957610d36915f01610c8d565b90565b61008c565b5f0190565b610d57610d52610d5c92610c73565b6104f3565b610485565b90565b35610d6981610761565b90565b90565b610d83610d7e610d8892610d6c565b6104f3565b610485565b90565b634e487b7160e01b5f52601160045260245ffd5b610da890610485565b604d8111610db657600a0a90565b610d8b565b610dc7610dcd91610c73565b91610c73565b90039060ff8211610dda57565b610d8b565b610de890610c73565b604d8111610df657600a0a90565b610d8b565b610e0a610e1091939293610485565b92610485565b91610e1c838202610485565b928184041490151715610e2b57565b610d8b565b634e487b7160e01b5f52601260045260245ffd5b610e50610e5691610485565b91610485565b908115610e61570490565b610e30565b90565b610e7d610e78610e8292610e66565b6104f3565b610485565b90565b610e94610e9a91939293610485565b92610485565b8203918211610ea557565b610d8b565b604090610ed3610eda9496959396610ec960608401985f850190610488565b6020830190610488565b0190610488565b565b9190610f5c90610eea6104e3565b50610ef36104e7565b506040610f27610f227f0000000000000000000000000000000000000000000000000000000000000000610c39565b610c45565b6341976e0990610f51610f3c60208901610c51565b92610f45610082565b96879485938493610c5e565b8352600483016100e7565b03915afa9182156113db57610fdf925f809290916113aa575b50906040610faa610fa57f0000000000000000000000000000000000000000000000000000000000000000610c39565b610c45565b6341976e0990610fd4610fbf60608b01610c51565b92610fc8610082565b98899485938493610c5e565b8352600483016100e7565b03915afa80156113a5575f80959091611372575b509391806110096110035f6104f6565b91610485565b14611322578461102161101b5f6104f6565b91610485565b146112d25761105e9394602061104861104361103e838c01610c51565b610d08565b610d14565b63313ce56790611056610082565b978892610c5e565b8252818061106e60048201610d3e565b03915afa9485156112cd576110c39561108e915f9161129f575b50610d43565b9060206110ad6110a86110a360608d01610c51565b610d08565b610d14565b63313ce567906110bb610082565b988992610c5e565b825281806110d360048201610d3e565b03915afa801561129a5761111a611127948b9461111461110d6040611106611120976111a59e5f9161126c575b50610d43565b9801610d5f565b9291610d9f565b916118b9565b92610d9f565b90916118b9565b918161113b61113583610c73565b91610c73565b115f14611228576111536111589161115e9493610dbb565b610ddf565b90610e44565b5b61119461271061118f7f000000000000000000000000000000000000000000000000000000000000000091610e69565b610e85565b61119f612710610e69565b916118b9565b926111b260808201610d5f565b6111c46111be86610485565b91610485565b106111db57505090506001906111d861060c565b90565b600491611216611225925f966111fc6080630385c3b560e41b959301610d5f565b9091611206610082565b9687956020870190815201610eaa565b60208201810382520382610588565b90565b908161123c61123683610c73565b91610c73565b11611249575b505061115f565b61125a61125f916112659493610dbb565b610ddf565b90610dfb565b5f80611242565b61128d915060203d8111611293575b6112858183610588565b810190610d20565b5f611100565b503d61127b565b610cc9565b6112c0915060203d81116112c6575b6112b88183610588565b810190610d20565b5f611088565b503d6112ae565b610cc9565b5050506004915061131f906113105f956112f76060631f9c855f60e21b949201610c51565b90611300610082565b9586946020860190815201610cd9565b60208201810382520382610588565b90565b5050506004915061136f906113605f956113476020631f9c855f60e21b949201610c51565b90611350610082565b9586946020860190815201610cd9565b60208201810382520382610588565b90565b905061139691945060403d811161139e575b61138e8183610588565b810190610c9c565b93905f610ff3565b503d611384565b610cc9565b90506113cd915060403d81116113d4575b6113c58183610588565b810190610c9c565b905f610f75565b503d6113bb565b610cc9565b90565b6113f76113f26113fc926113e0565b6104f3565b610485565b90565b9061140a9101610485565b90565b369037565b9061143761141f836105e9565b9260208061142d86936105c6565b920191039061140d565b565b5f90565b60016114499103610485565b90565b61145861145e91610485565b91610485565b908115611469570490565b610e30565b6114766106ac565b5061149361148382611bbd565b61148d60016113e3565b906113ff565b9061149d82611412565b916114a6611439565b5060208301015b600115611510576114c06114ec9161143d565b916f181899199a1a9b1b9c1cb0b131b232b360811b600a82061a83536114e6600a610d6f565b9061144c565b806114ff6114f95f6104f6565b91610485565b1461150a57906114ad565b50505b90565b505061150d565b90565b61152e61152961153392611517565b6104f3565b610485565b90565b61154561154b91939293610485565b92610485565b820180921161155657565b610d8b565b67ffffffffffffffff811161157957611575602091610237565b0190565b610574565b9061159061158b8361155b565b6105b1565b918252565b906115ba6115a28361157e565b926020806115b0869361155b565b920191039061140d565b565b600360fc1b90565b906115ce8261021f565b8110156115e057600160209102010190565b610521565b600f60fb1b90565b6115f690610485565b5f8114611604576001900390565b610d8b565b6f181899199a1a9b1b9c1cb0b131b232b360811b90565b611628611609565b90565b90565b61164261163d6116479261162b565b6104f3565b610485565b90565b60f81b90565b61166461165f611669926106b5565b6104f3565b610c73565b90565b1c90565b61168f9061168961168361169494610c73565b91610485565b9061166c565b610485565b90565b9160206116b89294936116b160408201965f830190610488565b0190610488565b565b90565b906116c66106ac565b5081926116f86116f36116e360026116de869161151a565b610dfb565b6116ed600261151a565b90611536565b611595565b916117016115bc565b611718846117125f935f1a936104f6565b906115c4565b536117216115e5565b611739846117336001935f1a936113e3565b906115c4565b53611761611751600261174c849161151a565b610dfb565b61175b60016113e3565b90611536565b945b8561177761177160016113e3565b91610485565b11156117dd57611785611620565b81611790600f61162e565b169160108310156117d8576117ac6117cc926117d2941a61164a565b6117bb87918a905f1a926115c4565b536117c66004611650565b90611670565b956115ed565b94611763565b610521565b9092939194506117f56117ef5f6104f6565b91610485565b03611808575050611805906116ba565b90565b6118225f92839263e22e27eb60e01b845260048401611697565b0390fd5b90565b61183d61183861184292611826565b6104f3565b610485565b90565b61184f6012611829565b90565b90565b61186961186461186e92611852565b6104f3565b610485565b90565b61187b6011611855565b90565b906118899103610485565b90565b906118979102610485565b90565b90565b6118b16118ac6118b69261189a565b6104f3565b610485565b90565b909291926118c5611439565b506118d1828290611e1e565b91909192826118e86118e25f6104f6565b91610485565b14611a9557856119006118fa85610485565b91610485565b1115611a6357611a5a9286611a609697936119519361191d611439565b500990858211900394039360018361193e5f61193987916104f6565b61187e565b1680809504960493805f0304019061188c565b1791611a54611a38611a146119f06119cc6119a86119796003611974899161189d565b61188c565b611983600261151a565b186119a2600261199d6119978b859061188c565b9161151a565b61187e565b9061188c565b6119c660026119c16119bb8a859061188c565b9161151a565b61187e565b9061188c565b6119ea60026119e56119df89859061188c565b9161151a565b61187e565b9061188c565b611a0e6002611a09611a0388859061188c565b9161151a565b61187e565b9061188c565b611a326002611a2d611a2787859061188c565b9161151a565b61187e565b9061188c565b91611a4f611a49600292859061188c565b9161151a565b61187e565b9061188c565b9061188c565b90565b611a9086611a79611a735f6104f6565b91610485565b14611a82611845565b611a8a611871565b91611e43565b611e67565b50505091611aa3919261144c565b90565b90565b611abd611ab8611ac292611aa6565b6104f3565b610485565b90565b90565b611adc611ad7611ae192611ac5565b6104f3565b610485565b90565b90565b611afb611af6611b0092611ae4565b6104f3565b610485565b90565b90565b611b1a611b15611b1f92611b03565b6104f3565b610485565b90565b90565b611b39611b34611b3e92611b22565b6104f3565b610485565b90565b90565b611b58611b53611b5d92611b41565b6104f3565b610485565b90565b90565b611b77611b72611b7c92611b60565b6104f3565b610485565b90565b90565b611b96611b91611b9b92611b7f565b6104f3565b610485565b90565b90565b611bb5611bb0611bba92611b9e565b6104f3565b610485565b90565b611bc5611439565b50611bcf5f6104f6565b9080611bfe611bf87a184f03e93ff9f4daa797ed6e38ed64bf6a1f010000000000000000611aa9565b91610485565b1015611dd6575b80611c26611c206d04ee2d6d415b85acef8100000000611ae7565b91610485565b1015611d9b575b80611c47611c41662386f26fc10000611b25565b91610485565b1015611d67575b80611c65611c5f6305f5e100611b63565b91610485565b1015611d36575b80611c81611c7b612710610e69565b91610485565b1015611d07575b80611c9c611c966064611ba1565b91610485565b1015611cd9575b611cb6611cb0600a610d6f565b91610485565b1015611cc0575b90565b611cd490611cce60016113e3565b906113ff565b611cbd565b611cf0611d0191611cea6064611ba1565b9061144c565b91611cfb600261151a565b906113ff565b90611ca3565b611d1f611d3091611d19612710610e69565b9061144c565b91611d2a60046106b8565b906113ff565b90611c88565b611d50611d6191611d4a6305f5e100611b63565b9061144c565b91611d5b6008611b82565b906113ff565b90611c6c565b611d84611d9591611d7e662386f26fc10000611b25565b9061144c565b91611d8f6010611b44565b906113ff565b90611c4e565b611dbf611dd091611db96d04ee2d6d415b85acef8100000000611ae7565b9061144c565b91611dca6020611b06565b906113ff565b90611c2d565b611e07611e1891611e017a184f03e93ff9f4daa797ed6e38ed64bf6a1f010000000000000000611aa9565b9061144c565b91611e126040611ac8565b906113ff565b90611c05565b90611e27611439565b50611e30611439565b505f198183099102908180821091030391565b611e5d611e639293611e53611439565b5080941891611e77565b9061188c565b1890565b634e487b715f526020526024601cfd5b611e7f611439565b5015159056fea2646970667358221220d14dd7202ca1d5a1aded83f1b8e24161f85d92f1b2749a050d0c17299fe408ab64736f6c634300081a0033","linkReferences":{}},"methodIdentifiers":{"explainFailure(bytes)":"a5bea165","maxSlippageBps()":"c4aa7395","owner()":"8da5cb5b","policyType()":"b7cc4347","priceOracle()":"2630c12f","validate(address,(string,address,uint256,address,uint256,bytes,bytes)[],(bool,bool))":"57e86eeb"},"id":66}