{"abi":[{"type":"constructor","inputs":[{"name":"_owner","type":"address","internalType":"address"},{"name":"initialTokens","type":"address[]","internalType":"address[]"},{"name":"initialFeeds","type":"address[]","internalType":"address[]"}],"stateMutability":"nonpayable"},{"type":"function","name":"areTokensSupported","inputs":[{"name":"queriedTokens","type":"address[]","internalType":"address[]"}],"outputs":[{"name":"supported","type":"bool[]","internalType":"bool[]"}],"stateMutability":"view"},{"type":"function","name":"clearFeed","inputs":[{"name":"token","type":"address","internalType":"address"}],"outputs":[],"stateMutability":"nonpayable"},{"type":"function","name":"feeds","inputs":[{"name":"","type":"address","internalType":"address"}],"outputs":[{"name":"","type":"address","internalType":"address"}],"stateMutability":"view"},{"type":"function","name":"getFeed","inputs":[{"name":"token","type":"address","internalType":"address"}],"outputs":[{"name":"","type":"address","internalType":"address"}],"stateMutability":"view"},{"type":"function","name":"getTokens","inputs":[],"outputs":[{"name":"","type":"address[]","internalType":"address[]"}],"stateMutability":"view"},{"type":"function","name":"isTokenSupported","inputs":[{"name":"token","type":"address","internalType":"address"}],"outputs":[{"name":"","type":"bool","internalType":"bool"}],"stateMutability":"view"},{"type":"function","name":"owner","inputs":[],"outputs":[{"name":"","type":"address","internalType":"address"}],"stateMutability":"view"},{"type":"function","name":"setFeed","inputs":[{"name":"token","type":"address","internalType":"address"},{"name":"feed","type":"address","internalType":"address"}],"outputs":[],"stateMutability":"nonpayable"},{"type":"event","name":"FeedCleared","inputs":[{"name":"token","type":"address","indexed":false,"internalType":"address"}],"anonymous":false},{"type":"event","name":"FeedSet","inputs":[{"name":"token","type":"address","indexed":false,"internalType":"address"},{"name":"feed","type":"address","indexed":false,"internalType":"address"}],"anonymous":false}],"bytecode":{"object":"0x60a0604052346100475761001a6100146101f4565b916104c9565b61002261004c565b61109f61089e823960805181818161048e0152818161065801526109ca015261109f90f35b610052565b60405190565b5f80fd5b601f801991011690565b634e487b7160e01b5f52604160045260245ffd5b9061007e90610056565b810190811060018060401b0382111761009657604052565b610060565b906100ae6100a761004c565b9283610074565b565b5f80fd5b5f80fd5b60018060a01b031690565b6100cc906100b8565b90565b6100d8816100c3565b036100df57565b5f80fd5b905051906100f0826100cf565b565b5f80fd5b60018060401b03811161010c5760208091020190565b610060565b5f80fd5b9092919261012a610125826100f6565b61009b565b938185526020808601920283019281841161016757915b83831061014e5750505050565b6020809161015c84866100e3565b815201920191610141565b610111565b9080601f8301121561018a5781602061018793519101610115565b90565b6100f2565b916060838303126101ef576101a6825f85016100e3565b92602081015160018060401b0381116101ea57836101c591830161016c565b92604082015160018060401b0381116101e5576101e2920161016c565b90565b6100b4565b6100b4565b6100b0565b61021261193d803803806102078161009b565b92833981019061018f565b909192565b90565b90565b61023161022c61023692610217565b61021a565b6100b8565b90565b6102429061021d565b90565b60209181520190565b5f7f4f776e6572207a65726f00000000000000000000000000000000000000000000910152565b610282600a602092610245565b61028b8161024e565b0190565b6102a49060208101905f818303910152610275565b90565b156102ae57565b6102b661004c565b62461bcd60e51b8152806102cc6004820161028f565b0390fd5b5190565b90565b5f7f4c656e677468206d69736d617463680000000000000000000000000000000000910152565b61030b600f602092610245565b610314816102d7565b0190565b61032d9060208101905f8183039101526102fe565b90565b1561033757565b61033f61004c565b62461bcd60e51b81528061035560048201610318565b0390fd5b61036d61036861037292610217565b61021a565b6102d4565b90565b600161038191016102d4565b90565b634e487b7160e01b5f52603260045260245ffd5b906103a2826102d0565b8110156103b3576020809102010190565b610384565b6103c290516100c3565b90565b5f7f546f6b656e207a65726f00000000000000000000000000000000000000000000910152565b6103f9600a602092610245565b610402816103c5565b0190565b61041b9060208101905f8183039101526103ec565b90565b1561042557565b61042d61004c565b62461bcd60e51b81528061044360048201610406565b0390fd5b5f7f46656564207a65726f0000000000000000000000000000000000000000000000910152565b61047b6009602092610245565b61048481610447565b0190565b61049d9060208101905f81830391015261046e565b90565b156104a757565b6104af61004c565b62461bcd60e51b8152806104c560048201610488565b0390fd5b9291926104f1816104ea6104e46104df5f610239565b6100c3565b916100c3565b14156102a7565b61051d6104fd836102d0565b61051761051161050c886102d0565b6102d4565b916102d4565b14610330565b6080526105295f610359565b5b8061054561053f61053a856102d0565b6102d4565b916102d4565b10156105d2576105cd906105c8610565610560858490610398565b6103b8565b610578610573888590610398565b6103b8565b9061059e8161059761059161058c5f610239565b6100c3565b916100c3565b141561041e565b6105c3826105bc6105b66105b15f610239565b6100c3565b916100c3565b14156104a0565b6107ea565b610375565b61052a565b50509050565b6105ec6105e76105f1926100b8565b61021a565b6100b8565b90565b6105fd906105d8565b90565b610609906105f4565b90565b9061061690610600565b5f5260205260405f2090565b5f1c90565b90565b61063661063b91610622565b610627565b90565b610648905461062a565b90565b90565b5f5260205f2090565b5490565b61066481610657565b82101561067e5761067660019161064e565b910201905f90565b610384565b1b90565b919060086106a79102916106a160018060a01b0384610683565b92610683565b9181191691161790565b90565b91906106ca6106c56106d293610600565b6106b1565b908354610687565b9055565b908154916801000000000000000083101561070657826106fe9160016107049501815561065b565b906106b4565b565b610060565b5490565b5f1b90565b906107205f199161070f565b9181191691161790565b61073e610739610743926102d4565b61021a565b6102d4565b90565b90565b9061075e6107596107659261072a565b610746565b8254610714565b9055565b9061077390610600565b5f5260205260405f2090565b9061079060018060a01b039161070f565b9181191691161790565b906107af6107aa6107b692610600565b6106b1565b825461077f565b9055565b6107c3906100c3565b9052565b9160206107e89294936107e160408201965f8301906107ba565b01906107ba565b565b6107fe6107f96002839061060c565b61063e565b61081061080a5f610359565b916102d4565b14610866575b61082a826108255f8490610769565b61079a565b907f3206e79c8cb385b303820bc579358c388d2f7539de2fa2f24644faf6bd0354d19161086161085861004c565b928392836107c7565b0390a1565b61087a610873600161064b565b82906106d6565b610898610887600161070b565b6108936002849061060c565b610749565b61081656fe60806040526004361015610013575b6105b9565b61001d5f3561009c565b8063082b77331461009757806316b8e731146100925780632fba4aa91461008d5780633737e8c41461008857806340b1eb101461008357806375151b631461007e5780638da5cb5b146100795763aa6ca8080361000e57610584565b6104b0565b610448565b6103f2565b61038f565b610235565b610166565b610111565b60e01c90565b60405190565b5f80fd5b5f80fd5b5f80fd5b60018060a01b031690565b6100c8906100b4565b90565b6100d4816100bf565b036100db57565b5f80fd5b905035906100ec826100cb565b565b9060208282031261010757610104915f016100df565b90565b6100ac565b5f0190565b3461013f576101296101243660046100ee565b61075d565b6101316100a2565b8061013b8161010c565b0390f35b6100a8565b61014d906100bf565b9052565b9190610164905f60208501940190610144565b565b346101965761019261018161017c3660046100ee565b610792565b6101896100a2565b91829182610151565b0390f35b6100a8565b90565b6101b26101ad6101b7926100b4565b61019b565b6100b4565b90565b6101c39061019e565b90565b6101cf906101ba565b90565b906101dc906101c6565b5f5260205260405f2090565b1c90565b60018060a01b031690565b61020790600861020c93026101e8565b6101ec565b90565b9061021a91546101f7565b90565b6102329061022d5f915f926101d2565b61020f565b90565b346102655761026161025061024b3660046100ee565b61021d565b6102586100a2565b91829182610151565b0390f35b6100a8565b5f80fd5b5f80fd5b5f80fd5b909182601f830112156102b05781359167ffffffffffffffff83116102ab5760200192602083028401116102a657565b610272565b61026e565b61026a565b906020828203126102e6575f82013567ffffffffffffffff81116102e1576102dd9201610276565b9091565b6100b0565b6100ac565b5190565b60209181520190565b60200190565b151590565b61030c906102fe565b9052565b9061031d81602093610303565b0190565b60200190565b9061034461033e610337846102eb565b80936102ef565b926102f8565b905f5b8181106103545750505090565b90919261036d6103676001928651610310565b94610321565b9101919091610347565b61038c9160208201915f818403910152610327565b90565b346103c0576103bc6103ab6103a53660046102b5565b90610907565b6103b36100a2565b91829182610377565b0390f35b6100a8565b91906040838203126103ed57806103e16103ea925f86016100df565b936020016100df565b90565b6100ac565b346104215761040b6104053660046103c5565b90610b5b565b6104136100a2565b8061041d8161010c565b0390f35b6100a8565b61042f906102fe565b9052565b9190610446905f60208501940190610426565b565b346104785761047461046361045e3660046100ee565b610b6b565b61046b6100a2565b91829182610433565b0390f35b6100a8565b5f91031261048757565b6100ac565b7f000000000000000000000000000000000000000000000000000000000000000090565b346104e0576104c036600461047d565b6104dc6104cb61048c565b6104d36100a2565b91829182610151565b0390f35b6100a8565b5190565b60209181520190565b60200190565b610501906100bf565b9052565b90610512816020936104f8565b0190565b60200190565b9061053961053361052c846104e5565b80936104e9565b926104f2565b905f5b8181106105495750505090565b90919261056261055c6001928651610505565b94610516565b910191909161053c565b6105819160208201915f81840391015261051c565b90565b346105b45761059436600461047d565b6105b061059f610c65565b6105a76100a2565b9182918261056c565b0390f35b6100a8565b5f80fd5b60209181520190565b5f7f4f6e6c79206f776e657200000000000000000000000000000000000000000000910152565b6105fa600a6020926105bd565b610603816105c6565b0190565b61061c9060208101905f8183039101526105ed565b90565b1561062657565b61062e6100a2565b62461bcd60e51b81528061064460048201610607565b0390fd5b61068d906106883361068261067c7f00000000000000000000000000000000000000000000000000000000000000006100bf565b916100bf565b1461061f565b6106fd565b565b90565b6106a66106a16106ab9261068f565b61019b565b6100b4565b90565b6106b790610692565b90565b5f1b90565b906106d060018060a01b03916106ba565b9181191691161790565b90565b906106f26106ed6106f9926101c6565b6106da565b82546106bf565b9055565b61070681610e69565b6107226107125f6106ae565b61071d5f84906101d2565b6106dd565b6107587fb7974835564b74cc1cd67b780f5fd7cadae1e3b14eaaecc9822334f597becad69161074f6100a2565b91829182610151565b0390a1565b61076690610648565b565b5f90565b5f1c90565b61077d6107829161076c565b6101ec565b90565b61078f9054610771565b90565b6107a86107ad916107a1610768565b505f6101d2565b610785565b90565b606090565b5090565b601f801991011690565b634e487b7160e01b5f52604160045260245ffd5b906107e1906107b9565b810190811067ffffffffffffffff8211176107fb57604052565b6107c3565b9061081361080c6100a2565b92836107d7565b565b67ffffffffffffffff811161082d5760208091020190565b6107c3565b9061084461083f83610815565b610800565b918252565b369037565b9061087361085b83610832565b926020806108698693610815565b9201910390610849565b565b90565b61088c6108876108919261068f565b61019b565b610875565b90565b60016108a09101610875565b90565b634e487b7160e01b5f52603260045260245ffd5b91908110156108c7576020020190565b6108a3565b356108d6816100cb565b90565b906108e3826102eb565b8110156108f4576020809102010190565b6108a3565b90610903906102fe565b9052565b9190916109126107b0565b5061091e8184906107b5565b926109288461084e565b926109325f610878565b5b8061094661094088610875565b91610875565b10156109b1576109ac906109a76109796109745f61096e6109698a8a88916108b7565b6108cc565b906101d2565b610785565b61099361098d6109885f6106ae565b6100bf565b916100bf565b14156109a288918490926108d9565b6108f9565b610894565b610933565b509350505090565b906109ff916109fa336109f46109ee7f00000000000000000000000000000000000000000000000000000000000000006100bf565b916100bf565b1461061f565b610b05565b565b5f7f546f6b656e207a65726f00000000000000000000000000000000000000000000910152565b610a35600a6020926105bd565b610a3e81610a01565b0190565b610a579060208101905f818303910152610a28565b90565b15610a6157565b610a696100a2565b62461bcd60e51b815280610a7f60048201610a42565b0390fd5b5f7f46656564207a65726f0000000000000000000000000000000000000000000000910152565b610ab760096020926105bd565b610ac081610a83565b0190565b610ad99060208101905f818303910152610aaa565b90565b15610ae357565b610aeb6100a2565b62461bcd60e51b815280610b0160048201610ac4565b0390fd5b90610b5991610b2f81610b28610b22610b1d5f6106ae565b6100bf565b916100bf565b1415610a5a565b610b5482610b4d610b47610b425f6106ae565b6100bf565b916100bf565b1415610adc565b610fb6565b565b90610b65916109b9565b565b5f90565b610b81610b8691610b7a610b67565b505f6101d2565b610785565b610ba0610b9a610b955f6106ae565b6100bf565b916100bf565b141590565b606090565b5490565b60209181520190565b5f5260205f2090565b610bca9054610771565b90565b60010190565b90610bf0610bea610be384610baa565b8093610bae565b92610bb7565b905f5b818110610c005750505090565b909192610c20610c1a600192610c1587610bc0565b610505565b94610bcd565b9101919091610bf3565b90610c3491610bd3565b90565b90610c57610c5092610c476100a2565b93848092610c2a565b03836107d7565b565b610c6290610c37565b90565b610c6d610ba5565b50610c786001610c59565b90565b90610c85906101c6565b5f5260205260405f2090565b90565b610ca0610ca59161076c565b610c91565b90565b610cb29054610c94565b90565b90565b610ccc610cc7610cd192610cb5565b61019b565b610875565b90565b634e487b7160e01b5f52601160045260245ffd5b610cf7610cfd91939293610875565b92610875565b8203918211610d0857565b610cd4565b610d1681610baa565b821015610d3057610d28600191610bb7565b910201905f90565b6108a3565b1b90565b91906008610d59910291610d5360018060a01b0384610d35565b92610d35565b9181191691161790565b9190610d79610d74610d81936101c6565b6106da565b908354610d39565b9055565b90610d915f19916106ba565b9181191691161790565b610daf610daa610db492610875565b61019b565b610875565b90565b90565b90610dcf610dca610dd692610d9b565b610db7565b8254610d85565b9055565b90565b634e487b7160e01b5f52603160045260245ffd5b5490565b5f5260205f2090565b610e0781610df1565b821015610e2157610e19600191610df5565b910201905f90565b6108a3565b610e3891610e32610768565b91610d63565b565b610e4381610df1565b8015610e64576001900390610e61610e5b8383610dfe565b90610e26565b55565b610ddd565b610e7d610e7860028390610c7b565b610ca8565b9081610e91610e8b5f610878565b91610875565b14610f5a5781610eae610f1293610ea86001610cb8565b90610ce8565b610ecb610ebb6001610baa565b610ec56001610cb8565b90610ce8565b81610ede610ed883610875565b91610875565b03610f14575b505050610ef9610ef46001610dda565b610e3a565b610f0d610f055f610878565b916002610c7b565b610dba565b565b610f5292610f45610f32610f2c610f4d946001610d0d565b9061020f565b93610f3f85916001610d0d565b90610d63565b916002610c7b565b610dba565b5f8080610ee4565b5050565b9081549168010000000000000000831015610f8e5782610f86916001610f8c95018155610dfe565b90610d63565b565b6107c3565b916020610fb4929493610fad60408201965f830190610144565b0190610144565b565b610fca610fc560028390610c7b565b610ca8565b610fdc610fd65f610878565b91610875565b14611032575b610ff682610ff15f84906101d2565b6106dd565b907f3206e79c8cb385b303820bc579358c388d2f7539de2fa2f24644faf6bd0354d19161102d6110246100a2565b92839283610f93565b0390a1565b61104661103f6001610dda565b8290610f5e565b6110646110536001610baa565b61105f60028490610c7b565b610dba565b610fe256fea26469706673582212200ae8808a14834127f8885c6e7eec9a01dc88942982f31bf47b47b67bbaaec96d64736f6c634300081a0033","linkReferences":{}},"methodIdentifiers":{"areTokensSupported(address[])":"3737e8c4","clearFeed(address)":"082b7733","feeds(address)":"2fba4aa9","getFeed(address)":"16b8e731","getTokens()":"aa6ca808","isTokenSupported(address)":"75151b63","owner()":"8da5cb5b","setFeed(address,address)":"40b1eb10"},"id":62}