{"abi":[{"type":"constructor","inputs":[{"name":"_usdc","type":"address","internalType":"address"},{"name":"_tokenMessenger","type":"address","internalType":"address"},{"name":"_messageTransmitter","type":"address","internalType":"address"}],"stateMutability":"nonpayable"},{"type":"function","name":"AUDITOR_FEE_SHARE","inputs":[],"outputs":[{"name":"","type":"uint256","internalType":"uint256"}],"stateMutability":"view"},{"type":"function","name":"CLAIM_DEPOSIT","inputs":[],"outputs":[{"name":"","type":"uint256","internalType":"uint256"}],"stateMutability":"view"},{"type":"function","name":"INSURANCE_FEE_SHARE","inputs":[],"outputs":[{"name":"","type":"uint256","internalType":"uint256"}],"stateMutability":"view"},{"type":"function","name":"PAYMENT_WINDOW","inputs":[],"outputs":[{"name":"","type":"uint256","internalType":"uint256"}],"stateMutability":"view"},{"type":"function","name":"SLASH_PERCENTAGE","inputs":[],"outputs":[{"name":"","type":"uint256","internalType":"uint256"}],"stateMutability":"view"},{"type":"function","name":"USAGE_FEE","inputs":[],"outputs":[{"name":"","type":"uint256","internalType":"uint256"}],"stateMutability":"view"},{"type":"function","name":"VOTING_WINDOW","inputs":[],"outputs":[{"name":"","type":"uint256","internalType":"uint256"}],"stateMutability":"view"},{"type":"function","name":"auditorReputations","inputs":[{"name":"","type":"address","internalType":"address"}],"outputs":[{"name":"totalStaked","type":"uint256","internalType":"uint256"},{"name":"successfulAudits","type":"uint256","internalType":"uint256"},{"name":"totalAudits","type":"uint256","internalType":"uint256"},{"name":"slashedCount","type":"uint256","internalType":"uint256"}],"stateMutability":"view"},{"type":"function","name":"auditorSkills","inputs":[{"name":"","type":"address","internalType":"address"},{"name":"","type":"uint256","internalType":"uint256"}],"outputs":[{"name":"","type":"string","internalType":"string"}],"stateMutability":"view"},{"type":"function","name":"auditorStakes","inputs":[{"name":"","type":"string","internalType":"string"},{"name":"","type":"address","internalType":"address"}],"outputs":[{"name":"","type":"uint256","internalType":"uint256"}],"stateMutability":"view"},{"type":"function","name":"authorizeUsage","inputs":[{"name":"skillId","type":"string","internalType":"string"},{"name":"paymentChain","type":"uint32","internalType":"uint32"},{"name":"txHash","type":"bytes32","internalType":"bytes32"},{"name":"memo","type":"string","internalType":"string"}],"outputs":[{"name":"","type":"bool","internalType":"bool"}],"stateMutability":"nonpayable"},{"type":"function","name":"authorizeUsageCCTP","inputs":[{"name":"skillId","type":"string","internalType":"string"},{"name":"message","type":"bytes","internalType":"bytes"},{"name":"attestation","type":"bytes","internalType":"bytes"},{"name":"paymentChain","type":"uint32","internalType":"uint32"},{"name":"txHash","type":"bytes32","internalType":"bytes32"},{"name":"memo","type":"string","internalType":"string"}],"outputs":[{"name":"","type":"bool","internalType":"bool"}],"stateMutability":"nonpayable"},{"type":"function","name":"bondSkill","inputs":[{"name":"skillId","type":"string","internalType":"string"},{"name":"amount","type":"uint256","internalType":"uint256"},{"name":"sourceChain","type":"uint32","internalType":"uint32"}],"outputs":[],"stateMutability":"nonpayable"},{"type":"function","name":"bondSkillCCTP","inputs":[{"name":"skillId","type":"string","internalType":"string"},{"name":"amount","type":"uint256","internalType":"uint256"},{"name":"message","type":"bytes","internalType":"bytes"},{"name":"attestation","type":"bytes","internalType":"bytes"},{"name":"sourceChain","type":"uint32","internalType":"uint32"}],"outputs":[],"stateMutability":"nonpayable"},{"type":"function","name":"claimCounter","inputs":[],"outputs":[{"name":"","type":"uint256","internalType":"uint256"}],"stateMutability":"view"},{"type":"function","name":"claimEarnings","inputs":[{"name":"destinationChainDomain","type":"uint32","internalType":"uint32"}],"outputs":[],"stateMutability":"nonpayable"},{"type":"function","name":"claims","inputs":[{"name":"","type":"uint256","internalType":"uint256"}],"outputs":[{"name":"claimId","type":"uint256","internalType":"uint256"},{"name":"skillId","type":"string","internalType":"string"},{"name":"claimant","type":"address","internalType":"address"},{"name":"evidenceHash","type":"string","internalType":"string"},{"name":"depositAmount","type":"uint256","internalType":"uint256"},{"name":"votingDeadline","type":"uint256","internalType":"uint256"},{"name":"votesFor","type":"uint256","internalType":"uint256"},{"name":"votesAgainst","type":"uint256","internalType":"uint256"},{"name":"resolved","type":"bool","internalType":"bool"},{"name":"outcome","type":"bool","internalType":"bool"}],"stateMutability":"view"},{"type":"function","name":"createSkill","inputs":[{"name":"skillId","type":"string","internalType":"string"}],"outputs":[],"stateMutability":"nonpayable"},{"type":"function","name":"getAuditorReputation","inputs":[{"name":"auditor","type":"address","internalType":"address"}],"outputs":[{"name":"totalStaked","type":"uint256","internalType":"uint256"},{"name":"successfulAudits","type":"uint256","internalType":"uint256"},{"name":"totalAudits","type":"uint256","internalType":"uint256"},{"name":"slashedCount","type":"uint256","internalType":"uint256"}],"stateMutability":"view"},{"type":"function","name":"getAuditorStake","inputs":[{"name":"skillId","type":"string","internalType":"string"},{"name":"auditor","type":"address","internalType":"address"}],"outputs":[{"name":"","type":"uint256","internalType":"uint256"}],"stateMutability":"view"},{"type":"function","name":"getClaimInfo","inputs":[{"name":"claimId","type":"uint256","internalType":"uint256"}],"outputs":[{"name":"skillId","type":"string","internalType":"string"},{"name":"claimant","type":"address","internalType":"address"},{"name":"evidenceHash","type":"string","internalType":"string"},{"name":"votesFor","type":"uint256","internalType":"uint256"},{"name":"votesAgainst","type":"uint256","internalType":"uint256"},{"name":"resolved","type":"bool","internalType":"bool"},{"name":"outcome","type":"bool","internalType":"bool"}],"stateMutability":"view"},{"type":"function","name":"getSkillAuditorCount","inputs":[{"name":"skillId","type":"string","internalType":"string"}],"outputs":[{"name":"","type":"uint256","internalType":"uint256"}],"stateMutability":"view"},{"type":"function","name":"getSkillAuditors","inputs":[{"name":"skillId","type":"string","internalType":"string"}],"outputs":[{"name":"","type":"address[]","internalType":"address[]"}],"stateMutability":"view"},{"type":"function","name":"getSkillInfo","inputs":[{"name":"skillId","type":"string","internalType":"string"}],"outputs":[{"name":"","type":"string","internalType":"string"},{"name":"totalBonded","type":"uint256","internalType":"uint256"},{"name":"usageCount","type":"uint256","internalType":"uint256"},{"name":"totalFeesGenerated","type":"uint256","internalType":"uint256"},{"name":"flagged","type":"bool","internalType":"bool"},{"name":"createdAt","type":"uint256","internalType":"uint256"}],"stateMutability":"view"},{"type":"function","name":"hasActiveClaim","inputs":[{"name":"","type":"string","internalType":"string"}],"outputs":[{"name":"","type":"bool","internalType":"bool"}],"stateMutability":"view"},{"type":"function","name":"hasVoted","inputs":[{"name":"","type":"uint256","internalType":"uint256"},{"name":"","type":"address","internalType":"address"}],"outputs":[{"name":"","type":"bool","internalType":"bool"}],"stateMutability":"view"},{"type":"function","name":"insurancePool","inputs":[],"outputs":[{"name":"","type":"uint256","internalType":"uint256"}],"stateMutability":"view"},{"type":"function","name":"messageTransmitter","inputs":[],"outputs":[{"name":"","type":"address","internalType":"contract IMessageTransmitter"}],"stateMutability":"view"},{"type":"function","name":"owner","inputs":[],"outputs":[{"name":"","type":"address","internalType":"address"}],"stateMutability":"view"},{"type":"function","name":"paymentRecords","inputs":[{"name":"","type":"bytes32","internalType":"bytes32"}],"outputs":[{"name":"payer","type":"address","internalType":"address"},{"name":"amount","type":"uint256","internalType":"uint256"},{"name":"memo","type":"string","internalType":"string"},{"name":"timestamp","type":"uint256","internalType":"uint256"},{"name":"consumed","type":"bool","internalType":"bool"}],"stateMutability":"view"},{"type":"function","name":"pendingEarnings","inputs":[{"name":"","type":"address","internalType":"address"}],"outputs":[{"name":"","type":"uint256","internalType":"uint256"}],"stateMutability":"view"},{"type":"function","name":"preferredDestinationChain","inputs":[{"name":"","type":"address","internalType":"address"}],"outputs":[{"name":"","type":"uint32","internalType":"uint32"}],"stateMutability":"view"},{"type":"function","name":"renounceOwnership","inputs":[],"outputs":[],"stateMutability":"nonpayable"},{"type":"function","name":"resolveClaim","inputs":[{"name":"claimId","type":"uint256","internalType":"uint256"}],"outputs":[],"stateMutability":"nonpayable"},{"type":"function","name":"setSupportedDomain","inputs":[{"name":"domain","type":"uint32","internalType":"uint32"},{"name":"supported","type":"bool","internalType":"bool"}],"outputs":[],"stateMutability":"nonpayable"},{"type":"function","name":"skills","inputs":[{"name":"","type":"string","internalType":"string"}],"outputs":[{"name":"skillId","type":"string","internalType":"string"},{"name":"totalBonded","type":"uint256","internalType":"uint256"},{"name":"usageCount","type":"uint256","internalType":"uint256"},{"name":"totalFeesGenerated","type":"uint256","internalType":"uint256"},{"name":"flagged","type":"bool","internalType":"bool"},{"name":"createdAt","type":"uint256","internalType":"uint256"}],"stateMutability":"view"},{"type":"function","name":"submitClaim","inputs":[{"name":"skillId","type":"string","internalType":"string"},{"name":"evidenceHash","type":"string","internalType":"string"},{"name":"destinationChain","type":"uint32","internalType":"uint32"}],"outputs":[{"name":"","type":"uint256","internalType":"uint256"}],"stateMutability":"nonpayable"},{"type":"function","name":"submitClaimCCTP","inputs":[{"name":"skillId","type":"string","internalType":"string"},{"name":"evidenceHash","type":"string","internalType":"string"},{"name":"message","type":"bytes","internalType":"bytes"},{"name":"attestation","type":"bytes","internalType":"bytes"},{"name":"destinationChain","type":"uint32","internalType":"uint32"}],"outputs":[{"name":"","type":"uint256","internalType":"uint256"}],"stateMutability":"nonpayable"},{"type":"function","name":"supportedDomains","inputs":[{"name":"","type":"uint32","internalType":"uint32"}],"outputs":[{"name":"","type":"bool","internalType":"bool"}],"stateMutability":"view"},{"type":"function","name":"tokenMessenger","inputs":[],"outputs":[{"name":"","type":"address","internalType":"contract ITokenMessenger"}],"stateMutability":"view"},{"type":"function","name":"transferOwnership","inputs":[{"name":"newOwner","type":"address","internalType":"address"}],"outputs":[],"stateMutability":"nonpayable"},{"type":"function","name":"updateCCTPAddresses","inputs":[{"name":"_tokenMessenger","type":"address","internalType":"address"},{"name":"_messageTransmitter","type":"address","internalType":"address"}],"outputs":[],"stateMutability":"nonpayable"},{"type":"function","name":"usdc","inputs":[],"outputs":[{"name":"","type":"address","internalType":"contract IERC20"}],"stateMutability":"view"},{"type":"function","name":"voteOnClaim","inputs":[{"name":"claimId","type":"uint256","internalType":"uint256"},{"name":"support","type":"bool","internalType":"bool"}],"outputs":[],"stateMutability":"nonpayable"},{"type":"function","name":"voteWeights","inputs":[{"name":"","type":"uint256","internalType":"uint256"},{"name":"","type":"address","internalType":"address"}],"outputs":[{"name":"","type":"uint256","internalType":"uint256"}],"stateMutability":"view"},{"type":"function","name":"wasPaymentReceived","inputs":[{"name":"txHash","type":"bytes32","internalType":"bytes32"},{"name":"expectedAmount","type":"uint256","internalType":"uint256"},{"name":"expectedMemo","type":"string","internalType":"string"}],"outputs":[{"name":"","type":"bool","internalType":"bool"}],"stateMutability":"view"},{"type":"event","name":"CCTPTransferInitiated","inputs":[{"name":"recipient","type":"address","indexed":true,"internalType":"address"},{"name":"amount","type":"uint256","indexed":false,"internalType":"uint256"},{"name":"destinationDomain","type":"uint32","indexed":false,"internalType":"uint32"}],"anonymous":false},{"type":"event","name":"ClaimResolved","inputs":[{"name":"claimId","type":"uint256","indexed":true,"internalType":"uint256"},{"name":"outcome","type":"bool","indexed":false,"internalType":"bool"},{"name":"slashedAmount","type":"uint256","indexed":false,"internalType":"uint256"}],"anonymous":false},{"type":"event","name":"ClaimSubmitted","inputs":[{"name":"claimId","type":"uint256","indexed":true,"internalType":"uint256"},{"name":"skillId","type":"string","indexed":true,"internalType":"string"},{"name":"claimant","type":"address","indexed":true,"internalType":"address"},{"name":"evidenceHash","type":"string","indexed":false,"internalType":"string"}],"anonymous":false},{"type":"event","name":"ClaimVoted","inputs":[{"name":"claimId","type":"uint256","indexed":true,"internalType":"uint256"},{"name":"voter","type":"address","indexed":true,"internalType":"address"},{"name":"support","type":"bool","indexed":false,"internalType":"bool"},{"name":"weight","type":"uint256","indexed":false,"internalType":"uint256"}],"anonymous":false},{"type":"event","name":"EarningsClaimed","inputs":[{"name":"auditor","type":"address","indexed":true,"internalType":"address"},{"name":"amount","type":"uint256","indexed":false,"internalType":"uint256"},{"name":"destinationChain","type":"uint32","indexed":false,"internalType":"uint32"}],"anonymous":false},{"type":"event","name":"OwnershipTransferred","inputs":[{"name":"previousOwner","type":"address","indexed":true,"internalType":"address"},{"name":"newOwner","type":"address","indexed":true,"internalType":"address"}],"anonymous":false},{"type":"event","name":"PaymentRecorded","inputs":[{"name":"txHash","type":"bytes32","indexed":true,"internalType":"bytes32"},{"name":"payer","type":"address","indexed":true,"internalType":"address"},{"name":"amount","type":"uint256","indexed":false,"internalType":"uint256"},{"name":"memo","type":"string","indexed":false,"internalType":"string"}],"anonymous":false},{"type":"event","name":"SkillBonded","inputs":[{"name":"skillId","type":"string","indexed":true,"internalType":"string"},{"name":"auditor","type":"address","indexed":true,"internalType":"address"},{"name":"amount","type":"uint256","indexed":false,"internalType":"uint256"},{"name":"sourceChain","type":"uint32","indexed":false,"internalType":"uint32"}],"anonymous":false},{"type":"event","name":"SkillCreated","inputs":[{"name":"skillId","type":"string","indexed":true,"internalType":"string"},{"name":"createdAt","type":"uint256","indexed":false,"internalType":"uint256"}],"anonymous":false},{"type":"event","name":"SkillUsed","inputs":[{"name":"skillId","type":"string","indexed":true,"internalType":"string"},{"name":"payer","type":"address","indexed":true,"internalType":"address"},{"name":"paymentChain","type":"uint32","indexed":false,"internalType":"uint32"}],"anonymous":false},{"type":"error","name":"OwnableInvalidOwner","inputs":[{"name":"owner","type":"address","internalType":"address"}]},{"type":"error","name":"OwnableUnauthorizedAccount","inputs":[{"name":"account","type":"address","internalType":"address"}]},{"type":"error","name":"ReentrancyGuardReentrantCall","inputs":[]}],"bytecode":{"object":"0x608060405234801562000010575f80fd5b5060405162004a4938038062004a49833981016040819052620000339162000213565b33806200005957604051631e4fbdf760e01b81525f600482015260240160405180910390fd5b6200006481620001a8565b5060017f9b779b17422d0df92223018b32b4d1fa46e071723d6817e2486d003becc55f0055600180546001600160a01b03199081166001600160a01b03958616178255600280548216948616949094179093556003805490931691909316179055600e6020527fe710864318d4a32f37d6ce54cb3fadbef648dd12d8dbdf53973564d56b7f881c805460ff1990811683179091557fa7c5ba7114a813b50159add3a36832908dc83db71d0b9a24c2ad0f83be95820780548216831790557f9adb202b1492743bc00c81d33cdc6423fa8c79109027eb6a845391e8fc1f048180548216831790557fe0283e559c29e31ee7f56467acc9dd307779c843a883aeeb3bf5c6128c908144805482168317905560065f527f92b4482321f41ce3aa65f798bda23d0d12a60fc5f212868a548ddb00aa49de72805490911690911790556200025a565b5f80546001600160a01b038381166001600160a01b0319831681178455604051919092169283917f8be0079c531659141344cd1fd0a4f28419497f9722a3daafe3b4186f6b6457e09190a35050565b80516001600160a01b03811681146200020e575f80fd5b919050565b5f805f6060848603121562000226575f80fd5b6200023184620001f7565b92506200024160208501620001f7565b91506200025160408501620001f7565b90509250925092565b6147e180620002685f395ff3fe608060405234801561000f575f80fd5b5060043610610281575f3560e01c80637b04c18111610156578063b4ad414d116100ca578063e24e6a8811610084578063e24e6a88146106d4578063eb7696e1146106e7578063ebe4b0bd14610721578063ef22f19b14610734578063f2fde38b14610747578063fdffbb281461075a575f80fd5b8063b4ad414d14610646578063be1c81d814610666578063c6c4896214610688578063d207019314610691578063d5b96c53146106b7578063d99daa32146106c1575f80fd5b8063a716552e1161011b578063a716552e146105a0578063a888c2cd146105ca578063a971f046146105f3578063ab05ac2114610606578063ab2adc0014610619578063b329b6a714610622575f80fd5b80637b04c181146105465780638d26bbe3146105595780638da5cb5b1461057e5780639ca658021461058e5780639f29f13514610598575f80fd5b80633e413bee116101f85780634efa8f17116101b25780634efa8f17146104f457806360584bb1146104fd5780636b4ffd1c14610510578063715018a614610523578063780ce9251461052b57806379ba50eb1461053e575f80fd5b80633e413bee146103cf578063406e02ce146103fa578063432b83361461045a578063438596321461049457806346117830146104c15780634ef33a4c146104d4575f80fd5b806322ffd0aa1161024957806322ffd0aa1461032f5780632b9e018b146103425780633000e8e41461038057806330cd1dc71461039f5780633173cd26146103b2578063389c3788146103bc575f80fd5b806304604970146102855780630e70ef4d1461029a5780630ed6a89c146102b557806311349f7e146102c857806314ef312b1461031c575b5f80fd5b610298610293366004613aea565b61076d565b005b6102a2601e81565b6040519081526020015b60405180910390f35b6102986102c3366004613b10565b610900565b6102fc6102d6366004613b54565b600b6020525f908152604090208054600182015460028301546003909301549192909184565b6040805194855260208501939093529183015260608201526080016102ac565b61029861032a366004613c09565b610c0e565b6102a261033d366004613c3a565b610dbf565b610370610350366004613c09565b8051602081830181018051600c8252928201919093012091525460ff1681565b60405190151581526020016102ac565b6102a261038e366004613b54565b60076020525f908152604090205481565b6102986103ad366004613ca8565b610f00565b6102a26203f48081565b6102986103ca366004613d1d565b610f36565b6001546103e2906001600160a01b031681565b6040516001600160a01b0390911681526020016102ac565b6102fc610408366004613b54565b6001600160a01b03165f908152600b6020908152604091829020825160808101845281548082526001830154938201849052600283015494820185905260039092015460609091018190529093919291565b6102a2610468366004613dc3565b81516020818401810180516006825292820194820194909420919093529091525f908152604090205481565b6103706104a2366004613e04565b600860209081525f928352604080842090915290825290205460ff1681565b6002546103e2906001600160a01b031681565b6104e76104e2366004613c09565b611140565b6040516102ac9190613e25565b6102a260105481565b6102a261050b366004613e71565b6111bb565b61037061051e366004613edf565b611441565b61029861186e565b6102a2610539366004613dc3565b611881565b6102a2604681565b6003546103e2906001600160a01b031681565b61056c610567366004613c09565b6118bf565b6040516102ac96959493929190613ff7565b5f546001600160a01b03166103e2565b6102a2620f424081565b6102a2603281565b6102a26105ae366004613e04565b600960209081525f928352604080842090915290825290205481565b6105dd6105d8366004614034565b611989565b6040516102ac9a9998979695949392919061404b565b6103706106013660046140c2565b611af7565b6102a2610614366004613c09565b611c55565b6102a260115481565b610635610630366004614034565b611c7f565b6040516102ac95949392919061410d565b61065961065436600461414c565b611d41565b6040516102ac9190614174565b610370610674366004613aea565b600e6020525f908152604090205460ff1681565b6102a261012c81565b6106a461069f366004614034565b611df2565b6040516102ac9796959493929190614186565b6102a2620186a081565b6102986106cf3660046141e2565b611fe7565b6102986106e236600461420c565b612016565b61070c6106f5366004613b54565b600d6020525f908152604090205463ffffffff1681565b60405163ffffffff90911681526020016102ac565b61037061072f366004614255565b612128565b61056c610742366004613c09565b612442565b610298610755366004613b54565b6125d2565b610298610768366004614034565b61260c565b610775612d51565b335f90815260076020526040902054806107cc5760405162461bcd60e51b81526020600482015260136024820152724e6f2070656e64696e67206561726e696e677360681b60448201526064015b60405180910390fd5b335f9081526007602052604081205563ffffffff82161580610803575063ffffffff82165f908152600e602052604090205460ff16155b1561089b5760015460405163a9059cbb60e01b8152336004820152602481018390526001600160a01b039091169063a9059cbb906044016020604051808303815f875af1158015610856573d5f803e3d5ffd5b505050506040513d601f19601f8201168201806040525081019061087a91906142cd565b6108965760405162461bcd60e51b81526004016107c3906142e8565b6108a6565b6108a6338284612d6c565b6040805182815263ffffffff8416602082015233917f25efc5c0c3cc95f82501ef610d63c7ec2f42f6195d381055056a48d83d0347c2910160405180910390a2506108fd60015f8051602061478c83398151915255565b50565b610908612d51565b5f828152600560205260409020805461095a5760405162461bcd60e51b815260206004820152601460248201527310db185a5b48191bd95cc81b9bdd08195e1a5cdd60621b60448201526064016107c3565b806005015442106109a45760405162461bcd60e51b8152602060048201526014602482015273159bdd1a5b99c81dda5b991bddc818db1bdcd95960621b60448201526064016107c3565b600881015460ff16156109f25760405162461bcd60e51b815260206004820152601660248201527510db185a5b48185b1c9958591e481c995cdbdb1d995960521b60448201526064016107c3565b5f83815260086020908152604080832033845290915290205460ff1615610a4b5760405162461bcd60e51b815260206004820152600d60248201526c105b1c9958591e481d9bdd1959609a1b60448201526064016107c3565b335f908152600b602090815260409182902082516080810184528154808252600183015493820193909352600282015493810193909352600301546060830152610ad75760405162461bcd60e51b815260206004820152601760248201527f4d7573742068617665207374616b6520746f20766f746500000000000000000060448201526064016107c3565b5f610ae4825f0151612efd565b90505f82604001515f03610af9575080610b3a565b6040830151610b0990606461432a565b6020840151610b18908461432a565b610b2390606461432a565b610b2d9190614341565b9050805f03610b3a575060015b5f86815260086020908152604080832033808552908352818420805460ff191660011790558984526009835281842090845290915290208190558415610b985780846006015f828254610b8d9190614360565b90915550610bb19050565b80846007015f828254610bab9190614360565b90915550505b60408051861515815260208101839052339188917f91c44c66f8cb250ecb2ccab0ada7fa1eb4cfde2f40e15115283451c5fb8ff849910160405180910390a350505050610c0a60015f8051602061478c83398151915255565b5050565b600481604051610c1e9190614373565b9081526020016040518091039020600601545f14610c755760405162461bcd60e51b8152602060048201526014602482015273536b696c6c20616c72656164792065786973747360601b60448201526064016107c3565b6040518060e001604052808281526020015f81526020015f6001600160401b03811115610ca457610ca4613b6d565b604051908082528060200260200182016040528015610ccd578160200160208202803683370190505b5081526020015f81526020015f81526020015f1515815260200142815250600482604051610cfb9190614373565b90815260405190819003602001902081518190610d189082614413565b50602082810151600183015560408301518051610d3b9260028501920190613a5b565b50606082015160038201556080820151600482015560a082015160058201805460ff191691151591909117905560c090910151600690910155604051610d82908290614373565b604051908190038120428252907fa75fcd49c45416b207728221381e28fcf52759c8f360f187f86398fb7be46a9b9060200160405180910390a250565b5f610dc8612d51565b5f600485604051610dd99190614373565b90815260200160405180910390206001015411610e2f5760405162461bcd60e51b815260206004820152601460248201527314dada5b1b08191bd95cc81b9bdd08195e1a5cdd60621b60448201526064016107c3565b5f835111610e735760405162461bcd60e51b8152602060048201526011602482015270115d9a59195b98d9481c995c5d5a5c9959607a1b60448201526064016107c3565b600c84604051610e839190614373565b9081526040519081900360200190205460ff1615610eb35760405162461bcd60e51b81526004016107c3906144ce565b335f818152600d60205260409020805463ffffffff191663ffffffff8516179055610ee19085908590612f5a565b9050610ef960015f8051602061478c83398151915255565b9392505050565b610f0861315d565b600280546001600160a01b039384166001600160a01b03199182161790915560038054929093169116179055565b610f3e612d51565b5f8611610f8d5760405162461bcd60e51b815260206004820152601d60248201527f416d6f756e74206d7573742062652067726561746572207468616e203000000060448201526064016107c3565b5f610f988686613189565b90508163ffffffff16816020015163ffffffff1614610ff15760405162461bcd60e51b81526020600482015260156024820152740a6deeae4c6ca40c6d0c2d2dc40dad2e6dac2e8c6d605b1b60448201526064016107c3565b5f610fff8260e00151613335565b9050878160600151146110465760405162461bcd60e51b815260206004820152600f60248201526e082dadeeadce840dad2e6dac2e8c6d608b1b60448201526064016107c3565b60408101516001600160a01b031630146110725760405162461bcd60e51b81526004016107c390614518565b600354604051630afd9fa560e31b81526001600160a01b03909116906357ecfd28906110a8908a908a908a908a90600401614570565b6020604051808303815f875af11580156110c4573d5f803e3d5ffd5b505050506040513d601f19601f820116820180604052508101906110e891906142cd565b6111045760405162461bcd60e51b81526004016107c390614596565b5f611110826080015190565b905061111e8a828b8761340e565b50505061113760015f8051602061478c83398151915255565b50505050505050565b60606004826040516111529190614373565b90815260408051918290036020908101832060020180548083028501830190935282845291908301828280156111af57602002820191905f5260205f20905b81546001600160a01b03168152600190910190602001808311611191575b50505050509050919050565b5f6111c4612d51565b5f6004896040516111d59190614373565b9081526020016040518091039020600101541161122b5760405162461bcd60e51b815260206004820152601460248201527314dada5b1b08191bd95cc81b9bdd08195e1a5cdd60621b60448201526064016107c3565b5f87511161126f5760405162461bcd60e51b8152602060048201526011602482015270115d9a59195b98d9481c995c5d5a5c9959607a1b60448201526064016107c3565b600c8860405161127f9190614373565b9081526040519081900360200190205460ff16156112af5760405162461bcd60e51b81526004016107c3906144ce565b5f6112ba8787613189565b90505f6112ca8260e00151613335565b9050620f42408160600151101561131a5760405162461bcd60e51b8152602060048201526014602482015273125b9cdd59999a58da595b9d0819195c1bdcda5d60621b60448201526064016107c3565b60408101516001600160a01b031630146113465760405162461bcd60e51b81526004016107c390614518565b600354604051630afd9fa560e31b81526001600160a01b03909116906357ecfd289061137c908b908b908b908b90600401614570565b6020604051808303815f875af1158015611398573d5f803e3d5ffd5b505050506040513d601f19601f820116820180604052508101906113bc91906142cd565b6113d85760405162461bcd60e51b81526004016107c390614596565b5f6113e4826080015190565b6001600160a01b0381165f908152600d60205260409020805463ffffffff191663ffffffff8816179055905061141b8b8b83612f5a565b935050505061143660015f8051602061478c83398151915255565b979650505050505050565b5f61144a612d51565b5f60048a60405161145b9190614373565b908152602001604051809103902060010154116114ad5760405162461bcd60e51b815260206004820152601060248201526f14dada5b1b081b9bdd08189bdb99195960821b60448201526064016107c3565b5f838152600a602052604090206004015460ff16156115055760405162461bcd60e51b815260206004820152601460248201527314185e5b595b9d08185b1c9958591e481d5cd95960621b60448201526064016107c3565b5f6115108989613189565b90508463ffffffff16816020015163ffffffff16146115695760405162461bcd60e51b81526020600482015260156024820152740a6deeae4c6ca40c6d0c2d2dc40dad2e6dac2e8c6d605b1b60448201526064016107c3565b5f6115778260e00151613335565b9050620186a0816060015110156115c75760405162461bcd60e51b8152602060048201526014602482015273125b9cdd59999a58da595b9d081c185e5b595b9d60621b60448201526064016107c3565b60408101516001600160a01b031630146115f35760405162461bcd60e51b81526004016107c390614518565b600354604051630afd9fa560e31b81526001600160a01b03909116906357ecfd2890611629908d908d908d908d90600401614570565b6020604051808303815f875af1158015611645573d5f803e3d5ffd5b505050506040513d601f19601f8201168201806040525081019061166991906142cd565b6116855760405162461bcd60e51b81526004016107c390614596565b5f611691826080015190565b6040805160a0810182526001600160a01b038381168252620186a060208084019182528385018b81524260608601526001608086018190525f8e8152600a90935295909120845181546001600160a01b0319169416939093178355905193820193909355915192935091600282019061170a9082614413565b50606082015160038201556080909101516004909101805460ff19169115159190911790556117388c613748565b60048c6040516117489190614373565b9081526040519081900360200190206003018054905f611767836145c3565b9190505550620186a060048d6040516117809190614373565b90815260200160405180910390206004015f82825461179f9190614360565b92505081905550806001600160a01b0316867fe661dbe641b77326385dc8f9aca97a1cc1f88f5a53d895e793337617827b0a2d620186a0886040516117e59291906145db565b60405180910390a3806001600160a01b03168c6040516118059190614373565b60405190819003812063ffffffff8a168252907f5714a09f05abd036215f876587c6f5aa5543d7c202454d268c3cdcaa6846a7949060200160405180910390a36001935050505061186260015f8051602061478c83398151915255565b98975050505050505050565b61187661315d565b61187f5f613922565b565b5f6006836040516118929190614373565b90815260408051602092819003830190206001600160a01b0385165f908152925290205490505b92915050565b80516020818301810180516004825292820191909301209152805481906118e59061438e565b80601f01602080910402602001604051908101604052809291908181526020018280546119119061438e565b801561195c5780601f106119335761010080835404028352916020019161195c565b820191905f5260205f20905b81548152906001019060200180831161193f57829003601f168201915b505050506001830154600384015460048501546005860154600690960154949592949193509160ff169086565b60056020525f9081526040902080546001820180549192916119aa9061438e565b80601f01602080910402602001604051908101604052809291908181526020018280546119d69061438e565b8015611a215780601f106119f857610100808354040283529160200191611a21565b820191905f5260205f20905b815481529060010190602001808311611a0457829003601f168201915b505050600284015460038501805494956001600160a01b03909216949193509150611a4b9061438e565b80601f0160208091040260200160405190810160405280929190818152602001828054611a779061438e565b8015611ac25780601f10611a9957610100808354040283529160200191611ac2565b820191905f5260205f20905b815481529060010190602001808311611aa557829003601f168201915b505050600484015460058501546006860154600787015460089097015495969295919450925060ff808216916101009004168a565b5f838152600a60209081526040808320815160a08101835281546001600160a01b0316815260018201549381019390935260028101805485949384019190611b3e9061438e565b80601f0160208091040260200160405190810160405280929190818152602001828054611b6a9061438e565b8015611bb55780601f10611b8c57610100808354040283529160200191611bb5565b820191905f5260205f20905b815481529060010190602001808311611b9857829003601f168201915b5050509183525050600382015460208083019190915260049092015460ff1615156040909101528101519091505f03611bf1575f915050610ef9565b8381602001511015611c06575f915050610ef9565b61012c816060015142611c1991906145f3565b1115611c28575f915050610ef9565b828051906020012081604001518051906020012014611c4a575f915050610ef9565b506001949350505050565b5f600482604051611c669190614373565b9081526040519081900360200190206002015492915050565b600a6020525f90815260409020805460018201546002830180546001600160a01b03909316939192611cb09061438e565b80601f0160208091040260200160405190810160405280929190818152602001828054611cdc9061438e565b8015611d275780601f10611cfe57610100808354040283529160200191611d27565b820191905f5260205f20905b815481529060010190602001808311611d0a57829003601f168201915b50505050600383015460049093015491929160ff16905085565b600f602052815f5260405f208181548110611d5a575f80fd5b905f5260205f20015f91509150508054611d739061438e565b80601f0160208091040260200160405190810160405280929190818152602001828054611d9f9061438e565b8015611dea5780601f10611dc157610100808354040283529160200191611dea565b820191905f5260205f20905b815481529060010190602001808311611dcd57829003601f168201915b505050505081565b60605f60605f805f805f60055f8a81526020019081526020015f20604051806101400160405290815f8201548152602001600182018054611e329061438e565b80601f0160208091040260200160405190810160405280929190818152602001828054611e5e9061438e565b8015611ea95780601f10611e8057610100808354040283529160200191611ea9565b820191905f5260205f20905b815481529060010190602001808311611e8c57829003601f168201915b505050918352505060028201546001600160a01b03166020820152600382018054604090920191611ed99061438e565b80601f0160208091040260200160405190810160405280929190818152602001828054611f059061438e565b8015611f505780601f10611f2757610100808354040283529160200191611f50565b820191905f5260205f20905b815481529060010190602001808311611f3357829003601f168201915b50505091835250506004820154602080830191909152600583015460408084019190915260068401546060808501919091526007850154608085015260089094015460ff808216151560a08601526101009182900416151560c0948501529185015190850151938501519285015160e08601519286015161012090960151919f949e50929c50919a50985091965090945092505050565b611fef61315d565b63ffffffff919091165f908152600e60205260409020805460ff1916911515919091179055565b61201e612d51565b5f821161206d5760405162461bcd60e51b815260206004820152601d60248201527f416d6f756e74206d7573742062652067726561746572207468616e203000000060448201526064016107c3565b6001546040516323b872dd60e01b8152336004820152306024820152604481018490526001600160a01b03909116906323b872dd906064016020604051808303815f875af11580156120c1573d5f803e3d5ffd5b505050506040513d601f19601f820116820180604052508101906120e591906142cd565b6121015760405162461bcd60e51b81526004016107c3906142e8565b61210d8333848461340e565b61212360015f8051602061478c83398151915255565b505050565b5f612131612d51565b5f6004866040516121429190614373565b908152602001604051809103902060010154116121945760405162461bcd60e51b815260206004820152601060248201526f14dada5b1b081b9bdd08189bdb99195960821b60448201526064016107c3565b5f838152600a602052604090206004015460ff16156121ec5760405162461bcd60e51b815260206004820152601460248201527314185e5b595b9d08185b1c9958591e481d5cd95960621b60448201526064016107c3565b6001546040516323b872dd60e01b8152336004820152306024820152620186a060448201526001600160a01b03909116906323b872dd906064016020604051808303815f875af1158015612242573d5f803e3d5ffd5b505050506040513d601f19601f8201168201806040525081019061226691906142cd565b6122825760405162461bcd60e51b81526004016107c3906142e8565b6040805160a081018252338152620186a060208083019182528284018681524260608501526001608085018190525f898152600a90935294909120835181546001600160a01b0319166001600160a01b03909116178155915193820193909355915190919060028201906122f69082614413565b50606082015160038201556080909101516004909101805460ff191691151591909117905561232485613748565b6004856040516123349190614373565b9081526040519081900360200190206003018054905f612353836145c3565b9190505550620186a060048660405161236c9190614373565b90815260200160405180910390206004015f82825461238b9190614360565b9091555050604051339084907fe661dbe641b77326385dc8f9aca97a1cc1f88f5a53d895e793337617827b0a2d906123c990620186a09087906145db565b60405180910390a360405133906123e1908790614373565b60405190819003812063ffffffff87168252907f5714a09f05abd036215f876587c6f5aa5543d7c202454d268c3cdcaa6846a7949060200160405180910390a350600161243a60015f8051602061478c83398151915255565b949350505050565b60605f805f805f8060048860405161245a9190614373565b90815260200160405180910390206040518060e00160405290815f820180546124829061438e565b80601f01602080910402602001604051908101604052809291908181526020018280546124ae9061438e565b80156124f95780601f106124d0576101008083540402835291602001916124f9565b820191905f5260205f20905b8154815290600101906020018083116124dc57829003601f168201915b50505050508152602001600182015481526020016002820180548060200260200160405190810160405280929190818152602001828054801561256357602002820191905f5260205f20905b81546001600160a01b03168152600190910190602001808311612545575b5050509183525050600382015460208083019190915260048301546040830152600583015460ff161515606080840191909152600690930154608092830152835190840151928401519184015160a085015160c090950151919d939c50919a5090985091965090945092505050565b6125da61315d565b6001600160a01b03811661260357604051631e4fbdf760e01b81525f60048201526024016107c3565b6108fd81613922565b612614612d51565b5f81815260056020526040902080546126665760405162461bcd60e51b815260206004820152601460248201527310db185a5b48191bd95cc81b9bdd08195e1a5cdd60621b60448201526064016107c3565b80600501544210156126ba5760405162461bcd60e51b815260206004820152601860248201527f566f74696e672077696e646f77207374696c6c206f70656e000000000000000060448201526064016107c3565b600881015460ff16156127025760405162461bcd60e51b815260206004820152601060248201526f105b1c9958591e481c995cdbdb1d995960821b60448201526064016107c3565b60088101805460ff191660019081179091556040515f91600c9161272891850190614606565b908152604051908190036020019020805491151560ff199092169190911790556007810154600682015460088301805492909111610100810261ff00199093169290921790558015612b6c575f806004846001016040516127899190614606565b90815260408051918290036020908101832060020180548083028501830190935282845291908301828280156127e657602002820191905f5260205f20905b81546001600160a01b031681526001909101906020018083116127c8575b505050505090505f5b81518110156129a4575f82828151811061280b5761280b614678565b602002602001015190505f6006876001016040516128299190614606565b90815260408051602092819003830190206001600160a01b0385165f90815292528120549150606461285c60328461432a565b6128669190614341565b9050801561296357806006896001016040516128829190614606565b90815260200160405180910390205f856001600160a01b03166001600160a01b031681526020019081526020015f205f8282546128bf91906145f3565b92505081905550806004896001016040516128da9190614606565b90815260200160405180910390206001015f8282546128f991906145f3565b90915550506001600160a01b0383165f908152600b6020526040812080548392906129259084906145f3565b90915550506001600160a01b0383165f908152600b60205260408120600301805491612950836145c3565b9091555061296090508187614360565b95505b6001600160a01b0383165f908152600b60205260408120600201805491612989836145c3565b9190505550505050808061299c906145c3565b9150506127ef565b505f60646129b384605061432a565b6129bd9190614341565b90505f60646129cd85601461432a565b6129d79190614341565b90505f8660040154836129ea9190614360565b60028801546001600160a01b03165f908152600d602052604090205490915063ffffffff16801580612a31575063ffffffff81165f908152600e602052604090205460ff16155b15612af657600154600289015460405163a9059cbb60e01b81526001600160a01b0391821660048201526024810185905291169063a9059cbb906044016020604051808303815f875af1158015612a8a573d5f803e3d5ffd5b505050506040513d601f19601f82011682018060405250810190612aae91906142cd565b612af15760405162461bcd60e51b8152602060048201526014602482015273159a58dd1a5b481c185e5bdd5d0819985a5b195960621b60448201526064016107c3565b612b0f565b6002880154612b0f906001600160a01b03168383612d6c565b8260115f828254612b209190614360565b90915550506040805160018152602081018890528a917f7a51dac8709dbfecc6d1e5bdc6b7f53122ff868c234b542151b9ad48ca66e379910160405180910390a2505050505050612d39565b816004015460115f828254612b819190614360565b925050819055505f600483600101604051612b9c9190614606565b9081526040805191829003602090810183206002018054808302850183019093528284529190830182828015612bf957602002820191905f5260205f20905b81546001600160a01b03168152600190910190602001808311612bdb575b505050505090505f5b8151811015612cc657600b5f838381518110612c2057612c20614678565b60200260200101516001600160a01b03166001600160a01b031681526020019081526020015f206002015f815480929190612c5a906145c3565b9190505550600b5f838381518110612c7457612c74614678565b60200260200101516001600160a01b03166001600160a01b031681526020019081526020015f206001015f815480929190612cae906145c3565b91905055508080612cbe906145c3565b915050612c02565b505f600484600101604051612cdb9190614606565b9081526040805160209281900383018120600501805460ff1916941515949094179093555f8084529183019190915285917f7a51dac8709dbfecc6d1e5bdc6b7f53122ff868c234b542151b9ad48ca66e379910160405180910390a2505b50506108fd60015f8051602061478c83398151915255565b612d59613971565b60025f8051602061478c83398151915255565b60015460025460405163095ea7b360e01b81526001600160a01b0391821660048201526024810185905291169063095ea7b3906044016020604051808303815f875af1158015612dbe573d5f803e3d5ffd5b505050506040513d601f19601f82011682018060405250810190612de291906142cd565b612e245760405162461bcd60e51b81526020600482015260136024820152721554d110c8185c1c1c9bdd994819985a5b1959606a1b60448201526064016107c3565b6002546001546040516337e9a82760e11b81526004810185905263ffffffff841660248201526001600160a01b0386811660448301529182166064820152911690636fd3504e906084016020604051808303815f875af1158015612e8a573d5f803e3d5ffd5b505050506040513d601f19601f82011682018060405250810190612eae919061468c565b506040805183815263ffffffff831660208201526001600160a01b038516917f27f5ddb693d447dd3fc95c75c4bb95a6a297722252f7e1d35aabc2de878ab9fb910160405180910390a2505050565b5f815f03612f0c57505f919050565b5f6002612f1a846001614360565b612f249190614341565b9050825b80821015610ef9575080600281612f3f8187614341565b612f499190614360565b612f539190614341565b9150612f28565b601080545f9182612f6a836145c3565b91905055505f6010549050604051806101400160405280828152602001868152602001846001600160a01b03168152602001858152602001620f424081526020016203f48042612fba9190614360565b81525f602080830182905260408084018390526060840183905260809093018290528482526005815291902082518155908201516001820190612ffd9082614413565b5060408201516002820180546001600160a01b0319166001600160a01b03909216919091179055606082015160038201906130389082614413565b50608082015160048281019190915560a0830151600583015560c0830151600683015560e0830151600783015561010080840151600890930180546101209095015161ffff1990951693151561ff0019169390931793151502929092179055604051600191906130a9908890614373565b908152604051908190036020018120600501805492151560ff1990931692909217909155600190600c906130de908890614373565b908152604051908190036020018120805492151560ff19909316929092179091556001600160a01b03841690613115908790614373565b6040518091039020827ff62877c03d51912b172b7ca79242aa0a05f54383da328df2a0e25418ff20deae8760405161314d9190614174565b60405180910390a4949350505050565b5f546001600160a01b0316331461187f5760405163118cdaa760e01b81523360048201526024016107c3565b60408051610100810182525f8082526020820181905291810182905260608082018390526080820183905260a0820183905260c082019290925260e081019190915260748210156132105760405162461bcd60e51b815260206004820152601160248201527013595cdcd859d9481d1bdbc81cda1bdc9d607a1b60448201526064016107c3565b6040805161010081019091528061322a60045f86886146b2565b613233916146d9565b60e01c81526020016132496008600486886146b2565b613252916146d9565b60e01c8152602001613268600c600886886146b2565b613271916146d9565b60e01c81526020016132876014600c86886146b2565b61329091614709565b60c01c81526020016132a66034601486886146b2565b6132af91614737565b81526020016132c26054603486886146b2565b6132cb91614737565b81526020016132de6074605486886146b2565b6132e791614737565b81526020016132f984607481886146b2565b8080601f0160208091040260200160405190810160405280939291908181526020018383808284375f9201919091525050509152509392505050565b6040805160a0810182525f808252602082018190529181018290526060810182905260808101919091526084825110156133aa5760405162461bcd60e51b8152602060048201526016602482015275109d5c9b881b595cdcd859d9481d1bdbc81cda1bdc9d60521b60448201526064016107c3565b60248201516044830151606484015160848501516040805160a08101909152806133d6885f60046139a0565b6133df90614754565b60e01c63ffffffff16815260200185815260200184815260200183815260200182815250945050505050919050565b60048460405161341e9190614373565b9081526020016040518091039020600601545f0361357e576040518060e001604052808581526020015f81526020015f6001600160401b0381111561346557613465613b6d565b60405190808252806020026020018201604052801561348e578160200160208202803683370190505b5081526020015f81526020015f81526020015f15158152602001428152506004856040516134bc9190614373565b908152604051908190036020019020815181906134d99082614413565b506020828101516001830155604083015180516134fc9260028501920190613a5b565b50606082015160038201556080820151600482015560a082015160058201805460ff191691151591909117905560c090910151600690910155604051613543908590614373565b604051908190038120428252907fa75fcd49c45416b207728221381e28fcf52759c8f360f187f86398fb7be46a9b9060200160405180910390a25b60068460405161358e9190614373565b90815260408051602092819003830190206001600160a01b0386165f9081529252812054900361362e576004846040516135c89190614373565b90815260408051602092819003830190206002018054600180820183555f92835284832090910180546001600160a01b0319166001600160a01b0389169081179091558252600f8452918120805492830181558152919091200161362c8582614413565b505b8160068560405161363f9190614373565b90815260200160405180910390205f856001600160a01b03166001600160a01b031681526020019081526020015f205f82825461367c9190614360565b92505081905550816004856040516136949190614373565b90815260200160405180910390206001015f8282546136b39190614360565b90915550506001600160a01b0383165f908152600b6020526040812080548492906136df908490614360565b90915550506040516001600160a01b038416906136fd908690614373565b6040805191829003822085835263ffffffff85166020840152917f470e520eef9969da9fad5b4cac7e625b28a1ef7415d982ab7423e0b2a82cbab2910160405180910390a350505050565b5f60646137596046620186a061432a565b6137639190614341565b90505f6064613776601e620186a061432a565b6137809190614341565b90505f6004846040516137939190614373565b90815260408051918290036020908101832060020180548083028501830190935282845291908301828280156137f057602002820191905f5260205f20905b81546001600160a01b031681526001909101906020018083116137d2575b505050505090505f6004856040516138089190614373565b90815260200160405180910390206001015490505f5b8251811015613904575f6006876040516138389190614373565b90815260200160405180910390205f85848151811061385957613859614678565b60200260200101516001600160a01b03166001600160a01b031681526020019081526020015f205490505f838288613891919061432a565b61389b9190614341565b90508060075f8786815181106138b3576138b3614678565b60200260200101516001600160a01b03166001600160a01b031681526020019081526020015f205f8282546138e89190614360565b92505081905550505080806138fc906145c3565b91505061381e565b508260115f8282546139169190614360565b90915550505050505050565b5f80546001600160a01b038381166001600160a01b0319831681178455604051919092169283917f8be0079c531659141344cd1fd0a4f28419497f9722a3daafe3b4186f6b6457e09190a35050565b5f8051602061478c8339815191525460020361187f57604051633ee5aeb560e01b815260040160405180910390fd5b60605f826001600160401b038111156139bb576139bb613b6d565b6040519080825280601f01601f1916602001820160405280156139e5576020820181803683370190505b5090505f5b83811015613a5257856139fd8287614360565b81518110613a0d57613a0d614678565b602001015160f81c60f81b828281518110613a2a57613a2a614678565b60200101906001600160f81b03191690815f1a90535080613a4a816145c3565b9150506139ea565b50949350505050565b828054828255905f5260205f20908101928215613aae579160200282015b82811115613aae57825182546001600160a01b0319166001600160a01b03909116178255602090920191600190910190613a79565b50613aba929150613abe565b5090565b5b80821115613aba575f8155600101613abf565b803563ffffffff81168114613ae5575f80fd5b919050565b5f60208284031215613afa575f80fd5b610ef982613ad2565b80151581146108fd575f80fd5b5f8060408385031215613b21575f80fd5b823591506020830135613b3381613b03565b809150509250929050565b80356001600160a01b0381168114613ae5575f80fd5b5f60208284031215613b64575f80fd5b610ef982613b3e565b634e487b7160e01b5f52604160045260245ffd5b5f82601f830112613b90575f80fd5b81356001600160401b0380821115613baa57613baa613b6d565b604051601f8301601f19908116603f01168101908282118183101715613bd257613bd2613b6d565b81604052838152866020858801011115613bea575f80fd5b836020870160208301375f602085830101528094505050505092915050565b5f60208284031215613c19575f80fd5b81356001600160401b03811115613c2e575f80fd5b61243a84828501613b81565b5f805f60608486031215613c4c575f80fd5b83356001600160401b0380821115613c62575f80fd5b613c6e87838801613b81565b94506020860135915080821115613c83575f80fd5b50613c9086828701613b81565b925050613c9f60408501613ad2565b90509250925092565b5f8060408385031215613cb9575f80fd5b613cc283613b3e565b9150613cd060208401613b3e565b90509250929050565b5f8083601f840112613ce9575f80fd5b5081356001600160401b03811115613cff575f80fd5b602083019150836020828501011115613d16575f80fd5b9250929050565b5f805f805f805f60a0888a031215613d33575f80fd5b87356001600160401b0380821115613d49575f80fd5b613d558b838c01613b81565b985060208a0135975060408a0135915080821115613d71575f80fd5b613d7d8b838c01613cd9565b909750955060608a0135915080821115613d95575f80fd5b50613da28a828b01613cd9565b9094509250613db5905060808901613ad2565b905092959891949750929550565b5f8060408385031215613dd4575f80fd5b82356001600160401b03811115613de9575f80fd5b613df585828601613b81565b925050613cd060208401613b3e565b5f8060408385031215613e15575f80fd5b82359150613cd060208401613b3e565b602080825282518282018190525f9190848201906040850190845b81811015613e655783516001600160a01b031683529284019291840191600101613e40565b50909695505050505050565b5f805f805f805f60a0888a031215613e87575f80fd5b87356001600160401b0380821115613e9d575f80fd5b613ea98b838c01613b81565b985060208a0135915080821115613ebe575f80fd5b613eca8b838c01613b81565b975060408a0135915080821115613d71575f80fd5b5f805f805f805f8060c0898b031215613ef6575f80fd5b88356001600160401b0380821115613f0c575f80fd5b613f188c838d01613b81565b995060208b0135915080821115613f2d575f80fd5b613f398c838d01613cd9565b909950975060408b0135915080821115613f51575f80fd5b613f5d8c838d01613cd9565b9097509550859150613f7160608c01613ad2565b945060808b0135935060a08b0135915080821115613f8d575f80fd5b50613f9a8b828c01613b81565b9150509295985092959890939650565b5f5b83811015613fc4578181015183820152602001613fac565b50505f910152565b5f8151808452613fe3816020860160208601613faa565b601f01601f19169290920160200192915050565b60c081525f61400960c0830189613fcc565b602083019790975250604081019490945260608401929092521515608083015260a090910152919050565b5f60208284031215614044575f80fd5b5035919050565b5f6101408c83528060208401526140648184018d613fcc565b6001600160a01b038c16604085015283810360608501529050614087818b613fcc565b6080840199909952505060a081019590955260c085019390935260e08401919091521515610100830152151561012090910152949350505050565b5f805f606084860312156140d4575f80fd5b833592506020840135915060408401356001600160401b038111156140f7575f80fd5b61410386828701613b81565b9150509250925092565b60018060a01b038616815284602082015260a060408201525f61413360a0830186613fcc565b6060830194909452509015156080909101529392505050565b5f806040838503121561415d575f80fd5b61416683613b3e565b946020939093013593505050565b602081525f610ef96020830184613fcc565b60e081525f61419860e083018a613fcc565b6001600160a01b038916602084015282810360408401526141b98189613fcc565b60608401979097525050608081019390935290151560a0830152151560c0909101529392505050565b5f80604083850312156141f3575f80fd5b6141fc83613ad2565b91506020830135613b3381613b03565b5f805f6060848603121561421e575f80fd5b83356001600160401b03811115614233575f80fd5b61423f86828701613b81565b93505060208401359150613c9f60408501613ad2565b5f805f8060808587031215614268575f80fd5b84356001600160401b038082111561427e575f80fd5b61428a88838901613b81565b955061429860208801613ad2565b94506040870135935060608701359150808211156142b4575f80fd5b506142c187828801613b81565b91505092959194509250565b5f602082840312156142dd575f80fd5b8151610ef981613b03565b6020808252601490820152731554d110c81d1c985b9cd9995c8819985a5b195960621b604082015260600190565b634e487b7160e01b5f52601160045260245ffd5b80820281158282048414176118b9576118b9614316565b5f8261435b57634e487b7160e01b5f52601260045260245ffd5b500490565b808201808211156118b9576118b9614316565b5f8251614384818460208701613faa565b9190910192915050565b600181811c908216806143a257607f821691505b6020821081036143c057634e487b7160e01b5f52602260045260245ffd5b50919050565b601f821115612123575f81815260208120601f850160051c810160208610156143ec5750805b601f850160051c820191505b8181101561440b578281556001016143f8565b505050505050565b81516001600160401b0381111561442c5761442c613b6d565b6144408161443a845461438e565b846143c6565b602080601f831160018114614473575f841561445c5750858301515b5f19600386901b1c1916600185901b17855561440b565b5f85815260208120601f198616915b828110156144a157888601518255948401946001909101908401614482565b50858210156144be57878501515f19600388901b60f8161c191681555b5050505050600190811b01905550565b6020808252602a908201527f41637469766520636c61696d20616c72656164792065786973747320666f72206040820152691d1a1a5cc81cdada5b1b60b21b606082015260800190565b602080825260169082015275125b9d985b1a59081b5a5b9d081c9958da5c1a595b9d60521b604082015260600190565b81835281816020850137505f828201602090810191909152601f909101601f19169091010190565b604081525f614583604083018688614548565b8281036020840152611436818587614548565b60208082526013908201527210d0d514081c9958d95a5d994819985a5b1959606a1b604082015260600190565b5f600182016145d4576145d4614316565b5060010190565b828152604060208201525f61243a6040830184613fcc565b818103818111156118b9576118b9614316565b5f8083546146138161438e565b6001828116801561462b57600181146146405761466c565b60ff198416875282151583028701945061466c565b875f526020805f205f5b858110156146635781548a82015290840190820161464a565b50505082870194505b50929695505050505050565b634e487b7160e01b5f52603260045260245ffd5b5f6020828403121561469c575f80fd5b81516001600160401b0381168114610ef9575f80fd5b5f80858511156146c0575f80fd5b838611156146cc575f80fd5b5050820193919092039150565b6001600160e01b031981358181169160048510156147015780818660040360031b1b83161692505b505092915050565b6001600160c01b031981358181169160088510156147015760089490940360031b84901b1690921692915050565b803560208310156118b9575f19602084900360031b1b1692915050565b805160208201516001600160e01b031980821692919060048310156147835780818460040360031b1b83161693505b50505091905056fe9b779b17422d0df92223018b32b4d1fa46e071723d6817e2486d003becc55f00a2646970667358221220b8185560bdc1803bf83a64156c97665356c60fe04236bb290b2f0082efc2a22964736f6c63430008140033","linkReferences":{}},"methodIdentifiers":{"AUDITOR_FEE_SHARE()":"79ba50eb","CLAIM_DEPOSIT()":"9ca65802","INSURANCE_FEE_SHARE()":"0e70ef4d","PAYMENT_WINDOW()":"c6c48962","SLASH_PERCENTAGE()":"9f29f135","USAGE_FEE()":"d5b96c53","VOTING_WINDOW()":"3173cd26","auditorReputations(address)":"11349f7e","auditorSkills(address,uint256)":"b4ad414d","auditorStakes(string,address)":"432b8336","authorizeUsage(string,uint32,bytes32,string)":"ebe4b0bd","authorizeUsageCCTP(string,bytes,bytes,uint32,bytes32,string)":"6b4ffd1c","bondSkill(string,uint256,uint32)":"e24e6a88","bondSkillCCTP(string,uint256,bytes,bytes,uint32)":"389c3788","claimCounter()":"4efa8f17","claimEarnings(uint32)":"04604970","claims(uint256)":"a888c2cd","createSkill(string)":"14ef312b","getAuditorReputation(address)":"406e02ce","getAuditorStake(string,address)":"780ce925","getClaimInfo(uint256)":"d2070193","getSkillAuditorCount(string)":"ab05ac21","getSkillAuditors(string)":"4ef33a4c","getSkillInfo(string)":"ef22f19b","hasActiveClaim(string)":"2b9e018b","hasVoted(uint256,address)":"43859632","insurancePool()":"ab2adc00","messageTransmitter()":"7b04c181","owner()":"8da5cb5b","paymentRecords(bytes32)":"b329b6a7","pendingEarnings(address)":"3000e8e4","preferredDestinationChain(address)":"eb7696e1","renounceOwnership()":"715018a6","resolveClaim(uint256)":"fdffbb28","setSupportedDomain(uint32,bool)":"d99daa32","skills(string)":"8d26bbe3","submitClaim(string,string,uint32)":"22ffd0aa","submitClaimCCTP(string,string,bytes,bytes,uint32)":"60584bb1","supportedDomains(uint32)":"be1c81d8","tokenMessenger()":"46117830","transferOwnership(address)":"f2fde38b","updateCCTPAddresses(address,address)":"30cd1dc7","usdc()":"3e413bee","voteOnClaim(uint256,bool)":"0ed6a89c","voteWeights(uint256,address)":"a716552e","wasPaymentReceived(bytes32,uint256,string)":"a971f046"},"id":27}