{"contracts/YieldVault.sol":{"YieldVault":{"abi":[{"inputs":[{"internalType":"string","name":"_vaultId","type":"string"},{"internalType":"address","name":"_underlying","type":"address"}],"stateMutability":"nonpayable","type":"constructor"},{"anonymous":false,"inputs":[{"indexed":true,"internalType":"string","name":"vaultId","type":"string"},{"indexed":false,"internalType":"string","name":"action","type":"string"},{"indexed":true,"internalType":"address","name":"user","type":"address"},{"indexed":true,"internalType":"uint256","name":"amount","type":"uint256"},{"indexed":false,"internalType":"bool","name":"success","type":"bool"},{"indexed":false,"internalType":"string","name":"message","type":"string"}],"name":"ActionExecuted","type":"event"},{"anonymous":false,"inputs":[{"indexed":false,"internalType":"uint256","name":"yield","type":"uint256"},{"indexed":false,"internalType":"uint256","name":"newShares","type":"uint256"}],"name":"Compound","type":"event"},{"anonymous":false,"inputs":[{"indexed":true,"internalType":"address","name":"user","type":"address"},{"indexed":false,"internalType":"uint256","name":"amount","type":"uint256"},{"indexed":false,"internalType":"uint256","name":"shares","type":"uint256"}],"name":"Deposit","type":"event"},{"anonymous":false,"inputs":[{"indexed":true,"internalType":"string","name":"vaultId","type":"string"},{"indexed":false,"internalType":"string","name":"action","type":"string"},{"indexed":true,"internalType":"address","name":"user","type":"address"},{"indexed":false,"internalType":"uint256","name":"amount","type":"uint256"},{"indexed":false,"internalType":"uint256","name":"shares","type":"uint256"},{"indexed":false,"internalType":"uint256","name":"timestamp","type":"uint256"}],"name":"ExecutionRecorded","type":"event"},{"anonymous":false,"inputs":[{"indexed":false,"internalType":"uint256","name":"amount","type":"uint256"}],"name":"FeeDeducted","type":"event"},{"anonymous":false,"inputs":[{"indexed":true,"internalType":"address","name":"user","type":"address"},{"indexed":false,"internalType":"uint256","name":"yieldAmount","type":"uint256"}],"name":"Harvest","type":"event"},{"anonymous":false,"inputs":[{"indexed":true,"internalType":"address","name":"user","type":"address"},{"indexed":false,"internalType":"uint256","name":"shares","type":"uint256"},{"indexed":false,"internalType":"uint256","name":"amount","type":"uint256"}],"name":"Withdraw","type":"event"},{"inputs":[],"name":"FEE_PRECISION","outputs":[{"internalType":"uint256","name":"","type":"uint256"}],"stateMutability":"view","type":"function"},{"inputs":[],"name":"accumulatedYield","outputs":[{"internalType":"uint256","name":"","type":"uint256"}],"stateMutability":"view","type":"function"},{"inputs":[{"internalType":"uint256","name":"shares","type":"uint256"}],"name":"calculateAssetsFromShares","outputs":[{"internalType":"uint256","name":"","type":"uint256"}],"stateMutability":"view","type":"function"},{"inputs":[{"internalType":"uint256","name":"assets","type":"uint256"}],"name":"calculateSharesFromAssets","outputs":[{"internalType":"uint256","name":"","type":"uint256"}],"stateMutability":"view","type":"function"},{"inputs":[{"internalType":"address","name":"user","type":"address"}],"name":"calculateUserYield","outputs":[{"internalType":"uint256","name":"","type":"uint256"}],"stateMutability":"view","type":"function"},{"inputs":[],"name":"compound","outputs":[{"internalType":"uint256","name":"newShares","type":"uint256"}],"stateMutability":"nonpayable","type":"function"},{"inputs":[{"internalType":"uint256","name":"amount","type":"uint256"}],"name":"deposit","outputs":[{"internalType":"uint256","name":"sharesIssued","type":"uint256"}],"stateMutability":"nonpayable","type":"function"},{"inputs":[],"name":"feePercentage","outputs":[{"internalType":"uint256","name":"","type":"uint256"}],"stateMutability":"view","type":"function"},{"inputs":[{"internalType":"address","name":"user","type":"address"}],"name":"getShareBalance","outputs":[{"internalType":"uint256","name":"","type":"uint256"}],"stateMutability":"view","type":"function"},{"inputs":[],"name":"getTotalAssets","outputs":[{"internalType":"uint256","name":"","type":"uint256"}],"stateMutability":"view","type":"function"},{"inputs":[],"name":"getTotalShares","outputs":[{"internalType":"uint256","name":"","type":"uint256"}],"stateMutability":"view","type":"function"},{"inputs":[],"name":"getVaultInfo","outputs":[{"internalType":"string","name":"id","type":"string"},{"internalType":"address","name":"tokenAddress","type":"address"},{"internalType":"uint256","name":"total","type":"uint256"},{"internalType":"uint256","name":"shares","type":"uint256"}],"stateMutability":"view","type":"function"},{"inputs":[],"name":"harvest","outputs":[{"internalType":"uint256","name":"yieldAmount","type":"uint256"}],"stateMutability":"nonpayable","type":"function"},{"inputs":[{"internalType":"address","name":"","type":"address"}],"name":"lastDepositBlock","outputs":[{"internalType":"uint256","name":"","type":"uint256"}],"stateMutability":"view","type":"function"},{"inputs":[],"name":"owner","outputs":[{"internalType":"address","name":"","type":"address"}],"stateMutability":"view","type":"function"},{"inputs":[],"name":"pause","outputs":[],"stateMutability":"nonpayable","type":"function"},{"inputs":[],"name":"paused","outputs":[{"internalType":"bool","name":"","type":"bool"}],"stateMutability":"view","type":"function"},{"inputs":[{"internalType":"uint256","name":"newFee","type":"uint256"}],"name":"setFeePercentage","outputs":[],"stateMutability":"nonpayable","type":"function"},{"inputs":[{"internalType":"address","name":"","type":"address"}],"name":"shareBalance","outputs":[{"internalType":"uint256","name":"","type":"uint256"}],"stateMutability":"view","type":"function"},{"inputs":[],"name":"totalAssets","outputs":[{"internalType":"uint256","name":"","type":"uint256"}],"stateMutability":"view","type":"function"},{"inputs":[],"name":"totalShares","outputs":[{"internalType":"uint256","name":"","type":"uint256"}],"stateMutability":"view","type":"function"},{"inputs":[{"internalType":"address","name":"newOwner","type":"address"}],"name":"transferOwnership","outputs":[],"stateMutability":"nonpayable","type":"function"},{"inputs":[],"name":"underlying","outputs":[{"internalType":"address","name":"","type":"address"}],"stateMutability":"view","type":"function"},{"inputs":[],"name":"unpause","outputs":[],"stateMutability":"nonpayable","type":"function"},{"inputs":[],"name":"vaultId","outputs":[{"internalType":"string","name":"","type":"string"}],"stateMutability":"view","type":"function"},{"inputs":[{"internalType":"uint256","name":"shares","type":"uint256"}],"name":"withdraw","outputs":[{"internalType":"uint256","name":"amountRedeemed","type":"uint256"}],"stateMutability":"nonpayable","type":"function"}],"evm":{"bytecode":{"linkReferences":{},"object":"60806040526101f46008553480156200001757600080fd5b5060405162001a7138038062001a718339810160408190526200003a916200015f565b6000825111620000855760405162461bcd60e51b815260206004820152601160248201527015985d5b1d081251081c995c5d5a5c9959607a1b60448201526064015b60405180910390fd5b6001600160a01b038116620000dd5760405162461bcd60e51b815260206004820152601860248201527f496e76616c696420756e6465726c79696e6720746f6b656e000000000000000060448201526064016200007c565b6000620000eb8382620002d8565b50600180546001600160a01b0319166001600160a01b039290921691909117905550600580546001600160a81b0319163360ff60a01b1916179055620003a4565b634e487b7160e01b600052604160045260246000fd5b80516001600160a01b03811681146200015a57600080fd5b919050565b600080604083850312156200017357600080fd5b82516001600160401b03808211156200018b57600080fd5b818501915085601f830112620001a057600080fd5b815181811115620001b557620001b56200012c565b604051601f8201601f19908116603f01168101908382118183101715620001e057620001e06200012c565b81604052828152602093508884848701011115620001fd57600080fd5b600091505b8282101562000221578482018401518183018501529083019062000202565b60008484830101528096505050506200023c81860162000142565b925050509250929050565b600181811c908216806200025c57607f821691505b6020821081036200027d57634e487b7160e01b600052602260045260246000fd5b50919050565b601f821115620002d3576000816000526020600020601f850160051c81016020861015620002ae5750805b601f850160051c820191505b81811015620002cf57828155600101620002ba565b5050505b505050565b81516001600160401b03811115620002f457620002f46200012c565b6200030c8162000305845462000247565b8462000283565b602080601f8311600181146200034457600084156200032b5750858301515b600019600386901b1c1916600185901b178555620002cf565b600085815260208120601f198616915b82811015620003755788860151825594840194600190910190840162000354565b5085821015620003945787850151600019600388901b60f8161c191681555b5050505050600190811b01905550565b6116bd80620003b46000396000f3fe608060405234801561001057600080fd5b506004361061018e5760003560e01c80637f98aa71116100de578063ae06c1b711610097578063e63a391f11610071578063e63a391f14610355578063f2fde38b1461035e578063f69e204614610371578063fcdfd5c51461037957600080fd5b8063ae06c1b714610327578063b6b55f251461033a578063d5002f2e1461034d57600080fd5b80637f98aa71146102ab5780638456cb59146102c357806387793ba3146102cb5780638da5cb5b146102eb5780639ce1024b146102fe578063a001ecdd1461031e57600080fd5b80633f4ba83a1161014b5780635c975abb116101255780635c975abb146102415780636e07302b146102655780636f307dc31461026d5780636f7c99d21461029857600080fd5b80633f4ba83a1461021c5780634641257d146102265780635a13a98f1461022e57600080fd5b806301e1d1141461019357806311437941146101af57806327972e0c146101d85780632e1a7d4d146101eb57806333194c0a146101fe5780633a98ef3914610213575b600080fd5b61019c60035481565b6040519081526020015b60405180910390f35b61019c6101bd36600461117d565b6001600160a01b031660009081526006602052604090205490565b61019c6101e63660046111a6565b610382565b61019c6101f93660046111a6565b6103be565b610206610729565b6040516101a69190611205565b61019c60025481565b6102246107b7565b005b61019c6107f0565b61019c61023c3660046111a6565b610a53565b60055461025590600160a01b900460ff1681565b60405190151581526020016101a6565b60035461019c565b600154610280906001600160a01b031681565b6040516001600160a01b0390911681526020016101a6565b61019c6102a636600461117d565b610a77565b6102b3610ae2565b6040516101a69493929190611218565b610224610ba0565b61019c6102d936600461117d565b60066020526000908152604090205481565b600554610280906001600160a01b031681565b61019c61030c36600461117d565b60076020526000908152604090205481565b61019c60085481565b6102246103353660046111a6565b610bdf565b61019c6103483660046111a6565b610c59565b60025461019c565b61019c61271081565b61022461036c36600461117d565b610ed0565b61019c610f64565b61019c60045481565b6000600354600014806103955750600254155b1561039e575090565b6003546002546103ae9084611266565b6103b8919061127d565b92915050565b600554600090600160a01b900460ff16156103f45760405162461bcd60e51b81526004016103eb9061129f565b60405180910390fd5b81600081116104455760405162461bcd60e51b815260206004820152601d60248201527f416d6f756e74206d7573742062652067726561746572207468616e203000000060448201526064016103eb565b3360009081526006602052604090205483111561049a5760405162461bcd60e51b8152602060048201526013602482015272496e73756666696369656e742073686172657360681b60448201526064016103eb565b6104a383610a53565b9150600082116104ee5760405162461bcd60e51b815260206004820152601660248201527505769746864726177616c20616d6f756e7420697320360541b60448201526064016103eb565b6000612710600854846105019190611266565b61050b919061127d565b9050600061051982856112c8565b3360009081526006602052604081208054929350879290919061053d9084906112c8565b92505081905550846002600082825461055691906112c8565b92505081905550836003600082825461056f91906112c8565b909155505060015460405163a9059cbb60e01b8152336004820152602481018390526001600160a01b039091169063a9059cbb906044016020604051808303816000875af11580156105c5573d6000803e3d6000fd5b505050506040513d601f19601f820116820180604052508101906105e991906112db565b6106275760405162461bcd60e51b815260206004820152600f60248201526e151c985b9cd9995c8819985a5b1959608a1b60448201526064016103eb565b604080518681526020810183905233917ff279e6a1f5e320cca91135676d9cb6e44ca8a08c0b88342bcdb1144f6511b568910160405180910390a26040518281527fb9fd9b3ae5df7ee5d3c3a24f8dff20944fdc1eaa93985eb52486cfbd748706889060200160405180910390a160405133906106a690600090611331565b60405180910390206000805160206116688339815191528388426040516106cf939291906113d2565b60405180910390a380336001600160a01b031660006040516106f19190611331565b604051809103902060008051602061164883398151915260016040516107179190611414565b60405180910390a49250505b50919050565b60008054610736906112fd565b80601f0160208091040260200160405190810160405280929190818152602001828054610762906112fd565b80156107af5780601f10610784576101008083540402835291602001916107af565b820191906000526020600020905b81548152906001019060200180831161079257829003601f168201915b505050505081565b6005546001600160a01b031633146107e15760405162461bcd60e51b81526004016103eb90611477565b6005805460ff60a01b19169055565b600554600090600160a01b900460ff161561081d5760405162461bcd60e51b81526004016103eb9061129f565b336000908152600660205260409020546108705760405162461bcd60e51b8152602060048201526014602482015273139bc81cda185c995cc81d1bc81a185c9d995cdd60621b60448201526064016103eb565b61087933610a77565b9050600081116108c05760405162461bcd60e51b81526020600482015260126024820152714e6f207969656c6420617661696c61626c6560701b60448201526064016103eb565b60015460405163a9059cbb60e01b8152336004820152602481018390526001600160a01b039091169063a9059cbb906044016020604051808303816000875af1158015610911573d6000803e3d6000fd5b505050506040513d601f19601f8201168201806040525081019061093591906112db565b6109795760405162461bcd60e51b8152602060048201526015602482015274165a595b19081d1c985b9cd9995c8819985a5b1959605a1b60448201526064016103eb565b806004600082825461098b919061149f565b909155505060405181815233907fc9695243a805adb74c91f28311176c65b417e842d5699893cef56d18bfa48cba9060200160405180910390a260405133906109d690600090611331565b604051809103902060008051602061166883398151915283600042604051610a00939291906114b2565b60405180910390a380336001600160a01b03166000604051610a229190611331565b60405180910390206000805160206116488339815191526001604051610a4891906114d9565b60405180910390a490565b6000600254600003610a6757506000919050565b6002546003546103ae9084611266565b6001600160a01b0381166000908152600660205260408120548103610a9e57506000919050565b6001600160a01b038216600090815260066020526040812054610ac090610a53565b9050620186a0610ad182601b611266565b610adb919061127d565b9392505050565b6060600080600080600160009054906101000a90046001600160a01b0316600354600254838054610b12906112fd565b80601f0160208091040260200160405190810160405280929190818152602001828054610b3e906112fd565b8015610b8b5780601f10610b6057610100808354040283529160200191610b8b565b820191906000526020600020905b815481529060010190602001808311610b6e57829003601f168201915b50505050509350935093509350935090919293565b6005546001600160a01b03163314610bca5760405162461bcd60e51b81526004016103eb90611477565b6005805460ff60a01b1916600160a01b179055565b6005546001600160a01b03163314610c095760405162461bcd60e51b81526004016103eb90611477565b6103e8811115610c545760405162461bcd60e51b815260206004820152601660248201527546656520746f6f206869676820286d6178203130252960501b60448201526064016103eb565b600855565b600554600090600160a01b900460ff1615610c865760405162461bcd60e51b81526004016103eb9061129f565b8160008111610cd75760405162461bcd60e51b815260206004820152601d60248201527f416d6f756e74206d7573742062652067726561746572207468616e203000000060448201526064016103eb565b6001546040516323b872dd60e01b8152336004820152306024820152604481018590526001600160a01b03909116906323b872dd906064016020604051808303816000875af1158015610d2e573d6000803e3d6000fd5b505050506040513d601f19601f82011682018060405250810190610d5291906112db565b610d905760405162461bcd60e51b815260206004820152600f60248201526e151c985b9cd9995c8819985a5b1959608a1b60448201526064016103eb565b610d9983610382565b33600090815260066020526040812080549294508492909190610dbd90849061149f565b925050819055508160026000828254610dd6919061149f565b925050819055508260036000828254610def919061149f565b90915550503360008181526007602090815260409182902043905581518681529081018590527f90890809c654f11d6e72a28fa60149770a0d11ec6c92319d6ceb2bb0a4ea1a15910160405180910390a26040513390610e5190600090611331565b6040518091039020600080516020611668833981519152858542604051610e7a93929190611538565b60405180910390a382336001600160a01b03166000604051610e9c9190611331565b60405180910390206000805160206116488339815191526001604051610ec2919061155f565b60405180910390a450919050565b6005546001600160a01b03163314610efa5760405162461bcd60e51b81526004016103eb90611477565b6001600160a01b038116610f425760405162461bcd60e51b815260206004820152600f60248201526e496e76616c6964206164647265737360881b60448201526064016103eb565b600580546001600160a01b0319166001600160a01b0392909216919091179055565b600554600090600160a01b900460ff1615610f915760405162461bcd60e51b81526004016103eb9061129f565b33600090815260066020526040902054610fe55760405162461bcd60e51b8152602060048201526015602482015274139bc81cda185c995cc81d1bc818dbdb5c1bdd5b99605a1b60448201526064016103eb565b6000610ff033610a77565b9050600081116110395760405162461bcd60e51b8152602060048201526014602482015273139bc81e5a595b19081d1bc818dbdb5c1bdd5b9960621b60448201526064016103eb565b61104281610382565b3360009081526006602052604081208054929450849290919061106690849061149f565b92505081905550816002600082825461107f919061149f565b925050819055508060036000828254611098919061149f565b9250508190555080600460008282546110b1919061149f565b909155505060408051828152602081018490527fe3c48e43a3cc80f4a0c194845bdd6091fa19b9bb7d22e515c21e9f177e2e22ae910160405180910390a1604051339061110090600090611331565b6040518091039020600080516020611668833981519152838542604051611129939291906115be565b60405180910390a380336001600160a01b0316600060405161114b9190611331565b6040518091039020600080516020611648833981519152600160405161117191906115e6565b60405180910390a45090565b60006020828403121561118f57600080fd5b81356001600160a01b0381168114610adb57600080fd5b6000602082840312156111b857600080fd5b5035919050565b6000815180845260005b818110156111e5576020818501810151868301820152016111c9565b506000602082860101526020601f19601f83011685010191505092915050565b602081526000610adb60208301846111bf565b60808152600061122b60808301876111bf565b6001600160a01b03959095166020830152506040810192909252606090910152919050565b634e487b7160e01b600052601160045260246000fd5b80820281158282048414176103b8576103b8611250565b60008261129a57634e487b7160e01b600052601260045260246000fd5b500490565b6020808252600f908201526e15985d5b1d081a5cc81c185d5cd959608a1b604082015260600190565b818103818111156103b8576103b8611250565b6000602082840312156112ed57600080fd5b81518015158114610adb57600080fd5b600181811c9082168061131157607f821691505b60208210810361072357634e487b7160e01b600052602260045260246000fd5b60008083548160018260011c9150600183168061134f57607f831692505b6020808410820361136e57634e487b7160e01b86526022600452602486fd5b8180156113825760018114611397576113c4565b60ff19861689528415158502890196506113c4565b60008a81526020902060005b868110156113bc5781548b8201529085019083016113a3565b505084890196505b509498975050505050505050565b6080815260006113fa608083016008815267776974686472617760c01b602082015260400190565b602083019590955250604081019290925260609091015290565b60608152600061143c606083016008815267776974686472617760c01b602082015260400190565b921515602083810191909152828403604093840152601584527415da5d1a191c985dd85b081cdd58d8d95cdcd99d5b605a1b90840152500190565b6020808252600e908201526d139bdd08185d5d1a1bdc9a5e995960921b604082015260600190565b808201808211156103b8576103b8611250565b6080815260006113fa6080830160078152661a185c9d995cdd60ca1b602082015260400190565b6060815260006115006060830160078152661a185c9d995cdd60ca1b602082015260400190565b921515602083810191909152828403604093840152601284527112185c9d995cdd081cdd58d8d95cdcd99d5b60721b90840152500190565b6080815260006113fa60808301600781526619195c1bdcda5d60ca1b602082015260400190565b60608152600061158660608301600781526619195c1bdcda5d60ca1b602082015260400190565b921515602083810191909152828403604093840152601284527111195c1bdcda5d081cdd58d8d95cdcd99d5b60721b90840152500190565b6080815260006113fa60808301600881526718dbdb5c1bdd5b9960c21b602082015260400190565b60608152600061160e60608301600881526718dbdb5c1bdd5b9960c21b602082015260400190565b921515602083810191909152828403604093840152601384527210dbdb5c1bdd5b99081cdd58d8d95cdcd99d5b606a1b9084015250019056fe2b85f9d5d5b2115ddbef013b05a97bc4efc4af97e7da67ffa6870a234fc6d8e01f7b25b67a8427cca34f9983a91773c4f94a46977a530f95d3c5b7724b89fbfda2646970667358221220e0f7d7110c61b0054e13dc08d320f01b096f007f030a84d07e6e255eb0bb966464736f6c63430008180033","opcodes":"PUSH1 0x80 PUSH1 0x40 MSTORE PUSH2 0x1F4 PUSH1 0x8 SSTORE CALLVALUE DUP1 ISZERO PUSH3 0x17 JUMPI PUSH1 0x0 DUP1 REVERT JUMPDEST POP PUSH1 0x40 MLOAD PUSH3 0x1A71 CODESIZE SUB DUP1 PUSH3 0x1A71 DUP4 CODECOPY DUP2 ADD PUSH1 0x40 DUP2 SWAP1 MSTORE PUSH3 0x3A SWAP2 PUSH3 0x15F JUMP JUMPDEST PUSH1 0x0 DUP3 MLOAD GT PUSH3 0x85 JUMPI PUSH1 0x40 MLOAD PUSH3 0x461BCD PUSH1 0xE5 SHL DUP2 MSTORE PUSH1 0x20 PUSH1 0x4 DUP3 ADD MSTORE PUSH1 0x11 PUSH1 0x24 DUP3 ADD MSTORE PUSH17 0x15985D5B1D081251081C995C5D5A5C9959 PUSH1 0x7A SHL PUSH1 0x44 DUP3 ADD MSTORE PUSH1 0x64 ADD JUMPDEST PUSH1 0x40 MLOAD DUP1 SWAP2 SUB SWAP1 REVERT JUMPDEST PUSH1 0x1 PUSH1 0x1 PUSH1 0xA0 SHL SUB DUP2 AND PUSH3 0xDD JUMPI PUSH1 0x40 MLOAD PUSH3 0x461BCD PUSH1 0xE5 SHL DUP2 MSTORE PUSH1 0x20 PUSH1 0x4 DUP3 ADD MSTORE PUSH1 0x18 PUSH1 0x24 DUP3 ADD MSTORE PUSH32 0x496E76616C696420756E6465726C79696E6720746F6B656E0000000000000000 PUSH1 0x44 DUP3 ADD MSTORE PUSH1 0x64 ADD PUSH3 0x7C JUMP JUMPDEST PUSH1 0x0 PUSH3 0xEB DUP4 DUP3 PUSH3 0x2D8 JUMP JUMPDEST POP PUSH1 0x1 DUP1 SLOAD PUSH1 0x1 PUSH1 0x1 PUSH1 0xA0 SHL SUB NOT AND PUSH1 0x1 PUSH1 0x1 PUSH1 0xA0 SHL SUB SWAP3 SWAP1 SWAP3 AND SWAP2 SWAP1 SWAP2 OR SWAP1 SSTORE POP PUSH1 0x5 DUP1 SLOAD PUSH1 0x1 PUSH1 0x1 PUSH1 0xA8 SHL SUB NOT AND CALLER PUSH1 0xFF PUSH1 0xA0 SHL NOT AND OR SWAP1 SSTORE PUSH3 0x3A4 JUMP JUMPDEST PUSH4 0x4E487B71 PUSH1 0xE0 SHL PUSH1 0x0 MSTORE PUSH1 0x41 PUSH1 0x4 MSTORE PUSH1 0x24 PUSH1 0x0 REVERT JUMPDEST DUP1 MLOAD PUSH1 0x1 PUSH1 0x1 PUSH1 0xA0 SHL SUB DUP2 AND DUP2 EQ PUSH3 0x15A JUMPI PUSH1 0x0 DUP1 REVERT JUMPDEST SWAP2 SWAP1 POP JUMP JUMPDEST PUSH1 0x0 DUP1 PUSH1 0x40 DUP4 DUP6 SUB SLT ISZERO PUSH3 0x173 JUMPI PUSH1 0x0 DUP1 REVERT JUMPDEST DUP3 MLOAD PUSH1 0x1 PUSH1 0x1 PUSH1 0x40 SHL SUB DUP1 DUP3 GT ISZERO PUSH3 0x18B JUMPI PUSH1 0x0 DUP1 REVERT JUMPDEST DUP2 DUP6 ADD SWAP2 POP DUP6 PUSH1 0x1F DUP4 ADD SLT PUSH3 0x1A0 JUMPI PUSH1 0x0 DUP1 REVERT JUMPDEST DUP2 MLOAD DUP2 DUP2 GT ISZERO PUSH3 0x1B5 JUMPI PUSH3 0x1B5 PUSH3 0x12C JUMP JUMPDEST PUSH1 0x40 MLOAD PUSH1 0x1F DUP3 ADD PUSH1 0x1F NOT SWAP1 DUP2 AND PUSH1 0x3F ADD AND DUP2 ADD SWAP1 DUP4 DUP3 GT DUP2 DUP4 LT OR ISZERO PUSH3 0x1E0 JUMPI PUSH3 0x1E0 PUSH3 0x12C JUMP JUMPDEST DUP2 PUSH1 0x40 MSTORE DUP3 DUP2 MSTORE PUSH1 0x20 SWAP4 POP DUP9 DUP5 DUP5 DUP8 ADD ADD GT ISZERO PUSH3 0x1FD JUMPI PUSH1 0x0 DUP1 REVERT JUMPDEST PUSH1 0x0 SWAP2 POP JUMPDEST DUP3 DUP3 LT ISZERO PUSH3 0x221 JUMPI DUP5 DUP3 ADD DUP5 ADD MLOAD DUP2 DUP4 ADD DUP6 ADD MSTORE SWAP1 DUP4 ADD SWAP1 PUSH3 0x202 JUMP JUMPDEST PUSH1 0x0 DUP5 DUP5 DUP4 ADD ADD MSTORE DUP1 SWAP7 POP POP POP POP PUSH3 0x23C DUP2 DUP7 ADD PUSH3 0x142 JUMP JUMPDEST SWAP3 POP POP POP SWAP3 POP SWAP3 SWAP1 POP JUMP JUMPDEST PUSH1 0x1 DUP2 DUP2 SHR SWAP1 DUP3 AND DUP1 PUSH3 0x25C JUMPI PUSH1 0x7F DUP3 AND SWAP2 POP JUMPDEST PUSH1 0x20 DUP3 LT DUP2 SUB PUSH3 0x27D JUMPI PUSH4 0x4E487B71 PUSH1 0xE0 SHL PUSH1 0x0 MSTORE PUSH1 0x22 PUSH1 0x4 MSTORE PUSH1 0x24 PUSH1 0x0 REVERT JUMPDEST POP SWAP2 SWAP1 POP JUMP JUMPDEST PUSH1 0x1F DUP3 GT ISZERO PUSH3 0x2D3 JUMPI PUSH1 0x0 DUP2 PUSH1 0x0 MSTORE PUSH1 0x20 PUSH1 0x0 KECCAK256 PUSH1 0x1F DUP6 ADD PUSH1 0x5 SHR DUP2 ADD PUSH1 0x20 DUP7 LT ISZERO PUSH3 0x2AE JUMPI POP DUP1 JUMPDEST PUSH1 0x1F DUP6 ADD PUSH1 0x5 SHR DUP3 ADD SWAP2 POP JUMPDEST DUP2 DUP2 LT ISZERO PUSH3 0x2CF JUMPI DUP3 DUP2 SSTORE PUSH1 0x1 ADD PUSH3 0x2BA JUMP JUMPDEST POP POP POP JUMPDEST POP POP POP JUMP JUMPDEST DUP2 MLOAD PUSH1 0x1 PUSH1 0x1 PUSH1 0x40 SHL SUB DUP2 GT ISZERO PUSH3 0x2F4 JUMPI PUSH3 0x2F4 PUSH3 0x12C JUMP JUMPDEST PUSH3 0x30C DUP2 PUSH3 0x305 DUP5 SLOAD PUSH3 0x247 JUMP JUMPDEST DUP5 PUSH3 0x283 JUMP JUMPDEST PUSH1 0x20 DUP1 PUSH1 0x1F DUP4 GT PUSH1 0x1 DUP2 EQ PUSH3 0x344 JUMPI PUSH1 0x0 DUP5 ISZERO PUSH3 0x32B JUMPI POP DUP6 DUP4 ADD MLOAD JUMPDEST PUSH1 0x0 NOT PUSH1 0x3 DUP7 SWAP1 SHL SHR NOT AND PUSH1 0x1 DUP6 SWAP1 SHL OR DUP6 SSTORE PUSH3 0x2CF JUMP JUMPDEST PUSH1 0x0 DUP6 DUP2 MSTORE PUSH1 0x20 DUP2 KECCAK256 PUSH1 0x1F NOT DUP7 AND SWAP2 JUMPDEST DUP3 DUP2 LT ISZERO PUSH3 0x375 JUMPI DUP9 DUP7 ADD MLOAD DUP3 SSTORE SWAP5 DUP5 ADD SWAP5 PUSH1 0x1 SWAP1 SWAP2 ADD SWAP1 DUP5 ADD PUSH3 0x354 JUMP JUMPDEST POP DUP6 DUP3 LT ISZERO PUSH3 0x394 JUMPI DUP8 DUP6 ADD MLOAD PUSH1 0x0 NOT PUSH1 0x3 DUP9 SWAP1 SHL PUSH1 0xF8 AND SHR NOT AND DUP2 SSTORE JUMPDEST POP POP POP POP POP PUSH1 0x1 SWAP1 DUP2 SHL ADD SWAP1 SSTORE POP JUMP JUMPDEST PUSH2 0x16BD DUP1 PUSH3 0x3B4 PUSH1 0x0 CODECOPY PUSH1 0x0 RETURN INVALID PUSH1 0x80 PUSH1 0x40 MSTORE CALLVALUE DUP1 ISZERO PUSH2 0x10 JUMPI PUSH1 0x0 DUP1 REVERT JUMPDEST POP PUSH1 0x4 CALLDATASIZE LT PUSH2 0x18E JUMPI PUSH1 0x0 CALLDATALOAD PUSH1 0xE0 SHR DUP1 PUSH4 0x7F98AA71 GT PUSH2 0xDE JUMPI DUP1 PUSH4 0xAE06C1B7 GT PUSH2 0x97 JUMPI DUP1 PUSH4 0xE63A391F GT PUSH2 0x71 JUMPI DUP1 PUSH4 0xE63A391F EQ PUSH2 0x355 JUMPI DUP1 PUSH4 0xF2FDE38B EQ PUSH2 0x35E JUMPI DUP1 PUSH4 0xF69E2046 EQ PUSH2 0x371 JUMPI DUP1 PUSH4 0xFCDFD5C5 EQ PUSH2 0x379 JUMPI PUSH1 0x0 DUP1 REVERT JUMPDEST DUP1 PUSH4 0xAE06C1B7 EQ PUSH2 0x327 JUMPI DUP1 PUSH4 0xB6B55F25 EQ PUSH2 0x33A JUMPI DUP1 PUSH4 0xD5002F2E EQ PUSH2 0x34D JUMPI PUSH1 0x0 DUP1 REVERT JUMPDEST DUP1 PUSH4 0x7F98AA71 EQ PUSH2 0x2AB JUMPI DUP1 PUSH4 0x8456CB59 EQ PUSH2 0x2C3 JUMPI DUP1 PUSH4 0x87793BA3 EQ PUSH2 0x2CB JUMPI DUP1 PUSH4 0x8DA5CB5B EQ PUSH2 0x2EB JUMPI DUP1 PUSH4 0x9CE1024B EQ PUSH2 0x2FE JUMPI DUP1 PUSH4 0xA001ECDD EQ PUSH2 0x31E JUMPI PUSH1 0x0 DUP1 REVERT JUMPDEST DUP1 PUSH4 0x3F4BA83A GT PUSH2 0x14B JUMPI DUP1 PUSH4 0x5C975ABB GT PUSH2 0x125 JUMPI DUP1 PUSH4 0x5C975ABB EQ PUSH2 0x241 JUMPI DUP1 PUSH4 0x6E07302B EQ PUSH2 0x265 JUMPI DUP1 PUSH4 0x6F307DC3 EQ PUSH2 0x26D JUMPI DUP1 PUSH4 0x6F7C99D2 EQ PUSH2 0x298 JUMPI PUSH1 0x0 DUP1 REVERT JUMPDEST DUP1 PUSH4 0x3F4BA83A EQ PUSH2 0x21C JUMPI DUP1 PUSH4 0x4641257D EQ PUSH2 0x226 JUMPI DUP1 PUSH4 0x5A13A98F EQ PUSH2 0x22E JUMPI PUSH1 0x0 DUP1 REVERT JUMPDEST DUP1 PUSH4 0x1E1D114 EQ PUSH2 0x193 JUMPI DUP1 PUSH4 0x11437941 EQ PUSH2 0x1AF JUMPI DUP1 PUSH4 0x27972E0C EQ PUSH2 0x1D8 JUMPI DUP1 PUSH4 0x2E1A7D4D EQ PUSH2 0x1EB JUMPI DUP1 PUSH4 0x33194C0A EQ PUSH2 0x1FE JUMPI DUP1 PUSH4 0x3A98EF39 EQ PUSH2 0x213 JUMPI JUMPDEST PUSH1 0x0 DUP1 REVERT JUMPDEST PUSH2 0x19C PUSH1 0x3 SLOAD DUP2 JUMP JUMPDEST PUSH1 0x40 MLOAD SWAP1 DUP2 MSTORE PUSH1 0x20 ADD JUMPDEST PUSH1 0x40 MLOAD DUP1 SWAP2 SUB SWAP1 RETURN JUMPDEST PUSH2 0x19C PUSH2 0x1BD CALLDATASIZE PUSH1 0x4 PUSH2 0x117D JUMP JUMPDEST PUSH1 0x1 PUSH1 0x1 PUSH1 0xA0 SHL SUB AND PUSH1 0x0 SWAP1 DUP2 MSTORE PUSH1 0x6 PUSH1 0x20 MSTORE PUSH1 0x40 SWAP1 KECCAK256 SLOAD SWAP1 JUMP JUMPDEST PUSH2 0x19C PUSH2 0x1E6 CALLDATASIZE PUSH1 0x4 PUSH2 0x11A6 JUMP JUMPDEST PUSH2 0x382 JUMP JUMPDEST PUSH2 0x19C PUSH2 0x1F9 CALLDATASIZE PUSH1 0x4 PUSH2 0x11A6 JUMP JUMPDEST PUSH2 0x3BE JUMP JUMPDEST PUSH2 0x206 PUSH2 0x729 JUMP JUMPDEST PUSH1 0x40 MLOAD PUSH2 0x1A6 SWAP2 SWAP1 PUSH2 0x1205 JUMP JUMPDEST PUSH2 0x19C PUSH1 0x2 SLOAD DUP2 JUMP JUMPDEST PUSH2 0x224 PUSH2 0x7B7 JUMP JUMPDEST STOP JUMPDEST PUSH2 0x19C PUSH2 0x7F0 JUMP JUMPDEST PUSH2 0x19C PUSH2 0x23C CALLDATASIZE PUSH1 0x4 PUSH2 0x11A6 JUMP JUMPDEST PUSH2 0xA53 JUMP JUMPDEST PUSH1 0x5 SLOAD PUSH2 0x255 SWAP1 PUSH1 0x1 PUSH1 0xA0 SHL SWAP1 DIV PUSH1 0xFF AND DUP2 JUMP JUMPDEST PUSH1 0x40 MLOAD SWAP1 ISZERO ISZERO DUP2 MSTORE PUSH1 0x20 ADD PUSH2 0x1A6 JUMP JUMPDEST PUSH1 0x3 SLOAD PUSH2 0x19C JUMP JUMPDEST PUSH1 0x1 SLOAD PUSH2 0x280 SWAP1 PUSH1 0x1 PUSH1 0x1 PUSH1 0xA0 SHL SUB AND DUP2 JUMP JUMPDEST PUSH1 0x40 MLOAD PUSH1 0x1 PUSH1 0x1 PUSH1 0xA0 SHL SUB SWAP1 SWAP2 AND DUP2 MSTORE PUSH1 0x20 ADD PUSH2 0x1A6 JUMP JUMPDEST PUSH2 0x19C PUSH2 0x2A6 CALLDATASIZE PUSH1 0x4 PUSH2 0x117D JUMP JUMPDEST PUSH2 0xA77 JUMP JUMPDEST PUSH2 0x2B3 PUSH2 0xAE2 JUMP JUMPDEST PUSH1 0x40 MLOAD PUSH2 0x1A6 SWAP5 SWAP4 SWAP3 SWAP2 SWAP1 PUSH2 0x1218 JUMP JUMPDEST PUSH2 0x224 PUSH2 0xBA0 JUMP JUMPDEST PUSH2 0x19C PUSH2 0x2D9 CALLDATASIZE PUSH1 0x4 PUSH2 0x117D JUMP JUMPDEST PUSH1 0x6 PUSH1 0x20 MSTORE PUSH1 0x0 SWAP1 DUP2 MSTORE PUSH1 0x40 SWAP1 KECCAK256 SLOAD DUP2 JUMP JUMPDEST PUSH1 0x5 SLOAD PUSH2 0x280 SWAP1 PUSH1 0x1 PUSH1 0x1 PUSH1 0xA0 SHL SUB AND DUP2 JUMP JUMPDEST PUSH2 0x19C PUSH2 0x30C CALLDATASIZE PUSH1 0x4 PUSH2 0x117D JUMP JUMPDEST PUSH1 0x7 PUSH1 0x20 MSTORE PUSH1 0x0 SWAP1 DUP2 MSTORE PUSH1 0x40 SWAP1 KECCAK256 SLOAD DUP2 JUMP JUMPDEST PUSH2 0x19C PUSH1 0x8 SLOAD DUP2 JUMP JUMPDEST PUSH2 0x224 PUSH2 0x335 CALLDATASIZE PUSH1 0x4 PUSH2 0x11A6 JUMP JUMPDEST PUSH2 0xBDF JUMP JUMPDEST PUSH2 0x19C PUSH2 0x348 CALLDATASIZE PUSH1 0x4 PUSH2 0x11A6 JUMP JUMPDEST PUSH2 0xC59 JUMP JUMPDEST PUSH1 0x2 SLOAD PUSH2 0x19C JUMP JUMPDEST PUSH2 0x19C PUSH2 0x2710 DUP2 JUMP JUMPDEST PUSH2 0x224 PUSH2 0x36C CALLDATASIZE PUSH1 0x4 PUSH2 0x117D JUMP JUMPDEST PUSH2 0xED0 JUMP JUMPDEST PUSH2 0x19C PUSH2 0xF64 JUMP JUMPDEST PUSH2 0x19C PUSH1 0x4 SLOAD DUP2 JUMP JUMPDEST PUSH1 0x0 PUSH1 0x3 SLOAD PUSH1 0x0 EQ DUP1 PUSH2 0x395 JUMPI POP PUSH1 0x2 SLOAD ISZERO JUMPDEST ISZERO PUSH2 0x39E JUMPI POP SWAP1 JUMP JUMPDEST PUSH1 0x3 SLOAD PUSH1 0x2 SLOAD PUSH2 0x3AE SWAP1 DUP5 PUSH2 0x1266 JUMP JUMPDEST PUSH2 0x3B8 SWAP2 SWAP1 PUSH2 0x127D JUMP JUMPDEST SWAP3 SWAP2 POP POP JUMP JUMPDEST PUSH1 0x5 SLOAD PUSH1 0x0 SWAP1 PUSH1 0x1 PUSH1 0xA0 SHL SWAP1 DIV PUSH1 0xFF AND ISZERO PUSH2 0x3F4 JUMPI PUSH1 0x40 MLOAD PUSH3 0x461BCD PUSH1 0xE5 SHL DUP2 MSTORE PUSH1 0x4 ADD PUSH2 0x3EB SWAP1 PUSH2 0x129F JUMP JUMPDEST PUSH1 0x40 MLOAD DUP1 SWAP2 SUB SWAP1 REVERT JUMPDEST DUP2 PUSH1 0x0 DUP2 GT PUSH2 0x445 JUMPI PUSH1 0x40 MLOAD PUSH3 0x461BCD PUSH1 0xE5 SHL DUP2 MSTORE PUSH1 0x20 PUSH1 0x4 DUP3 ADD MSTORE PUSH1 0x1D PUSH1 0x24 DUP3 ADD MSTORE PUSH32 0x416D6F756E74206D7573742062652067726561746572207468616E2030000000 PUSH1 0x44 DUP3 ADD MSTORE PUSH1 0x64 ADD PUSH2 0x3EB JUMP JUMPDEST CALLER PUSH1 0x0 SWAP1 DUP2 MSTORE PUSH1 0x6 PUSH1 0x20 MSTORE PUSH1 0x40 SWAP1 KECCAK256 SLOAD DUP4 GT ISZERO PUSH2 0x49A JUMPI PUSH1 0x40 MLOAD PUSH3 0x461BCD PUSH1 0xE5 SHL DUP2 MSTORE PUSH1 0x20 PUSH1 0x4 DUP3 ADD MSTORE PUSH1 0x13 PUSH1 0x24 DUP3 ADD MSTORE PUSH19 0x496E73756666696369656E7420736861726573 PUSH1 0x68 SHL PUSH1 0x44 DUP3 ADD MSTORE PUSH1 0x64 ADD PUSH2 0x3EB JUMP JUMPDEST PUSH2 0x4A3 DUP4 PUSH2 0xA53 JUMP JUMPDEST SWAP2 POP PUSH1 0x0 DUP3 GT PUSH2 0x4EE JUMPI PUSH1 0x40 MLOAD PUSH3 0x461BCD PUSH1 0xE5 SHL DUP2 MSTORE PUSH1 0x20 PUSH1 0x4 DUP3 ADD MSTORE PUSH1 0x16 PUSH1 0x24 DUP3 ADD MSTORE PUSH22 0x5769746864726177616C20616D6F756E74206973203 PUSH1 0x54 SHL PUSH1 0x44 DUP3 ADD MSTORE PUSH1 0x64 ADD PUSH2 0x3EB JUMP JUMPDEST PUSH1 0x0 PUSH2 0x2710 PUSH1 0x8 SLOAD DUP5 PUSH2 0x501 SWAP2 SWAP1 PUSH2 0x1266 JUMP JUMPDEST PUSH2 0x50B SWAP2 SWAP1 PUSH2 0x127D JUMP JUMPDEST SWAP1 POP PUSH1 0x0 PUSH2 0x519 DUP3 DUP6 PUSH2 0x12C8 JUMP JUMPDEST CALLER PUSH1 0x0 SWAP1 DUP2 MSTORE PUSH1 0x6 PUSH1 0x20 MSTORE PUSH1 0x40 DUP2 KECCAK256 DUP1 SLOAD SWAP3 SWAP4 POP DUP8 SWAP3 SWAP1 SWAP2 SWAP1 PUSH2 0x53D SWAP1 DUP5 SWAP1 PUSH2 0x12C8 JUMP JUMPDEST SWAP3 POP POP DUP2 SWAP1 SSTORE POP DUP5 PUSH1 0x2 PUSH1 0x0 DUP3 DUP3 SLOAD PUSH2 0x556 SWAP2 SWAP1 PUSH2 0x12C8 JUMP JUMPDEST SWAP3 POP POP DUP2 SWAP1 SSTORE POP DUP4 PUSH1 0x3 PUSH1 0x0 DUP3 DUP3 SLOAD PUSH2 0x56F SWAP2 SWAP1 PUSH2 0x12C8 JUMP JUMPDEST SWAP1 SWAP2 SSTORE POP POP PUSH1 0x1 SLOAD PUSH1 0x40 MLOAD PUSH4 0xA9059CBB PUSH1 0xE0 SHL DUP2 MSTORE CALLER PUSH1 0x4 DUP3 ADD MSTORE PUSH1 0x24 DUP2 ADD DUP4 SWAP1 MSTORE PUSH1 0x1 PUSH1 0x1 PUSH1 0xA0 SHL SUB SWAP1 SWAP2 AND SWAP1 PUSH4 0xA9059CBB SWAP1 PUSH1 0x44 ADD PUSH1 0x20 PUSH1 0x40 MLOAD DUP1 DUP4 SUB DUP2 PUSH1 0x0 DUP8 GAS CALL ISZERO DUP1 ISZERO PUSH2 0x5C5 JUMPI RETURNDATASIZE PUSH1 0x0 DUP1 RETURNDATACOPY RETURNDATASIZE PUSH1 0x0 REVERT JUMPDEST POP POP POP POP PUSH1 0x40 MLOAD RETURNDATASIZE PUSH1 0x1F NOT PUSH1 0x1F DUP3 ADD AND DUP3 ADD DUP1 PUSH1 0x40 MSTORE POP DUP2 ADD SWAP1 PUSH2 0x5E9 SWAP2 SWAP1 PUSH2 0x12DB JUMP JUMPDEST PUSH2 0x627 JUMPI PUSH1 0x40 MLOAD PUSH3 0x461BCD PUSH1 0xE5 SHL DUP2 MSTORE PUSH1 0x20 PUSH1 0x4 DUP3 ADD MSTORE PUSH1 0xF PUSH1 0x24 DUP3 ADD MSTORE PUSH15 0x151C985B9CD9995C8819985A5B1959 PUSH1 0x8A SHL PUSH1 0x44 DUP3 ADD MSTORE PUSH1 0x64 ADD PUSH2 0x3EB JUMP JUMPDEST PUSH1 0x40 DUP1 MLOAD DUP7 DUP2 MSTORE PUSH1 0x20 DUP2 ADD DUP4 SWAP1 MSTORE CALLER SWAP2 PUSH32 0xF279E6A1F5E320CCA91135676D9CB6E44CA8A08C0B88342BCDB1144F6511B568 SWAP2 ADD PUSH1 0x40 MLOAD DUP1 SWAP2 SUB SWAP1 LOG2 PUSH1 0x40 MLOAD DUP3 DUP2 MSTORE PUSH32 0xB9FD9B3AE5DF7EE5D3C3A24F8DFF20944FDC1EAA93985EB52486CFBD74870688 SWAP1 PUSH1 0x20 ADD PUSH1 0x40 MLOAD DUP1 SWAP2 SUB SWAP1 LOG1 PUSH1 0x40 MLOAD CALLER SWAP1 PUSH2 0x6A6 SWAP1 PUSH1 0x0 SWAP1 PUSH2 0x1331 JUMP JUMPDEST PUSH1 0x40 MLOAD DUP1 SWAP2 SUB SWAP1 KECCAK256 PUSH1 0x0 DUP1 MLOAD PUSH1 0x20 PUSH2 0x1668 DUP4 CODECOPY DUP2 MLOAD SWAP2 MSTORE DUP4 DUP9 TIMESTAMP PUSH1 0x40 MLOAD PUSH2 0x6CF SWAP4 SWAP3 SWAP2 SWAP1 PUSH2 0x13D2 JUMP JUMPDEST PUSH1 0x40 MLOAD DUP1 SWAP2 SUB SWAP1 LOG3 DUP1 CALLER PUSH1 0x1 PUSH1 0x1 PUSH1 0xA0 SHL SUB AND PUSH1 0x0 PUSH1 0x40 MLOAD PUSH2 0x6F1 SWAP2 SWAP1 PUSH2 0x1331 JUMP JUMPDEST PUSH1 0x40 MLOAD DUP1 SWAP2 SUB SWAP1 KECCAK256 PUSH1 0x0 DUP1 MLOAD PUSH1 0x20 PUSH2 0x1648 DUP4 CODECOPY DUP2 MLOAD SWAP2 MSTORE PUSH1 0x1 PUSH1 0x40 MLOAD PUSH2 0x717 SWAP2 SWAP1 PUSH2 0x1414 JUMP JUMPDEST PUSH1 0x40 MLOAD DUP1 SWAP2 SUB SWAP1 LOG4 SWAP3 POP POP JUMPDEST POP SWAP2 SWAP1 POP JUMP JUMPDEST PUSH1 0x0 DUP1 SLOAD PUSH2 0x736 SWAP1 PUSH2 0x12FD JUMP JUMPDEST DUP1 PUSH1 0x1F ADD PUSH1 0x20 DUP1 SWAP2 DIV MUL PUSH1 0x20 ADD PUSH1 0x40 MLOAD SWAP1 DUP2 ADD PUSH1 0x40 MSTORE DUP1 SWAP3 SWAP2 SWAP1 DUP2 DUP2 MSTORE PUSH1 0x20 ADD DUP3 DUP1 SLOAD PUSH2 0x762 SWAP1 PUSH2 0x12FD JUMP JUMPDEST DUP1 ISZERO PUSH2 0x7AF JUMPI DUP1 PUSH1 0x1F LT PUSH2 0x784 JUMPI PUSH2 0x100 DUP1 DUP4 SLOAD DIV MUL DUP4 MSTORE SWAP2 PUSH1 0x20 ADD SWAP2 PUSH2 0x7AF JUMP JUMPDEST DUP3 ADD SWAP2 SWAP1 PUSH1 0x0 MSTORE PUSH1 0x20 PUSH1 0x0 KECCAK256 SWAP1 JUMPDEST DUP2 SLOAD DUP2 MSTORE SWAP1 PUSH1 0x1 ADD SWAP1 PUSH1 0x20 ADD DUP1 DUP4 GT PUSH2 0x792 JUMPI DUP3 SWAP1 SUB PUSH1 0x1F AND DUP3 ADD SWAP2 JUMPDEST POP POP POP POP POP DUP2 JUMP JUMPDEST PUSH1 0x5 SLOAD PUSH1 0x1 PUSH1 0x1 PUSH1 0xA0 SHL SUB AND CALLER EQ PUSH2 0x7E1 JUMPI PUSH1 0x40 MLOAD PUSH3 0x461BCD PUSH1 0xE5 SHL DUP2 MSTORE PUSH1 0x4 ADD PUSH2 0x3EB SWAP1 PUSH2 0x1477 JUMP JUMPDEST PUSH1 0x5 DUP1 SLOAD PUSH1 0xFF PUSH1 0xA0 SHL NOT AND SWAP1 SSTORE JUMP JUMPDEST PUSH1 0x5 SLOAD PUSH1 0x0 SWAP1 PUSH1 0x1 PUSH1 0xA0 SHL SWAP1 DIV PUSH1 0xFF AND ISZERO PUSH2 0x81D JUMPI PUSH1 0x40 MLOAD PUSH3 0x461BCD PUSH1 0xE5 SHL DUP2 MSTORE PUSH1 0x4 ADD PUSH2 0x3EB SWAP1 PUSH2 0x129F JUMP JUMPDEST CALLER PUSH1 0x0 SWAP1 DUP2 MSTORE PUSH1 0x6 PUSH1 0x20 MSTORE PUSH1 0x40 SWAP1 KECCAK256 SLOAD PUSH2 0x870 JUMPI PUSH1 0x40 MLOAD PUSH3 0x461BCD PUSH1 0xE5 SHL DUP2 MSTORE PUSH1 0x20 PUSH1 0x4 DUP3 ADD MSTORE PUSH1 0x14 PUSH1 0x24 DUP3 ADD MSTORE PUSH20 0x139BC81CDA185C995CC81D1BC81A185C9D995CDD PUSH1 0x62 SHL PUSH1 0x44 DUP3 ADD MSTORE PUSH1 0x64 ADD PUSH2 0x3EB JUMP JUMPDEST PUSH2 0x879 CALLER PUSH2 0xA77 JUMP JUMPDEST SWAP1 POP PUSH1 0x0 DUP2 GT PUSH2 0x8C0 JUMPI PUSH1 0x40 MLOAD PUSH3 0x461BCD PUSH1 0xE5 SHL DUP2 MSTORE PUSH1 0x20 PUSH1 0x4 DUP3 ADD MSTORE PUSH1 0x12 PUSH1 0x24 DUP3 ADD MSTORE PUSH18 0x4E6F207969656C6420617661696C61626C65 PUSH1 0x70 SHL PUSH1 0x44 DUP3 ADD MSTORE PUSH1 0x64 ADD PUSH2 0x3EB JUMP JUMPDEST PUSH1 0x1 SLOAD PUSH1 0x40 MLOAD PUSH4 0xA9059CBB PUSH1 0xE0 SHL DUP2 MSTORE CALLER PUSH1 0x4 DUP3 ADD MSTORE PUSH1 0x24 DUP2 ADD DUP4 SWAP1 MSTORE PUSH1 0x1 PUSH1 0x1 PUSH1 0xA0 SHL SUB SWAP1 SWAP2 AND SWAP1 PUSH4 0xA9059CBB SWAP1 PUSH1 0x44 ADD PUSH1 0x20 PUSH1 0x40 MLOAD DUP1 DUP4 SUB DUP2 PUSH1 0x0 DUP8 GAS CALL ISZERO DUP1 ISZERO PUSH2 0x911 JUMPI RETURNDATASIZE PUSH1 0x0 DUP1 RETURNDATACOPY RETURNDATASIZE PUSH1 0x0 REVERT JUMPDEST POP POP POP POP PUSH1 0x40 MLOAD RETURNDATASIZE PUSH1 0x1F NOT PUSH1 0x1F DUP3 ADD AND DUP3 ADD DUP1 PUSH1 0x40 MSTORE POP DUP2 ADD SWAP1 PUSH2 0x935 SWAP2 SWAP1 PUSH2 0x12DB JUMP JUMPDEST PUSH2 0x979 JUMPI PUSH1 0x40 MLOAD PUSH3 0x461BCD PUSH1 0xE5 SHL DUP2 MSTORE PUSH1 0x20 PUSH1 0x4 DUP3 ADD MSTORE PUSH1 0x15 PUSH1 0x24 DUP3 ADD MSTORE PUSH21 0x165A595B19081D1C985B9CD9995C8819985A5B1959 PUSH1 0x5A SHL PUSH1 0x44 DUP3 ADD MSTORE PUSH1 0x64 ADD PUSH2 0x3EB JUMP JUMPDEST DUP1 PUSH1 0x4 PUSH1 0x0 DUP3 DUP3 SLOAD PUSH2 0x98B SWAP2 SWAP1 PUSH2 0x149F JUMP JUMPDEST SWAP1 SWAP2 SSTORE POP POP PUSH1 0x40 MLOAD DUP2 DUP2 MSTORE CALLER SWAP1 PUSH32 0xC9695243A805ADB74C91F28311176C65B417E842D5699893CEF56D18BFA48CBA SWAP1 PUSH1 0x20 ADD PUSH1 0x40 MLOAD DUP1 SWAP2 SUB SWAP1 LOG2 PUSH1 0x40 MLOAD CALLER SWAP1 PUSH2 0x9D6 SWAP1 PUSH1 0x0 SWAP1 PUSH2 0x1331 JUMP JUMPDEST PUSH1 0x40 MLOAD DUP1 SWAP2 SUB SWAP1 KECCAK256 PUSH1 0x0 DUP1 MLOAD PUSH1 0x20 PUSH2 0x1668 DUP4 CODECOPY DUP2 MLOAD SWAP2 MSTORE DUP4 PUSH1 0x0 TIMESTAMP PUSH1 0x40 MLOAD PUSH2 0xA00 SWAP4 SWAP3 SWAP2 SWAP1 PUSH2 0x14B2 JUMP JUMPDEST PUSH1 0x40 MLOAD DUP1 SWAP2 SUB SWAP1 LOG3 DUP1 CALLER PUSH1 0x1 PUSH1 0x1 PUSH1 0xA0 SHL SUB AND PUSH1 0x0 PUSH1 0x40 MLOAD PUSH2 0xA22 SWAP2 SWAP1 PUSH2 0x1331 JUMP JUMPDEST PUSH1 0x40 MLOAD DUP1 SWAP2 SUB SWAP1 KECCAK256 PUSH1 0x0 DUP1 MLOAD PUSH1 0x20 PUSH2 0x1648 DUP4 CODECOPY DUP2 MLOAD SWAP2 MSTORE PUSH1 0x1 PUSH1 0x40 MLOAD PUSH2 0xA48 SWAP2 SWAP1 PUSH2 0x14D9 JUMP JUMPDEST PUSH1 0x40 MLOAD DUP1 SWAP2 SUB SWAP1 LOG4 SWAP1 JUMP JUMPDEST PUSH1 0x0 PUSH1 0x2 SLOAD PUSH1 0x0 SUB PUSH2 0xA67 JUMPI POP PUSH1 0x0 SWAP2 SWAP1 POP JUMP JUMPDEST PUSH1 0x2 SLOAD PUSH1 0x3 SLOAD PUSH2 0x3AE SWAP1 DUP5 PUSH2 0x1266 JUMP JUMPDEST PUSH1 0x1 PUSH1 0x1 PUSH1 0xA0 SHL SUB DUP2 AND PUSH1 0x0 SWAP1 DUP2 MSTORE PUSH1 0x6 PUSH1 0x20 MSTORE PUSH1 0x40 DUP2 KECCAK256 SLOAD DUP2 SUB PUSH2 0xA9E JUMPI POP PUSH1 0x0 SWAP2 SWAP1 POP JUMP JUMPDEST PUSH1 0x1 PUSH1 0x1 PUSH1 0xA0 SHL SUB DUP3 AND PUSH1 0x0 SWAP1 DUP2 MSTORE PUSH1 0x6 PUSH1 0x20 MSTORE PUSH1 0x40 DUP2 KECCAK256 SLOAD PUSH2 0xAC0 SWAP1 PUSH2 0xA53 JUMP JUMPDEST SWAP1 POP PUSH3 0x186A0 PUSH2 0xAD1 DUP3 PUSH1 0x1B PUSH2 0x1266 JUMP JUMPDEST PUSH2 0xADB SWAP2 SWAP1 PUSH2 0x127D JUMP JUMPDEST SWAP4 SWAP3 POP POP POP JUMP JUMPDEST PUSH1 0x60 PUSH1 0x0 DUP1 PUSH1 0x0 DUP1 PUSH1 0x1 PUSH1 0x0 SWAP1 SLOAD SWAP1 PUSH2 0x100 EXP SWAP1 DIV PUSH1 0x1 PUSH1 0x1 PUSH1 0xA0 SHL SUB AND PUSH1 0x3 SLOAD PUSH1 0x2 SLOAD DUP4 DUP1 SLOAD PUSH2 0xB12 SWAP1 PUSH2 0x12FD JUMP JUMPDEST DUP1 PUSH1 0x1F ADD PUSH1 0x20 DUP1 SWAP2 DIV MUL PUSH1 0x20 ADD PUSH1 0x40 MLOAD SWAP1 DUP2 ADD PUSH1 0x40 MSTORE DUP1 SWAP3 SWAP2 SWAP1 DUP2 DUP2 MSTORE PUSH1 0x20 ADD DUP3 DUP1 SLOAD PUSH2 0xB3E SWAP1 PUSH2 0x12FD JUMP JUMPDEST DUP1 ISZERO PUSH2 0xB8B JUMPI DUP1 PUSH1 0x1F LT PUSH2 0xB60 JUMPI PUSH2 0x100 DUP1 DUP4 SLOAD DIV MUL DUP4 MSTORE SWAP2 PUSH1 0x20 ADD SWAP2 PUSH2 0xB8B JUMP JUMPDEST DUP3 ADD SWAP2 SWAP1 PUSH1 0x0 MSTORE PUSH1 0x20 PUSH1 0x0 KECCAK256 SWAP1 JUMPDEST DUP2 SLOAD DUP2 MSTORE SWAP1 PUSH1 0x1 ADD SWAP1 PUSH1 0x20 ADD DUP1 DUP4 GT PUSH2 0xB6E JUMPI DUP3 SWAP1 SUB PUSH1 0x1F AND DUP3 ADD SWAP2 JUMPDEST POP POP POP POP POP SWAP4 POP SWAP4 POP SWAP4 POP SWAP4 POP SWAP4 POP SWAP1 SWAP2 SWAP3 SWAP4 JUMP JUMPDEST PUSH1 0x5 SLOAD PUSH1 0x1 PUSH1 0x1 PUSH1 0xA0 SHL SUB AND CALLER EQ PUSH2 0xBCA JUMPI PUSH1 0x40 MLOAD PUSH3 0x461BCD PUSH1 0xE5 SHL DUP2 MSTORE PUSH1 0x4 ADD PUSH2 0x3EB SWAP1 PUSH2 0x1477 JUMP JUMPDEST PUSH1 0x5 DUP1 SLOAD PUSH1 0xFF PUSH1 0xA0 SHL NOT AND PUSH1 0x1 PUSH1 0xA0 SHL OR SWAP1 SSTORE JUMP JUMPDEST PUSH1 0x5 SLOAD PUSH1 0x1 PUSH1 0x1 PUSH1 0xA0 SHL SUB AND CALLER EQ PUSH2 0xC09 JUMPI PUSH1 0x40 MLOAD PUSH3 0x461BCD PUSH1 0xE5 SHL DUP2 MSTORE PUSH1 0x4 ADD PUSH2 0x3EB SWAP1 PUSH2 0x1477 JUMP JUMPDEST PUSH2 0x3E8 DUP2 GT ISZERO PUSH2 0xC54 JUMPI PUSH1 0x40 MLOAD PUSH3 0x461BCD PUSH1 0xE5 SHL DUP2 MSTORE PUSH1 0x20 PUSH1 0x4 DUP3 ADD MSTORE PUSH1 0x16 PUSH1 0x24 DUP3 ADD MSTORE PUSH22 0x46656520746F6F206869676820286D61782031302529 PUSH1 0x50 SHL PUSH1 0x44 DUP3 ADD MSTORE PUSH1 0x64 ADD PUSH2 0x3EB JUMP JUMPDEST PUSH1 0x8 SSTORE JUMP JUMPDEST PUSH1 0x5 SLOAD PUSH1 0x0 SWAP1 PUSH1 0x1 PUSH1 0xA0 SHL SWAP1 DIV PUSH1 0xFF AND ISZERO PUSH2 0xC86 JUMPI PUSH1 0x40 MLOAD PUSH3 0x461BCD PUSH1 0xE5 SHL DUP2 MSTORE PUSH1 0x4 ADD PUSH2 0x3EB SWAP1 PUSH2 0x129F JUMP JUMPDEST DUP2 PUSH1 0x0 DUP2 GT PUSH2 0xCD7 JUMPI PUSH1 0x40 MLOAD PUSH3 0x461BCD PUSH1 0xE5 SHL DUP2 MSTORE PUSH1 0x20 PUSH1 0x4 DUP3 ADD MSTORE PUSH1 0x1D PUSH1 0x24 DUP3 ADD MSTORE PUSH32 0x416D6F756E74206D7573742062652067726561746572207468616E2030000000 PUSH1 0x44 DUP3 ADD MSTORE PUSH1 0x64 ADD PUSH2 0x3EB JUMP JUMPDEST PUSH1 0x1 SLOAD PUSH1 0x40 MLOAD PUSH4 0x23B872DD PUSH1 0xE0 SHL DUP2 MSTORE CALLER PUSH1 0x4 DUP3 ADD MSTORE ADDRESS PUSH1 0x24 DUP3 ADD MSTORE PUSH1 0x44 DUP2 ADD DUP6 SWAP1 MSTORE PUSH1 0x1 PUSH1 0x1 PUSH1 0xA0 SHL SUB SWAP1 SWAP2 AND SWAP1 PUSH4 0x23B872DD SWAP1 PUSH1 0x64 ADD PUSH1 0x20 PUSH1 0x40 MLOAD DUP1 DUP4 SUB DUP2 PUSH1 0x0 DUP8 GAS CALL ISZERO DUP1 ISZERO PUSH2 0xD2E JUMPI RETURNDATASIZE PUSH1 0x0 DUP1 RETURNDATACOPY RETURNDATASIZE PUSH1 0x0 REVERT JUMPDEST POP POP POP POP PUSH1 0x40 MLOAD RETURNDATASIZE PUSH1 0x1F NOT PUSH1 0x1F DUP3 ADD AND DUP3 ADD DUP1 PUSH1 0x40 MSTORE POP DUP2 ADD SWAP1 PUSH2 0xD52 SWAP2 SWAP1 PUSH2 0x12DB JUMP JUMPDEST PUSH2 0xD90 JUMPI PUSH1 0x40 MLOAD PUSH3 0x461BCD PUSH1 0xE5 SHL DUP2 MSTORE PUSH1 0x20 PUSH1 0x4 DUP3 ADD MSTORE PUSH1 0xF PUSH1 0x24 DUP3 ADD MSTORE PUSH15 0x151C985B9CD9995C8819985A5B1959 PUSH1 0x8A SHL PUSH1 0x44 DUP3 ADD MSTORE PUSH1 0x64 ADD PUSH2 0x3EB JUMP JUMPDEST PUSH2 0xD99 DUP4 PUSH2 0x382 JUMP JUMPDEST CALLER PUSH1 0x0 SWAP1 DUP2 MSTORE PUSH1 0x6 PUSH1 0x20 MSTORE PUSH1 0x40 DUP2 KECCAK256 DUP1 SLOAD SWAP3 SWAP5 POP DUP5 SWAP3 SWAP1 SWAP2 SWAP1 PUSH2 0xDBD SWAP1 DUP5 SWAP1 PUSH2 0x149F JUMP JUMPDEST SWAP3 POP POP DUP2 SWAP1 SSTORE POP DUP2 PUSH1 0x2 PUSH1 0x0 DUP3 DUP3 SLOAD PUSH2 0xDD6 SWAP2 SWAP1 PUSH2 0x149F JUMP JUMPDEST SWAP3 POP POP DUP2 SWAP1 SSTORE POP DUP3 PUSH1 0x3 PUSH1 0x0 DUP3 DUP3 SLOAD PUSH2 0xDEF SWAP2 SWAP1 PUSH2 0x149F JUMP JUMPDEST SWAP1 SWAP2 SSTORE POP POP CALLER PUSH1 0x0 DUP2 DUP2 MSTORE PUSH1 0x7 PUSH1 0x20 SWAP1 DUP2 MSTORE PUSH1 0x40 SWAP2 DUP3 SWAP1 KECCAK256 NUMBER SWAP1 SSTORE DUP2 MLOAD DUP7 DUP2 MSTORE SWAP1 DUP2 ADD DUP6 SWAP1 MSTORE PUSH32 0x90890809C654F11D6E72A28FA60149770A0D11EC6C92319D6CEB2BB0A4EA1A15 SWAP2 ADD PUSH1 0x40 MLOAD DUP1 SWAP2 SUB SWAP1 LOG2 PUSH1 0x40 MLOAD CALLER SWAP1 PUSH2 0xE51 SWAP1 PUSH1 0x0 SWAP1 PUSH2 0x1331 JUMP JUMPDEST PUSH1 0x40 MLOAD DUP1 SWAP2 SUB SWAP1 KECCAK256 PUSH1 0x0 DUP1 MLOAD PUSH1 0x20 PUSH2 0x1668 DUP4 CODECOPY DUP2 MLOAD SWAP2 MSTORE DUP6 DUP6 TIMESTAMP PUSH1 0x40 MLOAD PUSH2 0xE7A SWAP4 SWAP3 SWAP2 SWAP1 PUSH2 0x1538 JUMP JUMPDEST PUSH1 0x40 MLOAD DUP1 SWAP2 SUB SWAP1 LOG3 DUP3 CALLER PUSH1 0x1 PUSH1 0x1 PUSH1 0xA0 SHL SUB AND PUSH1 0x0 PUSH1 0x40 MLOAD PUSH2 0xE9C SWAP2 SWAP1 PUSH2 0x1331 JUMP JUMPDEST PUSH1 0x40 MLOAD DUP1 SWAP2 SUB SWAP1 KECCAK256 PUSH1 0x0 DUP1 MLOAD PUSH1 0x20 PUSH2 0x1648 DUP4 CODECOPY DUP2 MLOAD SWAP2 MSTORE PUSH1 0x1 PUSH1 0x40 MLOAD PUSH2 0xEC2 SWAP2 SWAP1 PUSH2 0x155F JUMP JUMPDEST PUSH1 0x40 MLOAD DUP1 SWAP2 SUB SWAP1 LOG4 POP SWAP2 SWAP1 POP JUMP JUMPDEST PUSH1 0x5 SLOAD PUSH1 0x1 PUSH1 0x1 PUSH1 0xA0 SHL SUB AND CALLER EQ PUSH2 0xEFA JUMPI PUSH1 0x40 MLOAD PUSH3 0x461BCD PUSH1 0xE5 SHL DUP2 MSTORE PUSH1 0x4 ADD PUSH2 0x3EB SWAP1 PUSH2 0x1477 JUMP JUMPDEST PUSH1 0x1 PUSH1 0x1 PUSH1 0xA0 SHL SUB DUP2 AND PUSH2 0xF42 JUMPI PUSH1 0x40 MLOAD PUSH3 0x461BCD PUSH1 0xE5 SHL DUP2 MSTORE PUSH1 0x20 PUSH1 0x4 DUP3 ADD MSTORE PUSH1 0xF PUSH1 0x24 DUP3 ADD MSTORE PUSH15 0x496E76616C69642061646472657373 PUSH1 0x88 SHL PUSH1 0x44 DUP3 ADD MSTORE PUSH1 0x64 ADD PUSH2 0x3EB JUMP JUMPDEST PUSH1 0x5 DUP1 SLOAD PUSH1 0x1 PUSH1 0x1 PUSH1 0xA0 SHL SUB NOT AND PUSH1 0x1 PUSH1 0x1 PUSH1 0xA0 SHL SUB SWAP3 SWAP1 SWAP3 AND SWAP2 SWAP1 SWAP2 OR SWAP1 SSTORE JUMP JUMPDEST PUSH1 0x5 SLOAD PUSH1 0x0 SWAP1 PUSH1 0x1 PUSH1 0xA0 SHL SWAP1 DIV PUSH1 0xFF AND ISZERO PUSH2 0xF91 JUMPI PUSH1 0x40 MLOAD PUSH3 0x461BCD PUSH1 0xE5 SHL DUP2 MSTORE PUSH1 0x4 ADD PUSH2 0x3EB SWAP1 PUSH2 0x129F JUMP JUMPDEST CALLER PUSH1 0x0 SWAP1 DUP2 MSTORE PUSH1 0x6 PUSH1 0x20 MSTORE PUSH1 0x40 SWAP1 KECCAK256 SLOAD PUSH2 0xFE5 JUMPI PUSH1 0x40 MLOAD PUSH3 0x461BCD PUSH1 0xE5 SHL DUP2 MSTORE PUSH1 0x20 PUSH1 0x4 DUP3 ADD MSTORE PUSH1 0x15 PUSH1 0x24 DUP3 ADD MSTORE PUSH21 0x139BC81CDA185C995CC81D1BC818DBDB5C1BDD5B99 PUSH1 0x5A SHL PUSH1 0x44 DUP3 ADD MSTORE PUSH1 0x64 ADD PUSH2 0x3EB JUMP JUMPDEST PUSH1 0x0 PUSH2 0xFF0 CALLER PUSH2 0xA77 JUMP JUMPDEST SWAP1 POP PUSH1 0x0 DUP2 GT PUSH2 0x1039 JUMPI PUSH1 0x40 MLOAD PUSH3 0x461BCD PUSH1 0xE5 SHL DUP2 MSTORE PUSH1 0x20 PUSH1 0x4 DUP3 ADD MSTORE PUSH1 0x14 PUSH1 0x24 DUP3 ADD MSTORE PUSH20 0x139BC81E5A595B19081D1BC818DBDB5C1BDD5B99 PUSH1 0x62 SHL PUSH1 0x44 DUP3 ADD MSTORE PUSH1 0x64 ADD PUSH2 0x3EB JUMP JUMPDEST PUSH2 0x1042 DUP2 PUSH2 0x382 JUMP JUMPDEST CALLER PUSH1 0x0 SWAP1 DUP2 MSTORE PUSH1 0x6 PUSH1 0x20 MSTORE PUSH1 0x40 DUP2 KECCAK256 DUP1 SLOAD SWAP3 SWAP5 POP DUP5 SWAP3 SWAP1 SWAP2 SWAP1 PUSH2 0x1066 SWAP1 DUP5 SWAP1 PUSH2 0x149F JUMP JUMPDEST SWAP3 POP POP DUP2 SWAP1 SSTORE POP DUP2 PUSH1 0x2 PUSH1 0x0 DUP3 DUP3 SLOAD PUSH2 0x107F SWAP2 SWAP1 PUSH2 0x149F JUMP JUMPDEST SWAP3 POP POP DUP2 SWAP1 SSTORE POP DUP1 PUSH1 0x3 PUSH1 0x0 DUP3 DUP3 SLOAD PUSH2 0x1098 SWAP2 SWAP1 PUSH2 0x149F JUMP JUMPDEST SWAP3 POP POP DUP2 SWAP1 SSTORE POP DUP1 PUSH1 0x4 PUSH1 0x0 DUP3 DUP3 SLOAD PUSH2 0x10B1 SWAP2 SWAP1 PUSH2 0x149F JUMP JUMPDEST SWAP1 SWAP2 SSTORE POP POP PUSH1 0x40 DUP1 MLOAD DUP3 DUP2 MSTORE PUSH1 0x20 DUP2 ADD DUP5 SWAP1 MSTORE PUSH32 0xE3C48E43A3CC80F4A0C194845BDD6091FA19B9BB7D22E515C21E9F177E2E22AE SWAP2 ADD PUSH1 0x40 MLOAD DUP1 SWAP2 SUB SWAP1 LOG1 PUSH1 0x40 MLOAD CALLER SWAP1 PUSH2 0x1100 SWAP1 PUSH1 0x0 SWAP1 PUSH2 0x1331 JUMP JUMPDEST PUSH1 0x40 MLOAD DUP1 SWAP2 SUB SWAP1 KECCAK256 PUSH1 0x0 DUP1 MLOAD PUSH1 0x20 PUSH2 0x1668 DUP4 CODECOPY DUP2 MLOAD SWAP2 MSTORE DUP4 DUP6 TIMESTAMP PUSH1 0x40 MLOAD PUSH2 0x1129 SWAP4 SWAP3 SWAP2 SWAP1 PUSH2 0x15BE JUMP JUMPDEST PUSH1 0x40 MLOAD DUP1 SWAP2 SUB SWAP1 LOG3 DUP1 CALLER PUSH1 0x1 PUSH1 0x1 PUSH1 0xA0 SHL SUB AND PUSH1 0x0 PUSH1 0x40 MLOAD PUSH2 0x114B SWAP2 SWAP1 PUSH2 0x1331 JUMP JUMPDEST PUSH1 0x40 MLOAD DUP1 SWAP2 SUB SWAP1 KECCAK256 PUSH1 0x0 DUP1 MLOAD PUSH1 0x20 PUSH2 0x1648 DUP4 CODECOPY DUP2 MLOAD SWAP2 MSTORE PUSH1 0x1 PUSH1 0x40 MLOAD PUSH2 0x1171 SWAP2 SWAP1 PUSH2 0x15E6 JUMP JUMPDEST PUSH1 0x40 MLOAD DUP1 SWAP2 SUB SWAP1 LOG4 POP SWAP1 JUMP JUMPDEST PUSH1 0x0 PUSH1 0x20 DUP3 DUP5 SUB SLT ISZERO PUSH2 0x118F JUMPI PUSH1 0x0 DUP1 REVERT JUMPDEST DUP2 CALLDATALOAD PUSH1 0x1 PUSH1 0x1 PUSH1 0xA0 SHL SUB DUP2 AND DUP2 EQ PUSH2 0xADB JUMPI PUSH1 0x0 DUP1 REVERT JUMPDEST PUSH1 0x0 PUSH1 0x20 DUP3 DUP5 SUB SLT ISZERO PUSH2 0x11B8 JUMPI PUSH1 0x0 DUP1 REVERT JUMPDEST POP CALLDATALOAD SWAP2 SWAP1 POP JUMP JUMPDEST PUSH1 0x0 DUP2 MLOAD DUP1 DUP5 MSTORE PUSH1 0x0 JUMPDEST DUP2 DUP2 LT ISZERO PUSH2 0x11E5 JUMPI PUSH1 0x20 DUP2 DUP6 ADD DUP2 ADD MLOAD DUP7 DUP4 ADD DUP3 ADD MSTORE ADD PUSH2 0x11C9 JUMP JUMPDEST POP PUSH1 0x0 PUSH1 0x20 DUP3 DUP7 ADD ADD MSTORE PUSH1 0x20 PUSH1 0x1F NOT PUSH1 0x1F DUP4 ADD AND DUP6 ADD ADD SWAP2 POP POP SWAP3 SWAP2 POP POP JUMP JUMPDEST PUSH1 0x20 DUP2 MSTORE PUSH1 0x0 PUSH2 0xADB PUSH1 0x20 DUP4 ADD DUP5 PUSH2 0x11BF JUMP JUMPDEST PUSH1 0x80 DUP2 MSTORE PUSH1 0x0 PUSH2 0x122B PUSH1 0x80 DUP4 ADD DUP8 PUSH2 0x11BF JUMP JUMPDEST PUSH1 0x1 PUSH1 0x1 PUSH1 0xA0 SHL SUB SWAP6 SWAP1 SWAP6 AND PUSH1 0x20 DUP4 ADD MSTORE POP PUSH1 0x40 DUP2 ADD SWAP3 SWAP1 SWAP3 MSTORE PUSH1 0x60 SWAP1 SWAP2 ADD MSTORE SWAP2 SWAP1 POP JUMP JUMPDEST PUSH4 0x4E487B71 PUSH1 0xE0 SHL PUSH1 0x0 MSTORE PUSH1 0x11 PUSH1 0x4 MSTORE PUSH1 0x24 PUSH1 0x0 REVERT JUMPDEST DUP1 DUP3 MUL DUP2 ISZERO DUP3 DUP3 DIV DUP5 EQ OR PUSH2 0x3B8 JUMPI PUSH2 0x3B8 PUSH2 0x1250 JUMP JUMPDEST PUSH1 0x0 DUP3 PUSH2 0x129A JUMPI PUSH4 0x4E487B71 PUSH1 0xE0 SHL PUSH1 0x0 MSTORE PUSH1 0x12 PUSH1 0x4 MSTORE PUSH1 0x24 PUSH1 0x0 REVERT JUMPDEST POP DIV SWAP1 JUMP JUMPDEST PUSH1 0x20 DUP1 DUP3 MSTORE PUSH1 0xF SWAP1 DUP3 ADD MSTORE PUSH15 0x15985D5B1D081A5CC81C185D5CD959 PUSH1 0x8A SHL PUSH1 0x40 DUP3 ADD MSTORE PUSH1 0x60 ADD SWAP1 JUMP JUMPDEST DUP2 DUP2 SUB DUP2 DUP2 GT ISZERO PUSH2 0x3B8 JUMPI PUSH2 0x3B8 PUSH2 0x1250 JUMP JUMPDEST PUSH1 0x0 PUSH1 0x20 DUP3 DUP5 SUB SLT ISZERO PUSH2 0x12ED JUMPI PUSH1 0x0 DUP1 REVERT JUMPDEST DUP2 MLOAD DUP1 ISZERO ISZERO DUP2 EQ PUSH2 0xADB JUMPI PUSH1 0x0 DUP1 REVERT JUMPDEST PUSH1 0x1 DUP2 DUP2 SHR SWAP1 DUP3 AND DUP1 PUSH2 0x1311 JUMPI PUSH1 0x7F DUP3 AND SWAP2 POP JUMPDEST PUSH1 0x20 DUP3 LT DUP2 SUB PUSH2 0x723 JUMPI PUSH4 0x4E487B71 PUSH1 0xE0 SHL PUSH1 0x0 MSTORE PUSH1 0x22 PUSH1 0x4 MSTORE PUSH1 0x24 PUSH1 0x0 REVERT JUMPDEST PUSH1 0x0 DUP1 DUP4 SLOAD DUP2 PUSH1 0x1 DUP3 PUSH1 0x1 SHR SWAP2 POP PUSH1 0x1 DUP4 AND DUP1 PUSH2 0x134F JUMPI PUSH1 0x7F DUP4 AND SWAP3 POP JUMPDEST PUSH1 0x20 DUP1 DUP5 LT DUP3 SUB PUSH2 0x136E JUMPI PUSH4 0x4E487B71 PUSH1 0xE0 SHL DUP7 MSTORE PUSH1 0x22 PUSH1 0x4 MSTORE PUSH1 0x24 DUP7 REVERT JUMPDEST DUP2 DUP1 ISZERO PUSH2 0x1382 JUMPI PUSH1 0x1 DUP2 EQ PUSH2 0x1397 JUMPI PUSH2 0x13C4 JUMP JUMPDEST PUSH1 0xFF NOT DUP7 AND DUP10 MSTORE DUP5 ISZERO ISZERO DUP6 MUL DUP10 ADD SWAP7 POP PUSH2 0x13C4 JUMP JUMPDEST PUSH1 0x0 DUP11 DUP2 MSTORE PUSH1 0x20 SWAP1 KECCAK256 PUSH1 0x0 JUMPDEST DUP7 DUP2 LT ISZERO PUSH2 0x13BC JUMPI DUP2 SLOAD DUP12 DUP3 ADD MSTORE SWAP1 DUP6 ADD SWAP1 DUP4 ADD PUSH2 0x13A3 JUMP JUMPDEST POP POP DUP5 DUP10 ADD SWAP7 POP JUMPDEST POP SWAP5 SWAP9 SWAP8 POP POP POP POP POP POP POP POP JUMP JUMPDEST PUSH1 0x80 DUP2 MSTORE PUSH1 0x0 PUSH2 0x13FA PUSH1 0x80 DUP4 ADD PUSH1 0x8 DUP2 MSTORE PUSH8 0x7769746864726177 PUSH1 0xC0 SHL PUSH1 0x20 DUP3 ADD MSTORE PUSH1 0x40 ADD SWAP1 JUMP JUMPDEST PUSH1 0x20 DUP4 ADD SWAP6 SWAP1 SWAP6 MSTORE POP PUSH1 0x40 DUP2 ADD SWAP3 SWAP1 SWAP3 MSTORE PUSH1 0x60 SWAP1 SWAP2 ADD MSTORE SWAP1 JUMP JUMPDEST PUSH1 0x60 DUP2 MSTORE PUSH1 0x0 PUSH2 0x143C PUSH1 0x60 DUP4 ADD PUSH1 0x8 DUP2 MSTORE PUSH8 0x7769746864726177 PUSH1 0xC0 SHL PUSH1 0x20 DUP3 ADD MSTORE PUSH1 0x40 ADD SWAP1 JUMP JUMPDEST SWAP3 ISZERO ISZERO PUSH1 0x20 DUP4 DUP2 ADD SWAP2 SWAP1 SWAP2 MSTORE DUP3 DUP5 SUB PUSH1 0x40 SWAP4 DUP5 ADD MSTORE PUSH1 0x15 DUP5 MSTORE PUSH21 0x15DA5D1A191C985DD85B081CDD58D8D95CDCD99D5B PUSH1 0x5A SHL SWAP1 DUP5 ADD MSTORE POP ADD SWAP1 JUMP JUMPDEST PUSH1 0x20 DUP1 DUP3 MSTORE PUSH1 0xE SWAP1 DUP3 ADD MSTORE PUSH14 0x139BDD08185D5D1A1BDC9A5E9959 PUSH1 0x92 SHL PUSH1 0x40 DUP3 ADD MSTORE PUSH1 0x60 ADD SWAP1 JUMP JUMPDEST DUP1 DUP3 ADD DUP1 DUP3 GT ISZERO PUSH2 0x3B8 JUMPI PUSH2 0x3B8 PUSH2 0x1250 JUMP JUMPDEST PUSH1 0x80 DUP2 MSTORE PUSH1 0x0 PUSH2 0x13FA PUSH1 0x80 DUP4 ADD PUSH1 0x7 DUP2 MSTORE PUSH7 0x1A185C9D995CDD PUSH1 0xCA SHL PUSH1 0x20 DUP3 ADD MSTORE PUSH1 0x40 ADD SWAP1 JUMP JUMPDEST PUSH1 0x60 DUP2 MSTORE PUSH1 0x0 PUSH2 0x1500 PUSH1 0x60 DUP4 ADD PUSH1 0x7 DUP2 MSTORE PUSH7 0x1A185C9D995CDD PUSH1 0xCA SHL PUSH1 0x20 DUP3 ADD MSTORE PUSH1 0x40 ADD SWAP1 JUMP JUMPDEST SWAP3 ISZERO ISZERO PUSH1 0x20 DUP4 DUP2 ADD SWAP2 SWAP1 SWAP2 MSTORE DUP3 DUP5 SUB PUSH1 0x40 SWAP4 DUP5 ADD MSTORE PUSH1 0x12 DUP5 MSTORE PUSH18 0x12185C9D995CDD081CDD58D8D95CDCD99D5B PUSH1 0x72 SHL SWAP1 DUP5 ADD MSTORE POP ADD SWAP1 JUMP JUMPDEST PUSH1 0x80 DUP2 MSTORE PUSH1 0x0 PUSH2 0x13FA PUSH1 0x80 DUP4 ADD PUSH1 0x7 DUP2 MSTORE PUSH7 0x19195C1BDCDA5D PUSH1 0xCA SHL PUSH1 0x20 DUP3 ADD MSTORE PUSH1 0x40 ADD SWAP1 JUMP JUMPDEST PUSH1 0x60 DUP2 MSTORE PUSH1 0x0 PUSH2 0x1586 PUSH1 0x60 DUP4 ADD PUSH1 0x7 DUP2 MSTORE PUSH7 0x19195C1BDCDA5D PUSH1 0xCA SHL PUSH1 0x20 DUP3 ADD MSTORE PUSH1 0x40 ADD SWAP1 JUMP JUMPDEST SWAP3 ISZERO ISZERO PUSH1 0x20 DUP4 DUP2 ADD SWAP2 SWAP1 SWAP2 MSTORE DUP3 DUP5 SUB PUSH1 0x40 SWAP4 DUP5 ADD MSTORE PUSH1 0x12 DUP5 MSTORE PUSH18 0x11195C1BDCDA5D081CDD58D8D95CDCD99D5B PUSH1 0x72 SHL SWAP1 DUP5 ADD MSTORE POP ADD SWAP1 JUMP JUMPDEST PUSH1 0x80 DUP2 MSTORE PUSH1 0x0 PUSH2 0x13FA PUSH1 0x80 DUP4 ADD PUSH1 0x8 DUP2 MSTORE PUSH8 0x18DBDB5C1BDD5B99 PUSH1 0xC2 SHL PUSH1 0x20 DUP3 ADD MSTORE PUSH1 0x40 ADD SWAP1 JUMP JUMPDEST PUSH1 0x60 DUP2 MSTORE PUSH1 0x0 PUSH2 0x160E PUSH1 0x60 DUP4 ADD PUSH1 0x8 DUP2 MSTORE PUSH8 0x18DBDB5C1BDD5B99 PUSH1 0xC2 SHL PUSH1 0x20 DUP3 ADD MSTORE PUSH1 0x40 ADD SWAP1 JUMP JUMPDEST SWAP3 ISZERO ISZERO PUSH1 0x20 DUP4 DUP2 ADD SWAP2 SWAP1 SWAP2 MSTORE DUP3 DUP5 SUB PUSH1 0x40 SWAP4 DUP5 ADD MSTORE PUSH1 0x13 DUP5 MSTORE PUSH19 0x10DBDB5C1BDD5B99081CDD58D8D95CDCD99D5B PUSH1 0x6A SHL SWAP1 DUP5 ADD MSTORE POP ADD SWAP1 JUMP INVALID 0x2B DUP6 0xF9 0xD5 0xD5 0xB2 GT TSTORE 0xDB 0xEF ADD EXTCODESIZE SDIV 0xA9 PUSH28 0xC4EFC4AF97E7DA67FFA6870A234FC6D8E01F7B25B67A8427CCA34F99 DUP4 0xA9 OR PUSH20 0xC4F94A46977A530F95D3C5B7724B89FBFDA26469 PUSH17 0x667358221220E0F7D7110C61B0054E13DC ADDMOD 0xD3 KECCAK256 CREATE SHL MULMOD PUSH16 0x7F030A84D07E6E255EB0BB96646473 PUSH16 0x6C634300081800330000000000000000 "},"methodIdentifiers":{"FEE_PRECISION()":"e63a391f","accumulatedYield()":"fcdfd5c5","calculateAssetsFromShares(uint256)":"5a13a98f","calculateSharesFromAssets(uint256)":"27972e0c","calculateUserYield(address)":"6f7c99d2","compound()":"f69e2046","deposit(uint256)":"b6b55f25","feePercentage()":"a001ecdd","getShareBalance(address)":"11437941","getTotalAssets()":"6e07302b","getTotalShares()":"d5002f2e","getVaultInfo()":"7f98aa71","harvest()":"4641257d","lastDepositBlock(address)":"9ce1024b","owner()":"8da5cb5b","pause()":"8456cb59","paused()":"5c975abb","setFeePercentage(uint256)":"ae06c1b7","shareBalance(address)":"87793ba3","totalAssets()":"01e1d114","totalShares()":"3a98ef39","transferOwnership(address)":"f2fde38b","underlying()":"6f307dc3","unpause()":"3f4ba83a","vaultId()":"33194c0a","withdraw(uint256)":"2e1a7d4d"}}}}}