{"abi":[{"type":"constructor","inputs":[{"name":"_feedRegistry","type":"address","internalType":"address"},{"name":"_maxStaleness","type":"uint256","internalType":"uint256"}],"stateMutability":"nonpayable"},{"type":"function","name":"areTokensSupported","inputs":[{"name":"queriedTokens","type":"address[]","internalType":"address[]"}],"outputs":[{"name":"supported","type":"bool[]","internalType":"bool[]"}],"stateMutability":"view"},{"type":"function","name":"feedRegistry","inputs":[],"outputs":[{"name":"","type":"address","internalType":"address"}],"stateMutability":"view"},{"type":"function","name":"getPrice","inputs":[{"name":"token","type":"address","internalType":"address"}],"outputs":[{"name":"price","type":"uint256","internalType":"uint256"},{"name":"decimals","type":"uint8","internalType":"uint8"}],"stateMutability":"view"},{"type":"function","name":"getPrice18","inputs":[{"name":"token","type":"address","internalType":"address"}],"outputs":[{"name":"price18","type":"uint256","internalType":"uint256"}],"stateMutability":"view"},{"type":"function","name":"isTokenSupported","inputs":[{"name":"token","type":"address","internalType":"address"}],"outputs":[{"name":"","type":"bool","internalType":"bool"}],"stateMutability":"view"},{"type":"function","name":"maxStaleness","inputs":[],"outputs":[{"name":"","type":"uint256","internalType":"uint256"}],"stateMutability":"view"}],"bytecode":{"object":"0x60c0604052346100655761001a61001461015f565b9061023a565b61002261006a565b6112f66102688239608051818181610399015281816106c4015281816109bb0152610cd3015260a05181818161032b01528181610ab10152610bc401526112f690f35b610070565b60405190565b5f80fd5b601f801991011690565b634e487b7160e01b5f52604160045260245ffd5b9061009c90610074565b810190811060018060401b038211176100b457604052565b61007e565b906100cc6100c561006a565b9283610092565b565b5f80fd5b60018060a01b031690565b6100e6906100d2565b90565b6100f2816100dd565b036100f957565b5f80fd5b9050519061010a826100e9565b565b90565b6101188161010c565b0361011f57565b5f80fd5b905051906101308261010f565b565b919060408382031261015a578061014e610157925f86016100fd565b93602001610123565b90565b6100ce565b61017d61155e80380380610172816100b9565b928339810190610132565b9091565b90565b90565b61019b6101966101a092610181565b610184565b6100d2565b90565b6101ac90610187565b90565b60209181520190565b5f7f5265676973747279207a65726f00000000000000000000000000000000000000910152565b6101ec600d6020926101af565b6101f5816101b8565b0190565b61020e9060208101905f8183039101526101df565b90565b1561021857565b61022061006a565b62461bcd60e51b815280610236600482016101f9565b0390fd5b61025f8161025861025261024d5f6101a3565b6100dd565b916100dd565b1415610211565b60805260a05256fe60806040526004361015610013575b610447565b61001d5f3561007c565b80633737e8c41461007757806341976e091461007257806375151b631461006d57806387cf46961461006857806390238c39146100635763b8bce8a10361000e57610412565b6103dd565b610362565b6102e5565b61028d565b6101b9565b60e01c90565b60405190565b5f80fd5b5f80fd5b5f80fd5b5f80fd5b5f80fd5b5f80fd5b909182601f830112156100da5781359167ffffffffffffffff83116100d55760200192602083028401116100d057565b61009c565b610098565b610094565b90602082820312610110575f82013567ffffffffffffffff811161010b5761010792016100a0565b9091565b610090565b61008c565b5190565b60209181520190565b60200190565b151590565b61013690610128565b9052565b906101478160209361012d565b0190565b60200190565b9061016e61016861016184610115565b8093610119565b92610122565b905f5b81811061017e5750505090565b909192610197610191600192865161013a565b9461014b565b9101919091610171565b6101b69160208201915f818403910152610151565b90565b346101ea576101e66101d56101cf3660046100df565b906106b0565b6101dd610082565b918291826101a1565b0390f35b610088565b60018060a01b031690565b610203906101ef565b90565b61020f816101fa565b0361021657565b5f80fd5b9050359061022782610206565b565b906020828203126102425761023f915f0161021a565b90565b61008c565b90565b61025390610247565b9052565b60ff1690565b61026690610257565b9052565b91602061028b92949361028460408201965f83019061024a565b019061025d565b565b346102be576102a56102a0366004610229565b61099b565b906102ba6102b1610082565b9283928361026a565b0390f35b610088565b6102cc90610128565b9052565b91906102e3905f602085019401906102c3565b565b34610315576103116103006102fb366004610229565b610cbc565b610308610082565b918291826102d0565b0390f35b610088565b5f91031261032457565b61008c565b7f000000000000000000000000000000000000000000000000000000000000000090565b9190610360905f6020850194019061024a565b565b346103925761037236600461031a565b61038e61037d610329565b610385610082565b9182918261034d565b0390f35b610088565b7f000000000000000000000000000000000000000000000000000000000000000090565b6103c4906101fa565b9052565b91906103db905f602085019401906103bb565b565b3461040d576103ed36600461031a565b6104096103f8610397565b610400610082565b918291826103c8565b0390f35b610088565b346104425761043e61042d610428366004610229565b610e59565b610435610082565b9182918261034d565b0390f35b610088565b5f80fd5b606090565b90565b61046761046261046c926101ef565b610450565b6101ef565b90565b61047890610453565b90565b6104849061046f565b90565b61049090610453565b90565b61049c90610487565b90565b601f801991011690565b634e487b7160e01b5f52604160045260245ffd5b906104c79061049f565b810190811067ffffffffffffffff8211176104e157604052565b6104a9565b60e01b90565b906104ff6104f8610082565b92836104bd565b565b67ffffffffffffffff81116105195760208091020190565b6104a9565b61052781610128565b0361052e57565b5f80fd5b9050519061053f8261051e565b565b9092919261055661055182610501565b6104ec565b938185526020808601920283019281841161059357915b83831061057a5750505050565b602080916105888486610532565b81520192019161056d565b61009c565b9080601f830112156105b6578160206105b393519101610541565b90565b610094565b906020828203126105eb575f82015167ffffffffffffffff81116105e6576105e39201610598565b90565b610090565b61008c565b60209181520190565b90565b610605906101fa565b9052565b90610616816020936105fc565b0190565b5061062990602081019061021a565b90565b60200190565b9161064082610646926105f0565b926105f9565b90815f905b828210610659575050505090565b9091929361067b610675600192610670888661061a565b610609565b9561062c565b92019092919261064b565b909161069d9260208301925f818503910152610632565b90565b6106a8610082565b3d5f823e3d90fd5b905f906106bb61044b565b506106ed6106e87f000000000000000000000000000000000000000000000000000000000000000061047b565b610493565b61070f633737e8c494929461071a610703610082565b968795869485946104e6565b845260048401610686565b03915afa908115610752575f91610730575b5090565b61074c91503d805f833e61074481836104bd565b8101906105bb565b5f61072c565b6106a0565b5f90565b5f90565b9050519061076c82610206565b565b9060208282031261078757610784915f0161075f565b90565b61008c565b90565b6107a361079e6107a89261078c565b610450565b6101ef565b90565b6107b49061078f565b90565b6107cb6107c66107d09261078c565b610450565b610247565b90565b6107e76107e26107ec9261078c565b610450565b610257565b90565b6107f890610453565b90565b610804906107ef565b90565b61081090610487565b90565b69ffffffffffffffffffff1690565b61082b81610813565b0361083257565b5f80fd5b9050519061084382610822565b565b90565b61085181610845565b0361085857565b5f80fd5b9050519061086982610848565b565b61087481610247565b0361087b57565b5f80fd5b9050519061088c8261086b565b565b919060a0838203126108df576108a6815f8501610836565b926108b4826020830161085c565b926108dc6108c5846040850161087f565b936108d3816060860161087f565b93608001610836565b90565b61008c565b5f0190565b6108fd6108f86109029261078c565b610450565b610845565b90565b634e487b7160e01b5f52601160045260245ffd5b61092861092e91939293610247565b92610247565b820180921161093957565b610905565b61095261094d61095792610845565b610450565b610247565b90565b61096381610257565b0361096a57565b5f80fd5b9050519061097b8261095a565b565b9060208282031261099657610993915f0161096e565b90565b61008c565b6020610a0b916109a9610757565b506109b261075b565b506109e46109df7f000000000000000000000000000000000000000000000000000000000000000061047b565b610493565b610a006316b8e7316109f4610082565b958694859384936104e6565b8352600483016103c8565b03915afa908115610c95575f91610c67575b5080610a39610a33610a2e5f6107ab565b6101fa565b916101fa565b14610c4e57610a47906107fb565b90610a6c60a0610a5684610807565b63feaf968c90610a64610082565b9384926104e6565b82528180610a7c600482016108e4565b03915afa8015610c49575f8080809492505091610c17575b509081610aa9610aa35f6108e9565b91610845565b1315610bfb577f0000000000000000000000000000000000000000000000000000000000000000610ae2610adc5f6107b7565b91610247565b119081610b90575b50610b75576020610b06610b00610b1c9361093e565b94610807565b63313ce56790610b14610082565b9384926104e6565b82528180610b2c600482016108e4565b03915afa908115610b70575f91610b42575b5090565b610b63915060203d8111610b69575b610b5b81836104bd565b81019061097d565b5f610b3e565b503d610b51565b6106a0565b5090505f90610b8d610b875f936107b7565b926107d3565b90565b809150610ba5610b9f5f6107b7565b91610247565b14908115610bb5575b505f610aea565b9050610bf4610bee610be942937f000000000000000000000000000000000000000000000000000000000000000090610919565b610247565b91610247565b115f610bae565b505090505f90610c14610c0e5f936107b7565b926107d3565b90565b9050610c3a915060a03d8111610c42575b610c3281836104bd565b81019061088e565b509250610a94565b503d610c28565b6106a0565b505f90610c64610c5e5f936107b7565b926107d3565b90565b610c88915060203d8111610c8e575b610c8081836104bd565b81019061076e565b5f610a1d565b503d610c76565b6106a0565b5f90565b90602082820312610cb757610cb4915f01610532565b90565b61008c565b6020610d2391610cca610c9a565b50610cfc610cf77f000000000000000000000000000000000000000000000000000000000000000061047b565b610493565b610d186375151b63610d0c610082565b958694859384936104e6565b8352600483016103c8565b03915afa908115610d67575f91610d39575b5090565b610d5a915060203d8111610d60575b610d5281836104bd565b810190610c9e565b5f610d35565b503d610d48565b6106a0565b610d7590610487565b90565b9190604083820312610da05780610d94610d9d925f860161087f565b9360200161096e565b90565b61008c565b90565b610dbc610db7610dc192610da5565b610450565b610257565b90565b610dd0610dd691610257565b91610257565b90039060ff8211610de357565b610905565b610df190610257565b604d8111610dff57600a0a90565b610905565b634e487b7160e01b5f52601260045260245ffd5b610e24610e2a91610247565b91610247565b908115610e35570490565b610e04565b90565b610e51610e4c610e5692610e3a565b610450565b610247565b90565b6040610e9891610e67610757565b50610e7130610d6c565b610e8d6341976e09610e81610082565b958694859384936104e6565b8352600483016103c8565b03915afa8015610f96575f80929091610f65575b509081610ec1610ebb5f6107b7565b91610247565b14610f575780610eda610ed46012610da8565b91610257565b11610f2e5780610ef3610eed6012610da8565b91610257565b10610efc575090565b610f1b610f16610f2b9392610f116012610da8565b610dc4565b610de8565b610f256001610e3d565b9161106c565b90565b610f4e610f49610f549392610f436012610da8565b90610dc4565b610de8565b90610e18565b90565b5050610f625f6107b7565b90565b9050610f88915060403d8111610f8f575b610f8081836104bd565b810190610d78565b905f610eac565b503d610f76565b6106a0565b610fa7610fad91610247565b91610247565b908115610fb8570490565b610e04565b610fd1610fcc610fd692610da5565b610450565b610247565b90565b610fe36012610fbd565b90565b90565b610ffd610ff861100292610fe6565b610450565b610247565b90565b61100f6011610fe9565b90565b9061101d9103610247565b90565b9061102b9102610247565b90565b90565b61104561104061104a9261102e565b610450565b610247565b90565b90565b61106461105f6110699261104d565b610450565b610247565b90565b90929192611078610757565b50611084828290611259565b919091928261109b6110955f6107b7565b91610247565b1461124857856110b36110ad85610247565b91610247565b11156112165761120d9286611213969793611104936110d0610757565b50099085821190039403936001836110f15f6110ec87916107b7565b611012565b1680809504960493805f03040190611020565b17916112076111eb6111c76111a361117f61115b61112c60036111278991611031565b611020565b6111366002611050565b18611155600261115061114a8b8590611020565b91611050565b611012565b90611020565b611179600261117461116e8a8590611020565b91611050565b611012565b90611020565b61119d6002611198611192898590611020565b91611050565b611012565b90611020565b6111c160026111bc6111b6888590611020565b91611050565b611012565b90611020565b6111e560026111e06111da878590611020565b91611050565b611012565b90611020565b916112026111fc6002928590611020565b91611050565b611012565b90611020565b90611020565b90565b6112438661122c6112265f6107b7565b91610247565b14611235610fd9565b61123d611005565b9161127e565b6112a2565b505050916112569192610f9b565b90565b90611262610757565b5061126b610757565b505f198183099102908180821091030391565b61129861129e929361128e610757565b50809418916112b2565b90611020565b1890565b634e487b715f526020526024601cfd5b6112ba610757565b5015159056fea2646970667358221220a9c527f5c1f7bb3104deb9ae1bc49f0de8f0153bcfe5c5527538f63017433a3d64736f6c634300081a0033","linkReferences":{}},"methodIdentifiers":{"areTokensSupported(address[])":"3737e8c4","feedRegistry()":"90238c39","getPrice(address)":"41976e09","getPrice18(address)":"b8bce8a1","isTokenSupported(address)":"75151b63","maxStaleness()":"87cf4696"},"id":68}