{
  "_format": "hh3-artifact-1",
  "contractName": "MoltXCore",
  "sourceName": "contracts/MoltXCore.sol",
  "abi": [
    {
      "inputs": [],
      "stateMutability": "nonpayable",
      "type": "constructor"
    },
    {
      "inputs": [],
      "name": "AcceptSlotsExhausted",
      "type": "error"
    },
    {
      "inputs": [
        {
          "internalType": "address",
          "name": "target",
          "type": "address"
        }
      ],
      "name": "AddressEmptyCode",
      "type": "error"
    },
    {
      "inputs": [],
      "name": "AlreadyAccepted",
      "type": "error"
    },
    {
      "inputs": [],
      "name": "AlreadySettled",
      "type": "error"
    },
    {
      "inputs": [],
      "name": "AlreadyWhitelisted",
      "type": "error"
    },
    {
      "inputs": [],
      "name": "BountyTooHighForLevel",
      "type": "error"
    },
    {
      "inputs": [],
      "name": "BountyTooLow",
      "type": "error"
    },
    {
      "inputs": [],
      "name": "CancelWindowClosed",
      "type": "error"
    },
    {
      "inputs": [],
      "name": "ChallengeWindowClosed",
      "type": "error"
    },
    {
      "inputs": [],
      "name": "ChallengeWindowOpen",
      "type": "error"
    },
    {
      "inputs": [],
      "name": "CouncilNotConfigured",
      "type": "error"
    },
    {
      "inputs": [],
      "name": "DisputeWindowClosed",
      "type": "error"
    },
    {
      "inputs": [
        {
          "internalType": "address",
          "name": "implementation",
          "type": "address"
        }
      ],
      "name": "ERC1967InvalidImplementation",
      "type": "error"
    },
    {
      "inputs": [],
      "name": "ERC1967NonPayable",
      "type": "error"
    },
    {
      "inputs": [],
      "name": "EnforcedPause",
      "type": "error"
    },
    {
      "inputs": [],
      "name": "ExpectedPause",
      "type": "error"
    },
    {
      "inputs": [],
      "name": "FailedCall",
      "type": "error"
    },
    {
      "inputs": [],
      "name": "FeeOnTransferNotSupported",
      "type": "error"
    },
    {
      "inputs": [],
      "name": "InCooldown",
      "type": "error"
    },
    {
      "inputs": [],
      "name": "InsufficientLevel",
      "type": "error"
    },
    {
      "inputs": [],
      "name": "InvalidAmount",
      "type": "error"
    },
    {
      "inputs": [],
      "name": "InvalidInitialization",
      "type": "error"
    },
    {
      "inputs": [],
      "name": "InvalidMode",
      "type": "error"
    },
    {
      "inputs": [],
      "name": "InvalidTime",
      "type": "error"
    },
    {
      "inputs": [],
      "name": "LiquidityNotConfigured",
      "type": "error"
    },
    {
      "inputs": [],
      "name": "NoPubkey",
      "type": "error"
    },
    {
      "inputs": [],
      "name": "NotCouncil",
      "type": "error"
    },
    {
      "inputs": [],
      "name": "NotInitializing",
      "type": "error"
    },
    {
      "inputs": [],
      "name": "NotMaker",
      "type": "error"
    },
    {
      "inputs": [],
      "name": "NotRegistered",
      "type": "error"
    },
    {
      "inputs": [],
      "name": "NotRejected",
      "type": "error"
    },
    {
      "inputs": [],
      "name": "NotSettlement",
      "type": "error"
    },
    {
      "inputs": [],
      "name": "NotSubmitted",
      "type": "error"
    },
    {
      "inputs": [],
      "name": "NotTaker",
      "type": "error"
    },
    {
      "inputs": [
        {
          "internalType": "address",
          "name": "owner",
          "type": "address"
        }
      ],
      "name": "OwnableInvalidOwner",
      "type": "error"
    },
    {
      "inputs": [
        {
          "internalType": "address",
          "name": "account",
          "type": "address"
        }
      ],
      "name": "OwnableUnauthorizedAccount",
      "type": "error"
    },
    {
      "inputs": [],
      "name": "PredictionNotConfigured",
      "type": "error"
    },
    {
      "inputs": [],
      "name": "ReentrancyGuardReentrantCall",
      "type": "error"
    },
    {
      "inputs": [
        {
          "internalType": "address",
          "name": "token",
          "type": "address"
        }
      ],
      "name": "SafeERC20FailedOperation",
      "type": "error"
    },
    {
      "inputs": [],
      "name": "TakerSuspended",
      "type": "error"
    },
    {
      "inputs": [],
      "name": "TaskFull",
      "type": "error"
    },
    {
      "inputs": [],
      "name": "TaskNotOpen",
      "type": "error"
    },
    {
      "inputs": [],
      "name": "TokenNotWhitelisted",
      "type": "error"
    },
    {
      "inputs": [],
      "name": "TooManyActiveMakerTasks",
      "type": "error"
    },
    {
      "inputs": [],
      "name": "TooManyActiveTasks",
      "type": "error"
    },
    {
      "inputs": [],
      "name": "UUPSUnauthorizedCallContext",
      "type": "error"
    },
    {
      "inputs": [
        {
          "internalType": "bytes32",
          "name": "slot",
          "type": "bytes32"
        }
      ],
      "name": "UUPSUnsupportedProxiableUUID",
      "type": "error"
    },
    {
      "inputs": [],
      "name": "ZeroAddress",
      "type": "error"
    },
    {
      "anonymous": false,
      "inputs": [
        {
          "indexed": true,
          "internalType": "uint256",
          "name": "taskId",
          "type": "uint256"
        },
        {
          "indexed": true,
          "internalType": "address",
          "name": "maker",
          "type": "address"
        },
        {
          "indexed": false,
          "internalType": "uint256",
          "name": "totalReclaimed",
          "type": "uint256"
        }
      ],
      "name": "BountyReclaimed",
      "type": "event"
    },
    {
      "anonymous": false,
      "inputs": [
        {
          "indexed": true,
          "internalType": "uint256",
          "name": "taskId",
          "type": "uint256"
        },
        {
          "indexed": true,
          "internalType": "address",
          "name": "taker",
          "type": "address"
        }
      ],
      "name": "DisputeAbandoned",
      "type": "event"
    },
    {
      "anonymous": false,
      "inputs": [
        {
          "indexed": true,
          "internalType": "uint256",
          "name": "taskId",
          "type": "uint256"
        },
        {
          "indexed": true,
          "internalType": "address",
          "name": "taker",
          "type": "address"
        },
        {
          "indexed": false,
          "internalType": "uint256",
          "name": "bountyShare",
          "type": "uint256"
        }
      ],
      "name": "DisputeOutcomeRecorded",
      "type": "event"
    },
    {
      "anonymous": false,
      "inputs": [
        {
          "indexed": true,
          "internalType": "uint256",
          "name": "taskId",
          "type": "uint256"
        },
        {
          "indexed": true,
          "internalType": "address",
          "name": "taker",
          "type": "address"
        },
        {
          "indexed": false,
          "internalType": "bytes32",
          "name": "evidenceIPFSHash",
          "type": "bytes32"
        },
        {
          "indexed": false,
          "internalType": "uint64",
          "name": "deadline",
          "type": "uint64"
        }
      ],
      "name": "DisputeRaised",
      "type": "event"
    },
    {
      "anonymous": false,
      "inputs": [
        {
          "indexed": true,
          "internalType": "uint256",
          "name": "taskId",
          "type": "uint256"
        },
        {
          "indexed": true,
          "internalType": "address",
          "name": "taker",
          "type": "address"
        },
        {
          "indexed": false,
          "internalType": "bool",
          "name": "takerWon",
          "type": "bool"
        },
        {
          "indexed": false,
          "internalType": "uint256",
          "name": "bountyShare",
          "type": "uint256"
        }
      ],
      "name": "DisputeVerdictRecorded",
      "type": "event"
    },
    {
      "anonymous": false,
      "inputs": [
        {
          "indexed": false,
          "internalType": "uint64",
          "name": "version",
          "type": "uint64"
        }
      ],
      "name": "Initialized",
      "type": "event"
    },
    {
      "anonymous": false,
      "inputs": [
        {
          "indexed": true,
          "internalType": "address",
          "name": "previousOwner",
          "type": "address"
        },
        {
          "indexed": true,
          "internalType": "address",
          "name": "newOwner",
          "type": "address"
        }
      ],
      "name": "OwnershipTransferStarted",
      "type": "event"
    },
    {
      "anonymous": false,
      "inputs": [
        {
          "indexed": true,
          "internalType": "address",
          "name": "previousOwner",
          "type": "address"
        },
        {
          "indexed": true,
          "internalType": "address",
          "name": "newOwner",
          "type": "address"
        }
      ],
      "name": "OwnershipTransferred",
      "type": "event"
    },
    {
      "anonymous": false,
      "inputs": [
        {
          "indexed": false,
          "internalType": "address",
          "name": "account",
          "type": "address"
        }
      ],
      "name": "Paused",
      "type": "event"
    },
    {
      "anonymous": false,
      "inputs": [
        {
          "indexed": true,
          "internalType": "uint256",
          "name": "roundId",
          "type": "uint256"
        },
        {
          "indexed": true,
          "internalType": "address",
          "name": "user",
          "type": "address"
        },
        {
          "indexed": false,
          "internalType": "uint256",
          "name": "ethAmount",
          "type": "uint256"
        },
        {
          "indexed": false,
          "internalType": "uint256",
          "name": "moltxAmount",
          "type": "uint256"
        },
        {
          "indexed": false,
          "internalType": "uint256",
          "name": "lpMoltxUsed",
          "type": "uint256"
        },
        {
          "indexed": false,
          "internalType": "bool",
          "name": "taskLPAdded",
          "type": "bool"
        }
      ],
      "name": "PredictionRewardClaimed",
      "type": "event"
    },
    {
      "anonymous": false,
      "inputs": [
        {
          "indexed": true,
          "internalType": "uint256",
          "name": "roundId",
          "type": "uint256"
        },
        {
          "indexed": true,
          "internalType": "address",
          "name": "user",
          "type": "address"
        },
        {
          "indexed": true,
          "internalType": "uint8",
          "name": "tier",
          "type": "uint8"
        },
        {
          "indexed": false,
          "internalType": "uint256",
          "name": "shares",
          "type": "uint256"
        }
      ],
      "name": "PredictionTaskAccepted",
      "type": "event"
    },
    {
      "anonymous": false,
      "inputs": [
        {
          "indexed": true,
          "internalType": "uint256",
          "name": "roundId",
          "type": "uint256"
        },
        {
          "indexed": false,
          "internalType": "uint256",
          "name": "yesterdayOutput",
          "type": "uint256"
        },
        {
          "indexed": false,
          "internalType": "uint256",
          "name": "timestamp",
          "type": "uint256"
        }
      ],
      "name": "PredictionTaskCreated",
      "type": "event"
    },
    {
      "anonymous": false,
      "inputs": [
        {
          "indexed": true,
          "internalType": "uint256",
          "name": "taskId",
          "type": "uint256"
        },
        {
          "indexed": true,
          "internalType": "address",
          "name": "taker",
          "type": "address"
        },
        {
          "indexed": false,
          "internalType": "uint64",
          "name": "rejectTime",
          "type": "uint64"
        }
      ],
      "name": "SubmissionRejected",
      "type": "event"
    },
    {
      "anonymous": false,
      "inputs": [
        {
          "indexed": true,
          "internalType": "uint256",
          "name": "taskId",
          "type": "uint256"
        },
        {
          "indexed": true,
          "internalType": "address",
          "name": "taker",
          "type": "address"
        },
        {
          "indexed": false,
          "internalType": "uint64",
          "name": "acceptTime",
          "type": "uint64"
        }
      ],
      "name": "TaskAccepted",
      "type": "event"
    },
    {
      "anonymous": false,
      "inputs": [
        {
          "indexed": true,
          "internalType": "uint256",
          "name": "taskId",
          "type": "uint256"
        },
        {
          "indexed": true,
          "internalType": "address",
          "name": "taker",
          "type": "address"
        },
        {
          "indexed": false,
          "internalType": "uint64",
          "name": "cancelTime",
          "type": "uint64"
        }
      ],
      "name": "TaskCancelled",
      "type": "event"
    },
    {
      "anonymous": false,
      "inputs": [
        {
          "indexed": true,
          "internalType": "uint256",
          "name": "taskId",
          "type": "uint256"
        },
        {
          "indexed": true,
          "internalType": "address",
          "name": "maker",
          "type": "address"
        },
        {
          "indexed": false,
          "internalType": "address",
          "name": "bountyToken",
          "type": "address"
        },
        {
          "indexed": false,
          "internalType": "enum MoltXCore.TaskMode",
          "name": "mode",
          "type": "uint8"
        },
        {
          "indexed": false,
          "internalType": "uint256",
          "name": "bounty",
          "type": "uint256"
        },
        {
          "indexed": false,
          "internalType": "uint256",
          "name": "deposit",
          "type": "uint256"
        },
        {
          "indexed": false,
          "internalType": "uint32",
          "name": "maxTakers",
          "type": "uint32"
        },
        {
          "indexed": false,
          "internalType": "uint8",
          "name": "minTakerLevel",
          "type": "uint8"
        },
        {
          "indexed": false,
          "internalType": "uint64",
          "name": "acceptDeadline",
          "type": "uint64"
        },
        {
          "indexed": false,
          "internalType": "uint64",
          "name": "submitDeadline",
          "type": "uint64"
        },
        {
          "indexed": false,
          "internalType": "bytes32",
          "name": "requirementHash",
          "type": "bytes32"
        },
        {
          "indexed": false,
          "internalType": "bool",
          "name": "deliveryPrivate",
          "type": "bool"
        }
      ],
      "name": "TaskCreated",
      "type": "event"
    },
    {
      "anonymous": false,
      "inputs": [
        {
          "indexed": true,
          "internalType": "uint256",
          "name": "taskId",
          "type": "uint256"
        },
        {
          "indexed": false,
          "internalType": "uint256",
          "name": "protocolFee",
          "type": "uint256"
        },
        {
          "indexed": false,
          "internalType": "uint256",
          "name": "lpFee",
          "type": "uint256"
        }
      ],
      "name": "TaskSettled",
      "type": "event"
    },
    {
      "anonymous": false,
      "inputs": [
        {
          "indexed": true,
          "internalType": "uint256",
          "name": "taskId",
          "type": "uint256"
        },
        {
          "indexed": true,
          "internalType": "address",
          "name": "taker",
          "type": "address"
        },
        {
          "indexed": false,
          "internalType": "bytes32",
          "name": "deliveryRef",
          "type": "bytes32"
        },
        {
          "indexed": false,
          "internalType": "uint64",
          "name": "submitTime",
          "type": "uint64"
        }
      ],
      "name": "TaskSubmitted",
      "type": "event"
    },
    {
      "anonymous": false,
      "inputs": [
        {
          "indexed": true,
          "internalType": "address",
          "name": "token",
          "type": "address"
        }
      ],
      "name": "TokenRemovedFromWhitelist",
      "type": "event"
    },
    {
      "anonymous": false,
      "inputs": [
        {
          "indexed": true,
          "internalType": "address",
          "name": "token",
          "type": "address"
        }
      ],
      "name": "TokenWhitelisted",
      "type": "event"
    },
    {
      "anonymous": false,
      "inputs": [
        {
          "indexed": false,
          "internalType": "address",
          "name": "account",
          "type": "address"
        }
      ],
      "name": "Unpaused",
      "type": "event"
    },
    {
      "anonymous": false,
      "inputs": [
        {
          "indexed": true,
          "internalType": "address",
          "name": "implementation",
          "type": "address"
        }
      ],
      "name": "Upgraded",
      "type": "event"
    },
    {
      "inputs": [],
      "name": "AUTO_LP_FEE_BPS",
      "outputs": [
        {
          "internalType": "uint256",
          "name": "",
          "type": "uint256"
        }
      ],
      "stateMutability": "view",
      "type": "function"
    },
    {
      "inputs": [],
      "name": "CANCEL_WINDOW",
      "outputs": [
        {
          "internalType": "uint256",
          "name": "",
          "type": "uint256"
        }
      ],
      "stateMutability": "view",
      "type": "function"
    },
    {
      "inputs": [],
      "name": "CHALLENGE_WINDOW",
      "outputs": [
        {
          "internalType": "uint256",
          "name": "",
          "type": "uint256"
        }
      ],
      "stateMutability": "view",
      "type": "function"
    },
    {
      "inputs": [],
      "name": "CONSOLATION_PRIZE",
      "outputs": [
        {
          "internalType": "uint256",
          "name": "",
          "type": "uint256"
        }
      ],
      "stateMutability": "view",
      "type": "function"
    },
    {
      "inputs": [],
      "name": "DISPUTE_WINDOW",
      "outputs": [
        {
          "internalType": "uint256",
          "name": "",
          "type": "uint256"
        }
      ],
      "stateMutability": "view",
      "type": "function"
    },
    {
      "inputs": [],
      "name": "FINALIZE_BOUNTY",
      "outputs": [
        {
          "internalType": "uint256",
          "name": "",
          "type": "uint256"
        }
      ],
      "stateMutability": "view",
      "type": "function"
    },
    {
      "inputs": [],
      "name": "MIN_REPUTATION_BOUNTY",
      "outputs": [
        {
          "internalType": "uint256",
          "name": "",
          "type": "uint256"
        }
      ],
      "stateMutability": "view",
      "type": "function"
    },
    {
      "inputs": [],
      "name": "NEWMAKER_MAX_BOUNTY",
      "outputs": [
        {
          "internalType": "uint256",
          "name": "",
          "type": "uint256"
        }
      ],
      "stateMutability": "view",
      "type": "function"
    },
    {
      "inputs": [],
      "name": "NEWTAKER_MAX_BOUNTY",
      "outputs": [
        {
          "internalType": "uint256",
          "name": "",
          "type": "uint256"
        }
      ],
      "stateMutability": "view",
      "type": "function"
    },
    {
      "inputs": [],
      "name": "PROTOCOL_FEE_BPS",
      "outputs": [
        {
          "internalType": "uint256",
          "name": "",
          "type": "uint256"
        }
      ],
      "stateMutability": "view",
      "type": "function"
    },
    {
      "inputs": [],
      "name": "TAKER_CANCEL_COOLDOWN",
      "outputs": [
        {
          "internalType": "uint256",
          "name": "",
          "type": "uint256"
        }
      ],
      "stateMutability": "view",
      "type": "function"
    },
    {
      "inputs": [],
      "name": "TAKER_SHARE_BPS",
      "outputs": [
        {
          "internalType": "uint256",
          "name": "",
          "type": "uint256"
        }
      ],
      "stateMutability": "view",
      "type": "function"
    },
    {
      "inputs": [],
      "name": "UPGRADE_INTERFACE_VERSION",
      "outputs": [
        {
          "internalType": "string",
          "name": "",
          "type": "string"
        }
      ],
      "stateMutability": "view",
      "type": "function"
    },
    {
      "inputs": [],
      "name": "acceptOwnership",
      "outputs": [],
      "stateMutability": "nonpayable",
      "type": "function"
    },
    {
      "inputs": [
        {
          "internalType": "uint8",
          "name": "tier",
          "type": "uint8"
        },
        {
          "internalType": "uint256",
          "name": "maxPrice",
          "type": "uint256"
        }
      ],
      "name": "acceptPredictionTask",
      "outputs": [],
      "stateMutability": "payable",
      "type": "function"
    },
    {
      "inputs": [
        {
          "internalType": "uint256",
          "name": "taskId",
          "type": "uint256"
        }
      ],
      "name": "acceptTask",
      "outputs": [],
      "stateMutability": "nonpayable",
      "type": "function"
    },
    {
      "inputs": [
        {
          "internalType": "uint256",
          "name": "",
          "type": "uint256"
        },
        {
          "internalType": "address",
          "name": "",
          "type": "address"
        }
      ],
      "name": "activeDispute",
      "outputs": [
        {
          "internalType": "bool",
          "name": "",
          "type": "bool"
        }
      ],
      "stateMutability": "view",
      "type": "function"
    },
    {
      "inputs": [
        {
          "internalType": "address",
          "name": "token",
          "type": "address"
        },
        {
          "internalType": "uint24",
          "name": "fee",
          "type": "uint24"
        }
      ],
      "name": "addWhitelistToken",
      "outputs": [],
      "stateMutability": "nonpayable",
      "type": "function"
    },
    {
      "inputs": [
        {
          "internalType": "uint256",
          "name": "",
          "type": "uint256"
        },
        {
          "internalType": "address",
          "name": "",
          "type": "address"
        }
      ],
      "name": "bountyShareReclaimed",
      "outputs": [
        {
          "internalType": "bool",
          "name": "",
          "type": "bool"
        }
      ],
      "stateMutability": "view",
      "type": "function"
    },
    {
      "inputs": [
        {
          "internalType": "uint256",
          "name": "taskId",
          "type": "uint256"
        }
      ],
      "name": "cancelTask",
      "outputs": [],
      "stateMutability": "nonpayable",
      "type": "function"
    },
    {
      "inputs": [
        {
          "internalType": "uint256",
          "name": "taskId",
          "type": "uint256"
        }
      ],
      "name": "claimFunds",
      "outputs": [],
      "stateMutability": "nonpayable",
      "type": "function"
    },
    {
      "inputs": [
        {
          "internalType": "uint256",
          "name": "roundId",
          "type": "uint256"
        }
      ],
      "name": "claimPredictionReward",
      "outputs": [],
      "stateMutability": "nonpayable",
      "type": "function"
    },
    {
      "inputs": [
        {
          "internalType": "uint256",
          "name": "taskId",
          "type": "uint256"
        },
        {
          "internalType": "address",
          "name": "taker",
          "type": "address"
        }
      ],
      "name": "clearActiveDispute",
      "outputs": [],
      "stateMutability": "nonpayable",
      "type": "function"
    },
    {
      "inputs": [],
      "name": "council",
      "outputs": [
        {
          "internalType": "contract IMoltXCouncil",
          "name": "",
          "type": "address"
        }
      ],
      "stateMutability": "view",
      "type": "function"
    },
    {
      "inputs": [],
      "name": "createPredictionTask",
      "outputs": [],
      "stateMutability": "nonpayable",
      "type": "function"
    },
    {
      "inputs": [
        {
          "internalType": "address",
          "name": "bountyToken",
          "type": "address"
        },
        {
          "internalType": "uint96",
          "name": "bounty",
          "type": "uint96"
        },
        {
          "internalType": "uint96",
          "name": "deposit",
          "type": "uint96"
        },
        {
          "internalType": "enum MoltXCore.TaskMode",
          "name": "mode",
          "type": "uint8"
        },
        {
          "internalType": "uint32",
          "name": "maxTakers",
          "type": "uint32"
        },
        {
          "internalType": "uint8",
          "name": "categoryId",
          "type": "uint8"
        },
        {
          "internalType": "uint8",
          "name": "minTakerLevel",
          "type": "uint8"
        },
        {
          "internalType": "uint64",
          "name": "acceptDeadline",
          "type": "uint64"
        },
        {
          "internalType": "uint64",
          "name": "submitDeadline",
          "type": "uint64"
        },
        {
          "internalType": "bytes32",
          "name": "requirementHash",
          "type": "bytes32"
        },
        {
          "internalType": "bool",
          "name": "deliveryPrivate",
          "type": "bool"
        }
      ],
      "name": "createTask",
      "outputs": [
        {
          "internalType": "uint256",
          "name": "taskId",
          "type": "uint256"
        }
      ],
      "stateMutability": "nonpayable",
      "type": "function"
    },
    {
      "inputs": [
        {
          "internalType": "uint256",
          "name": "",
          "type": "uint256"
        }
      ],
      "name": "currentSingleTaker",
      "outputs": [
        {
          "internalType": "address",
          "name": "",
          "type": "address"
        }
      ],
      "stateMutability": "view",
      "type": "function"
    },
    {
      "inputs": [
        {
          "internalType": "uint256",
          "name": "",
          "type": "uint256"
        },
        {
          "internalType": "address",
          "name": "",
          "type": "address"
        }
      ],
      "name": "disputeOutcomes",
      "outputs": [
        {
          "internalType": "uint8",
          "name": "",
          "type": "uint8"
        }
      ],
      "stateMutability": "view",
      "type": "function"
    },
    {
      "inputs": [
        {
          "internalType": "uint256",
          "name": "",
          "type": "uint256"
        },
        {
          "internalType": "address",
          "name": "",
          "type": "address"
        }
      ],
      "name": "disputeRaiseUsdcEquiv",
      "outputs": [
        {
          "internalType": "uint256",
          "name": "",
          "type": "uint256"
        }
      ],
      "stateMutability": "view",
      "type": "function"
    },
    {
      "inputs": [
        {
          "internalType": "uint256",
          "name": "taskId",
          "type": "uint256"
        },
        {
          "internalType": "address",
          "name": "taker",
          "type": "address"
        },
        {
          "internalType": "address[]",
          "name": "consolationRecipients",
          "type": "address[]"
        },
        {
          "internalType": "address",
          "name": "commitFinalizer",
          "type": "address"
        }
      ],
      "name": "executeDisputeUnresolved",
      "outputs": [],
      "stateMutability": "nonpayable",
      "type": "function"
    },
    {
      "inputs": [
        {
          "internalType": "uint256",
          "name": "taskId",
          "type": "uint256"
        },
        {
          "internalType": "address",
          "name": "taker",
          "type": "address"
        },
        {
          "internalType": "bool",
          "name": "takerWon",
          "type": "bool"
        },
        {
          "internalType": "address[]",
          "name": "majorityJurors",
          "type": "address[]"
        },
        {
          "internalType": "address[]",
          "name": "minorityJurors",
          "type": "address[]"
        },
        {
          "internalType": "address[]",
          "name": "violators",
          "type": "address[]"
        },
        {
          "internalType": "address[]",
          "name": "consolationRecipients",
          "type": "address[]"
        },
        {
          "internalType": "address",
          "name": "commitFinalizer",
          "type": "address"
        },
        {
          "internalType": "address",
          "name": "revealFinalizer",
          "type": "address"
        }
      ],
      "name": "executeDisputeVerdict",
      "outputs": [],
      "stateMutability": "nonpayable",
      "type": "function"
    },
    {
      "inputs": [],
      "name": "getCurrentEmissionRate",
      "outputs": [
        {
          "internalType": "uint256",
          "name": "",
          "type": "uint256"
        }
      ],
      "stateMutability": "view",
      "type": "function"
    },
    {
      "inputs": [
        {
          "internalType": "uint256",
          "name": "taskId",
          "type": "uint256"
        },
        {
          "internalType": "address",
          "name": "taker",
          "type": "address"
        }
      ],
      "name": "getTakerState",
      "outputs": [
        {
          "components": [
            {
              "internalType": "address",
              "name": "taker",
              "type": "address"
            },
            {
              "internalType": "uint64",
              "name": "acceptTime",
              "type": "uint64"
            },
            {
              "internalType": "uint64",
              "name": "submitTime",
              "type": "uint64"
            },
            {
              "internalType": "uint64",
              "name": "rejectTime",
              "type": "uint64"
            },
            {
              "internalType": "bytes32",
              "name": "deliveryRef",
              "type": "bytes32"
            },
            {
              "internalType": "bool",
              "name": "hasSubmitted",
              "type": "bool"
            },
            {
              "internalType": "bool",
              "name": "isRejected",
              "type": "bool"
            },
            {
              "internalType": "bool",
              "name": "hasClaimed",
              "type": "bool"
            },
            {
              "internalType": "bool",
              "name": "inDispute",
              "type": "bool"
            }
          ],
          "internalType": "struct MoltXCore.TakerState",
          "name": "",
          "type": "tuple"
        }
      ],
      "stateMutability": "view",
      "type": "function"
    },
    {
      "inputs": [
        {
          "internalType": "uint256",
          "name": "taskId",
          "type": "uint256"
        }
      ],
      "name": "getTask",
      "outputs": [
        {
          "components": [
            {
              "internalType": "address",
              "name": "maker",
              "type": "address"
            },
            {
              "internalType": "address",
              "name": "bountyToken",
              "type": "address"
            },
            {
              "internalType": "enum MoltXCore.TaskMode",
              "name": "mode",
              "type": "uint8"
            },
            {
              "internalType": "enum MoltXCore.TaskStatus",
              "name": "status",
              "type": "uint8"
            },
            {
              "internalType": "uint96",
              "name": "bounty",
              "type": "uint96"
            },
            {
              "internalType": "uint96",
              "name": "deposit",
              "type": "uint96"
            },
            {
              "internalType": "uint32",
              "name": "maxTakers",
              "type": "uint32"
            },
            {
              "internalType": "uint32",
              "name": "acceptedCount",
              "type": "uint32"
            },
            {
              "internalType": "uint32",
              "name": "submittedCount",
              "type": "uint32"
            },
            {
              "internalType": "uint8",
              "name": "categoryId",
              "type": "uint8"
            },
            {
              "internalType": "uint8",
              "name": "minTakerLevel",
              "type": "uint8"
            },
            {
              "internalType": "bool",
              "name": "feesSettled",
              "type": "bool"
            },
            {
              "internalType": "uint64",
              "name": "acceptDeadline",
              "type": "uint64"
            },
            {
              "internalType": "uint64",
              "name": "submitDeadline",
              "type": "uint64"
            },
            {
              "internalType": "uint64",
              "name": "lastSubmitTime",
              "type": "uint64"
            },
            {
              "internalType": "uint64",
              "name": "lastAcceptTime",
              "type": "uint64"
            },
            {
              "internalType": "bytes32",
              "name": "requirementHash",
              "type": "bytes32"
            },
            {
              "internalType": "bool",
              "name": "deliveryPrivate",
              "type": "bool"
            }
          ],
          "internalType": "struct MoltXCore.Task",
          "name": "",
          "type": "tuple"
        }
      ],
      "stateMutability": "view",
      "type": "function"
    },
    {
      "inputs": [
        {
          "internalType": "uint256",
          "name": "taskId",
          "type": "uint256"
        }
      ],
      "name": "getTaskTakers",
      "outputs": [
        {
          "internalType": "address[]",
          "name": "",
          "type": "address[]"
        }
      ],
      "stateMutability": "view",
      "type": "function"
    },
    {
      "inputs": [],
      "name": "getWhitelistedTokens",
      "outputs": [
        {
          "internalType": "address[]",
          "name": "",
          "type": "address[]"
        }
      ],
      "stateMutability": "view",
      "type": "function"
    },
    {
      "inputs": [],
      "name": "identity",
      "outputs": [
        {
          "internalType": "contract IMoltXIdentity",
          "name": "",
          "type": "address"
        }
      ],
      "stateMutability": "view",
      "type": "function"
    },
    {
      "inputs": [
        {
          "internalType": "address",
          "name": "initialOwner",
          "type": "address"
        },
        {
          "internalType": "address",
          "name": "_usdcToken",
          "type": "address"
        },
        {
          "internalType": "address",
          "name": "_moltxToken",
          "type": "address"
        },
        {
          "internalType": "address",
          "name": "_identity",
          "type": "address"
        },
        {
          "internalType": "address",
          "name": "_role",
          "type": "address"
        },
        {
          "internalType": "address",
          "name": "_v3Factory",
          "type": "address"
        },
        {
          "internalType": "address[]",
          "name": "_initialWhitelistTokens",
          "type": "address[]"
        },
        {
          "internalType": "uint24[]",
          "name": "_poolFees",
          "type": "uint24[]"
        }
      ],
      "name": "initialize",
      "outputs": [],
      "stateMutability": "nonpayable",
      "type": "function"
    },
    {
      "inputs": [
        {
          "internalType": "uint256",
          "name": "taskId",
          "type": "uint256"
        }
      ],
      "name": "isTaskExpired",
      "outputs": [
        {
          "internalType": "bool",
          "name": "",
          "type": "bool"
        }
      ],
      "stateMutability": "view",
      "type": "function"
    },
    {
      "inputs": [
        {
          "internalType": "address",
          "name": "",
          "type": "address"
        }
      ],
      "name": "isTokenWhitelisted",
      "outputs": [
        {
          "internalType": "bool",
          "name": "",
          "type": "bool"
        }
      ],
      "stateMutability": "view",
      "type": "function"
    },
    {
      "inputs": [],
      "name": "liquidity",
      "outputs": [
        {
          "internalType": "contract IMoltXLiquidity",
          "name": "",
          "type": "address"
        }
      ],
      "stateMutability": "view",
      "type": "function"
    },
    {
      "inputs": [
        {
          "internalType": "uint256",
          "name": "",
          "type": "uint256"
        }
      ],
      "name": "makerSideSettled",
      "outputs": [
        {
          "internalType": "bool",
          "name": "",
          "type": "bool"
        }
      ],
      "stateMutability": "view",
      "type": "function"
    },
    {
      "inputs": [],
      "name": "minedFromPool",
      "outputs": [
        {
          "internalType": "uint256",
          "name": "",
          "type": "uint256"
        }
      ],
      "stateMutability": "view",
      "type": "function"
    },
    {
      "inputs": [
        {
          "internalType": "address",
          "name": "to",
          "type": "address"
        },
        {
          "internalType": "uint256",
          "name": "amount",
          "type": "uint256"
        }
      ],
      "name": "mintFromPool",
      "outputs": [
        {
          "internalType": "uint256",
          "name": "minted",
          "type": "uint256"
        }
      ],
      "stateMutability": "nonpayable",
      "type": "function"
    },
    {
      "inputs": [],
      "name": "moltxToken",
      "outputs": [
        {
          "internalType": "contract IMoltXToken",
          "name": "",
          "type": "address"
        }
      ],
      "stateMutability": "view",
      "type": "function"
    },
    {
      "inputs": [],
      "name": "nextTaskId",
      "outputs": [
        {
          "internalType": "uint256",
          "name": "",
          "type": "uint256"
        }
      ],
      "stateMutability": "view",
      "type": "function"
    },
    {
      "inputs": [],
      "name": "owner",
      "outputs": [
        {
          "internalType": "address",
          "name": "",
          "type": "address"
        }
      ],
      "stateMutability": "view",
      "type": "function"
    },
    {
      "inputs": [],
      "name": "pause",
      "outputs": [],
      "stateMutability": "nonpayable",
      "type": "function"
    },
    {
      "inputs": [],
      "name": "paused",
      "outputs": [
        {
          "internalType": "bool",
          "name": "",
          "type": "bool"
        }
      ],
      "stateMutability": "view",
      "type": "function"
    },
    {
      "inputs": [],
      "name": "pendingOwner",
      "outputs": [
        {
          "internalType": "address",
          "name": "",
          "type": "address"
        }
      ],
      "stateMutability": "view",
      "type": "function"
    },
    {
      "inputs": [],
      "name": "prediction",
      "outputs": [
        {
          "internalType": "contract IMoltXPrediction",
          "name": "",
          "type": "address"
        }
      ],
      "stateMutability": "view",
      "type": "function"
    },
    {
      "inputs": [],
      "name": "proxiableUUID",
      "outputs": [
        {
          "internalType": "bytes32",
          "name": "",
          "type": "bytes32"
        }
      ],
      "stateMutability": "view",
      "type": "function"
    },
    {
      "inputs": [
        {
          "internalType": "uint256",
          "name": "taskId",
          "type": "uint256"
        },
        {
          "internalType": "bytes32",
          "name": "evidenceIPFSHash",
          "type": "bytes32"
        }
      ],
      "name": "raiseDispute",
      "outputs": [],
      "stateMutability": "nonpayable",
      "type": "function"
    },
    {
      "inputs": [
        {
          "internalType": "uint256",
          "name": "taskId",
          "type": "uint256"
        }
      ],
      "name": "reclaimBounty",
      "outputs": [],
      "stateMutability": "nonpayable",
      "type": "function"
    },
    {
      "inputs": [
        {
          "internalType": "uint256",
          "name": "taskId",
          "type": "uint256"
        },
        {
          "internalType": "address[]",
          "name": "takers",
          "type": "address[]"
        }
      ],
      "name": "rejectSubmission",
      "outputs": [],
      "stateMutability": "nonpayable",
      "type": "function"
    },
    {
      "inputs": [
        {
          "internalType": "uint256",
          "name": "taskId",
          "type": "uint256"
        }
      ],
      "name": "rejectSubmission",
      "outputs": [],
      "stateMutability": "nonpayable",
      "type": "function"
    },
    {
      "inputs": [
        {
          "internalType": "uint256",
          "name": "",
          "type": "uint256"
        },
        {
          "internalType": "address",
          "name": "",
          "type": "address"
        }
      ],
      "name": "rejections",
      "outputs": [
        {
          "internalType": "bool",
          "name": "",
          "type": "bool"
        }
      ],
      "stateMutability": "view",
      "type": "function"
    },
    {
      "inputs": [
        {
          "internalType": "address",
          "name": "token",
          "type": "address"
        }
      ],
      "name": "removeWhitelistToken",
      "outputs": [],
      "stateMutability": "nonpayable",
      "type": "function"
    },
    {
      "inputs": [],
      "name": "renounceOwnership",
      "outputs": [],
      "stateMutability": "nonpayable",
      "type": "function"
    },
    {
      "inputs": [],
      "name": "role",
      "outputs": [
        {
          "internalType": "contract IMoltXRole",
          "name": "",
          "type": "address"
        }
      ],
      "stateMutability": "view",
      "type": "function"
    },
    {
      "inputs": [
        {
          "internalType": "uint256",
          "name": "taskId",
          "type": "uint256"
        },
        {
          "internalType": "address",
          "name": "taker",
          "type": "address"
        }
      ],
      "name": "setBountyShareReclaimed",
      "outputs": [],
      "stateMutability": "nonpayable",
      "type": "function"
    },
    {
      "inputs": [
        {
          "internalType": "address",
          "name": "_council",
          "type": "address"
        }
      ],
      "name": "setCouncil",
      "outputs": [],
      "stateMutability": "nonpayable",
      "type": "function"
    },
    {
      "inputs": [
        {
          "internalType": "uint256",
          "name": "taskId",
          "type": "uint256"
        },
        {
          "internalType": "address",
          "name": "taker",
          "type": "address"
        },
        {
          "internalType": "uint8",
          "name": "outcome",
          "type": "uint8"
        }
      ],
      "name": "setDisputeOutcome",
      "outputs": [],
      "stateMutability": "nonpayable",
      "type": "function"
    },
    {
      "inputs": [
        {
          "internalType": "address",
          "name": "_liquidity",
          "type": "address"
        }
      ],
      "name": "setLiquidity",
      "outputs": [],
      "stateMutability": "nonpayable",
      "type": "function"
    },
    {
      "inputs": [
        {
          "internalType": "uint256",
          "name": "taskId",
          "type": "uint256"
        },
        {
          "internalType": "uint256",
          "name": "amount",
          "type": "uint256"
        }
      ],
      "name": "setLpUsdcReceived",
      "outputs": [],
      "stateMutability": "nonpayable",
      "type": "function"
    },
    {
      "inputs": [
        {
          "internalType": "uint256",
          "name": "taskId",
          "type": "uint256"
        }
      ],
      "name": "setMakerSideSettled",
      "outputs": [],
      "stateMutability": "nonpayable",
      "type": "function"
    },
    {
      "inputs": [
        {
          "internalType": "address",
          "name": "_prediction",
          "type": "address"
        }
      ],
      "name": "setPrediction",
      "outputs": [],
      "stateMutability": "nonpayable",
      "type": "function"
    },
    {
      "inputs": [
        {
          "internalType": "address",
          "name": "_settlement",
          "type": "address"
        }
      ],
      "name": "setSettlement",
      "outputs": [],
      "stateMutability": "nonpayable",
      "type": "function"
    },
    {
      "inputs": [
        {
          "internalType": "uint256",
          "name": "taskId",
          "type": "uint256"
        },
        {
          "internalType": "address",
          "name": "taker",
          "type": "address"
        }
      ],
      "name": "setTakerClaimed",
      "outputs": [],
      "stateMutability": "nonpayable",
      "type": "function"
    },
    {
      "inputs": [
        {
          "internalType": "uint256",
          "name": "taskId",
          "type": "uint256"
        },
        {
          "internalType": "uint8",
          "name": "status",
          "type": "uint8"
        }
      ],
      "name": "setTaskStatus",
      "outputs": [],
      "stateMutability": "nonpayable",
      "type": "function"
    },
    {
      "inputs": [
        {
          "internalType": "address",
          "name": "_vault",
          "type": "address"
        }
      ],
      "name": "setVault",
      "outputs": [],
      "stateMutability": "nonpayable",
      "type": "function"
    },
    {
      "inputs": [
        {
          "internalType": "uint256",
          "name": "taskId",
          "type": "uint256"
        }
      ],
      "name": "settleFees",
      "outputs": [
        {
          "internalType": "uint256",
          "name": "",
          "type": "uint256"
        }
      ],
      "stateMutability": "nonpayable",
      "type": "function"
    },
    {
      "inputs": [],
      "name": "settlement",
      "outputs": [
        {
          "internalType": "address",
          "name": "",
          "type": "address"
        }
      ],
      "stateMutability": "view",
      "type": "function"
    },
    {
      "inputs": [
        {
          "internalType": "uint256",
          "name": "taskId",
          "type": "uint256"
        },
        {
          "internalType": "bytes32",
          "name": "deliveryRef",
          "type": "bytes32"
        }
      ],
      "name": "submitCompletion",
      "outputs": [],
      "stateMutability": "nonpayable",
      "type": "function"
    },
    {
      "inputs": [
        {
          "internalType": "address",
          "name": "",
          "type": "address"
        },
        {
          "internalType": "uint256",
          "name": "",
          "type": "uint256"
        }
      ],
      "name": "takerCancelCooldown",
      "outputs": [
        {
          "internalType": "uint64",
          "name": "",
          "type": "uint64"
        }
      ],
      "stateMutability": "view",
      "type": "function"
    },
    {
      "inputs": [
        {
          "internalType": "uint256",
          "name": "",
          "type": "uint256"
        },
        {
          "internalType": "address",
          "name": "",
          "type": "address"
        }
      ],
      "name": "takerStates",
      "outputs": [
        {
          "internalType": "address",
          "name": "taker",
          "type": "address"
        },
        {
          "internalType": "uint64",
          "name": "acceptTime",
          "type": "uint64"
        },
        {
          "internalType": "uint64",
          "name": "submitTime",
          "type": "uint64"
        },
        {
          "internalType": "uint64",
          "name": "rejectTime",
          "type": "uint64"
        },
        {
          "internalType": "bytes32",
          "name": "deliveryRef",
          "type": "bytes32"
        },
        {
          "internalType": "bool",
          "name": "hasSubmitted",
          "type": "bool"
        },
        {
          "internalType": "bool",
          "name": "isRejected",
          "type": "bool"
        },
        {
          "internalType": "bool",
          "name": "hasClaimed",
          "type": "bool"
        },
        {
          "internalType": "bool",
          "name": "inDispute",
          "type": "bool"
        }
      ],
      "stateMutability": "view",
      "type": "function"
    },
    {
      "inputs": [
        {
          "internalType": "uint256",
          "name": "",
          "type": "uint256"
        }
      ],
      "name": "taskLpUsdcReceived",
      "outputs": [
        {
          "internalType": "uint256",
          "name": "",
          "type": "uint256"
        }
      ],
      "stateMutability": "view",
      "type": "function"
    },
    {
      "inputs": [
        {
          "internalType": "uint256",
          "name": "",
          "type": "uint256"
        },
        {
          "internalType": "uint256",
          "name": "",
          "type": "uint256"
        }
      ],
      "name": "taskTakers",
      "outputs": [
        {
          "internalType": "address",
          "name": "",
          "type": "address"
        }
      ],
      "stateMutability": "view",
      "type": "function"
    },
    {
      "inputs": [
        {
          "internalType": "uint256",
          "name": "",
          "type": "uint256"
        }
      ],
      "name": "tasks",
      "outputs": [
        {
          "internalType": "address",
          "name": "maker",
          "type": "address"
        },
        {
          "internalType": "address",
          "name": "bountyToken",
          "type": "address"
        },
        {
          "internalType": "enum MoltXCore.TaskMode",
          "name": "mode",
          "type": "uint8"
        },
        {
          "internalType": "enum MoltXCore.TaskStatus",
          "name": "status",
          "type": "uint8"
        },
        {
          "internalType": "uint96",
          "name": "bounty",
          "type": "uint96"
        },
        {
          "internalType": "uint96",
          "name": "deposit",
          "type": "uint96"
        },
        {
          "internalType": "uint32",
          "name": "maxTakers",
          "type": "uint32"
        },
        {
          "internalType": "uint32",
          "name": "acceptedCount",
          "type": "uint32"
        },
        {
          "internalType": "uint32",
          "name": "submittedCount",
          "type": "uint32"
        },
        {
          "internalType": "uint8",
          "name": "categoryId",
          "type": "uint8"
        },
        {
          "internalType": "uint8",
          "name": "minTakerLevel",
          "type": "uint8"
        },
        {
          "internalType": "bool",
          "name": "feesSettled",
          "type": "bool"
        },
        {
          "internalType": "uint64",
          "name": "acceptDeadline",
          "type": "uint64"
        },
        {
          "internalType": "uint64",
          "name": "submitDeadline",
          "type": "uint64"
        },
        {
          "internalType": "uint64",
          "name": "lastSubmitTime",
          "type": "uint64"
        },
        {
          "internalType": "uint64",
          "name": "lastAcceptTime",
          "type": "uint64"
        },
        {
          "internalType": "bytes32",
          "name": "requirementHash",
          "type": "bytes32"
        },
        {
          "internalType": "bool",
          "name": "deliveryPrivate",
          "type": "bool"
        }
      ],
      "stateMutability": "view",
      "type": "function"
    },
    {
      "inputs": [
        {
          "internalType": "address",
          "name": "",
          "type": "address"
        }
      ],
      "name": "tokenPoolFee",
      "outputs": [
        {
          "internalType": "uint24",
          "name": "",
          "type": "uint24"
        }
      ],
      "stateMutability": "view",
      "type": "function"
    },
    {
      "inputs": [
        {
          "internalType": "address",
          "name": "newOwner",
          "type": "address"
        }
      ],
      "name": "transferOwnership",
      "outputs": [],
      "stateMutability": "nonpayable",
      "type": "function"
    },
    {
      "inputs": [],
      "name": "unpause",
      "outputs": [],
      "stateMutability": "nonpayable",
      "type": "function"
    },
    {
      "inputs": [
        {
          "internalType": "address",
          "name": "newImplementation",
          "type": "address"
        },
        {
          "internalType": "bytes",
          "name": "data",
          "type": "bytes"
        }
      ],
      "name": "upgradeToAndCall",
      "outputs": [],
      "stateMutability": "payable",
      "type": "function"
    },
    {
      "inputs": [],
      "name": "usdcToken",
      "outputs": [
        {
          "internalType": "contract IERC20",
          "name": "",
          "type": "address"
        }
      ],
      "stateMutability": "view",
      "type": "function"
    },
    {
      "inputs": [],
      "name": "v3Factory",
      "outputs": [
        {
          "internalType": "address",
          "name": "",
          "type": "address"
        }
      ],
      "stateMutability": "view",
      "type": "function"
    },
    {
      "inputs": [],
      "name": "vault",
      "outputs": [
        {
          "internalType": "contract IMoltXVault",
          "name": "",
          "type": "address"
        }
      ],
      "stateMutability": "view",
      "type": "function"
    },
    {
      "inputs": [
        {
          "internalType": "uint256",
          "name": "",
          "type": "uint256"
        }
      ],
      "name": "whitelistedTokens",
      "outputs": [
        {
          "internalType": "address",
          "name": "",
          "type": "address"
        }
      ],
      "stateMutability": "view",
      "type": "function"
    }
  ],
  "bytecode": "0x60a080604052346100e65760017f9b779b17422d0df92223018b32b4d1fa46e071723d6817e2486d003becc55f0055306080525f5160206159d85f395f51905f525460ff8160401c166100d7576002600160401b03196001600160401b03821601610084575b6040516158ed90816100eb8239608051818181612a5d0152612bc70152f35b6001600160401b0319166001600160401b039081175f5160206159d85f395f51905f525581527fc7f505b2f371ae2175ee4913f4499e1f2633a7b5936321eed1cdaeb6115181d290602090a15f80610065565b63f92ee8a960e01b5f5260045ffd5b5f80fdfe60806040526004361015610011575f80fd5b5f5f3560e01c806306d74bb314614f8a578063076c4a5214614f4d57806308ae3dcd146144c75780630a7cfd591461429257806310055c1d1461426957806311eac8551461424257806313da4c5b146141f857806319181175146141b05780631a686502146141875780631b55e3381461412c5780631bf6912d146137da5780631d3314a9146137bd5780631d65e77e146134ac5780631ee634ae1461304d5780632154bc44146130225780632372c91614612ff95780632587add814612fdc5780632b15d0f114612f975780632c159a1a14612f6e5780632fbe513414612f06578063324df36d14612e9d57806336171e0e14612e565780633d8b6e0114612dff5780633eba94ae14612ddb5780633f4ba83a14612d5b5780634f1ef28614612b4e578063509af9b214612b2457806350b7523914612ada5780635116063014612ab157806352d1902d14612a4a578063598bf048146129b757806359bc882b146129845780635b7f2a83146129605780635c975abb1461293157806361b7c72a1461290257806361dcfd82146124c7578063636bf26d1461213057806365e372d6146120e95780636817031b146120a25780636893bd76146120795780636c1af45014611f5c5780636c55c03f14611eef5780636f9a362214611ed1578063715018a614611e52578063742f101614611d9657806375c79f2814611d7957806379ba509714611d295780637c06332214611d005780637c887c5914611cd75780637eec20a8146118ef5780638456cb591461187c5780638d373141146118315780638d977672146116f55780638da5cb5b146116c05780638e072289146114e95780638f4e6f37146114a25780638fe906d514611487578063a40c6abe14610ff8578063a6d80a2714611431578063ad3cb1cc146113d5578063b5af090f14611396578063b7cd532c146112a7578063b959474d14610ffd578063be37822814610ff8578063c14f7ea814610e13578063d1c5c2a514610cb9578063d62aad2914610c9b578063d9379b2714610641578063db36887e14610c7d578063dde61d7714610b77578063e26f790014610ae9578063e2c6d41c14610ac0578063e30c397814610a8b578063e8a422bc14610a41578063e9c78e12146108c1578063e9ee910714610738578063ee50efa5146106f6578063ef5b7a9114610686578063f216f0bd14610646578063f2d606f214610641578063f2fde38b146105bb578063f585dc571461059d578063fa29103c14610549578063fbfa77cf14610520578063fdc3d8d714610502578063fdfcaabe146104b55763ffc6d994146103d7575f80fd5b346104b25760403660031901126104b2576103f061500b565b6024359062ffffff821682036104b0576104086156a2565b6001600160a01b0381169182156104a157828452600b60205260ff604085205416610492579061046b91838552600b60205260408520600160ff19825416179055838552600c60205262ffffff60408620911662ffffff19825416179055615313565b7f6a65f90b1a644d2faac467a21e07e50e3f8fa5846e26231d30ae79a417d3d2628280a280f35b63b73e95e160e01b8452600484fd5b63d92e233d60e01b8452600484fd5b825b80fd5b50346104b25760403660031901126104b2576020906001600160401b03906040906001600160a01b036104e661500b565b168152601a845281812060243582528452205416604051908152f35b50346104b257806003193601126104b2576020600954604051908152f35b50346104b257806003193601126104b2576008546040516001600160a01b039091168152602090f35b50346104b25760403660031901126104b25761056361500b565b6007549091906001600160a01b0316330361058e576020610586602435846154fc565b604051908152f35b6376f04f9560e11b8152600490fd5b50346104b257806003193601126104b25760206040516202a3008152f35b50346104b25760203660031901126104b2576105d561500b565b6105dd6156a2565b5f5160206158985f395f51905f5280546001600160a01b0319166001600160a01b039283169081179091555f5160206157f85f395f51905f52549091167f38d16b8cac22d99fc7c124b9cd0de2d3fa1faef420bfe791d8c362d765e227008380a380f35b6151fd565b50346104b25760203660031901126104b2576007546001600160a01b0316330361058e576004358152601560205260408120805460ff1916600117905580f35b50346104b25760403660031901126104b2576106a0614ff5565b6007546001600160a01b031633036106e75760043582526010602052604082209060018060a01b03165f52602052600360405f20016201000062ff00001982541617905580f35b6376f04f9560e11b8252600482fd5b50346104b2576107053661504b565b6007549091906001600160a01b031633036107295782526019602052604082205580f35b6376f04f9560e11b8352600483fd5b50346104b25760203660031901126104b25761075261500b565b61075a6156a2565b6001600160a01b0316808252600b602052604082205460ff16156108b257808252600b6020526040822060ff198154169055808252600c6020526040822062ffffff198154169055815b600d54808210156108ab57826107b983615113565b905460039190911b1c6001600160a01b0316146107d957506001016107a4565b5f198101908111610897579061080c6107f461083093615113565b905460039190911b1c6001600160a01b031691615113565b81546001600160a01b0393841660039290921b91821b9390911b1916919091179055565b600d548015610883575f190161084581615113565b81549060018060a01b039060031b1b19169055600d555b7fdd2e6d9f52cbe8f695939d018b7d4a216dc613a669876163ac548b916489d9178280a280f35b634e487b7160e01b83526031600452602483fd5b634e487b7160e01b84526011600452602484fd5b505061085c565b6307c241ad60e51b8252600482fd5b5060403660031901126104b25760043560ff8116809103610a3d576108e461567b565b6108ec615643565b6006546001600160a01b03168015610a2e57602060649160405192838092632381cacf60e21b8252866004830152602435602483015233604483015234905af1908115610a235783916109f1575b5060065460405163a32bf59760e01b815290602090829060049082906001600160a01b03165afa9081156109e65784916109b0575b506040519182527f06bc977319d7cb33212f0488823e5fe21a5274ced972350608007dd2b373860e60203393a460015f5160206158585f395f51905f525580f35b90506020813d6020116109de575b816109cb602093836150db565b810103126109da57515f61096f565b5f80fd5b3d91506109be565b6040513d86823e3d90fd5b90506020813d602011610a1b575b81610a0c602093836150db565b810103126109da57515f61093a565b3d91506109ff565b6040513d85823e3d90fd5b6308a1c71960e41b8352600483fd5b5080fd5b50346104b25760403660031901126104b2576040610a5d614ff5565b9160043581526013602052209060018060a01b03165f52602052602060ff60405f2054166040519015158152f35b50346104b257806003193601126104b2575f5160206158985f395f51905f52546040516001600160a01b039091168152602090f35b50346104b257806003193601126104b2576004546040516001600160a01b039091168152602090f35b50346104b257806003193601126104b25760405180916020600d54928381520191600d82527fd7b6990105719101dabeb77144f2a3385c8033acd3af97e9423a695e81ad1eb5915b818110610b5857610b5485610b48818703826150db565b6040519182918261516f565b0390f35b82546001600160a01b0316845260209093019260019283019201610b31565b50346104b25760803660031901126104b257610b91614ff5565b906044356001600160401b038111610a3d57610bb19036906004016151b1565b92610bba615021565b6004549092906001600160a01b03163303610c6e57600754939485946001600160a01b031690813b15610c6a5760405163dde61d7760e01b815260048035908201526001600160a01b03909416602485015260806044850152929385938593849286928492610c2d91608485019161542b565b6001600160a01b03909116606483015203925af18015610c5f57610c4e5750f35b81610c58916150db565b6104b25780f35b6040513d84823e3d90fd5b8580fd5b63d7b93c0f60e01b8452600484fd5b50346104b257806003193601126104b2576020600a54604051908152f35b50346104b257806003193601126104b2576020604051620151808152f35b50346104b25760403660031901126104b2576040610cd5614ff5565b91806101008351610ce5816150bf565b82815282602082015282858201528260608201528260808201528260a08201528260c08201528260e0820152015260043581526010602052209060018060a01b03165f5260205261012060405f206001600160401b0360405191610d48836150bf565b80549260018060a01b0384169384825283602083019160a01c168152600183015492846040840194818116865281606086019160401c16815260036002840154936080870194855201549687968160a088019660ff8a161515885260ff61010060c08b019a828d60081c1615158c528260e082019d60101c1615158d52019b60181c1615158b526040519b8c52511660208b0152511660408901525116606087015251608086015251151560a085015251151560c084015251151560e0830152511515610100820152f35b50346104b25760203660031901126104b257600435610e30615643565b808252600f6020526040822080546001600160a01b03163303610fe95760010190815460ff8160a01c166002811015610fd557610fc65760a81c60ff16600a811015610fb257600203610fa357808352601260205260018060a01b036040842054169181845260106020526040842060018060a01b0384165f5260205260405f209060018201916001600160401b03610ecb8185541661534e565b164211610f94579160209160037f2399d55bf2264fdf5b826cb82f1f79b96d2755fea42684b50c1e29a7aacd7b55940161010061ff0019825416179055610f3f6001600160401b03421680939067ffffffffffffffff60401b82549160401b169067ffffffffffffffff60401b1916179055565b805460ff60a81b1916600160aa1b1790558386526013825260408087206001600160a01b0387165f908152908452819020805460ff1916600117905551908152a360015f5160206158585f395f51905f525580f35b631588dee160e11b8652600486fd5b63448ad72360e01b8352600483fd5b634e487b7160e01b84526021600452602484fd5b63a0042b1760e01b8452600484fd5b634e487b7160e01b85526021600452602485fd5b63b331e42160e01b8352600483fd5b6151e1565b50346104b25760403660031901126104b2576004356024356001600160401b0381116104b0576110319036906004016151b1565b909161103b615643565b808452600f6020526040842080546001600160a01b031633036112985760ff600182015460a01c16600281101561128457600103611275576003810154906001600160401b038260381c16421190818015611224575b15611215576002015460e01c63ffffffff831614908161120d575b50156111f0576001600160401b036110c79160b81c1661534e565b9291925b426001600160401b031692855b858110156111db57600581901b8201356001600160a01b03811691908290036111d757600191858952601060205260408920815f5260205260405f2087600382019182549060ff8216156111cd5760ff8260081c166111cd576001600160401b03891642116111cd5761117b93610100889361ff001916179055019067ffffffffffffffff60401b82549160401b169067ffffffffffffffff60401b1916179055565b858952601360205260408920815f5260205260405f208360ff19825416179055857f2399d55bf2264fdf5b826cb82f1f79b96d2755fea42684b50c1e29a7aacd7b5560206040518a8152a35b016110d8565b50505050506111c7565b8780fd5b8660015f5160206158585f395f51905f525580f35b6001600160401b036112059160781c1661534e565b9291926110cb565b90505f6110ac565b6337bf561360e11b8752600487fd5b50600281015463ffffffff8160c01c169060e01c14801561109157506001600160401b036004820154166107088101809111611261574211611091565b634e487b7160e01b88526011600452602488fd5b63a0042b1760e01b8552600485fd5b634e487b7160e01b86526021600452602486fd5b63b331e42160e01b8552600485fd5b50346104b257806003193601126104b2576112c061567b565b6112c8615643565b6006546001600160a01b031680156113875760408291602482518094819363baab18f760e01b83523360048401525af18015610c5f578291839161134c575b5060407f4b7ca2e9f457814bfc00de439bc87c00fc0fba35eeb679d2af5384d11aa8865d918151908152426020820152a260015f5160206158585f395f51905f525580f35b9150506040813d60401161137f575b81611368604093836150db565b81010312610a3d5780516020909101516040611307565b3d915061135b565b6308a1c71960e41b8252600482fd5b50346104b25760203660031901126104b25760209060ff906040906001600160a01b036113c161500b565b168152600b84522054166040519015158152f35b50346104b257806003193601126104b257604080516113f482826150db565b6005815260208101640352e302e360dc1b81528251938492602084525180928160208601528585015e828201840152601f01601f19168101030190f35b50346104b25760203660031901126104b25761144b61500b565b6114536156a2565b6001600160a01b03168015611478576001600160601b0360a01b600454161760045580f35b63d92e233d60e01b8252600482fd5b50346104b257806003193601126104b257602061058661546a565b50346104b25760203660031901126104b2576114bc61500b565b6114c46156a2565b6001600160a01b03168015611478576001600160601b0360a01b600754161760075580f35b50346104b2576101203660031901126104b257611504614ff5565b90604435801515809103610a3d576064356001600160401b0381116104b0576115319036906004016151b1565b6084929192356001600160401b0381116116bc576115539036906004016151b1565b909260a4356001600160401b0381116116b8576115749036906004016151b1565b92909760c4356001600160401b0381116116b4576115969036906004016151b1565b60e4356001600160a01b03811692908390036116b057610104356001600160a01b03811692908390036116ac576004546001600160a01b0316330361169d576007549b9c8d9c6001600160a01b031698893b15611699578d9b8c986040519e8f9d8e9c8d9b638e07228960e01b8d528c6004359060040152600160a01b600190031660248d015260448c015260648b0161012090526101248b019061163a9261542b565b906003198a83030160848b01526116509261542b565b906003198883030160a48901526116669261542b565b906003198683030160c487015261167c9261542b565b9160e484015261010483015203925af18015610c5f57610c4e5750f35b8d80fd5b63d7b93c0f60e01b8c5260048cfd5b8b80fd5b8a80fd5b8880fd5b8680fd5b8480fd5b50346104b257806003193601126104b2575f5160206157f85f395f51905f52546040516001600160a01b039091168152602090f35b50346104b25760203660031901126104b2576040610240916004358152600f6020522060018060a01b038154169060018101549060028101546001600160401b036003830154816004850154169261178b60ff60066005880154970154169660405198895260018060a01b03811660208a015261177b60408a0160ff8360a01c16615061565b60ff60608a019160a81c16615082565b6001600160601b03811660808801526001600160601b038160601c1660a088015263ffffffff8160c01c1660c088015260e01c60e087015263ffffffff811661010087015260ff8160201c1661012087015260ff8160281c1661014087015260ff8160301c161515610160870152818160381c16610180870152818160781c166101a087015260b81c166101c08501526101e08401526102008301521515610220820152f35b50346104b2576118403661504b565b919081526011602052604081209081548310156104b2576020611863848461513f565b905460405160039290921b1c6001600160a01b03168152f35b50346104b257806003193601126104b2576118956156a2565b61189d61567b565b600160ff195f5160206158385f395f51905f525416175f5160206158385f395f51905f52557f62e78cea01bee320cd4e420270b5ea74000d11b0c9f74754ebdbfc544b05a2586020604051338152a180f35b50346104b25760203660031901126104b25760043561190c615643565b808252600f6020908152604080842083855260108352818520335f8181529190945291909120805493926001600160a01b03851603611cc85760ff600382015416611cc8576107086001600160401b0361196e818042169760a01c16876153fe565b1611611cb9576002820190856001600160601b03835460601c1680611c4e575b5050610e104201804211611c3a57338752601a602052604087208588526020526001600160401b0380604089209216166001600160401b0319825416179055815460e01c8015611c3a5782546001600160e01b03165f1990910160e01b6001600160e01b031916178255600183019160ff835460a01c166002811015611c2657879493929190611c035750611a336001600160401b03611abc925460a01c16876153fe565b611a946003850191611a81611a55826001600160401b03865460381c1661536e565b84546effffffffffffffff00000000000000191660389190911b67ffffffffffffffff60381b16178455565b6001600160401b03835460781c1661536e565b815467ffffffffffffffff60781b191660789190911b67ffffffffffffffff60781b16179055565b805460ff60a81b1916905582825260126020526040822080546001600160a01b03191690555b6003546001600160a01b0316803b156104b05782809160246040518094819363cfbf6feb60e01b83523360048401525af1908115610a23578391611bee575b505060035490546001600160a01b039182169116813b156104b05782916024839260405194859384926331bfaf6160e01b845260048401525af18015610c5f57611bd9575b5081905260106020526040832060018060a01b0333165f5260205282600360405f2082815582600182015582600282015501556040519182527faf41d87df835c270c97a7ca1969dfb4e7c8450cb1effa7c7f2af7013fd9bef6760203393a360015f5160206158585f395f51905f525580f35b81611be3916150db565b6104b057825f611b66565b81611bf8916150db565b610a3d57815f611b21565b90505460e01c15611c15575b50611ae2565b805460ff60a81b191690555f611c0f565b634e487b7160e01b88526021600452602488fd5b634e487b7160e01b87526011600452602487fd5b60085460018601546001600160a01b0391821692911690823b15611cb557611c9192849283604051809681958294638bfb07c960e01b8452339060048501615281565b03925af18015610c5f571561198e5781611caa916150db565b610c6a57855f61198e565b8380fd5b63b92ef73560e01b8552600485fd5b635211a07960e01b8552600485fd5b50346104b257806003193601126104b257600e546040516001600160a01b039091168152602090f35b50346104b257806003193601126104b2576001546040516001600160a01b039091168152602090f35b50346104b257806003193601126104b2575f5160206158985f395f51905f5254336001600160a01b0390911603611d6657611d63336156d5565b80f35b63118cdaa760e01b815233600452602490fd5b50346104b257806003193601126104b25760206040516107088152f35b50346104b25760403660031901126104b2576040611db2614ff5565b9160043581526010602052209060018060a01b03165f5260205261012060405f2060ff8154916001810154906001600160401b036003600283015492015492816040519660018060a01b038116885260a01c166020870152818116604087015260401c1660608501526080840152818116151560a0840152818160081c16151560c0840152818160101c16151560e084015260181c161515610100820152f35b50346104b257806003193601126104b257611e6b6156a2565b5f5160206158985f395f51905f5280546001600160a01b03199081169091555f5160206157f85f395f51905f528054918216905581906001600160a01b03167f8be0079c531659141344cd1fd0a4f28419497f9722a3daafe3b4186f6b6457e08280a380f35b50346104b257806003193601126104b2576020604051629896808152f35b50346104b25760203660031901126104b2576004358152601160205260408120604051918260208354918281520192825260208220915b818110611f3d57610b5485610b48818703826150db565b82546001600160a01b0316845260209093019260019283019201611f26565b50346104b25760203660031901126104b257600435611f79615643565b6006546001600160a01b0316908115610a2e57604051632464d11760e21b8152600481018290523360248201529160a0908390604490829087905af18015610a235783928485918693612019575b5060405194855260208501526040840152151560608301527fec23174b45419119b3b37dfc409a242d7987563ae9a83145c2b36c1814d3096660803393a360015f5160206158585f395f51905f525580f35b945050505060a0823d60a011612071575b8161203760a093836150db565b810103126104b0578151916020810151926120546040830161521b565b5061206660806060840151930161521b565b90939190915f611fc7565b3d915061202a565b50346104b25760203660031901126104b257602061209860043561538e565b6040519015158152f35b50346104b25760203660031901126104b2576120bc61500b565b6120c46156a2565b6001600160a01b03168015611478576001600160601b0360a01b600854161760085580f35b50346104b25760203660031901126104b25761210361500b565b61210b6156a2565b6001600160a01b03168015611478576001600160601b0360a01b600654161760065580f35b50346104b25761213f3661504b565b90612148615643565b808352600f6020908152604080852083865260108352818620335f908152935291206004549091906001600160a01b0316156124b8578154336001600160a01b0390911603611cc85760ff600383015460081c16156124a95760018060a01b03600e54169160018060a01b03865416926001830193602060018060a01b0386541691828a52600c825262ffffff60408b2054169361220a60028801946001600160601b038654166040519788958695630da3d5f760e11b875260048701615241565b038173__$72dec2cee89bd9d1ed56bfcbd5719fa3e3$__5af491821561249e57889261246a575b5060ff855460a01c1660028110156124565760010361244f575460e01c90811561243b5704905b62989680821061242c576001600160401b0360016202a30092015460401c1601926001600160401b038411611c3a576001600160401b038416421161241d57848752601460209081526040808920335f818152918452828220805460ff19166001179055888b5260178452828b209082529092529020829055805460a01c60ff166002811015611c2657906020929115612406575b5060048054935460405163bd57a1cf60e01b81529182018790526001600160a01b03908116602483015233604483015260648201889052608482019290925292839160a49183918a91165af180156123fb5761239c575b50604080519384526001600160401b03909116602084015233927f546960a33ef6439d639587237eb4e0fccba63e80982034684760497077514d4291819081015b0390a360015f5160206158585f395f51905f525580f35b6020813d6020116123f3575b816123b5602093836150db565b810103126116bc577f546960a33ef6439d639587237eb4e0fccba63e80982034684760497077514d42916123eb6123859261521b565b509150612344565b3d91506123a8565b6040513d87823e3d90fd5b805460ff60a81b1916600360a91b1790555f6122ed565b6321ad1e7f60e11b8752600487fd5b6352664d8560e01b8752600487fd5b634e487b7160e01b88526012600452602488fd5b5090612258565b634e487b7160e01b89526021600452602489fd5b9091506020813d602011612496575b81612486602093836150db565b810103126109da5751905f612231565b3d9150612479565b6040513d8a823e3d90fd5b63255110f760e21b8552600485fd5b6301661ffb60e41b8552600485fd5b50346104b25760203660031901126104b257600754600435906001600160a01b031633036106e7578190808352600f60205260408320600381019360ff855460301c166128f4576001600160601b036002830154166101f48102908082046101f414901517156128e0576127109004918215158061284e575b612598575b505060407f06748d41c3bbc7ce6edfac1d0ee8396c063bb3cfa1a9df96375e07137a8170d691602095660100000000000066ff0000000000001982541617905581519080825286820152a2604051908152f35b60055491959450906001600160a01b03161561283f57600854600182018054909187916001600160a01b039081169116803b156104b057604051638bfb07c960e01b81526001600160a01b039290921660048301523060248301526044820186905282908290606490829084905af18015610c5f5761282a575b5050805460055460405163095ea7b360e01b89526001600160a01b0391821660048190526024879052919092169160208960448180875af19060018a511482161561281b575b60405215612743575b5050600554915490546001600160a01b03908116808852600c60209081526040808a205490516306697e0960e31b815260048101899052948416602486015260448501929092526064840186905262ffffff90911660848401529192839160a49183918a91165af19485156127375794612702575b5091929160407f06748d41c3bbc7ce6edfac1d0ee8396c063bb3cfa1a9df96375e07137a8170d6612545565b93506020843d60201161272f575b8161271d602093836150db565b810103126109da5792519260406126d6565b3d9150612710565b604051903d90823e3d90fd5b60405163095ea7b360e01b8952816004528860245260208960448180875af19060018a51148216156127fa575b604052156127e6576040519063095ea7b360e01b89526004528460245260208860448180865af19060018951148216156127c5575b604052156127b35780612661565b635274afe760e01b8752600452602486fd5b9060018115166127dd57823b15153d151616906127a5565b503d88823e3d90fd5b635274afe760e01b88526004829052602488fd5b90600181151661281257833b15153d15161690612770565b503d89823e3d90fd5b90833b15153d15161690612658565b81612834916150db565b610c6a57855f612612565b6375bcd9bd60e11b8552600485fd5b60085460018301545f5160206157f85f395f51905f52546001600160a01b03928316929081169116823b15610c6a57604051638bfb07c960e01b81526001600160a01b03918216600482015291166024820152604481018690529084908290606490829084905af180156109e6579084916128cb575b5050612540565b816128d5916150db565b6104b057825f6128c4565b634e487b7160e01b82526011600452602482fd5b62560ff960e81b8152600490fd5b50346104b25760203660031901126104b25760ff60406020926004358152601584522054166040519015158152f35b50346104b257806003193601126104b257602060ff5f5160206158385f395f51905f5254166040519015158152f35b50346104b257806003193601126104b257602060405168056bc75e2d631000008152f35b50346104b25760203660031901126104b257602090600435815260128252604060018060a01b0391205416604051908152f35b50346104b25760203660031901126104b2576129d1615643565b60075481906001600160a01b0316803b15612a475760405163261201f960e21b815260048035908201523360248201529082908290818381604481015b03925af18015610c5f57612a32575b5060015f5160206158585f395f51905f525580f35b81612a3c916150db565b6104b257805f612a1d565b50fd5b50346104b257806003193601126104b2577f00000000000000000000000000000000000000000000000000000000000000006001600160a01b03163003612aa25760206040515f5160206158185f395f51905f528152f35b63703e46dd60e11b8152600490fd5b50346104b257806003193601126104b2576007546040516001600160a01b039091168152602090f35b50346104b25760403660031901126104b2576040612af6614ff5565b9160043581526014602052209060018060a01b03165f52602052602060ff60405f2054166040519015158152f35b50346104b25760203660031901126104b25760406020916004358152601983522054604051908152f35b5060403660031901126104b257612b6361500b565b90602435916001600160401b038311610a3d5736602384011215610a3d578260040135612b8f81615154565b93612b9d60405195866150db565b8185523660248383010111611cb55781849260246020930183880137850101526001600160a01b037f000000000000000000000000000000000000000000000000000000000000000016308114908115612d39575b50612d2a57612bff6156a2565b6040516352d1902d60e01b8152926001600160a01b0382169190602085600481865afa80958596612cf6575b50612c4457634c9c8ce360e01b84526004839052602484fd5b9091845f5160206158185f395f51905f528103612ce45750823b15612cd2575f5160206158185f395f51905f5280546001600160a01b031916821790557fbc7cd75a20ee27fd9adebab32041f755214dbc6bffa90cc0225b39da2e5c2d3b8480a2805115612cb957612cb59161576b565b5080f35b505034612cc35780f35b63b398979f60e01b8152600490fd5b634c9c8ce360e01b8452600452602483fd5b632a87526960e21b8552600452602484fd5b9095506020813d602011612d22575b81612d12602093836150db565b810103126116bc5751945f612c2b565b3d9150612d05565b63703e46dd60e11b8252600482fd5b5f5160206158185f395f51905f52546001600160a01b0316141590505f612bf2565b50346104b257806003193601126104b257612d746156a2565b5f5160206158385f395f51905f525460ff811615612dcc5760ff19165f5160206158385f395f51905f52557f5db9ee0a495bf2e6ff9c91a7834c1ba4fdd244a5e8aa4e537bd38aeae4b073aa6020604051338152a180f35b638dfc202b60e01b8252600482fd5b50346104b257806003193601126104b25760206040516802b5e3af16b18800008152f35b50346104b25760403660031901126104b257612e19614ff5565b6007546001600160a01b031633036106e75760043582526014602052604082209060018060a01b03165f5260205260405f2060ff19815416905580f35b50346104b25760203660031901126104b257612e7061500b565b612e786156a2565b6001600160a01b03168015611478576001600160601b0360a01b600554161760055580f35b50346104b25760403660031901126104b25760243560ff8116809103610a3d576007546001600160a01b031633036106e757600a811015612ef257611d63906004358352600f602052600160408420016152d8565b634e487b7160e01b82526021600452602482fd5b50346104b25760603660031901126104b257612f20614ff5565b6044359060ff82168092036104b0576007546001600160a01b031633036107295760043583526016602052604083209060018060a01b03165f5260205260405f209060ff1982541617905580f35b50346104b257806003193601126104b2576002546040516001600160a01b039091168152602090f35b50346104b25760403660031901126104b2576040612fb3614ff5565b9160043581526017602052209060018060a01b03165f52602052602060405f2054604051908152f35b50346104b257806003193601126104b25760206040516123288152f35b50346104b257806003193601126104b2576006546040516001600160a01b039091168152602090f35b50346104b25760203660031901126104b25760043590600d548210156104b257602061186383615113565b50346104b2576101003660031901126104b25761306861500b565b613070614ff5565b6044356001600160a01b03811690819003611cb55761308d615021565b6084356001600160a01b03811690819003610c6a5760a4356001600160a01b03811692908390036116b85760c435936001600160401b0385116111d757366023860112156111d7578460040135946130e4866150fc565b956130f260405197886150db565b8087526024602088019160051b830101913683116116b057602401905b8282106134945750505060e435956001600160401b0387116116b457366023880112156116b4578660040135613144816150fc565b97613152604051998a6150db565b818952602460208a019260051b820101903682116116ac57602401915b818310613474575050505f5160206158785f395f51905f5254976001600160401b0360ff8a60401c161599168015908161346c575b6001149081613462575b159081613459575b5061344a578860016001600160401b03195f5160206158785f395f51905f525416175f5160206158785f395f51905f525561341a575b6131f4615740565b6131fc615740565b6001600160a01b0381161561340657613214906156d5565b61321c615740565b613224615740565b6001600160a01b03169182156133f75781156133f7576001600160a01b03169182156133f75783156133f75784156133f7576001600160601b0360a01b8954161788556001600160601b0360a01b60015416176001556001600160601b0360a01b60025416176002556001600160601b0360a01b60035416176003556001600160601b0360a01b600e541617600e556001600955835b815181101561339a576001600160a01b036132d5828461533a565b5116801561338b57808652600b60205260ff60408720541661337c5790816001928752600b602052604087208360ff19825416179055845182105f146133765762ffffff613323838761533a565b51165b818852600c60205262ffffff60408920911662ffffff1982541617905561334c81615313565b7f6a65f90b1a644d2faac467a21e07e50e3f8fa5846e26231d30ae79a417d3d2628780a2016132ba565b86613326565b63b73e95e160e01b8652600486fd5b63d92e233d60e01b8652600486fd5b5050506133a45780f35b60ff60401b195f5160206158785f395f51905f5254165f5160206158785f395f51905f52557fc7f505b2f371ae2175ee4913f4499e1f2633a7b5936321eed1cdaeb6115181d2602060405160018152a180f35b63d92e233d60e01b8952600489fd5b631e4fbdf760e01b8a5260048a905260248afd5b600160401b60ff60401b195f5160206158785f395f51905f525416175f5160206158785f395f51905f52556131ec565b63f92ee8a960e01b8a5260048afd5b9050155f6131b6565b303b1591506131ae565b8a91506131a4565b823562ffffff811681036134905781526020928301920161316f565b8c80fd5b602080916134a184615037565b81520191019061310f565b50346104b25760203660031901126104b257806102206040516134ce8161508f565b8281528260208201528260408201528260608201528260808201528260a08201528260c08201528260e08201528261010082015282610120820152826101408201528261016082015282610180820152826101a0820152826101c0820152826101e08201528261020082015201526004358152600f6020526040812090604051906135588261508f565b82546001600160a01b0390811683526001840154908116602084015260ff9061358a60a082901c8316604086016152cc565b60a81c1690600a8210156137a9575060066102409360ff92606085015260028101546001600160601b03811660808601526001600160601b038160601c1660a086015263ffffffff8160c01c1660c086015260e01c60e08501526001600160401b03600382015463ffffffff8116610100870152848160201c16610120870152848160281c16610140870152848160301c161515610160870152818160381c16610180870152818160781c166101a087015260b81c166101c08501526001600160401b036004820154166101e0850152600581015461020085015201541615156102208201526102206040519160018060a01b03815116835260018060a01b0360208201511660208401526136a760408201516040850190615061565b6136b960608201516060850190615082565b6001600160601b0360808201511660808401526001600160601b0360a08201511660a084015263ffffffff60c08201511660c084015263ffffffff60e08201511660e084015263ffffffff6101008201511661010084015260ff6101208201511661012084015260ff6101408201511661014084015261016081015115156101608401526001600160401b03610180820151166101808401526001600160401b036101a0820151166101a08401526001600160401b036101c0820151166101c08401526001600160401b036101e0820151166101e084015261020081015161020084015201511515610220820152f35b634e487b7160e01b81526021600452602490fd5b50346104b257806003193601126104b2576020604051610e108152f35b50346104b25760203660031901126104b2576004356137f7615643565b808252600f60205260408220906024602060018060a01b03600254166040519283809263c3c5a54760e01b82523360048301525afa9081156109e65784916140f2575b50156140e35781546001600160a01b031633146140d4576001820191825460ff8160a81c16600a8110156112845715158061409a575b61408b576003820154906001600160401b038260381c16421161407c5760035460405163eabf1bfd60e01b81523360048201526001600160a01b0390911692602082602481875afa91821561249e578892614056575b5060ff809160281c1691161061404757604051639e5457dd60e01b8152336004820152602081602481865afa908115613db8578791614005575b506001600160401b0342911611613ff65760405163eabf1bfd60e01b8152336004820152602081602481865afa908115613db85760249160ff918991613fc7575b5016801593908415613f9a575060206001915b604051635f436d4160e11b815233600482015293849182905afa91821561249e578892613f65575b5060ff161115613f565781613e8e575b50613e7f57338452601a60205260408420828552602052426001600160401b0360408620541611613e7057818452601060209081526040808620335f9081529252902080549093906001600160a01b0316613e615760ff815460a01c16600281101561128457613e1e576001600283015460e01c1015613e0f57805460ff60a81b1916600160a81b17815582855260126020526040852080546001600160a01b031916331790555b60028201906001600160601b03825460601c169081613c91575b50508285526011602052604085205463ffffffff825460c01c1690600582029180830460051490151715611c3a571015613c8257835467ffffffffffffffff60a01b1933166001600160e01b0319909116174260a081901b67ffffffffffffffff60a01b169190911790945580546001600160401b039490941693613afa9190613ada9060e01c6152fc565b81546001600160e01b031660e09190911b6001600160e01b031916179055565b60048101805467ffffffffffffffff19166001600160401b038516179055818452601160205260408420805490600160401b821015613c6e57613b4882613b6692600189969501815561513f565b81546001600160a01b0360039290921b91821b19163390911b179055565b6003546001600160a01b0316803b156104b057828091602460405180948193630a7b54c560e31b83523360048401525af1908115610a23578391613c59575b50506004546001600160a01b03169081613bfd575b5050506040519182527fe244f7365bb69a661ead1d7d2d92939786fceda22d99e83a3ca537036ce9b59360203393a360015f5160206158585f395f51905f525580f35b546001600160a01b0316813b156104b057829160448392604051948593849263445f767960e01b845260048401523360248401525af18015610c5f57613c44575b80613bba565b81613c4e916150db565b6104b057825f613c3e565b81613c63916150db565b610a3d57815f613ba5565b634e487b7160e01b86526041600452602486fd5b63fd6ed16360e01b8552600485fd5b80546008546040516370a0823160e01b81526001600160a01b039182166004820181905290948a93919290911690602086602481855afa9586156109e6578496613dd8575b50823b15611cb557613d0392849283604051809681958294638340f54960e01b8452339060048501615281565b03925af18015610c5f57613dc3575b5050546008546040516370a0823160e01b81526001600160a01b039182166004820152929160209184916024918391165afa8015613db8578790613d84575b613d5b92506152ab565b6001600160601b03825460601c1603613d75575f80613a4e565b639bfa3c1760e01b8552600485fd5b506020823d602011613db0575b81613d9e602093836150db565b810103126109da57613d5b9151613d51565b3d9150613d91565b6040513d89823e3d90fd5b81613dcd916150db565b6116b857865f613d12565b935094506020833d602011613e07575b81613df5602093836150db565b810103126109da57899251945f613cd6565b3d9150613de8565b631fb94a6d60e31b8552600485fd5b600282015463ffffffff8160e01c9160c01c16811015613e5257613a3457805460ff60a81b1916600160a81b178155613a34565b631fb94a6d60e31b8652600486fd5b6306aa019360e21b8552600485fd5b631881601360e21b8452600484fd5b632351938f60e11b8452600484fd5b600e5486546001600160a01b03928316808952600c60209081526040808b205460028901549151630da3d5f760e11b81529750919587958695613eec95946001600160601b039094169362ffffff1692908116911660048701615241565b038173__$72dec2cee89bd9d1ed56bfcbd5719fa3e3$__5af480156123fb578590613f20575b6302faf0809150115f61398c565b506020813d602011613f4e575b81613f3a602093836150db565b810103126109da576302faf0809051613f12565b3d9150613f2d565b63c6c2075b60e01b8652600486fd5b9091506020813d602011613f92575b81613f81602093836150db565b810103126109da57519060ff61397c565b3d9150613f74565b60018103613fae5750602060025b91613954565b600411613fbe5760206005613fa8565b60206003613fa8565b613fe9915060203d602011613fef575b613fe181836150db565b810190615228565b5f613941565b503d613fd7565b633115212b60e21b8652600486fd5b90506020813d60201161403f575b81614020602093836150db565b810103126116b857516001600160401b03811681036116b8575f613900565b3d9150614013565b63a7d8043560e01b8652600486fd5b60ff919250614074829160203d602011613fef57613fe181836150db565b9291506138c6565b6337bf561360e11b8652600486fd5b63fe89421760e01b8552600485fd5b5060ff8160a01c16600281101561128457600114806140ba575b15613870565b50600282015463ffffffff8160c01c169060e01c106140b4565b635211a07960e01b8352600483fd5b63aba4733960e01b8352600483fd5b90506020813d602011614124575b8161410d602093836150db565b81010312611cb55761411e9061521b565b5f61383a565b3d9150614100565b50346104b25760203660031901126104b257614146615643565b60075481906001600160a01b0316803b15612a475760405163390d685560e01b81526004803590820152336024820152908290829081838160448101612a0e565b50346104b257806003193601126104b2576005546040516001600160a01b039091168152602090f35b50346104b25760403660031901126104b25760406141cc614ff5565b9160043581526016602052209060018060a01b03165f52602052602060ff60405f205416604051908152f35b50346104b25760403660031901126104b2576040614214614ff5565b9160043581526018602052209060018060a01b03165f52602052602060ff60405f2054166040519015158152f35b50346104b257806003193601126104b257546040516001600160a01b039091168152602090f35b50346104b257806003193601126104b2576003546040516001600160a01b039091168152602090f35b50346104b2576142a13661504b565b906142aa615643565b808352600f6020526040832081845260106020526040842060018060a01b0333165f5260205260405f20903360018060a01b0383541603611cc857600382019081549160ff83166144b85760038201926001600160401b03845460781c1642116144a95790600180939260ff19161790558560026001600160401b034216958481016001600160401b0388166001600160401b0319825416179055015563ffffffff614358818554166152fc565b845467ffffffffffffffff60b81b60b888901b167fff0000000000000000ffffffffffffffffffffffffffffffffffffff000000009091169190921667ffffffffffffffff60b81b191617178355019060ff825460a01c166002811015614495576144695750805460ff60a81b1916600160a91b1790555b60035484906001600160a01b0316803b15610a3d578180916024604051809481936347011d3560e01b83523360048401525af18015610c5f57614454575b5050604080519384526001600160401b03909116602084015233927f729b48a38eb73baea66f2327ea8453cd430ef7c9de664005c2a78cd7bbb85bd09181908101612385565b8161445e916150db565b611cb557835f61440e565b5463ffffffff1660011461447e575b506143d0565b805460ff60a81b1916600160a91b1790555f614478565b634e487b7160e01b87526021600452602487fd5b6337bf561360e11b8852600488fd5b6306aa019360e21b8752600487fd5b50346109da576101603660031901126109da576144e261500b565b6024356001600160601b03811681036109da57604435926001600160601b03841684036109da5760643560028110156109da576084359263ffffffff8416948585036109da5760a4359660ff881688036109da5760c4359260ff841684036109da5760e435946001600160401b03861686036109da5761010435966001600160401b03881688036109da5761014435988915158a036109da57614583615643565b61458b61567b565b6001600160a01b0386165f818152600b6020526040902054909b9060ff1615614f3e5760025460405163c3c5a54760e01b815233600482015290602090829060249082906001600160a01b03165afa908115614c5e575f91614f04575b5015614ef557426001600160401b038a161115614ee6576001600160401b0389166001600160401b038b161115614ee6576001600160601b03851615614ebd5783614ea15750506001945b600354604051639533397560e01b81523360048201526001600160a01b0390911690602081602481855afa8015614c5e5760ff915f91614e82575b50169081614e05575060018060a01b03600e541660208d60018060a01b035f5416905f52600c825262ffffff60405f205416926146c1868a6040519687958695630da3d5f760e11b875260048701615241565b038173__$72dec2cee89bd9d1ed56bfcbd5719fa3e3$__5af48015614c5e575f90614dcf575b6302faf080915011614dc05760035460405163256ef4cb60e01b815233600482015290602090829060249082906001600160a01b03165afa8015614c5e575f90614d8d575b600191501015614d7e575b60ff881615159081614d73575b50614d645789614c9d575b602460018060a01b036008541660208d604051938480926370a0823160e01b82528560048301525afa918215614c5e575f92614c69575b50803b156109da57855f916147b49483604051809781958294638340f54960e01b8452339060048501615281565b03925af1918215614c5e578c92614c47575b50602060018060a01b03600854166024604051809581936370a0823160e01b835260048301525afa918215610a23578392614c11575b50614811906001600160601b038616926152ab565b03614c02576009549a5f198c146128e05760018c0160095560ff604051916148388361508f565b3383528c602084015261484e85604085016152cc565b606083018490526001600160601b038681166080850152871660a084015263ffffffff881660c084015260e0830184905261010083018490521661012082015260ff871661014082015261016081018290526001600160401b0388811661018083015289166101a08201526101c081018290526101e08101829052610124356102008201528915156102208201528b8252600f60209081526040808420835181546001600160a01b03199081166001600160a01b03928316178355938501516001830180549095169116179092558201516002811015610fb25760018201805460ff60a01b191660a09290921b60ff60a01b169190911790556060820151600a811015610fb25781614968600692600161022095016152d8565b608084015160a085015160c08087015160e08089015160609490941b6bffffffffffffffffffffffff60601b166001600160601b039590951694909417911b63ffffffff60c01b1617911b6001600160e01b0319161760028201556101008401516003820180546101208701516101408801516101608901516101808a01516effffffffffffffffffffffffffffff1990941663ffffffff969096169590951760209290921b64ff00000000169190911760289190911b65ff0000000000161792151560301b66ff000000000000169290921760389290921b67ffffffffffffffff60381b16919091178155614ab2906101a0860151815467ffffffffffffffff60781b191660789190911b67ffffffffffffffff60781b161781556101c0860151815467ffffffffffffffff60b81b191660b89190911b67ffffffffffffffff60b81b16179055565b6001600160401b036101e0850151166001600160401b036004830191166001600160401b0319825416179055610200840151600582015501910151151560ff8019835416911617905560018060a01b0360035416803b15610a3d57818091602460405180948193633c2b1b3f60e11b83523360048401525af18015610c5f57614bed575b505060405198895260208901614b4b91615061565b6001600160601b031660408801526001600160601b0316606087015263ffffffff16608086015260ff1660a08501526001600160401b031660c08401526001600160401b031660e08301526101243561010083015215156101208201528133916101407f8937e4bcdcd895e3950e3bf598f0686562c68ad2d803c0c0bd5d22ebbd9805b691a360015f5160206158585f395f51905f5255604051908152602090f35b614bf88280926150db565b6104b25780614b36565b639bfa3c1760e01b8152600490fd5b9091506020813d602011614c3f575b81614c2d602093836150db565b810103126109da5751906148116147fc565b3d9150614c20565b5f919350614c5592506150db565b895f915f6147c6565b6040513d5f823e3d90fd5b9091506020813d602011614c95575b81614c85602093836150db565b810103126109da5751905f614786565b3d9150614c78565b6003546040516335cb33db60e01b8152336004820152905f90829060249082906001600160a01b03165afa908115614c5e575f91614ceb575b505161474f576328a1487f60e21b5f5260045ffd5b90503d805f833e614cfc81836150db565b8101906020818303126109da578051906001600160401b0382116109da570181601f820112156109da57805190614d3282615154565b92614d4060405194856150db565b828452602083830101116109da57815f9260208093018386015e830101525f614cd6565b63a7d8043560e01b5f5260045ffd5b60029150105f614744565b637ea6278f60e01b5f5260045ffd5b506020813d602011614db8575b81614da7602093836150db565b810103126109da576001905161472c565b3d9150614d9a565b632351938f60e11b5f5260045ffd5b506020813d602011614dfd575b81614de9602093836150db565b810103126109da576302faf08090516146e7565b3d9150614ddc565b60018214614e14575b50614737565b60206024916040519283809263256ef4cb60e01b82523360048301525afa8015614c5e575f90614e4f575b600391501015614d7e575f614e0e565b506020813d602011614e7a575b81614e69602093836150db565b810103126109da5760039051614e3f565b3d9150614e5c565b614e9b915060203d602011613fef57613fe181836150db565b5f61466e565b90959060018403614ed7578015908115614ecc575b5015614633575b63162908e360e11b5f5260045ffd5b60649150115f614eb6565b63a0042b1760e01b5f5260045ffd5b6337bf561360e11b5f5260045ffd5b63aba4733960e01b5f5260045ffd5b90506020813d602011614f36575b81614f1f602093836150db565b810103126109da57614f309061521b565b5f6145e8565b3d9150614f12565b6307c241ad60e51b5f5260045ffd5b346109da5760203660031901126109da576001600160a01b03614f6e61500b565b165f52600c602052602062ffffff60405f205416604051908152f35b346109da5760403660031901126109da57614fa3614ff5565b6007546001600160a01b03163303614fe6576004355f9081526018602090815260408083206001600160a01b03909416835292905220805460ff19166001179055005b6376f04f9560e11b5f5260045ffd5b602435906001600160a01b03821682036109da57565b600435906001600160a01b03821682036109da57565b606435906001600160a01b03821682036109da57565b35906001600160a01b03821682036109da57565b60409060031901126109da576004359060243590565b90600282101561506e5752565b634e487b7160e01b5f52602160045260245ffd5b90600a82101561506e5752565b61024081019081106001600160401b038211176150ab57604052565b634e487b7160e01b5f52604160045260245ffd5b61012081019081106001600160401b038211176150ab57604052565b90601f801991011681019081106001600160401b038211176150ab57604052565b6001600160401b0381116150ab5760051b60200190565b600d5481101561512b57600d5f5260205f2001905f90565b634e487b7160e01b5f52603260045260245ffd5b805482101561512b575f5260205f2001905f90565b6001600160401b0381116150ab57601f01601f191660200190565b60206040818301928281528451809452019201905f5b8181106151925750505090565b82516001600160a01b0316845260209384019390920191600101615185565b9181601f840112156109da578235916001600160401b0383116109da576020808501948460051b0101116109da57565b346109da575f3660031901126109da5760206040516101f48152f35b346109da575f3660031901126109da5760206040516302faf0808152f35b519081151582036109da57565b908160209103126109da575160ff811681036109da5790565b6001600160a01b039182168152918116602083015262ffffff9290921660408201526001600160601b039092166060830152909116608082015260a00190565b6001600160a01b039182168152911660208201526001600160601b03909116604082015260600190565b919082039182116152b857565b634e487b7160e01b5f52601160045260245ffd5b600282101561506e5752565b90600a81101561506e57815460ff60a81b191660a89190911b60ff60a81b16179055565b63ffffffff1663ffffffff81146152b85760010190565b600d5490600160401b8210156150ab5761080c8260016153389401600d55600d61513f565b565b805182101561512b5760209160051b010190565b6001600160401b0362015180911601906001600160401b0382116152b857565b906001600160401b03809116911601906001600160401b0382116152b857565b5f52600f60205260405f2060ff600182015460a81c16600a81101561506e57806153c857506003015460381c6001600160401b0316421190565b600181149081156153f3575b506153de57505f90565b6003015460781c6001600160401b0316421190565b60029150145f6153d4565b906001600160401b03809116911603906001600160401b0382116152b857565b919082018092116152b857565b916020908281520191905f5b8181106154445750505090565b909192602080600192838060a01b0361545c88615037565b168152019401929101615437565b600a546b014adf4b7320334b9000000081106154ee576b0219aada9b14535aca00000081106154e0576b0295be96e64066972000000081106154d2576b02e87669c308736a04000000116154c557680874ef557a00f0000090565b6810e9deaaf401e0000090565b506821e19e0c9bab24000090565b506843c33c19375648000090565b5068878678326eac90000090565b811561563d57600154604051630cb2dac360e21b81526001600160a01b039091169190602081600481865afa908115614c5e575f9161560b575b506040516318160ddd60e01b8152602081600481875afa8015614c5e5785905f906155d5575b615566925061541e565b116155ce5761557783600a5461541e565b600a55813b156109da576040516327156e0f60e01b81526001600160a01b03909116600482015260248101839052905f908290604490829084905af18015614c5e576155c1575090565b5f6155cb916150db565b90565b5050505f90565b50506020813d602011615603575b816155f0602093836150db565b810103126109da5784615566915161555c565b3d91506155e3565b90506020813d602011615635575b81615626602093836150db565b810103126109da57515f615536565b3d9150615619565b50505f90565b60025f5160206158585f395f51905f52541461566c5760025f5160206158585f395f51905f5255565b633ee5aeb560e01b5f5260045ffd5b60ff5f5160206158385f395f51905f52541661569357565b63d93c066560e01b5f5260045ffd5b5f5160206157f85f395f51905f52546001600160a01b031633036156c257565b63118cdaa760e01b5f523360045260245ffd5b5f5160206158985f395f51905f5280546001600160a01b03199081169091555f5160206157f85f395f51905f5280549182166001600160a01b0393841690811790915591167f8be0079c531659141344cd1fd0a4f28419497f9722a3daafe3b4186f6b6457e05f80a3565b60ff5f5160206158785f395f51905f525460401c161561575c57565b631afcd79f60e31b5f5260045ffd5b905f8091602081519101845af480806157e4575b1561579f5750506040513d81523d5f602083013e60203d82010160405290565b156157c457639996b31560e01b5f9081526001600160a01b0391909116600452602490fd5b3d156157d5576040513d5f823e3d90fd5b63d6bda27560e01b5f5260045ffd5b503d15158061577f5750813b151561577f56fe9016d09d72d40fdae2fd8ceac6b6234c7706214fd39c1cd1e609a0528c199300360894a13ba1a3210667c828492db98dca3e2076cc3735a920a3ca505d382bbccd5ed15c6e187e77e9aee88184c21f4f2182ab5827cb3b7e07fbedcd63f033009b779b17422d0df92223018b32b4d1fa46e071723d6817e2486d003becc55f00f0c57e16840df040f15088dc2f81fe391c3923bec73e23a9662efc9c229c6a00237e158222e3e6968b72b9db0d8043aacf074ad9f650f0d1606b4d82ee432c00a264697066735822122029c762ca1f7afac0e66ebaae92e3a5a4d930104c364e77b7ed97f0b7b13b424f64736f6c634300081c0033f0c57e16840df040f15088dc2f81fe391c3923bec73e23a9662efc9c229c6a00",
  "linkReferences": {
    "project/contracts/MoltXMath.sol": {
      "MoltXMath": [
        {
          "length": 20,
          "start": 8953
        },
        {
          "length": 20,
          "start": 16347
        },
        {
          "length": 20,
          "start": 18352
        }
      ]
    }
  },
  "deployedLinkReferences": {
    "project/contracts/MoltXMath.sol": {
      "MoltXMath": [
        {
          "length": 20,
          "start": 8718
        },
        {
          "length": 20,
          "start": 16112
        },
        {
          "length": 20,
          "start": 18117
        }
      ]
    }
  },
  "immutableReferences": {
    "1250": [
      {
        "length": 32,
        "start": 10845
      },
      {
        "length": 32,
        "start": 11207
      }
    ]
  },
  "inputSourceName": "project/contracts/MoltXCore.sol",
  "buildInfoId": "solc-0_8_28-de635d247ce72fde2591213b2d1cb1fbf6026c3a"
}