{
  "_format": "hh3-artifact-1",
  "contractName": "MoltXCouncil",
  "sourceName": "contracts/MoltXCouncil.sol",
  "abi": [
    {
      "inputs": [],
      "stateMutability": "nonpayable",
      "type": "constructor"
    },
    {
      "inputs": [
        {
          "internalType": "address",
          "name": "target",
          "type": "address"
        }
      ],
      "name": "AddressEmptyCode",
      "type": "error"
    },
    {
      "inputs": [],
      "name": "AlreadyCommitted",
      "type": "error"
    },
    {
      "inputs": [],
      "name": "AlreadyFinalized",
      "type": "error"
    },
    {
      "inputs": [],
      "name": "AlreadyRevealed",
      "type": "error"
    },
    {
      "inputs": [],
      "name": "ArbitratorSuspended",
      "type": "error"
    },
    {
      "inputs": [],
      "name": "CommitWindowClosed",
      "type": "error"
    },
    {
      "inputs": [],
      "name": "CommitWindowOpen",
      "type": "error"
    },
    {
      "inputs": [],
      "name": "ConflictOfInterest",
      "type": "error"
    },
    {
      "inputs": [],
      "name": "DisputeNotActive",
      "type": "error"
    },
    {
      "inputs": [
        {
          "internalType": "address",
          "name": "implementation",
          "type": "address"
        }
      ],
      "name": "ERC1967InvalidImplementation",
      "type": "error"
    },
    {
      "inputs": [],
      "name": "ERC1967NonPayable",
      "type": "error"
    },
    {
      "inputs": [],
      "name": "FailedCall",
      "type": "error"
    },
    {
      "inputs": [],
      "name": "HashMismatch",
      "type": "error"
    },
    {
      "inputs": [],
      "name": "InsufficientCommits",
      "type": "error"
    },
    {
      "inputs": [],
      "name": "InsufficientLevel",
      "type": "error"
    },
    {
      "inputs": [],
      "name": "InvalidInitialization",
      "type": "error"
    },
    {
      "inputs": [],
      "name": "NotAuthorized",
      "type": "error"
    },
    {
      "inputs": [],
      "name": "NotCommitted",
      "type": "error"
    },
    {
      "inputs": [],
      "name": "NotInitializing",
      "type": "error"
    },
    {
      "inputs": [],
      "name": "NotSelected",
      "type": "error"
    },
    {
      "inputs": [
        {
          "internalType": "address",
          "name": "owner",
          "type": "address"
        }
      ],
      "name": "OwnableInvalidOwner",
      "type": "error"
    },
    {
      "inputs": [
        {
          "internalType": "address",
          "name": "account",
          "type": "address"
        }
      ],
      "name": "OwnableUnauthorizedAccount",
      "type": "error"
    },
    {
      "inputs": [],
      "name": "ReentrancyGuardReentrantCall",
      "type": "error"
    },
    {
      "inputs": [],
      "name": "RevealWindowClosed",
      "type": "error"
    },
    {
      "inputs": [],
      "name": "RevealWindowOpen",
      "type": "error"
    },
    {
      "inputs": [],
      "name": "TooManyViolations",
      "type": "error"
    },
    {
      "inputs": [],
      "name": "UUPSUnauthorizedCallContext",
      "type": "error"
    },
    {
      "inputs": [
        {
          "internalType": "bytes32",
          "name": "slot",
          "type": "bytes32"
        }
      ],
      "name": "UUPSUnsupportedProxiableUUID",
      "type": "error"
    },
    {
      "inputs": [],
      "name": "ZeroAddress",
      "type": "error"
    },
    {
      "anonymous": false,
      "inputs": [
        {
          "indexed": true,
          "internalType": "uint256",
          "name": "taskId",
          "type": "uint256"
        },
        {
          "indexed": true,
          "internalType": "address",
          "name": "maker",
          "type": "address"
        },
        {
          "indexed": true,
          "internalType": "address",
          "name": "taker",
          "type": "address"
        },
        {
          "indexed": false,
          "internalType": "bytes32",
          "name": "evidenceHash",
          "type": "bytes32"
        },
        {
          "indexed": false,
          "internalType": "uint64",
          "name": "commitDeadline",
          "type": "uint64"
        },
        {
          "indexed": false,
          "internalType": "uint64",
          "name": "revealDeadline",
          "type": "uint64"
        }
      ],
      "name": "DisputeInitiated",
      "type": "event"
    },
    {
      "anonymous": false,
      "inputs": [
        {
          "indexed": true,
          "internalType": "uint256",
          "name": "taskId",
          "type": "uint256"
        },
        {
          "indexed": false,
          "internalType": "bool",
          "name": "takerWon",
          "type": "bool"
        },
        {
          "indexed": false,
          "internalType": "uint256",
          "name": "takerVotes",
          "type": "uint256"
        },
        {
          "indexed": false,
          "internalType": "uint256",
          "name": "makerVotes",
          "type": "uint256"
        },
        {
          "indexed": false,
          "internalType": "address[]",
          "name": "majorityJurors",
          "type": "address[]"
        },
        {
          "indexed": false,
          "internalType": "address[]",
          "name": "minorityJurors",
          "type": "address[]"
        }
      ],
      "name": "DisputeResolved",
      "type": "event"
    },
    {
      "anonymous": false,
      "inputs": [
        {
          "indexed": true,
          "internalType": "uint256",
          "name": "taskId",
          "type": "uint256"
        },
        {
          "indexed": false,
          "internalType": "string",
          "name": "reason",
          "type": "string"
        }
      ],
      "name": "DisputeUnresolved",
      "type": "event"
    },
    {
      "anonymous": false,
      "inputs": [
        {
          "indexed": false,
          "internalType": "uint64",
          "name": "version",
          "type": "uint64"
        }
      ],
      "name": "Initialized",
      "type": "event"
    },
    {
      "anonymous": false,
      "inputs": [
        {
          "indexed": true,
          "internalType": "uint256",
          "name": "taskId",
          "type": "uint256"
        },
        {
          "indexed": false,
          "internalType": "address[]",
          "name": "jurors",
          "type": "address[]"
        },
        {
          "indexed": false,
          "internalType": "address[]",
          "name": "consolationRecipients",
          "type": "address[]"
        }
      ],
      "name": "JurySelected",
      "type": "event"
    },
    {
      "anonymous": false,
      "inputs": [
        {
          "indexed": true,
          "internalType": "address",
          "name": "previousOwner",
          "type": "address"
        },
        {
          "indexed": true,
          "internalType": "address",
          "name": "newOwner",
          "type": "address"
        }
      ],
      "name": "OwnershipTransferStarted",
      "type": "event"
    },
    {
      "anonymous": false,
      "inputs": [
        {
          "indexed": true,
          "internalType": "address",
          "name": "previousOwner",
          "type": "address"
        },
        {
          "indexed": true,
          "internalType": "address",
          "name": "newOwner",
          "type": "address"
        }
      ],
      "name": "OwnershipTransferred",
      "type": "event"
    },
    {
      "anonymous": false,
      "inputs": [
        {
          "indexed": true,
          "internalType": "address",
          "name": "implementation",
          "type": "address"
        }
      ],
      "name": "Upgraded",
      "type": "event"
    },
    {
      "anonymous": false,
      "inputs": [
        {
          "indexed": true,
          "internalType": "uint256",
          "name": "taskId",
          "type": "uint256"
        },
        {
          "indexed": true,
          "internalType": "address",
          "name": "arbiter",
          "type": "address"
        },
        {
          "indexed": false,
          "internalType": "bytes32",
          "name": "voteHash",
          "type": "bytes32"
        }
      ],
      "name": "VoteCommitted",
      "type": "event"
    },
    {
      "anonymous": false,
      "inputs": [
        {
          "indexed": true,
          "internalType": "uint256",
          "name": "taskId",
          "type": "uint256"
        },
        {
          "indexed": true,
          "internalType": "address",
          "name": "arbiter",
          "type": "address"
        },
        {
          "indexed": false,
          "internalType": "bool",
          "name": "verdict",
          "type": "bool"
        }
      ],
      "name": "VoteRevealed",
      "type": "event"
    },
    {
      "inputs": [],
      "name": "COMMIT_WINDOW",
      "outputs": [
        {
          "internalType": "uint256",
          "name": "",
          "type": "uint256"
        }
      ],
      "stateMutability": "view",
      "type": "function"
    },
    {
      "inputs": [],
      "name": "JURY_SIZE",
      "outputs": [
        {
          "internalType": "uint256",
          "name": "",
          "type": "uint256"
        }
      ],
      "stateMutability": "view",
      "type": "function"
    },
    {
      "inputs": [],
      "name": "MAX_COMMITS",
      "outputs": [
        {
          "internalType": "uint256",
          "name": "",
          "type": "uint256"
        }
      ],
      "stateMutability": "view",
      "type": "function"
    },
    {
      "inputs": [],
      "name": "MIN_COMMITS_FOR_ARBITRATION",
      "outputs": [
        {
          "internalType": "uint256",
          "name": "",
          "type": "uint256"
        }
      ],
      "stateMutability": "view",
      "type": "function"
    },
    {
      "inputs": [],
      "name": "REVEAL_WINDOW",
      "outputs": [
        {
          "internalType": "uint256",
          "name": "",
          "type": "uint256"
        }
      ],
      "stateMutability": "view",
      "type": "function"
    },
    {
      "inputs": [],
      "name": "TIER_1_MAX",
      "outputs": [
        {
          "internalType": "uint256",
          "name": "",
          "type": "uint256"
        }
      ],
      "stateMutability": "view",
      "type": "function"
    },
    {
      "inputs": [],
      "name": "TIER_2_MAX",
      "outputs": [
        {
          "internalType": "uint256",
          "name": "",
          "type": "uint256"
        }
      ],
      "stateMutability": "view",
      "type": "function"
    },
    {
      "inputs": [],
      "name": "TIER_3_MAX",
      "outputs": [
        {
          "internalType": "uint256",
          "name": "",
          "type": "uint256"
        }
      ],
      "stateMutability": "view",
      "type": "function"
    },
    {
      "inputs": [],
      "name": "UPGRADE_INTERFACE_VERSION",
      "outputs": [
        {
          "internalType": "string",
          "name": "",
          "type": "string"
        }
      ],
      "stateMutability": "view",
      "type": "function"
    },
    {
      "inputs": [
        {
          "internalType": "address",
          "name": "arbiter",
          "type": "address"
        },
        {
          "internalType": "address",
          "name": "maker",
          "type": "address"
        },
        {
          "internalType": "address",
          "name": "taker",
          "type": "address"
        },
        {
          "internalType": "uint256",
          "name": "bountyUsdcEquiv",
          "type": "uint256"
        }
      ],
      "name": "_checkArbitratorEligibility",
      "outputs": [],
      "stateMutability": "view",
      "type": "function"
    },
    {
      "inputs": [],
      "name": "acceptOwnership",
      "outputs": [],
      "stateMutability": "nonpayable",
      "type": "function"
    },
    {
      "inputs": [
        {
          "internalType": "uint256",
          "name": "taskId",
          "type": "uint256"
        },
        {
          "internalType": "bytes32",
          "name": "voteHash",
          "type": "bytes32"
        }
      ],
      "name": "commitVote",
      "outputs": [],
      "stateMutability": "nonpayable",
      "type": "function"
    },
    {
      "inputs": [
        {
          "internalType": "uint256",
          "name": "",
          "type": "uint256"
        },
        {
          "internalType": "uint256",
          "name": "",
          "type": "uint256"
        }
      ],
      "name": "committers",
      "outputs": [
        {
          "internalType": "address",
          "name": "",
          "type": "address"
        }
      ],
      "stateMutability": "view",
      "type": "function"
    },
    {
      "inputs": [],
      "name": "core",
      "outputs": [
        {
          "internalType": "address",
          "name": "",
          "type": "address"
        }
      ],
      "stateMutability": "view",
      "type": "function"
    },
    {
      "inputs": [
        {
          "internalType": "uint256",
          "name": "",
          "type": "uint256"
        }
      ],
      "name": "disputes",
      "outputs": [
        {
          "internalType": "address",
          "name": "maker",
          "type": "address"
        },
        {
          "internalType": "address",
          "name": "taker",
          "type": "address"
        },
        {
          "internalType": "uint96",
          "name": "bountyUsdcEquiv",
          "type": "uint96"
        },
        {
          "internalType": "bytes32",
          "name": "evidenceHash",
          "type": "bytes32"
        },
        {
          "internalType": "uint64",
          "name": "commitDeadline",
          "type": "uint64"
        },
        {
          "internalType": "uint64",
          "name": "revealDeadline",
          "type": "uint64"
        },
        {
          "internalType": "uint32",
          "name": "commitCount",
          "type": "uint32"
        },
        {
          "internalType": "uint32",
          "name": "selectedCount",
          "type": "uint32"
        },
        {
          "internalType": "uint32",
          "name": "revealCount",
          "type": "uint32"
        },
        {
          "internalType": "bool",
          "name": "commitFinalized",
          "type": "bool"
        },
        {
          "internalType": "bool",
          "name": "revealFinalized",
          "type": "bool"
        },
        {
          "internalType": "bool",
          "name": "resolved",
          "type": "bool"
        },
        {
          "internalType": "address",
          "name": "commitFinalizer",
          "type": "address"
        },
        {
          "internalType": "address",
          "name": "revealFinalizer",
          "type": "address"
        }
      ],
      "stateMutability": "view",
      "type": "function"
    },
    {
      "inputs": [
        {
          "internalType": "uint256",
          "name": "taskId",
          "type": "uint256"
        }
      ],
      "name": "finalizeCommit",
      "outputs": [],
      "stateMutability": "nonpayable",
      "type": "function"
    },
    {
      "inputs": [
        {
          "internalType": "uint256",
          "name": "taskId",
          "type": "uint256"
        }
      ],
      "name": "finalizeReveal",
      "outputs": [],
      "stateMutability": "nonpayable",
      "type": "function"
    },
    {
      "inputs": [
        {
          "internalType": "uint256",
          "name": "taskId",
          "type": "uint256"
        }
      ],
      "name": "getCommitters",
      "outputs": [
        {
          "internalType": "address[]",
          "name": "",
          "type": "address[]"
        }
      ],
      "stateMutability": "view",
      "type": "function"
    },
    {
      "inputs": [
        {
          "internalType": "uint256",
          "name": "taskId",
          "type": "uint256"
        }
      ],
      "name": "getSelectedJurors",
      "outputs": [
        {
          "internalType": "address[]",
          "name": "",
          "type": "address[]"
        }
      ],
      "stateMutability": "view",
      "type": "function"
    },
    {
      "inputs": [
        {
          "internalType": "uint256",
          "name": "taskId",
          "type": "uint256"
        },
        {
          "internalType": "address",
          "name": "arbiter",
          "type": "address"
        }
      ],
      "name": "getVote",
      "outputs": [
        {
          "components": [
            {
              "internalType": "bytes32",
              "name": "commitHash",
              "type": "bytes32"
            },
            {
              "internalType": "bool",
              "name": "hasCommitted",
              "type": "bool"
            },
            {
              "internalType": "bool",
              "name": "isSelected",
              "type": "bool"
            },
            {
              "internalType": "bool",
              "name": "hasRevealed",
              "type": "bool"
            },
            {
              "internalType": "bool",
              "name": "verdict",
              "type": "bool"
            }
          ],
          "internalType": "struct MoltXCouncil.Vote",
          "name": "",
          "type": "tuple"
        }
      ],
      "stateMutability": "view",
      "type": "function"
    },
    {
      "inputs": [
        {
          "internalType": "address",
          "name": "",
          "type": "address"
        },
        {
          "internalType": "address",
          "name": "",
          "type": "address"
        }
      ],
      "name": "hasInteracted",
      "outputs": [
        {
          "internalType": "bool",
          "name": "",
          "type": "bool"
        }
      ],
      "stateMutability": "view",
      "type": "function"
    },
    {
      "inputs": [
        {
          "internalType": "address",
          "name": "initialOwner",
          "type": "address"
        },
        {
          "internalType": "address",
          "name": "_role",
          "type": "address"
        }
      ],
      "name": "initialize",
      "outputs": [],
      "stateMutability": "nonpayable",
      "type": "function"
    },
    {
      "inputs": [],
      "name": "interactionCheckEnabled",
      "outputs": [
        {
          "internalType": "bool",
          "name": "",
          "type": "bool"
        }
      ],
      "stateMutability": "view",
      "type": "function"
    },
    {
      "inputs": [
        {
          "internalType": "address",
          "name": "arbiter",
          "type": "address"
        },
        {
          "internalType": "address",
          "name": "maker",
          "type": "address"
        },
        {
          "internalType": "address",
          "name": "taker",
          "type": "address"
        },
        {
          "internalType": "uint256",
          "name": "bountyUsdcEquiv",
          "type": "uint256"
        }
      ],
      "name": "isEligibleArbitrator",
      "outputs": [
        {
          "internalType": "bool",
          "name": "",
          "type": "bool"
        }
      ],
      "stateMutability": "view",
      "type": "function"
    },
    {
      "inputs": [],
      "name": "owner",
      "outputs": [
        {
          "internalType": "address",
          "name": "",
          "type": "address"
        }
      ],
      "stateMutability": "view",
      "type": "function"
    },
    {
      "inputs": [],
      "name": "pendingOwner",
      "outputs": [
        {
          "internalType": "address",
          "name": "",
          "type": "address"
        }
      ],
      "stateMutability": "view",
      "type": "function"
    },
    {
      "inputs": [],
      "name": "proxiableUUID",
      "outputs": [
        {
          "internalType": "bytes32",
          "name": "",
          "type": "bytes32"
        }
      ],
      "stateMutability": "view",
      "type": "function"
    },
    {
      "inputs": [
        {
          "internalType": "uint256",
          "name": "taskId",
          "type": "uint256"
        },
        {
          "internalType": "address",
          "name": "maker",
          "type": "address"
        },
        {
          "internalType": "address",
          "name": "taker",
          "type": "address"
        },
        {
          "internalType": "bytes32",
          "name": "evidenceIPFSHash",
          "type": "bytes32"
        },
        {
          "internalType": "uint256",
          "name": "bountyUsdcEquiv",
          "type": "uint256"
        }
      ],
      "name": "raiseDispute",
      "outputs": [
        {
          "internalType": "bool",
          "name": "",
          "type": "bool"
        }
      ],
      "stateMutability": "nonpayable",
      "type": "function"
    },
    {
      "inputs": [
        {
          "internalType": "address",
          "name": "party1",
          "type": "address"
        },
        {
          "internalType": "address",
          "name": "party2",
          "type": "address"
        }
      ],
      "name": "recordInteraction",
      "outputs": [],
      "stateMutability": "nonpayable",
      "type": "function"
    },
    {
      "inputs": [],
      "name": "renounceOwnership",
      "outputs": [],
      "stateMutability": "nonpayable",
      "type": "function"
    },
    {
      "inputs": [
        {
          "internalType": "uint256",
          "name": "taskId",
          "type": "uint256"
        },
        {
          "internalType": "bool",
          "name": "verdict",
          "type": "bool"
        },
        {
          "internalType": "bytes32",
          "name": "salt",
          "type": "bytes32"
        }
      ],
      "name": "revealVote",
      "outputs": [],
      "stateMutability": "nonpayable",
      "type": "function"
    },
    {
      "inputs": [],
      "name": "role",
      "outputs": [
        {
          "internalType": "contract IMoltXRole",
          "name": "",
          "type": "address"
        }
      ],
      "stateMutability": "view",
      "type": "function"
    },
    {
      "inputs": [
        {
          "internalType": "uint256",
          "name": "",
          "type": "uint256"
        },
        {
          "internalType": "uint256",
          "name": "",
          "type": "uint256"
        }
      ],
      "name": "selectedJurors",
      "outputs": [
        {
          "internalType": "address",
          "name": "",
          "type": "address"
        }
      ],
      "stateMutability": "view",
      "type": "function"
    },
    {
      "inputs": [
        {
          "internalType": "address",
          "name": "_core",
          "type": "address"
        }
      ],
      "name": "setCore",
      "outputs": [],
      "stateMutability": "nonpayable",
      "type": "function"
    },
    {
      "inputs": [
        {
          "internalType": "bool",
          "name": "enabled",
          "type": "bool"
        }
      ],
      "name": "setInteractionCheckEnabled",
      "outputs": [],
      "stateMutability": "nonpayable",
      "type": "function"
    },
    {
      "inputs": [
        {
          "internalType": "address",
          "name": "newOwner",
          "type": "address"
        }
      ],
      "name": "transferOwnership",
      "outputs": [],
      "stateMutability": "nonpayable",
      "type": "function"
    },
    {
      "inputs": [
        {
          "internalType": "address",
          "name": "newImplementation",
          "type": "address"
        },
        {
          "internalType": "bytes",
          "name": "data",
          "type": "bytes"
        }
      ],
      "name": "upgradeToAndCall",
      "outputs": [],
      "stateMutability": "payable",
      "type": "function"
    },
    {
      "inputs": [
        {
          "internalType": "uint256",
          "name": "",
          "type": "uint256"
        },
        {
          "internalType": "address",
          "name": "",
          "type": "address"
        }
      ],
      "name": "votes",
      "outputs": [
        {
          "internalType": "bytes32",
          "name": "commitHash",
          "type": "bytes32"
        },
        {
          "internalType": "bool",
          "name": "hasCommitted",
          "type": "bool"
        },
        {
          "internalType": "bool",
          "name": "isSelected",
          "type": "bool"
        },
        {
          "internalType": "bool",
          "name": "hasRevealed",
          "type": "bool"
        },
        {
          "internalType": "bool",
          "name": "verdict",
          "type": "bool"
        }
      ],
      "stateMutability": "view",
      "type": "function"
    }
  ],
  "bytecode": "0x60a080604052346100e65760017f9b779b17422d0df92223018b32b4d1fa46e071723d6817e2486d003becc55f0055306080525f516020612c865f395f51905f525460ff8160401c166100d7576002600160401b03196001600160401b03821601610084575b604051612b9b90816100eb8239608051818181610ed70152610fb10152f35b6001600160401b0319166001600160401b039081175f516020612c865f395f51905f525581527fc7f505b2f371ae2175ee4913f4499e1f2633a7b5936321eed1cdaeb6115181d290602090a15f80610065565b63f92ee8a960e01b5f5260045ffd5b5f80fdfe6080806040526004361015610012575f80fd5b5f905f3560e01c9081630ba51d09146114705750806310055c1d1461144957806317e931cf1461049f57806325dd3fe314611411578063375ae002146113eb5780633a918794146113bc5780634024a59f14611384578063445f7679146112ef578063485cc955146111415780634f1ef28614610f2b57806352d1902d14610ec5578063564a565d14610dc35780635b9f13d314610da957806360a070e914610d8e5780636d08e71f14610d73578063715018a614610cf657806379ba509714610ca85780638000963014610c4d5780638da5cb5b14610c195780639ad3484514610bfb5780639ccddee414610bb35780639da69180146109b2578063a62cc6eb14610993578063a6d3bf0a14610970578063ad3cb1cc1461092f578063afaec52714610913578063bc3f931f1461083b578063bd57a1cf1461069f578063bf04d3b314610647578063d02b3fba146105da578063d23254b41461055e578063e0ef74c8146104d9578063e30c3978146104a4578063e97f6a681461049f578063f2f4eb2614610476578063f2fde38b146103f0578063facc092f146101fc5763fb0df30f146101c0575f80fd5b346101f95760203660031901126101f9576101d9611ac7565b6101e533600435611c37565b60015f516020612b065f395f51905f525580f35b80fd5b50346101f95760603660031901126101f9576004356024358015158091036103ec57610226611ac7565b81835260026020526003604084200190815460ff8160e01c16156103dd576001600160401b038160401c1642116103ce5760f01c60ff166103bf57828452600360209081526040808620335f90815292529020600181018054909160ff8216156103b05760ff8260081c16156103a15760ff8260101c166103925760405160208101908560f81b82526044356021820152602181526102c660418261157d565b5190209054036103835763ffff00001916601883901b63ff000000161762010000179055815463ffffffff60c01b61030760c083901c63ffffffff16611a6f565b60c01b169063ffffffff60c01b191617809255604051908152827f943b1e1e6ea36d3a013c9f482eb56e6fec8904129c7ed1869bcfe1f04727cd4c60203393a363ffffffff808260a01c169160c01c1614610372575b5060015f516020612b065f395f51905f525580f35b61037d903390611aff565b5f61035d565b633f4d605360e01b8652600486fd5b63a89ac15160e01b8752600487fd5b635f9dbb2560e01b8752600487fd5b63205e472d60e21b8752600487fd5b63475a253560e01b8452600484fd5b6340d8392160e11b8552600485fd5b635733231960e11b8552600485fd5b8280fd5b50346101f95760203660031901126101f95761040a6114a9565b610412611aa7565b5f516020612b465f395f51905f5280546001600160a01b0319166001600160a01b039283169081179091555f516020612ac65f395f51905f52549091167f38d16b8cac22d99fc7c124b9cd0de2d3fa1faef420bfe791d8c362d765e227008380a380f35b50346101f957806003193601126101f9576001546040516001600160a01b039091168152602090f35b61148c565b50346101f957806003193601126101f9575f516020612b465f395f51905f52546040516001600160a01b039091168152602090f35b50346101f95760203660031901126101f9576004358152600460205260408120604051918260208354918281520192825260208220915b81811061053f5761053b856105278187038261157d565b6040519182916020835260208301906115c8565b0390f35b82546001600160a01b0316845260209093019260019283019201610510565b50346101f95760403660031901126101f957604061057a6114bf565b9160043581526003602052209060018060a01b03165f5260205260a060405f2060ff6001825492015460405192835281811615156020840152818160081c1615156040840152818160101c161515606084015260181c1615156080820152f35b50346101f95760203660031901126101f9576004358152600560205260408120604051918260208354918281520192825260208220915b8181106106285761053b856105278187038261157d565b82546001600160a01b0316845260209093019260019283019201610611565b50346101f95760403660031901126101f95760406106636114a9565b9161066c6114bf565b9260018060a01b031681526006602052209060018060a01b03165f52602052602060ff60405f2054166040519015158152f35b50346101f95760a03660031901126101f957600435906106bd6114bf565b6044356001600160a01b0381169391908490036103ec5760015460643593906001600160a01b0316330361082c5782815260026020526040812080546001600160a01b031661081d5780546001600160a01b038481166001600160a01b031992831617835560843560a01b9091169087161760018201556002810185905562015180429081019190821061080957600301916001600160401b0382166001600160401b03198454161783556202a30042018092116107f55750916001600160401b0382817f48c972822a31042398ab54e1882e15cba4ec2c2916fc9f25ce6e6ae10a73de799567ffffffffffffffff60401b606096549160401b1667ffffffffffffffff60401b1982161780935560405198895216602088015260401c16604086015260018060a01b031693a4602060405160018152f35b634e487b7160e01b81526011600452602490fd5b634e487b7160e01b83526011600452602483fd5b63475a253560e01b8252600482fd5b63ea8e4eb560e01b8152600490fd5b50346101f95760403660031901126101f95760406108576114bf565b91806080835161086681611562565b8281528260208201528285820152826060820152015260043581526003602052209060018060a01b03165f5260205260a060405f206040516108a781611562565b60018254928383520154906020810160ff831615158152604082019060ff8460081c161515825260ff60806060850194828760101c1615158652019460181c16151584526040519485525115156020850152511515604084015251151560608301525115156080820152f35b50346101f957806003193601126101f9576020604051600b8152f35b50346101f957806003193601126101f9575061053b60405161095260408261157d565b60058152640352e302e360dc1b60208201526040519182918261159e565b50346101f957806003193601126101f957602060ff600754166040519015158152f35b50346101f957806003193601126101f95760206040516305f5e1008152f35b5034610b82576040366003190112610b82576004356024356109d2611ac7565b5f82815260026020526040902080549091906001600160a01b03168015610ba457600383019283546001600160401b0381164211610b955763ffffffff60149160801c161015610b9557845f52600360205260405f2060018060a01b0333165f5260205260405f20600181019283549160ff8316610b86576001938401548692610a6e9160a081901c916001600160a01b03909116903361168d565b5560ff1916179055825f526004602052610a8b3360405f20611a2e565b815463ffffffff60801b610aa8608083901c63ffffffff16611a6f565b60801b1663ffffffff60801b19919091161782555f546001600160a01b0316803b15610b82575f80916024604051809481936366ef4e5b60e01b83523360048401525af18015610b7757610b58575b5060149163ffffffff91604051908152847f1f4e2aa7825ef02e85293e2de66cfbcb326af2632b558996e546bb1ef3e8764d60203393a35460801c1614610b4d575060015f516020612b065f395f51905f525580f35b61037d903390611c37565b63ffffffff91945091610b6d5f60149461157d565b5f94915091610af7565b6040513d5f823e3d90fd5b5f80fd5b6317fd8aab60e31b5f5260045ffd5b6352cc987160e11b5f5260045ffd5b6303b9ba8b60e31b5f5260045ffd5b34610b8257610bc136611523565b905f52600460205260405f208054821015610b8257602091610be291611539565b905460405160039290921b1c6001600160a01b03168152f35b34610b82575f366003190112610b82576020604051631dcd65008152f35b34610b82575f366003190112610b82575f516020612ac65f395f51905f52546040516001600160a01b039091168152602090f35b34610b82576020366003190112610b8257610c666114a9565b610c6e611aa7565b6001600160a01b03168015610c99576bffffffffffffffffffffffff60a01b60015416176001555f80f35b63d92e233d60e01b5f5260045ffd5b34610b82575f366003190112610b82575f516020612b465f395f51905f5254336001600160a01b0390911603610ce357610ce133611bcc565b005b63118cdaa760e01b5f523360045260245ffd5b34610b82575f366003190112610b8257610d0e611aa7565b5f516020612b465f395f51905f5280546001600160a01b03199081169091555f516020612ac65f395f51905f52805491821690555f906001600160a01b03167f8be0079c531659141344cd1fd0a4f28419497f9722a3daafe3b4186f6b6457e08280a3005b34610b82575f366003190112610b8257602060405160038152f35b34610b82575f366003190112610b8257602060405160148152f35b34610b8257610ce1610dba366114d5565b9291909161168d565b34610b82576020366003190112610b82576004355f5260026020526101c060405f2060018060a01b038154169060018101549060ff600282015460038301549060018060a01b0360048501541693600560018060a01b03910154169460405196875260018060a01b038116602088015260a01c604087015260608601526001600160401b03811660808601526001600160401b038160401c1660a086015263ffffffff8160801c1660c086015263ffffffff8160a01c1660e086015263ffffffff8160c01c16610100860152818160e01c161515610120860152818160e81c16151561014086015260f01c1615156101608401526101808301526101a0820152f35b34610b82575f366003190112610b82577f00000000000000000000000000000000000000000000000000000000000000006001600160a01b03163003610f1c5760206040515f516020612ae65f395f51905f528152f35b63703e46dd60e11b5f5260045ffd5b6040366003190112610b8257610f3f6114a9565b602435906001600160401b038211610b825736602383011215610b825781600401356001600160401b03811161112d5760405192610f87601f8301601f19166020018561157d565b8184523660248383010111610b8257815f9260246020930183870137840101526001600160a01b037f00000000000000000000000000000000000000000000000000000000000000001630811490811561110b575b50610f1c57610fe9611aa7565b6040516352d1902d60e01b81526001600160a01b0382169290602081600481875afa5f91816110d7575b5061102b5783634c9c8ce360e01b5f5260045260245ffd5b805f516020612ae65f395f51905f528592036110c55750823b156110b3575f516020612ae65f395f51905f5280546001600160a01b031916821790557fbc7cd75a20ee27fd9adebab32041f755214dbc6bffa90cc0225b39da2e5c2d3b5f80a280511561109b57610ce191612a39565b5050346110a457005b63b398979f60e01b5f5260045ffd5b634c9c8ce360e01b5f5260045260245ffd5b632a87526960e21b5f5260045260245ffd5b9091506020813d602011611103575b816110f36020938361157d565b81010312610b8257519085611013565b3d91506110e6565b5f516020612ae65f395f51905f52546001600160a01b03161415905083610fdc565b634e487b7160e01b5f52604160045260245ffd5b34610b82576040366003190112610b825761115a6114a9565b6111626114bf565b5f516020612b265f395f51905f5254916001600160401b0360ff8460401c16159316801590816112e7575b60011490816112dd575b1590816112d4575b506112c5578260016001600160401b03195f516020612b265f395f51905f525416175f516020612b265f395f51905f5255611295575b6111dd612204565b6111e5612204565b6001600160a01b03811615611282576111fd90611bcc565b611205612204565b6001600160a01b03168015610c99576bffffffffffffffffffffffff60a01b5f5416175f5561123057005b60ff60401b195f516020612b265f395f51905f5254165f516020612b265f395f51905f52557fc7f505b2f371ae2175ee4913f4499e1f2633a7b5936321eed1cdaeb6115181d2602060405160018152a1005b631e4fbdf760e01b5f525f60045260245ffd5b600160401b60ff60401b195f516020612b265f395f51905f525416175f516020612b265f395f51905f52556111d5565b63f92ee8a960e01b5f5260045ffd5b9050158461119f565b303b159150611197565b84915061118d565b34610b82576040366003190112610b82576113086114a9565b6113106114bf565b6001546001600160a01b03163303611375576001600160a01b039182165f8181526006602081815260408084209590961683529384528482208054600160ff199182168117909255918552858320938352929093529290922080549091169091179055005b63ea8e4eb560e01b5f5260045ffd5b34610b82576020366003190112610b825761139d611ac7565b6113a933600435611aff565b60015f516020612b065f395f51905f5255005b34610b82576113ca36611523565b905f52600560205260405f208054821015610b8257602091610be291611539565b34610b825760206114076113fe366114d5565b92919091611604565b6040519015158152f35b34610b82576020366003190112610b8257600435801515809103610b8257611437611aa7565b60ff8019600754169116176007555f80f35b34610b82575f366003190112610b82575f546040516001600160a01b039091168152602090f35b34610b82575f366003190112610b825780637735940060209252f35b34610b82575f366003190112610b82576020604051620151808152f35b600435906001600160a01b0382168203610b8257565b602435906001600160a01b0382168203610b8257565b6080906003190112610b82576004356001600160a01b0381168103610b8257906024356001600160a01b0381168103610b8257906044356001600160a01b0381168103610b82579060643590565b6040906003190112610b82576004359060243590565b805482101561154e575f5260205f2001905f90565b634e487b7160e01b5f52603260045260245ffd5b60a081019081106001600160401b0382111761112d57604052565b90601f801991011681019081106001600160401b0382111761112d57604052565b602060409281835280519182918282860152018484015e5f828201840152601f01601f1916010190565b90602080835192838152019201905f5b8181106115e55750505090565b82516001600160a01b03168452602093840193909201916001016115d8565b919290925f93303b15610b8257604051635b9f13d360e01b81526001600160a01b03948516600482015290841660248201529216604483015260648201525f81608481305afa908161165f575b506116595790565b50600190565b61166c9192505f9061157d565b5f905f611651565b90816020910312610b82575160ff81168103610b825790565b6001600160a01b03908116939290821684148015611a1c575b6119ad5760ff6007541691826119bc575b50506119ad575f54604051633f0ccf5d60e01b8152600481018490526001600160a01b039091169290602081602481875afa908115610b77575f9161196b575b506001600160401b034291161161195c5760405163e1acd29560e01b815260048101829052602081602481875afa908115610b77575f91611919575b5063ffffffff600191161161190a5760405163eabf1bfd60e01b815260048101829052602081602481875afa908115610b77575f916118eb575b50604051639533397560e01b81526004810183905291602083602481885afa928315610b77575f936118c9575b5060209060246040518097819363313f1a1960e21b835260048301525afa938415610b77575f94611892575b5060ff60029116109081611884575b506117f4576305f5e1008111611803575060ff60019116116117f4575b565b63a7d8043560e01b5f5260045ffd5b631dcd65008111611830575060ff1660018110908115611825575b506117f457565b60029150115f61181e565b6377359400106118695760ff166002811090811561185e575b50156117f25763a7d8043560e01b5f5260045ffd5b60039150115f611849565b60ff6003911610156117f25763a7d8043560e01b5f5260045ffd5b6002915060ff16105f6117d5565b60029194506118ba60ff9160203d6020116118c2575b6118b2818361157d565b810190611674565b9491506117c6565b503d6118a8565b60209193506118e490823d84116118c2576118b2818361157d565b929061179a565b611904915060203d6020116118c2576118b2818361157d565b5f61176d565b63435c554760e11b5f5260045ffd5b90506020813d602011611954575b816119346020938361157d565b81010312610b82575163ffffffff81168103610b825763ffffffff611733565b3d9150611927565b6326f0340d60e21b5f5260045ffd5b90506020813d6020116119a5575b816119866020938361157d565b81010312610b8257516001600160401b0381168103610b82575f6116f7565b3d9150611979565b638d803ad960e01b5f5260045ffd5b5f8581526006602090815260408083206001600160a01b039094168352929052205460ff16915081156119f2575b505f806116b7565b9050825f52600660205260405f209060018060a01b03165f5260205260ff60405f2054165f6119ea565b506001600160a01b03811684146116a6565b8054600160401b81101561112d57611a4b91600182018155611539565b81546001600160a01b0393841660039290921b91821b9390911b1916919091179055565b63ffffffff1663ffffffff8114611a865760010190565b634e487b7160e01b5f52601160045260245ffd5b91908201809211611a8657565b5f516020612ac65f395f51905f52546001600160a01b03163303610ce357565b60025f516020612b065f395f51905f525414611af05760025f516020612b065f395f51905f5255565b633ee5aeb560e01b5f5260045ffd5b805f52600260205260405f2091600383019283549060ff8260e01c1615611bbd5760ff8260e81c16611bae576001600160401b038260401c1642111580611b93575b611b845760ff60e81b19909116600160e81b1790935560059290920180546001600160a01b0319166001600160a01b03909316929092179091556117f290611d5c565b6365f368e360e11b5f5260045ffd5b5063ffffffff8260a01c1663ffffffff8360c01c1610611b41565b63475a253560e01b5f5260045ffd5b635733231960e11b5f5260045ffd5b5f516020612b465f395f51905f5280546001600160a01b03199081169091555f516020612ac65f395f51905f5280549182166001600160a01b0393841690811790915591167f8be0079c531659141344cd1fd0a4f28419497f9722a3daafe3b4186f6b6457e05f80a3565b5f81815260026020526040902080549092906001600160a01b031615610ba457600383019283549060ff8260e01c16611bae576001600160401b03821642111580611cc0575b611bbd5760ff60e01b19909116600160e01b1790935560049290920180546001600160a01b0319166001600160a01b03909316929092179091556117f29061222f565b50601463ffffffff8360801c1610611c7d565b805182101561154e5760209160051b010190565b5f198114611a865760010190565b8115611cff570690565b634e487b7160e01b5f52601260045260245ffd5b6001600160401b03811161112d5760051b60200190565b90611d3482611d13565b611d41604051918261157d565b8281528092611d52601f1991611d13565b0190602036910137565b805f52600260205260405f2090805f52600560205260405f2090604051808360208295549384815201905f5260205f20925f5b8181106121e2575050611da49250038361157d565b5f915f915f5b8251811015611e32575f8281526003602052604090206001600160a01b03611dd28386611cd3565b511660018060a01b03165f52602052600160405f20015460ff8160101c16611dfe575b50600101611daa565b90949060181c60ff1615611e1f57611e17600191611ce7565b945b90611df5565b9392611e2c600191611ce7565b93611e19565b50919392906001611e438684611a9a565b1615806121c3575b61217c5784821192831561217357611e6283611d2a565b93801561216a57611e7287611d2a565b95600381019788549363ffffffff8560a01c16611e8f8389611a9a565b8103908111611a8657611ea6909a9998979a611d2a565b915f9a5f965f955f5b8a51811015611fa8578c9d9e8c9d875f52600360205260405f208d611edb8560018060a01b0392611cd3565b511660018060a01b03165f52602052600160405f20015460ff8160101c165f14611f785760181c60ff1615158b03611f45575090600191611f388d611f2684868060a01b0392611cd3565b511691611f3281611ce7565b9f611cd3565b525b019d9c9b9a9d611eaf565b9a82919d50611f728d611f60600195868060a01b0392611cd3565b511691611f6c81611ce7565b9d611cd3565b52611f3a565b50909c5060019190506001600160a01b03611f93828e611cd3565b5116611f72611fa18b611ce7565b9a8a611cd3565b50949850945098955098909950959295895f52600460205260405f206040519081602082549182815201915f5260205f20905f5b81811061214b5750505090611ff681611ffc93038261157d565b8b612915565b60ff60f01b19909316600160f01b179055600180549082015460048301546005909301546001600160a01b03928316949183169391929182169116843b15610b82578b926040519889958695638e07228960e01b8752600487015260248601528a6044860152606485016101209052610124850161207a90896115c8565b858103600319016084870152612090908a6115c8565b8581036003190160a48701526120a5916115c8565b8481036003190160c48601526120ba916115c8565b9160e484015261010483015203815a5f948591f1908115610b77577fdd808e9cff7a7a93631702b8f60c545bd5b462cb3b5bd3189a5d230193b7502f96612136946121289361213b575b5060405196879687526020870152604086015260a0606086015260a08501906115c8565b9083820360808501526115c8565b0390a2565b5f6121459161157d565b5f612104565b82546001600160a01b0316845260209093019260019283019201611fdc565b611e7284611d2a565b611e6286611d2a565b505090506117f291506040519061219460408361157d565b601782527f4576656e2072657665616c73202d20746965207269736b00000000000000000060208301526127da565b506121ce8583611a9a565b63ffffffff600386015460a01c1611611e4b565b84546001600160a01b0316835260019485019487945060209093019201611d8f565b60ff5f516020612b265f395f51905f525460401c161561222057565b631afcd79f60e31b5f5260045ffd5b805f526002602052600360405f2001805460801c63ffffffff8116600381106127a257835f52600460205260405f2091604051808460208296549384815201905f5260205f20925f5b81811061278057505061228d9250038461157d565b600b821161258857600116612489576122de8160405160208101906122d6816122c8428b448791606093918352602083015260408201520190565b03601f19810183528261157d565b519020611cf5565b5f5b8281106123a75750505f198101908111611a8657825463ffffffff60a01b191660a09190911b63ffffffff60a01b161790915561231e905b82612915565b815f52600560205260405f20604051916040830160408452825480915260608401925f5260205f20905f5b8181106123885750505091612136827f1f18d74a2116d2e401f0b9e93309f7d798c5e6a661e3fa96c0726ddc7d1fdcd3948380950360208501526115c8565b82546001600160a01b0316855260209094019360019283019201612349565b8181036123b7575b6001016122e0565b5f8681526003602052604090206001600160a01b036123d68387611cd3565b511660018060a01b03165f52602052600160405f200161010061ff0019825416179055855f52600560205261242160405f2060018060a01b036124198488611cd3565b511690611a2e565b5f546001600160a01b03908116919061243a8287611cd3565b5116823b15610b82575f926024849260405195869384926301f1ce9560e31b845260048401525af1918215610b7757600192612479575b5090506123af565b5f6124839161157d565b5f612471565b90915f5b8281106124bf5750805463ffffffff60a01b191660a09290921b63ffffffff60a01b1691909117905561231e90612318565b5f8581526003602052604090206001600160a01b036124de8387611cd3565b511660018060a01b03165f52602052600160405f200161010061ff0019825416179055845f52600560205261252160405f2060018060a01b036124198488611cd3565b5f546001600160a01b03908116919061253a8287611cd3565b5116823b15610b82575f926024849260405195869384926301f1ce9560e31b845260048401525af1918215610b7757600192612578575b500161248d565b5f6125829161157d565b5f612571565b5093929160405160208101906125b4816122c84288448791606093918352602083015260408201520190565b5190206125c086611d2a565b955f5b81811061275857505f198101908111611a8657805b6126d35750505f5b600b811061260a5750805463ffffffff60a01b1916600b60a01b1790559192509061231e90612318565b5f8481526003602052604090206001600160a01b036126298389611cd3565b511660018060a01b03165f52602052600160405f200161010061ff0019825416179055835f52600560205261266c60405f2060018060a01b03612419848a611cd3565b5f546001600160a01b0390811691906126858289611cd3565b5116823b15610b82575f926024849260405195869384926301f1ce9560e31b845260048401525af1918215610b77576001926126c3575b50016125e0565b5f6126cd9161157d565b5f6126bc565b6040516020810190838252826040820152604081526126f360608261157d565b51902060018201808311611a865761270a91611cf5565b6001600160a01b0361271c828a611cd3565b51169061273d6001600160a01b03612734858c611cd3565b5116918a611cd3565b526127488289611cd3565b528015611a86575f1901806125d8565b6001906001600160a01b0361276d8288611cd3565b5116612779828b611cd3565b52016125c3565b84546001600160a01b0316835260019485019488945060209093019201612278565b5050506117f290604051906127b860408361157d565b6014825273496e73756666696369656e7420636f6d6d69747360601b60208301525b90815f52600260205260405f2090825f52600460205260405f206040519081602082549182815201915f5260205f20905f5b8181106128f657505050906128268161282c93038261157d565b84612915565b60038301805460ff60f01b1916600160f01b17905560018054908401546004909401546001600160a01b039081169481169116803b15610b82575f928361289d936040519788958694859363dde61d7760e01b85528c600486015260248501526080604485015260848401906115c8565b90606483015203925af1908115610b77577fc7e978d13a52f2d7eaa59d05371df9a50cf3a016b7e2762ea397f5049cee50e992612136926128e6575b506040519182918261159e565b5f6128f09161157d565b5f6128d9565b82546001600160a01b031684526020909301926001928301920161280c565b90815f52600260205263ffffffff600360405f20015460a01c1615612a34575f905f5b815181101561299f575f8481526003602052604090206001600160a01b036129608385611cd3565b511660018060a01b03165f5260205260ff600160405f20015460081c161561298b575b600101612938565b91612997600191611ce7565b929050612983565b50906129aa90611d2a565b905f5f5b8251811015612a2c575f858152600360205260409020600191906001600160a01b036129da8387611cd3565b5116838060a01b03165f5260205260ff8260405f20015460081c1615612a01575b016129ae565b818060a01b03612a118286611cd3565b5116612a26612a1f85611ce7565b9487611cd3565b526129fb565b505050905090565b905090565b905f8091602081519101845af48080612ab2575b15612a6d5750506040513d81523d5f602083013e60203d82010160405290565b15612a9257639996b31560e01b5f9081526001600160a01b0391909116600452602490fd5b3d15612aa3576040513d5f823e3d90fd5b63d6bda27560e01b5f5260045ffd5b503d151580612a4d5750813b1515612a4d56fe9016d09d72d40fdae2fd8ceac6b6234c7706214fd39c1cd1e609a0528c199300360894a13ba1a3210667c828492db98dca3e2076cc3735a920a3ca505d382bbc9b779b17422d0df92223018b32b4d1fa46e071723d6817e2486d003becc55f00f0c57e16840df040f15088dc2f81fe391c3923bec73e23a9662efc9c229c6a00237e158222e3e6968b72b9db0d8043aacf074ad9f650f0d1606b4d82ee432c00a2646970667358221220105f296ec2f8ecd2c196b8b3236ea02705d25784caf6dd11caf37dde71c54df464736f6c634300081c0033f0c57e16840df040f15088dc2f81fe391c3923bec73e23a9662efc9c229c6a00",
  "linkReferences": {},
  "deployedLinkReferences": {},
  "immutableReferences": {
    "1724": [
      {
        "length": 32,
        "start": 3799
      },
      {
        "length": 32,
        "start": 4017
      }
    ]
  },
  "inputSourceName": "project/contracts/MoltXCouncil.sol",
  "buildInfoId": "solc-0_8_28-3ae85dbc6cb743f7fcdd207eecb9c728fe89e8b7"
}