{"abi":[{"type":"constructor","inputs":[{"name":"_owner","type":"address","internalType":"address"},{"name":"initialTokens","type":"address[]","internalType":"address[]"}],"stateMutability":"nonpayable"},{"type":"function","name":"allowToken","inputs":[{"name":"token","type":"address","internalType":"address"}],"outputs":[],"stateMutability":"nonpayable"},{"type":"function","name":"allowedTokens","inputs":[{"name":"","type":"address","internalType":"address"}],"outputs":[{"name":"","type":"bool","internalType":"bool"}],"stateMutability":"view"},{"type":"function","name":"disallowToken","inputs":[{"name":"token","type":"address","internalType":"address"}],"outputs":[],"stateMutability":"nonpayable"},{"type":"function","name":"explainFailure","inputs":[{"name":"data","type":"bytes","internalType":"bytes"}],"outputs":[{"name":"","type":"string","internalType":"string"}],"stateMutability":"pure"},{"type":"function","name":"getTokens","inputs":[],"outputs":[{"name":"","type":"address[]","internalType":"address[]"}],"stateMutability":"view"},{"type":"function","name":"owner","inputs":[],"outputs":[{"name":"","type":"address","internalType":"address"}],"stateMutability":"view"},{"type":"function","name":"policyType","inputs":[],"outputs":[{"name":"","type":"string","internalType":"string"}],"stateMutability":"pure"},{"type":"function","name":"tokenIndex","inputs":[{"name":"","type":"address","internalType":"address"}],"outputs":[{"name":"","type":"uint256","internalType":"uint256"}],"stateMutability":"view"},{"type":"function","name":"tokens","inputs":[{"name":"","type":"uint256","internalType":"uint256"}],"outputs":[{"name":"","type":"address","internalType":"address"}],"stateMutability":"view"},{"type":"function","name":"validate","inputs":[{"name":"","type":"address","internalType":"address"},{"name":"trades","type":"tuple[]","internalType":"struct IBatchTrade.Trade[]","components":[{"name":"exchangeName","type":"string","internalType":"string"},{"name":"from","type":"address","internalType":"address"},{"name":"fromAmount","type":"uint256","internalType":"uint256"},{"name":"to","type":"address","internalType":"address"},{"name":"minToReceiveBeforeFees","type":"uint256","internalType":"uint256"},{"name":"data","type":"bytes","internalType":"bytes"},{"name":"signature","type":"bytes","internalType":"bytes"}]},{"name":"","type":"tuple","internalType":"struct IBatchTrade.BatchTradeConfig","components":[{"name":"checkFeelessWallets","type":"bool","internalType":"bool"},{"name":"revertOnError","type":"bool","internalType":"bool"}]}],"outputs":[{"name":"","type":"bool","internalType":"bool"},{"name":"","type":"bytes","internalType":"bytes"}],"stateMutability":"view"},{"type":"event","name":"TokenAllowed","inputs":[{"name":"token","type":"address","indexed":false,"internalType":"address"}],"anonymous":false},{"type":"event","name":"TokenDisallowed","inputs":[{"name":"token","type":"address","indexed":false,"internalType":"address"}],"anonymous":false},{"type":"error","name":"AssetUniverseFromTokenNotAllowed","inputs":[{"name":"token","type":"address","internalType":"address"}]},{"type":"error","name":"AssetUniverseToTokenNotAllowed","inputs":[{"name":"token","type":"address","internalType":"address"}]},{"type":"error","name":"StringsInsufficientHexLength","inputs":[{"name":"value","type":"uint256","internalType":"uint256"},{"name":"length","type":"uint256","internalType":"uint256"}]}],"bytecode":{"object":"0x60a0604052346100475761001a6100146101d2565b906105b5565b61002261004c565b6119a361070b82396080518181816104e20152818161110801526113e801526119a390f35b610052565b60405190565b5f80fd5b601f801991011690565b634e487b7160e01b5f52604160045260245ffd5b9061007e90610056565b810190811060018060401b0382111761009657604052565b610060565b906100ae6100a761004c565b9283610074565b565b5f80fd5b5f80fd5b60018060a01b031690565b6100cc906100b8565b90565b6100d8816100c3565b036100df57565b5f80fd5b905051906100f0826100cf565b565b5f80fd5b60018060401b03811161010c5760208091020190565b610060565b5f80fd5b9092919261012a610125826100f6565b61009b565b938185526020808601920283019281841161016757915b83831061014e5750505050565b6020809161015c84866100e3565b815201920191610141565b610111565b9080601f8301121561018a5781602061018793519101610115565b90565b6100f2565b9190916040818403126101cd576101a8835f83016100e3565b92602082015160018060401b0381116101c8576101c5920161016c565b90565b6100b4565b6100b0565b6101f06120ae803803806101e58161009b565b92833981019061018f565b9091565b90565b90565b61020e610209610213926101f4565b6101f7565b6100b8565b90565b61021f906101fa565b90565b60209181520190565b5f7f4f776e6572207a65726f00000000000000000000000000000000000000000000910152565b61025f600a602092610222565b6102688161022b565b0190565b6102819060208101905f818303910152610252565b90565b1561028b57565b61029361004c565b62461bcd60e51b8152806102a96004820161026c565b0390fd5b5190565b90565b6102c86102c36102cd926101f4565b6101f7565b6102b1565b90565b60016102dc91016102b1565b90565b634e487b7160e01b5f52603260045260245ffd5b906102fd826102ad565b81101561030e576020809102010190565b6102df565b61031d90516100c3565b90565b5f7f546f6b656e207a65726f00000000000000000000000000000000000000000000910152565b610354600a602092610222565b61035d81610320565b0190565b6103769060208101905f818303910152610347565b90565b1561038057565b61038861004c565b62461bcd60e51b81528061039e60048201610361565b0390fd5b6103b66103b16103bb926100b8565b6101f7565b6100b8565b90565b6103c7906103a2565b90565b6103d3906103be565b90565b906103e0906103ca565b5f5260205260405f2090565b5f1c90565b90565b610400610405916103ec565b6103f1565b90565b61041290546103f4565b90565b90565b5f5260205f2090565b5490565b61042e81610421565b82101561044857610440600191610418565b910201905f90565b6102df565b1b90565b9190600861047191029161046b60018060a01b038461044d565b9261044d565b9181191691161790565b90565b919061049461048f61049c936103ca565b61047b565b908354610451565b9055565b90815491680100000000000000008310156104d057826104c89160016104ce95018155610425565b9061047e565b565b610060565b5490565b5f1b90565b906104ea5f19916104d9565b9181191691161790565b61050861050361050d926102b1565b6101f7565b6102b1565b90565b90565b9061052861052361052f926104f4565b610510565b82546104de565b9055565b9061053d906103ca565b5f5260205260405f2090565b9061055560ff916104d9565b9181191691161790565b151590565b61056d9061055f565b90565b90565b9061058861058361058f92610564565b610570565b8254610549565b9055565b61059c906100c3565b9052565b91906105b3905f60208501940190610593565b565b9190916105dd816105d66105d06105cb5f610216565b6100c3565b916100c3565b1415610284565b6080526105e9826102ad565b906105f35f6102b4565b5b80610607610601856102b1565b916102b1565b1015610704576106c89061062461061f8683906102f3565b610313565b6106498161064261063c6106375f610216565b6100c3565b916100c3565b1415610379565b61065d610658600283906103d6565b610408565b61066f6106695f6102b4565b916102b1565b146106cd575b61068a60016106855f8490610533565b610573565b6106c07fbeceb48aeaa805aeae57be163cca6249077a18734e408a85aa74e875c4373809916106b761004c565b918291826105a0565b0390a16102d0565b6105f4565b6106e16106da6001610415565b82906104a0565b6106ff6106ee60016104d5565b6106fa600284906103d6565b610513565b610675565b5091505056fe60806040526004361015610013575b610852565b61001d5f356100bc565b8063427f91a6146100b75780634f64b2be146100b257806357e86eeb146100ad5780638da5cb5b146100a8578063a5bea165146100a3578063aa6ca8081461009e578063b53472ef14610099578063b7cc434714610094578063e744092e1461008f5763e79767af0361000e5761081f565b6107ea565b610746565b610713565b6106d9565b610604565b610504565b610497565b610322565b6101e4565b60e01c90565b60405190565b5f80fd5b5f80fd5b5f80fd5b60018060a01b031690565b6100e8906100d4565b90565b6100f4816100df565b036100fb57565b5f80fd5b9050359061010c826100eb565b565b9060208282031261012757610124915f016100ff565b90565b6100cc565b90565b61014361013e610148926100d4565b61012c565b6100d4565b90565b6101549061012f565b90565b6101609061014b565b90565b9061016d90610157565b5f5260205260405f2090565b1c90565b90565b6101909060086101959302610179565b61017d565b90565b906101a39154610180565b90565b6101bc906101b76002915f92610163565b610198565b90565b90565b6101cb906101bf565b9052565b91906101e2905f602085019401906101c2565b565b34610214576102106101ff6101fa36600461010e565b6101a6565b6102076100c2565b918291826101cf565b0390f35b6100c8565b610222816101bf565b0361022957565b5f80fd5b9050359061023a82610219565b565b9060208282031261025557610252915f0161022d565b90565b6100cc565b634e487b7160e01b5f52603260045260245ffd5b5490565b5f5260205f2090565b6102848161026e565b82101561029e57610296600191610272565b910201905f90565b61025a565b60018060a01b031690565b6102be9060086102c39302610179565b6102a3565b90565b906102d191546102ae565b90565b60016102df8161026e565b8210156102fc576102f9916102f39161027b565b906102c6565b90565b5f80fd5b610309906100df565b9052565b9190610320905f60208501940190610300565b565b346103525761034e61033d61033836600461023c565b6102d4565b6103456100c2565b9182918261030d565b0390f35b6100c8565b5f80fd5b5f80fd5b5f80fd5b909182601f8301121561039d5781359167ffffffffffffffff831161039857602001926020830284011161039357565b61035f565b61035b565b610357565b5f80fd5b908160409103126103b45790565b6103a2565b90608082820312610407576103d0815f84016100ff565b92602083013567ffffffffffffffff8111610402576103f4836103ff928601610363565b9390946040016103a6565b90565b6100d0565b6100cc565b151590565b61041a9061040c565b9052565b5190565b60209181520190565b90825f9392825e0152565b601f801991011690565b61045f61046860209361046d936104568161041e565b93848093610422565b9586910161042b565b610436565b0190565b916104949261048760408201935f830190610411565b6020818403910152610440565b90565b346104cc576104b36104aa3660046103b9565b929190916109a6565b906104c86104bf6100c2565b92839283610471565b0390f35b6100c8565b5f9103126104db57565b6100cc565b7f000000000000000000000000000000000000000000000000000000000000000090565b34610534576105143660046104d1565b61053061051f6104e0565b6105276100c2565b9182918261030d565b0390f35b6100c8565b909182601f830112156105735781359167ffffffffffffffff831161056e57602001926001830284011161056957565b61035f565b61035b565b610357565b906020828203126105a9575f82013567ffffffffffffffff81116105a4576105a09201610539565b9091565b6100d0565b6100cc565b5190565b60209181520190565b6105da6105e36020936105e8936105d1816105ae565b938480936105b2565b9586910161042b565b610436565b0190565b6106019160208201915f8184039101526105bb565b90565b346106355761063161062061061a366004610578565b90610e41565b6106286100c2565b918291826105ec565b0390f35b6100c8565b5190565b60209181520190565b60200190565b610656906100df565b9052565b906106678160209361064d565b0190565b60200190565b9061068e6106886106818461063a565b809361063e565b92610647565b905f5b81811061069e5750505090565b9091926106b76106b1600192865161065a565b9461066b565b9101919091610691565b6106d69160208201915f818403910152610671565b90565b34610709576106e93660046104d1565b6107056106f4611060565b6106fc6100c2565b918291826106c1565b0390f35b6100c8565b5f0190565b346107415761072b61072636600461010e565b61136e565b6107336100c2565b8061073d8161070e565b0390f35b6100c8565b34610776576107563660046104d1565b6107726107616113c4565b6107696100c2565b918291826105ec565b0390f35b6100c8565b9061078590610157565b5f5260205260405f2090565b60ff1690565b6107a79060086107ac9302610179565b610791565b90565b906107ba9154610797565b90565b6107d2906107cd5f915f9261077b565b6107af565b90565b91906107e8905f60208501940190610411565b565b3461081a5761081661080561080036600461010e565b6107bd565b61080d6100c2565b918291826107d5565b0390f35b6100c8565b3461084d5761083761083236600461010e565b611617565b61083f6100c2565b806108498161070e565b0390f35b6100c8565b5f80fd5b5f90565b606090565b5090565b90565b61087a61087561087f92610863565b61012c565b6101bf565b90565b600161088e91016101bf565b90565b5f80fd5b903590600160e003813603038212156108ac570190565b610891565b908210156108cb5760206108c89202810190610895565b90565b61025a565b356108da816100eb565b90565b5f1c90565b6108ee6108f3916108dd565b610791565b90565b61090090546108e2565b90565b634e487b7160e01b5f52604160045260245ffd5b9061092190610436565b810190811067ffffffffffffffff82111761093b57604052565b610903565b9061095361094c6100c2565b9283610917565b565b67ffffffffffffffff81116109735761096f602091610436565b0190565b610903565b9061098a61098583610955565b610940565b918252565b6109985f610978565b90565b6109a361098f565b90565b50909291506109b3610856565b506109bc61085a565b506109c881849061085f565b926109d25f610866565b5b806109e66109e0876101bf565b916101bf565b1015610b1457610a1e610a18610a135f610a0d6020610a07898989916108b1565b016108d0565b9061077b565b6108f6565b1561040c565b610abd57610a54610a4e610a495f610a436060610a3d898989916108b1565b016108d0565b9061077b565b6108f6565b1561040c565b610a6657610a6190610882565b6109d3565b9350600491610aab610a936060610a8d610aba955f99637110d8d160e01b969190916108b1565b016108d0565b610a9b6100c2565b948593602085019081520161030d565b60208201810382520382610917565b90565b9350600491610b02610aea6020610ae4610b11955f9963019ce33760e01b969190916108b1565b016108d0565b610af26100c2565b948593602085019081520161030d565b60208201810382520382610917565b90565b5050509050600190610b2461099b565b90565b606090565b5090565b90565b610b47610b42610b4c92610b30565b61012c565b6101bf565b90565b610b5761098f565b90565b63ffffffff60e01b1690565b1b90565b90610b78610b7f9183610b2c565b9135610b5a565b9060048110610b8d575b5090565b610ba59063ffffffff60e01b90600403600802610b66565b165f610b89565b5f80fd5b5f80fd5b90939293848311610bd4578411610bcf576001820201920390565b610bb0565b610bac565b91565b610be5906100d4565b90565b610bf181610bdc565b03610bf857565b5f80fd5b90503590610c0982610be8565b565b90602082820312610c2457610c21915f01610bfc565b90565b6100cc565b610c329061014b565b90565b610c3e9061012f565b90565b610c55610c50610c5a926100d4565b61012c565b6101bf565b90565b90565b610c74610c6f610c7992610c5d565b61012c565b6101bf565b90565b905090565b60207f6c6f776564200000000000000000000000000000000000000000000000000000917f4173736574556e6976657273653a2066726f6d20746f6b656e206e6f7420616c5f8201520152565b610cda60268092610c7c565b610ce381610c81565b0190565b610d0c610d0392602092610cfa816105ae565b94858093610c7c565b9384910161042b565b0190565b90610d1d610d2392610cce565b90610ce7565b90565b90610d4e610d326100c2565b8093610d42602083019182610d10565b90810382520383610917565b565b60207f7765642000000000000000000000000000000000000000000000000000000000917f4173736574556e6976657273653a20746f20746f6b656e206e6f7420616c6c6f5f8201520152565b610da960248092610c7c565b610db281610d50565b0190565b90610dc3610dc992610d9d565b90610ce7565b90565b90610df4610dd86100c2565b8093610de8602083019182610db6565b90810382520383610917565b565b5f7f4173736574556e6976657273653a20756e6b6e6f776e206572726f7200000000910152565b610e27601c610978565b90610e3460208301610df6565b565b610e3e610e1d565b90565b90610e4a610b27565b50610e56828290610b2c565b610e69610e636004610b33565b916101bf565b10610f8c57610e79828290610b6a565b80610e93610e8d63019ce33760e01b610b5a565b91610b5a565b14610f2757610eb1610eab637110d8d160e01b610b5a565b91610b5a565b14610ec3575050610ec0610e36565b90565b610f05610f00610efb610ef3610eed610f1f95610f249790610ee56004610b33565b908092610bb4565b90610bd9565b810190610c0b565b610c29565b610c35565b610f19610f13601492610c41565b91610c60565b90611804565b610dcc565b90565b50610f6a610f65610f60610f58610f52610f8495610f899790610f4a6004610b33565b908092610bb4565b90610bd9565b810190610c0b565b610c29565b610c35565b610f7e610f78601492610c41565b91610c60565b90611804565b610d26565b90565b5050610f96610b4f565b90565b606090565b60209181520190565b610fb3610fb8916108dd565b6102a3565b90565b610fc59054610fa7565b90565b60010190565b90610feb610fe5610fde8461026e565b8093610f9e565b92610272565b905f5b818110610ffb5750505090565b90919261101b61101560019261101087610fbb565b61065a565b94610fc8565b9101919091610fee565b9061102f91610fce565b90565b9061105261104b926110426100c2565b93848092611025565b0383610917565b565b61105d90611032565b90565b611068610f99565b506110736001611054565b90565b5f7f4f6e6c79206f776e657200000000000000000000000000000000000000000000910152565b6110aa600a6020926105b2565b6110b381611076565b0190565b6110cc9060208101905f81830391015261109d565b90565b156110d657565b6110de6100c2565b62461bcd60e51b8152806110f4600482016110b7565b0390fd5b61113d906111383361113261112c7f00000000000000000000000000000000000000000000000000000000000000006100df565b916100df565b146110cf565b6112bb565b565b61114b611150916108dd565b61017d565b90565b61115d905461113f565b90565b90565b5f5260205f2090565b5490565b6111798161116c565b8210156111935761118b600191611163565b910201905f90565b61025a565b919060086111b89102916111b260018060a01b0384610b66565b92610b66565b9181191691161790565b90565b91906111db6111d66111e393610157565b6111c2565b908354611198565b9055565b9081549168010000000000000000831015611217578261120f91600161121595018155611170565b906111c5565b565b610903565b5f1b90565b9061122d5f199161121c565b9181191691161790565b61124b611246611250926101bf565b61012c565b6101bf565b90565b90565b9061126b61126661127292611237565b611253565b8254611221565b9055565b9061128260ff9161121c565b9181191691161790565b6112959061040c565b90565b90565b906112b06112ab6112b79261128c565b611298565b8254611276565b9055565b6112cf6112ca60028390610163565b611153565b6112e16112db5f610866565b916101bf565b14611337575b6112fc60016112f75f849061077b565b61129b565b6113327fbeceb48aeaa805aeae57be163cca6249077a18734e408a85aa74e875c4373809916113296100c2565b9182918261030d565b0390a1565b61134b6113446001611160565b82906111e7565b611369611358600161026e565b61136460028490610163565b611256565b6112e7565b611377906110f8565b565b5f7f4173736574556e69766572736500000000000000000000000000000000000000910152565b6113aa600d610978565b906113b760208301611379565b565b6113c16113a0565b90565b6113cc610b27565b506113d56113b9565b90565b61141d906114183361141261140c7f00000000000000000000000000000000000000000000000000000000000000006100df565b916100df565b146110cf565b6114d2565b565b90565b61143661143161143b9261141f565b61012c565b6101bf565b90565b634e487b7160e01b5f52601160045260245ffd5b611461611467919392936101bf565b926101bf565b820391821161147257565b61143e565b634e487b7160e01b5f52603160045260245ffd5b5f90565b6114a19161149b61148b565b916111c5565b565b6114ac8161116c565b80156114cd5760019003906114ca6114c48383611170565b9061148f565b55565b611477565b6114e65f6114e15f849061077b565b61129b565b6114fa6114f560028390610163565b611153565b8061150d6115075f610866565b916101bf565b0361154f575b5061154a7feaa9136602e3b70a4e689b5b6f55bda25ca62b917d839c0ff87f5902387f77b9916115416100c2565b9182918261030d565b0390a1565b6115638161155d6001611422565b90611452565b611580611570600161026e565b61157a6001611422565b90611452565b8161159361158d836101bf565b916101bf565b036115d1575b5050506115ae6115a96001611160565b6114a3565b6115cb6115ba5f610866565b6115c660028490610163565b611256565b5f611513565b61160f926116026115ef6115e961160a94600161027b565b906102c6565b936115fc8591600161027b565b906111c5565b916002610163565b611256565b5f8080611599565b611620906113d8565b565b90565b61163961163461163e92611622565b61012c565b6101bf565b90565b611650611656919392936101bf565b926101bf565b916116628382026101bf565b92818404149015171561167157565b61143e565b61168561168b919392936101bf565b926101bf565b820180921161169657565b61143e565b67ffffffffffffffff81116116b9576116b5602091610436565b0190565b610903565b906116d06116cb8361169b565b610940565b918252565b369037565b906116ff6116e7836116be565b926020806116f5869361169b565b92019103906116d5565b565b600360fc1b90565b906117138261041e565b81101561172557600160209102010190565b61025a565b600f60fb1b90565b61173b906101bf565b5f8114611749576001900390565b61143e565b6f181899199a1a9b1b9c1cb0b131b232b360811b90565b61176d61174e565b90565b90565b61178761178261178c92611770565b61012c565b6101bf565b90565b60f81b90565b60ff1690565b6117af6117aa6117b492610b30565b61012c565b611795565b90565b6117d6906117d06117ca6117db94611795565b916101bf565b90610179565b6101bf565b90565b9160206117ff9294936117f860408201965f8301906101c2565b01906101c2565b565b90565b9061180d610b27565b50819261183f61183a61182a60026118258691611625565b611641565b6118346002611625565b90611676565b6116da565b91611848611701565b61185f846118595f935f1a93610866565b90611709565b5361186861172a565b6118808461187a6001935f1a93611422565b90611709565b536118a861189860026118938491611625565b611641565b6118a26001611422565b90611676565b945b856118be6118b86001611422565b916101bf565b1115611924576118cc611765565b816118d7600f611773565b1691601083101561191f576118f361191392611919941a61178f565b61190287918a905f1a92611709565b5361190d600461179b565b906117b7565b95611732565b946118aa565b61025a565b90929391945061193c6119365f610866565b916101bf565b0361194f57505061194c90611801565b90565b6119695f92839263e22e27eb60e01b8452600484016117de565b0390fdfea2646970667358221220df8291607d8a4cad5392ad528eb58628bfd195385c5001da5af8384b299791ad64736f6c634300081a0033","linkReferences":{}},"methodIdentifiers":{"allowToken(address)":"b53472ef","allowedTokens(address)":"e744092e","disallowToken(address)":"e79767af","explainFailure(bytes)":"a5bea165","getTokens()":"aa6ca808","owner()":"8da5cb5b","policyType()":"b7cc4347","tokenIndex(address)":"427f91a6","tokens(uint256)":"4f64b2be","validate(address,(string,address,uint256,address,uint256,bytes,bytes)[],(bool,bool))":"57e86eeb"},"id":64}