{"abi":[{"type":"constructor","inputs":[{"name":"_owner","type":"address","internalType":"address"},{"name":"_executor","type":"address","internalType":"address"},{"name":"_safe","type":"address","internalType":"contract ISafe"},{"name":"_batchTrade","type":"address","internalType":"contract IBatchTrade"},{"name":"_cooldown","type":"uint256","internalType":"uint256"}],"stateMutability":"nonpayable"},{"type":"function","name":"addPolicy","inputs":[{"name":"policy","type":"address","internalType":"address"}],"outputs":[],"stateMutability":"nonpayable"},{"type":"function","name":"batchTrade","inputs":[],"outputs":[{"name":"","type":"address","internalType":"contract IBatchTrade"}],"stateMutability":"view"},{"type":"function","name":"checkPolicies","inputs":[{"name":"trades","type":"tuple[]","internalType":"struct IBatchTrade.Trade[]","components":[{"name":"exchangeName","type":"string","internalType":"string"},{"name":"from","type":"address","internalType":"address"},{"name":"fromAmount","type":"uint256","internalType":"uint256"},{"name":"to","type":"address","internalType":"address"},{"name":"minToReceiveBeforeFees","type":"uint256","internalType":"uint256"},{"name":"data","type":"bytes","internalType":"bytes"},{"name":"signature","type":"bytes","internalType":"bytes"}]},{"name":"config","type":"tuple","internalType":"struct IBatchTrade.BatchTradeConfig","components":[{"name":"checkFeelessWallets","type":"bool","internalType":"bool"},{"name":"revertOnError","type":"bool","internalType":"bool"}]}],"outputs":[{"name":"ok","type":"bool","internalType":"bool"},{"name":"failedPolicy","type":"address","internalType":"address"},{"name":"reason","type":"bytes","internalType":"bytes"}],"stateMutability":"view"},{"type":"function","name":"checkPoliciesVerbose","inputs":[{"name":"trades","type":"tuple[]","internalType":"struct IBatchTrade.Trade[]","components":[{"name":"exchangeName","type":"string","internalType":"string"},{"name":"from","type":"address","internalType":"address"},{"name":"fromAmount","type":"uint256","internalType":"uint256"},{"name":"to","type":"address","internalType":"address"},{"name":"minToReceiveBeforeFees","type":"uint256","internalType":"uint256"},{"name":"data","type":"bytes","internalType":"bytes"},{"name":"signature","type":"bytes","internalType":"bytes"}]},{"name":"config","type":"tuple","internalType":"struct IBatchTrade.BatchTradeConfig","components":[{"name":"checkFeelessWallets","type":"bool","internalType":"bool"},{"name":"revertOnError","type":"bool","internalType":"bool"}]}],"outputs":[{"name":"ok","type":"bool","internalType":"bool"},{"name":"failedPolicy","type":"address","internalType":"address"},{"name":"reason","type":"string","internalType":"string"}],"stateMutability":"view"},{"type":"function","name":"cooldown","inputs":[],"outputs":[{"name":"","type":"uint256","internalType":"uint256"}],"stateMutability":"view"},{"type":"function","name":"execute","inputs":[{"name":"trades","type":"tuple[]","internalType":"struct IBatchTrade.Trade[]","components":[{"name":"exchangeName","type":"string","internalType":"string"},{"name":"from","type":"address","internalType":"address"},{"name":"fromAmount","type":"uint256","internalType":"uint256"},{"name":"to","type":"address","internalType":"address"},{"name":"minToReceiveBeforeFees","type":"uint256","internalType":"uint256"},{"name":"data","type":"bytes","internalType":"bytes"},{"name":"signature","type":"bytes","internalType":"bytes"}]},{"name":"config","type":"tuple","internalType":"struct IBatchTrade.BatchTradeConfig","components":[{"name":"checkFeelessWallets","type":"bool","internalType":"bool"},{"name":"revertOnError","type":"bool","internalType":"bool"}]}],"outputs":[],"stateMutability":"nonpayable"},{"type":"function","name":"executor","inputs":[],"outputs":[{"name":"","type":"address","internalType":"address"}],"stateMutability":"view"},{"type":"function","name":"getPolicies","inputs":[],"outputs":[{"name":"","type":"address[]","internalType":"address[]"}],"stateMutability":"view"},{"type":"function","name":"getPoliciesWithTypes","inputs":[],"outputs":[{"name":"state","type":"tuple[]","internalType":"struct ExecutorModule.PolicyState[]","components":[{"name":"policy","type":"address","internalType":"address"},{"name":"policyType","type":"string","internalType":"string"}]}],"stateMutability":"view"},{"type":"function","name":"lastExecution","inputs":[],"outputs":[{"name":"","type":"uint256","internalType":"uint256"}],"stateMutability":"view"},{"type":"function","name":"owner","inputs":[],"outputs":[{"name":"","type":"address","internalType":"address"}],"stateMutability":"view"},{"type":"function","name":"policies","inputs":[{"name":"","type":"uint256","internalType":"uint256"}],"outputs":[{"name":"","type":"address","internalType":"address"}],"stateMutability":"view"},{"type":"function","name":"removePolicy","inputs":[{"name":"policy","type":"address","internalType":"address"}],"outputs":[],"stateMutability":"nonpayable"},{"type":"function","name":"safe","inputs":[],"outputs":[{"name":"","type":"address","internalType":"contract ISafe"}],"stateMutability":"view"},{"type":"function","name":"setCooldown","inputs":[{"name":"_cooldown","type":"uint256","internalType":"uint256"}],"outputs":[],"stateMutability":"nonpayable"},{"type":"function","name":"setExecutor","inputs":[{"name":"_executor","type":"address","internalType":"address"}],"outputs":[],"stateMutability":"nonpayable"},{"type":"event","name":"ExecutorSet","inputs":[{"name":"executor","type":"address","indexed":false,"internalType":"address"}],"anonymous":false},{"type":"event","name":"PolicyAdded","inputs":[{"name":"policy","type":"address","indexed":false,"internalType":"address"}],"anonymous":false},{"type":"event","name":"PolicyRemoved","inputs":[{"name":"policy","type":"address","indexed":false,"internalType":"address"}],"anonymous":false},{"type":"event","name":"TradeExecuted","inputs":[{"name":"tradeHash","type":"bytes32","indexed":false,"internalType":"bytes32"}],"anonymous":false},{"type":"error","name":"PolicyCheckFailed","inputs":[{"name":"policy","type":"address","internalType":"address"},{"name":"data","type":"bytes","internalType":"bytes"}]},{"type":"error","name":"ReentrancyGuard","inputs":[]},{"type":"error","name":"TokenAllowanceReadFailed","inputs":[{"name":"token","type":"address","internalType":"address"}]},{"type":"error","name":"TokenApprovalFailed","inputs":[{"name":"token","type":"address","internalType":"address"},{"name":"targetAmount","type":"uint256","internalType":"uint256"}]},{"type":"error","name":"TradeExecutionFailed","inputs":[]}],"bytecode":{"object":"0x60e0604052346100d35761001d610014610254565b939290926105c8565b6100256100d8565b612f006106a28239608051818181610573015281816113da015281816116a2015281816117500152611d56015260a0518181816102250152818161142c015281816116f4015281816117a201528181611da8015281816122c2015281816124b6015281816129c201528181612a6b01528181612b150152612dff015260c05181818161076b015281816124e9015281816129eb01528181612a9401528181612b3e0152612dab0152612f0090f35b6100de565b60405190565b5f80fd5b601f801991011690565b634e487b7160e01b5f52604160045260245ffd5b9061010a906100e2565b810190811060018060401b0382111761012257604052565b6100ec565b9061013a6101336100d8565b9283610100565b565b5f80fd5b60018060a01b031690565b61015490610140565b90565b6101608161014b565b0361016757565b5f80fd5b9050519061017882610157565b565b6101839061014b565b90565b61018f8161017a565b0361019657565b5f80fd5b905051906101a782610186565b565b6101b29061014b565b90565b6101be816101a9565b036101c557565b5f80fd5b905051906101d6826101b5565b565b90565b6101e4816101d8565b036101eb57565b5f80fd5b905051906101fc826101db565b565b919060a08382031261024f57610216815f850161016b565b92610224826020830161016b565b9261024c610235846040850161019a565b9361024381606086016101c9565b936080016101ef565b90565b61013c565b6102726135a28038038061026781610127565b9283398101906101fe565b9091929394565b90565b90565b61029361028e61029892610279565b61027c565b610140565b90565b6102a49061027f565b90565b60209181520190565b5f7f4f776e6572207a65726f00000000000000000000000000000000000000000000910152565b6102e4600a6020926102a7565b6102ed816102b0565b0190565b6103069060208101905f8183039101526102d7565b90565b1561031057565b6103186100d8565b62461bcd60e51b81528061032e600482016102f1565b0390fd5b5f7f4578656375746f72207a65726f00000000000000000000000000000000000000910152565b610366600d6020926102a7565b61036f81610332565b0190565b6103889060208101905f818303910152610359565b90565b1561039257565b61039a6100d8565b62461bcd60e51b8152806103b060048201610373565b0390fd5b6103c86103c36103cd92610140565b61027c565b610140565b90565b6103d9906103b4565b90565b6103e5906103d0565b90565b5f7f53616665207a65726f0000000000000000000000000000000000000000000000910152565b61041c60096020926102a7565b610425816103e8565b0190565b61043e9060208101905f81830391015261040f565b90565b1561044857565b6104506100d8565b62461bcd60e51b81528061046660048201610429565b0390fd5b610473906103d0565b90565b5f7f42617463685472616465207a65726f0000000000000000000000000000000000910152565b6104aa600f6020926102a7565b6104b381610476565b0190565b6104cc9060208101905f81830391015261049d565b90565b156104d657565b6104de6100d8565b62461bcd60e51b8152806104f4600482016104b7565b0390fd5b5f1b90565b9061050e60018060a01b03916104f8565b9181191691161790565b610521906103d0565b90565b90565b9061053c61053761054392610518565b610524565b82546104fd565b9055565b906105535f19916104f8565b9181191691161790565b61057161056c610576926101d8565b61027c565b6101d8565b90565b90565b9061059161058c6105989261055d565b610579565b8254610547565b9055565b90565b6105b36105ae6105b89261059c565b61027c565b6101d8565b90565b6105c5600161059f565b90565b61068d94939291610680916105f8816105f16105eb6105e65f61029b565b61014b565b9161014b565b1415610309565b61061d8261061661061061060b5f61029b565b61014b565b9161014b565b141561038b565b61064a610629856103dc565b61064361063d6106385f61029b565b61014b565b9161014b565b1415610441565b6106776106568661046a565b61067061066a6106655f61029b565b61014b565b9161014b565b14156104cf565b6080525f610527565b60a05260c052600361057c565b61069f6106986105bb565b600461057c565b56fe60806040526004361015610013575b610ac6565b61001d5f3561011c565b80630bc97a4314610117578063186f0354146101125780631c3c0ea81461010d5780633b04f6f1146101085780634fc3f41a14610103578063787a08a6146100fe57806378d38d82146100f95780638da5cb5b146100f457806393106d77146100ef5780639958cdec146100ea578063aab58ca3146100e5578063b7fc3e51146100e0578063b84ef081146100db578063c34c08e5146100d6578063d3e89483146100d15763dc1483810361000e57610a91565b61094f565b6108a5565b610834565b6107ff565b6107bb565b610730565b610685565b6105b7565b61053e565b610509565b610478565b6103ff565b61032d565b6102ab565b6101e0565b60e01c90565b60405190565b5f80fd5b5f80fd5b5f80fd5b5f80fd5b5f80fd5b5f80fd5b909182601f8301121561017a5781359167ffffffffffffffff831161017557602001926020830284011161017057565b61013c565b610138565b610134565b5f80fd5b908160409103126101915790565b61017f565b916060838303126101d6575f83013567ffffffffffffffff81116101d1576101c3836101ce928601610140565b939094602001610183565b90565b610130565b61012c565b5f0190565b3461020f576101f96101f3366004610196565b9161133e565b610201610122565b8061020b816101db565b0390f35b610128565b5f91031261021e57565b61012c565b7f000000000000000000000000000000000000000000000000000000000000000090565b60018060a01b031690565b90565b61026961026461026e92610247565b610252565b610247565b90565b61027a90610255565b90565b61028690610271565b90565b6102929061027d565b9052565b91906102a9905f60208501940190610289565b565b346102db576102bb366004610214565b6102d76102c6610223565b6102ce610122565b91829182610296565b0390f35b610128565b6102e990610247565b90565b6102f5816102e0565b036102fc57565b5f80fd5b9050359061030d826102ec565b565b9060208282031261032857610325915f01610300565b90565b61012c565b3461035b5761034561034036600461030f565b6115c1565b61034d610122565b80610357816101db565b0390f35b610128565b5190565b60209181520190565b60200190565b61037c906102e0565b9052565b9061038d81602093610373565b0190565b60200190565b906103b46103ae6103a784610360565b8093610364565b9261036d565b905f5b8181106103c45750505090565b9091926103dd6103d76001928651610380565b94610391565b91019190916103b7565b6103fc9160208201915f818403910152610397565b90565b3461042f5761040f366004610214565b61042b61041a61167f565b610422610122565b918291826103e7565b0390f35b610128565b90565b61044081610434565b0361044757565b5f80fd5b9050359061045882610437565b565b9060208282031261047357610470915f0161044b565b90565b61012c565b346104a65761049061048b36600461045a565b611738565b610498610122565b806104a2816101db565b0390f35b610128565b1c90565b90565b6104c29060086104c793026104ab565b6104af565b90565b906104d591546104b2565b90565b6104e460035f906104ca565b90565b6104f090610434565b9052565b9190610507905f602085019401906104e7565b565b3461053957610519366004610214565b6105356105246104d8565b61052c610122565b918291826104f4565b0390f35b610128565b3461056c5761055661055136600461030f565b611a5e565b61055e610122565b80610568816101db565b0390f35b610128565b7f000000000000000000000000000000000000000000000000000000000000000090565b61059e906102e0565b9052565b91906105b5905f60208501940190610595565b565b346105e7576105c7366004610214565b6105e36105d2610571565b6105da610122565b918291826105a2565b0390f35b610128565b151590565b6105fa906105ec565b9052565b5190565b60209181520190565b90825f9392825e0152565b601f801991011690565b61063f61064860209361064d93610636816105fe565b93848093610602565b9586910161060b565b610616565b0190565b61067561068294929361066b60608401955f8501906105f1565b6020830190610595565b6040818403910152610620565b90565b346106b9576106b56106a161069b366004610196565b91611c0f565b6106ac939193610122565b93849384610651565b0390f35b610128565b5190565b60209181520190565b6106ea6106f36020936106f8936106e1816106be565b938480936106c2565b9586910161060b565b610616565b0190565b61072061072d94929361071660608401955f8501906105f1565b6020830190610595565b60408184039101526106cb565b90565b346107645761076061074c610746366004610196565b91611d1a565b610757939193610122565b938493846106fc565b0390f35b610128565b7f000000000000000000000000000000000000000000000000000000000000000090565b61079690610271565b90565b6107a29061078d565b9052565b91906107b9905f60208501940190610799565b565b346107eb576107cb366004610214565b6107e76107d6610769565b6107de610122565b918291826107a6565b0390f35b610128565b6107fc60025f906104ca565b90565b3461082f5761080f366004610214565b61082b61081a6107f0565b610822610122565b918291826104f4565b0390f35b610128565b346108625761084c61084736600461030f565b611f0a565b610854610122565b8061085e816101db565b0390f35b610128565b60018060a01b031690565b61088290600861088793026104ab565b610867565b90565b906108959154610872565b90565b6108a25f8061088a565b90565b346108d5576108b5366004610214565b6108d16108c0610898565b6108c8610122565b918291826105a2565b0390f35b610128565b634e487b7160e01b5f52603260045260245ffd5b5490565b5f5260205f2090565b610904816108ee565b82101561091e576109166001916108f2565b910201905f90565b6108da565b600161092e816108ee565b82101561094b5761094891610942916108fb565b9061088a565b90565b5f80fd5b3461097f5761097b61096a61096536600461045a565b610923565b610972610122565b918291826105a2565b0390f35b610128565b5190565b60209181520190565b60200190565b60209181520190565b6109bf6109c86020936109cd936109b6816105fe565b93848093610997565b9586910161060b565b610616565b0190565b6109fc91602060408201926109ec5f8201515f850190610373565b01519060208184039101526109a0565b90565b90610a09916109d1565b90565b60200190565b90610a26610a1f83610984565b8092610988565b9081610a3760208302840194610991565b925f915b838310610a4a57505050505090565b90919293946020610a6c610a66838560019503875289516109ff565b97610a0c565b9301930191939290610a3b565b610a8e9160208201915f818403910152610a12565b90565b34610ac157610aa1366004610214565b610abd610aac61201d565b610ab4610122565b91829182610a79565b0390f35b610128565b5f80fd5b5f1c90565b610adb610ae091610aca565b610867565b90565b610aed9054610acf565b90565b5f7f4f6e6c79206578656375746f7200000000000000000000000000000000000000910152565b610b24600d602092610602565b610b2d81610af0565b0190565b610b469060208101905f818303910152610b17565b90565b15610b5057565b610b58610122565b62461bcd60e51b815280610b6e60048201610b31565b0390fd5b90610ba19291610b9c33610b96610b90610b8b5f610ae3565b6102e0565b916102e0565b14610b49565b610c76565b565b610baf610bb491610aca565b6104af565b90565b610bc19054610ba3565b90565b90565b610bdb610bd6610be092610bc4565b610252565b610434565b90565b610bed6002610bc7565b90565b5f1b90565b90610c015f1991610bf0565b9181191691161790565b610c1f610c1a610c2492610434565b610252565b610434565b90565b90565b90610c3f610c3a610c4692610c0b565b610c27565b8254610bf5565b9055565b90565b610c61610c5c610c6692610c4a565b610252565b610434565b90565b610c736001610c4d565b90565b9190610c826004610bb7565b610c9b610c95610c90610be3565b610434565b91610434565b14610ccf57610cbb92610cb6610caf610be3565b6004610c2a565b611208565b610ccd610cc6610c69565b6004610c2a565b565b5f6345f5ce8b60e11b815280610ce7600482016101db565b0390fd5b5090565b90565b610d06610d01610d0b92610cef565b610252565b610434565b90565b5f7f4e6f207472616465730000000000000000000000000000000000000000000000910152565b610d426009602092610602565b610d4b81610d0e565b0190565b610d649060208101905f818303910152610d35565b90565b15610d6e57565b610d76610122565b62461bcd60e51b815280610d8c60048201610d4f565b0390fd5b634e487b7160e01b5f52601160045260245ffd5b610db3610db991939293610434565b92610434565b8201809211610dc457565b610d90565b5f7f436f6f6c646f776e000000000000000000000000000000000000000000000000910152565b610dfd6008602092610602565b610e0681610dc9565b0190565b610e1f9060208101905f818303910152610df0565b90565b15610e2957565b610e31610122565b62461bcd60e51b815280610e4760048201610e0a565b0390fd5b91610e6e92610e6160408201935f830190610595565b60208184039101526106cb565b90565b60209181520190565b90565b5f80fd5b5f80fd5b5f80fd5b9035600160200382360303811215610eca57016020813591019167ffffffffffffffff8211610ec5576001820236038313610ec057565b610e81565b610e7d565b610e85565b90825f939282370152565b9190610ef481610eed81610ef995610997565b8095610ecf565b610616565b0190565b50610f0c906020810190610300565b90565b50610f1e90602081019061044b565b90565b610f2a90610434565b9052565b9035600160200382360303811215610f6f57016020813591019167ffffffffffffffff8211610f6a576001820236038313610f6557565b610e81565b610e7d565b610e85565b60209181520190565b9190610f9781610f9081610f9c95610f74565b8095610ecf565b610616565b0190565b6110669161105861104d610fca60e08401610fbd5f870187610e89565b908683035f880152610eda565b610fe4610fda6020870187610efd565b6020860190610373565b610ffe610ff46040870187610f0f565b6040860190610f21565b61101861100e6060870187610efd565b6060860190610373565b6110326110286080870187610f0f565b6080860190610f21565b61103f60a0860186610f2e565b9085830360a0870152610f7d565b9260c0810190610f2e565b9160c0818503910152610f7d565b90565b9061107391610fa0565b90565b9035600160e0038236030381121561108c570190565b610e85565b60200190565b91816110a291610e71565b90816110b360208302840194610e7a565b92835f925b8484106110c85750505050505090565b90919293949560206110f36110ed83856001950388526110e88b88611076565b611069565b98611091565b9401940192949391906110b8565b61110a816105ec565b0361111157565b5f80fd5b9050359061112282611101565b565b50611133906020810190611115565b90565b61113f906105ec565b9052565b90602061116e6111769361116561115c5f830183611124565b5f860190611136565b82810190611124565b910190611136565b565b93929061119660209161119e9460608801918883035f8a0152611097565b940190611143565b565b634e487b7160e01b5f52604160045260245ffd5b906111be90610616565b810190811067ffffffffffffffff8211176111d857604052565b6111a0565b60200190565b90565b6111ef906111e3565b9052565b9190611206905f602085019401906111e6565b565b61122e611216828490610ceb565b6112286112225f610cf2565b91610434565b11610d67565b6112674261126061125a6112556112456002610bb7565b61124f6003610bb7565b90610da4565b610434565b91610434565b1015610e22565b61128161127682848691612245565b9192909192156105ec565b611319575050906112b18261129b6112c094848791612467565b91936112a5610122565b94859360208501611178565b602082018103825203826111b4565b6112d26112cc826106be565b916111dd565b206113097f605feb811f4d7dad299b3c9875d9ab7cae6a4d02e236092a84b57c638cb52ca291611300610122565b918291826111f3565b0390a1611317426002610c2a565b565b61133a611324610122565b928392635cf9ce2760e01b845260048401610e4b565b0390fd5b906113499291610b72565b565b5f7f4f6e6c79206f776e6572206f7220736166650000000000000000000000000000910152565b61137f6012602092610602565b6113888161134b565b0190565b6113a19060208101905f818303910152611372565b90565b156113ab57565b6113b3610122565b62461bcd60e51b8152806113c96004820161138c565b0390fd5b61141a90336114046113fe7f00000000000000000000000000000000000000000000000000000000000000006102e0565b916102e0565b14801561141c575b611415906113a4565b611557565b565b506114153361145b6114556114507f000000000000000000000000000000000000000000000000000000000000000061027d565b6102e0565b916102e0565b14905061140c565b61147761147261147c92610cef565b610252565b610247565b90565b61148890611463565b90565b5f7f4578656375746f72207a65726f00000000000000000000000000000000000000910152565b6114bf600d602092610602565b6114c88161148b565b0190565b6114e19060208101905f8183039101526114b2565b90565b156114eb57565b6114f3610122565b62461bcd60e51b815280611509600482016114cc565b0390fd5b9061151e60018060a01b0391610bf0565b9181191691161790565b61153190610271565b90565b90565b9061154c61154761155392611528565b611534565b825461150d565b9055565b61157c8161157561156f61156a5f61147f565b6102e0565b916102e0565b14156114e4565b611586815f611537565b6115bc7f3e3c5e6d5b512eaa5d5a80669846cfbaf8bde70fc6f7a3be9828cffc9ba5f1db916115b3610122565b918291826105a2565b0390a1565b6115ca906113cd565b565b606090565b60209181520190565b6115e49054610acf565b90565b60010190565b9061160a6116046115fd846108ee565b80936115d1565b926108f2565b905f5b81811061161a5750505090565b90919261163a61163460019261162f876115da565b610380565b946115e7565b910191909161160d565b9061164e916115ed565b90565b9061167161166a92611661610122565b93848092611644565b03836111b4565b565b61167c90611651565b90565b6116876115cc565b506116926001611673565b90565b6116e290336116cc6116c67f00000000000000000000000000000000000000000000000000000000000000006102e0565b916102e0565b1480156116e4575b6116dd906113a4565b61172b565b565b506116dd3361172361171d6117187f000000000000000000000000000000000000000000000000000000000000000061027d565b6102e0565b916102e0565b1490506116d4565b611736906003610c2a565b565b61174190611695565b565b611790903361177a6117747f00000000000000000000000000000000000000000000000000000000000000006102e0565b916102e0565b148015611792575b61178b906113a4565b611949565b565b5061178b336117d16117cb6117c67f000000000000000000000000000000000000000000000000000000000000000061027d565b6102e0565b916102e0565b149050611782565b60016117e59101610434565b90565b6117f76117fd91939293610434565b92610434565b820391821161180857565b610d90565b1b90565b9190600861183191029161182b60018060a01b038461180d565b9261180d565b9181191691161790565b919061185161184c61185993611528565b611534565b908354611811565b9055565b90565b634e487b7160e01b5f52603160045260245ffd5b5490565b5f5260205f2090565b61188a81611874565b8210156118a45761189c600191611878565b910201905f90565b6108da565b5f90565b6118bf916118b96118a9565b9161183b565b565b6118ca81611874565b80156118eb5760019003906118e86118e28383611881565b906118ad565b55565b611860565b5f7f506f6c696379206e6f7420666f756e6400000000000000000000000000000000910152565b6119246010602092610602565b61192d816118f0565b0190565b6119469060208101905f818303910152611917565b90565b61195360016108ee565b9061195d5f610cf2565b5b8061197161196b85610434565b91610434565b1015611a3c5761198c611986600183906108fb565b9061088a565b61199e611998846102e0565b916102e0565b146119b1576119ac906117d9565b61195e565b6119e96119e16119db6119ef94956119d56001916119cf6001610c4d565b906117e8565b906108fb565b9061088a565b9160016108fb565b9061183b565b611a016119fc600161185d565b6118c1565b611a377f7d69543e56287cc6159e1cd00d200f2d86996b94ef9a170c4ec9a31daa6dd2ce91611a2e610122565b918291826105a2565b0390a1565b611a44610122565b62461bcd60e51b815280611a5a60048201611931565b0390fd5b611a6790611743565b565b5f90565b606090565b606090565b90611a8a611a83610122565b92836111b4565b565b67ffffffffffffffff8111611aaa57611aa6602091610616565b0190565b6111a0565b90611ac1611abc83611a8c565b611a77565b918252565b611acf5f611aaf565b90565b611ada611ac6565b90565b611ae690610255565b90565b611af290611add565b90565b611afe90610271565b90565b60e01b90565b5f80fd5b90929192611b20611b1b82611a8c565b611a77565b93818552602085019082840111611b3c57611b3a9261060b565b565b611b07565b9080601f83011215611b5f57816020611b5c93519101611b0b565b90565b610134565b90602082820312611b94575f82015167ffffffffffffffff8111611b8f57611b8c9201611b41565b90565b610130565b61012c565b611bae9160208201915f8184039101526106cb565b90565b611bb9610122565b3d5f823e3d90fd5b90565b5f7f506f6c696379206661696c656400000000000000000000000000000000000000910152565b611bf5600d611aaf565b90611c0260208301611bc4565b565b611c0c611beb565b90565b91611c4092611c1c611a69565b50611c256118a9565b50611c2e611a6d565b50611c37611a72565b50919091612245565b9091611d00575f611c8391611c5c611c5785611ae9565b611af5565b611c7863a5bea165611c6c610122565b95869485938493611b01565b835260048301611b99565b03915afa908115611cfb575f91611cd9575b5091611ca8611ca384611bc1565b6106be565b611cba611cb45f610cf2565b91610434565b14611cc8575f919291929190565b9091505f9190611cd6611c04565b90565b611cf591503d805f833e611ced81836111b4565b810190611b64565b5f611c95565b611bb1565b5050600190611d0e5f61147f565b90611d17611ad2565b90565b91611d4292611d27611a69565b50611d306118a9565b50611d39611a72565b50919091612245565b9192909190565b611d969033611d80611d7a7f00000000000000000000000000000000000000000000000000000000000000006102e0565b916102e0565b148015611d98575b611d91906113a4565b611e96565b565b50611d9133611dd7611dd1611dcc7f000000000000000000000000000000000000000000000000000000000000000061027d565b6102e0565b916102e0565b149050611d88565b5f7f506f6c696379207a65726f000000000000000000000000000000000000000000910152565b611e13600b602092610602565b611e1c81611ddf565b0190565b611e359060208101905f818303910152611e06565b90565b15611e3f57565b611e47610122565b62461bcd60e51b815280611e5d60048201611e20565b0390fd5b9081549168010000000000000000831015611e915782611e89916001611e8f95018155611881565b9061183b565b565b6111a0565b611ebb81611eb4611eae611ea95f61147f565b6102e0565b916102e0565b1415611e38565b611ecf611ec8600161185d565b8290611e61565b611f057f1ed14278e1ad1e635937a5a835db93e1dfeb1f3846f7a9105c94a88e89c4b40d91611efc610122565b918291826105a2565b0390a1565b611f1390611d49565b565b606090565b67ffffffffffffffff8111611f325760208091020190565b6111a0565b90611f49611f4483611f1a565b611a77565b918252565b611f586040611a77565b90565b5f90565b606090565b611f6c611f4e565b9060208083611f79611f5b565b815201611f84611f5f565b81525050565b611f92611f64565b90565b5f5b828110611fa357505050565b602090611fae611f8a565b8184015201611f97565b90611fdd611fc583611f37565b92602080611fd38693611f1a565b9201910390611f95565b565b611fe96040611a77565b90565b90611ff6906102e0565b9052565b52565b9061200782610984565b811015612018576020809102010190565b6108da565b612025611f15565b5061203060016108ee565b61203981611fb8565b916120435f610cf2565b5b8061205761205185610434565b91610434565b101561212f5761209e90612076612070600183906108fb565b9061088a565b5f61208861208383611ae9565b611af5565b63b7cc434790612096610122565b958692611b01565b825281806120ae600482016101db565b03915afa90811561212a576120e96120fc92612103955f91612108575b506120e06120d7611fdf565b935f8501611fec565b60208301611ffa565b8683916120f68383611ffd565b52611ffd565b51506117d9565b612044565b61212491503d805f833e61211c81836111b4565b810190611b64565b5f6120cb565b611bb1565b509050565b9050519061214182611101565b565b67ffffffffffffffff81116121615761215d602091610616565b0190565b6111a0565b9092919261217b61217682612143565b611a77565b93818552602085019082840111612197576121959261060b565b565b611b07565b9080601f830112156121ba578160206121b793519101612166565b90565b610134565b9190916040818403126121ff576121d8835f8301612134565b92602082015167ffffffffffffffff81116121fa576121f7920161219c565b90565b610130565b61012c565b949391604091612238946122309261222360808a01935f8b0190610595565b88830360208a0152611097565b940190611143565b565b612242611ac6565b90565b929092612250611a69565b506122596118a9565b50612262611a72565b5061226d60016108ee565b926122775f610cf2565b5b8061228b61228587610434565b91610434565b1015612391576122b66122b16122ac6122a6600185906108fb565b9061088a565b611ae9565b611af5565b5f6357e86eeb916122e67f000000000000000000000000000000000000000000000000000000000000000061027d565b9061230687946123118c89906122fa610122565b98899788968796611b01565b865260048601612204565b03915afa801561238c575f80929091612365575b5061233090156105ec565b612343575061233e906117d9565b612278565b95509350505061235e6123585f9360016108fb565b9061088a565b9291929190565b612330925061238691503d805f833e61237e81836111b4565b8101906121bf565b91612325565b611bb1565b50505091505060016123a25f61147f565b916123ab61223a565b91929190565b906020828203126123ca576123c7915f01612134565b90565b61012c565b6123d890610cf2565b9052565b634e487b7160e01b5f52602160045260245ffd5b600211156123fa57565b6123dc565b90612409826123f0565b565b612414906123ff565b90565b6124209061240b565b9052565b9493916060916124659461245061245d9361244660808b01945f8c0190610595565b60208a01906123cf565b87820360408901526106cb565b940190612417565b565b6124a06124af9260049461247c848390612774565b639396f45960e01b93919091612490610122565b9687956020870190815201611178565b602082018103825203826111b4565b60206124da7f000000000000000000000000000000000000000000000000000000000000000061027d565b63468721a7906125295f61250d7f000000000000000000000000000000000000000000000000000000000000000061078d565b936125348297839061251d610122565b998a9889978896611b01565b865260048601612424565b03925af180156125a057612550915f91612572575b50156105ec565b61255657565b5f633cf6963760e21b81528061256e600482016101db565b0390fd5b612593915060203d8111612599575b61258b81836111b4565b8101906123b1565b5f612549565b503d612581565b611bb1565b67ffffffffffffffff81116125bd5760208091020190565b6111a0565b906125d46125cf836125a5565b611a77565b918252565b369037565b906126036125eb836125c2565b926020806125f986936125a5565b92019103906125d9565b565b67ffffffffffffffff811161261d5760208091020190565b6111a0565b9061263461262f83612605565b611a77565b918252565b369037565b9061266361264b83612622565b926020806126598693612605565b9201910390612639565b565b5f90565b5f80fd5b903590600160e00381360303821215612684570190565b612669565b908210156126a35760206126a0920281019061266d565b90565b6108da565b356126b2816102ec565b90565b356126bf81610437565b90565b906126cc82610360565b8110156126dd576020809102010190565b6108da565b6126ec90516102e0565b90565b5190565b906126fd826126ef565b81101561270e576020809102010190565b6108da565b61271d9051610434565b90565b9061272a90610434565b9052565b91602061274f92949361274860408201965f830190610595565b01906123cf565b565b91602061277292949361276b60408201965f830190610595565b01906104e7565b565b919091612782818490610ceb565b9261279561278f856125de565b9461263e565b9161279e612665565b916127aa828290610ceb565b946127b45f610cf2565b5b806127c86127c289610434565b91610434565b1015612966576127e560206127df86868591612689565b016126a8565b6127fc60406127f687878691612689565b016126b5565b908061281861281261280d5f61147f565b6102e0565b916102e0565b14158061294c575b612835575b5050612830906117d9565b6127b5565b945f999392989197949950612848611a69565b996128525f610cf2565b5b806128666128608b610434565b91610434565b10156129385761287f61287a8783906126c2565b6126e2565b61289161288b8a6102e0565b916102e0565b146128a45761289f906117d9565b612853565b859b506128e0906128db8b959c9697949993989b6128d58d93916128d06128cb84876126f3565b612713565b610da4565b926126f3565b612720565b6128ec60015b156105ec565b6128f7575b50612825565b61292f9261291861283095999361291361292a948690926126c2565b611fec565b6129258a918490926126f3565b612720565b6117d9565b9490885f6128f1565b5094979198929399956128ec8b92976128e6565b508161296061295a5f610cf2565b91610434565b11612820565b5092945050509290926129785f610cf2565b5b8061298c61298686610434565b91610434565b1015612ba0576129a56129a08483906126c2565b6126e2565b6129b86129b38784906126f3565b612713565b90612a15816129e67f000000000000000000000000000000000000000000000000000000000000000061027d565b612a0f7f000000000000000000000000000000000000000000000000000000000000000061078d565b91612c9a565b80612a28612a2285610434565b91610434565b10612a3f575b505050612a3a906117d9565b612979565b612a51612a4b5f610cf2565b91610434565b03612af9575b612a62818390612d96565b612abe81612a8f7f000000000000000000000000000000000000000000000000000000000000000061027d565b612ab87f000000000000000000000000000000000000000000000000000000000000000061078d565b91612c9a565b612ad0612aca84610434565b91610434565b10612adb5780612a2e565b612af55f92839263863088ef60e01b845260048401612751565b0390fd5b612b0c81612b065f610cf2565b90612d96565b612b6881612b397f000000000000000000000000000000000000000000000000000000000000000061027d565b612b627f000000000000000000000000000000000000000000000000000000000000000061078d565b91612c9a565b612b7a612b745f610cf2565b91610434565b0315612a57575f90612b9c5f92839263863088ef60e01b84526004840161272e565b0390fd5b5092505050565b63ffffffff60e01b1690565b612bbc90612ba7565b90565b612be87fdd62ed3e90e97b3d417db9c0c7522647811bafca5afc6694f143588d255fdfb4612bb3565b90565b916020612c0c929493612c0560408201965f830190610595565b0190610595565b565b90612c20612c1b83612143565b611a77565b918252565b3d5f14612c4057612c353d612c0e565b903d5f602084013e5b565b612c48611a72565b90612c3e565b90565b612c65612c60612c6a92612c4e565b610252565b610434565b90565b90505190612c7a82610437565b565b90602082820312612c9557612c92915f01612c6d565b90565b61012c565b915f91906004612ce38493612cad612665565b50612cd48794612cbb612bbf565b92612cc4610122565b9586946020860190815201612beb565b602082018103825203826111b4565b602081019051915afa90612cff612cf8612c25565b92156105ec565b8015612d47575b612d285750612d25906020612d1a826106be565b818301019101612c7c565b90565b612d43905f918291632603f75d60e21b8352600483016105a2565b0390fd5b50612d51826106be565b612d64612d5e6020612c51565b91610434565b10612d06565b612d937f095ea7b334ae44009aa867bfb386f5c3b4b443ac6f0ee573fa91c4608fbadfba612bb3565b90565b6004612df8612da3612d6a565b612de9612dcf7f000000000000000000000000000000000000000000000000000000000000000061078d565b8690612dd9610122565b9586946020860190815201612751565b602082018103825203826111b4565b6020612e237f000000000000000000000000000000000000000000000000000000000000000061027d565b63468721a790612e4a5f8693612e5582978390612e3e610122565b998a9889978896611b01565b865260048601612424565b03925af18015612ec557612e71915f91612e97575b50156105ec565b612e79575050565b612e935f92839263863088ef60e01b845260048401612751565b0390fd5b612eb8915060203d8111612ebe575b612eb081836111b4565b8101906123b1565b5f612e6a565b503d612ea6565b611bb156fea264697066735822122081e30e3f138bd24dab8d303e26e01b0ab0984f6ad961c5e182dd4a65825bc71464736f6c634300081a0033","linkReferences":{}},"methodIdentifiers":{"addPolicy(address)":"b84ef081","batchTrade()":"aab58ca3","checkPolicies((string,address,uint256,address,uint256,bytes,bytes)[],(bool,bool))":"9958cdec","checkPoliciesVerbose((string,address,uint256,address,uint256,bytes,bytes)[],(bool,bool))":"93106d77","cooldown()":"787a08a6","execute((string,address,uint256,address,uint256,bytes,bytes)[],(bool,bool))":"0bc97a43","executor()":"c34c08e5","getPolicies()":"3b04f6f1","getPoliciesWithTypes()":"dc148381","lastExecution()":"b7fc3e51","owner()":"8da5cb5b","policies(uint256)":"d3e89483","removePolicy(address)":"78d38d82","safe()":"186f0354","setCooldown(uint256)":"4fc3f41a","setExecutor(address)":"1c3c0ea8"},"id":53}