{"abi":[{"type":"constructor","inputs":[{"name":"_targetTokens","type":"address[]","internalType":"address[]"},{"name":"_targetsBps","type":"uint256[]","internalType":"uint256[]"},{"name":"_assetUniverse","type":"address","internalType":"address"},{"name":"_priceOracle","type":"address","internalType":"address"},{"name":"_driftThresholdBps","type":"uint256","internalType":"uint256"},{"name":"_toleranceThresholdBps","type":"uint256","internalType":"uint256"}],"stateMutability":"nonpayable"},{"type":"function","name":"assetUniverse","inputs":[],"outputs":[{"name":"","type":"address","internalType":"address"}],"stateMutability":"view"},{"type":"function","name":"driftThresholdBps","inputs":[],"outputs":[{"name":"","type":"uint256","internalType":"uint256"}],"stateMutability":"view"},{"type":"function","name":"explainFailure","inputs":[{"name":"data","type":"bytes","internalType":"bytes"}],"outputs":[{"name":"","type":"string","internalType":"string"}],"stateMutability":"pure"},{"type":"function","name":"getAllTargets","inputs":[],"outputs":[{"name":"allocations","type":"tuple[]","internalType":"struct StaticAllocationPolicy.TargetAllocation[]","components":[{"name":"token","type":"address","internalType":"address"},{"name":"bps","type":"uint16","internalType":"uint16"}]}],"stateMutability":"view"},{"type":"function","name":"policyType","inputs":[],"outputs":[{"name":"","type":"string","internalType":"string"}],"stateMutability":"pure"},{"type":"function","name":"priceOracle","inputs":[],"outputs":[{"name":"","type":"address","internalType":"address"}],"stateMutability":"view"},{"type":"function","name":"targetBps","inputs":[{"name":"","type":"address","internalType":"address"}],"outputs":[{"name":"","type":"uint256","internalType":"uint256"}],"stateMutability":"view"},{"type":"function","name":"tokenIndex","inputs":[{"name":"","type":"address","internalType":"address"}],"outputs":[{"name":"","type":"uint256","internalType":"uint256"}],"stateMutability":"view"},{"type":"function","name":"tokens","inputs":[{"name":"","type":"uint256","internalType":"uint256"}],"outputs":[{"name":"","type":"address","internalType":"address"}],"stateMutability":"view"},{"type":"function","name":"toleranceThresholdBps","inputs":[],"outputs":[{"name":"","type":"uint256","internalType":"uint256"}],"stateMutability":"view"},{"type":"function","name":"validate","inputs":[{"name":"safe","type":"address","internalType":"address"},{"name":"trades","type":"tuple[]","internalType":"struct IBatchTrade.Trade[]","components":[{"name":"exchangeName","type":"string","internalType":"string"},{"name":"from","type":"address","internalType":"address"},{"name":"fromAmount","type":"uint256","internalType":"uint256"},{"name":"to","type":"address","internalType":"address"},{"name":"minToReceiveBeforeFees","type":"uint256","internalType":"uint256"},{"name":"data","type":"bytes","internalType":"bytes"},{"name":"signature","type":"bytes","internalType":"bytes"}]},{"name":"","type":"tuple","internalType":"struct IBatchTrade.BatchTradeConfig","components":[{"name":"checkFeelessWallets","type":"bool","internalType":"bool"},{"name":"revertOnError","type":"bool","internalType":"bool"}]}],"outputs":[{"name":"","type":"bool","internalType":"bool"},{"name":"","type":"bytes","internalType":"bytes"}],"stateMutability":"view"},{"type":"error","name":"StaticAllocationDriftBelowThreshold","inputs":[]},{"type":"error","name":"StaticAllocationFeedMissing","inputs":[{"name":"token","type":"address","internalType":"address"}]},{"type":"error","name":"StaticAllocationInsufficientBalance","inputs":[{"name":"token","type":"address","internalType":"address"},{"name":"required","type":"uint256","internalType":"uint256"},{"name":"available","type":"uint256","internalType":"uint256"}]},{"type":"error","name":"StaticAllocationOutsideTolerance","inputs":[]},{"type":"error","name":"StaticAllocationTokenNotSupported","inputs":[{"name":"token","type":"address","internalType":"address"}]},{"type":"error","name":"StaticAllocationZeroPortfolioValue","inputs":[]},{"type":"error","name":"StaticAllocationZeroPredictedValue","inputs":[]},{"type":"error","name":"StringsInsufficientHexLength","inputs":[{"name":"value","type":"uint256","internalType":"uint256"},{"name":"length","type":"uint256","internalType":"uint256"}]}],"bytecode":{"object":"0x610100604052346100775761002161001561030a565b94939093929192610d9d565b61002961007c565b61313461123482396080518181816107080152611c73015260a0518181816106af0152612004015260c05181610656015260e0518181816102140152818161182801526125f6015261313490f35b610082565b60405190565b5f80fd5b601f801991011690565b634e487b7160e01b5f52604160045260245ffd5b906100ae90610086565b810190811060018060401b038211176100c657604052565b610090565b906100de6100d761007c565b92836100a4565b565b5f80fd5b5f80fd5b5f80fd5b60018060401b0381116101025760208091020190565b610090565b5f80fd5b60018060a01b031690565b61011f9061010b565b90565b61012b81610116565b0361013257565b5f80fd5b9050519061014382610122565b565b9092919261015a610155826100ec565b6100cb565b938185526020808601920283019281841161019757915b83831061017e5750505050565b6020809161018c8486610136565b815201920191610171565b610107565b9080601f830112156101ba578160206101b793519101610145565b90565b6100e8565b60018060401b0381116101d55760208091020190565b610090565b90565b6101e6816101da565b036101ed57565b5f80fd5b905051906101fe826101dd565b565b90929192610215610210826101bf565b6100cb565b938185526020808601920283019281841161025257915b8383106102395750505050565b6020809161024784866101f1565b81520192019161022c565b610107565b9080601f830112156102755781602061027293519101610200565b90565b6100e8565b909160c082840312610305575f82015160018060401b03811161030057836102a391840161019c565b92602083015160018060401b0381116102fb57816102c2918501610257565b926102d08260408301610136565b926102f86102e18460608501610136565b936102ef81608086016101f1565b9360a0016101f1565b90565b6100e4565b6100e4565b6100e0565b6103286143688038038061031d816100cb565b92833981019061027a565b909192939495565b5190565b90565b90565b61034e61034961035392610334565b610337565b6101da565b90565b60209181520190565b5f7f4e6f20746f6b656e730000000000000000000000000000000000000000000000910152565b6103936009602092610356565b61039c8161035f565b0190565b6103b59060208101905f818303910152610386565b90565b156103bf57565b6103c761007c565b62461bcd60e51b8152806103dd600482016103a0565b0390fd5b5190565b5f7f546172676574206c656e67746800000000000000000000000000000000000000910152565b610419600d602092610356565b610422816103e5565b0190565b61043b9060208101905f81830391015261040c565b90565b1561044557565b61044d61007c565b62461bcd60e51b81528061046360048201610426565b0390fd5b90565b61047e61047961048392610467565b610337565b6101da565b90565b5f7f447269667420746f6f2068696768000000000000000000000000000000000000910152565b6104ba600e602092610356565b6104c381610486565b0190565b6104dc9060208101905f8183039101526104ad565b90565b156104e657565b6104ee61007c565b62461bcd60e51b815280610504600482016104c7565b0390fd5b5f7f546f6c6572616e636520746f6f20686967680000000000000000000000000000910152565b61053c6012602092610356565b61054581610508565b0190565b61055e9060208101905f81830391015261052f565b90565b1561056857565b61057061007c565b62461bcd60e51b81528061058660048201610549565b0390fd5b61059e6105996105a392610334565b610337565b61010b565b90565b6105af9061058a565b90565b5f7f4f7261636c65207a65726f000000000000000000000000000000000000000000910152565b6105e6600b602092610356565b6105ef816105b2565b0190565b6106089060208101905f8183039101526105d9565b90565b1561061257565b61061a61007c565b62461bcd60e51b815280610630600482016105f3565b0390fd5b606090565b61064d6106486106529261010b565b610337565b61010b565b90565b61065e90610639565b90565b61066a90610655565b90565b61067690610639565b90565b6106829061066d565b90565b60e01b90565b906020828203126106b9575f82015160018060401b0381116106b4576106b1920161019c565b90565b6100e4565b6100e0565b5f0190565b6106cb61007c565b3d5f823e3d90fd5b5f7f4e6f20756e697665727365000000000000000000000000000000000000000000910152565b610707600b602092610356565b610710816106d3565b0190565b6107299060208101905f8183039101526106fa565b90565b1561073357565b61073b61007c565b62461bcd60e51b81528061075160048201610714565b0390fd5b600161076191016101da565b90565b634e487b7160e01b5f52603260045260245ffd5b9061078282610330565b811015610793576020809102010190565b610764565b6107a29051610116565b90565b5f7f546f6b656e207a65726f00000000000000000000000000000000000000000000910152565b6107d9600a602092610356565b6107e2816107a5565b0190565b6107fb9060208101905f8183039101526107cc565b90565b1561080557565b61080d61007c565b62461bcd60e51b815280610823600482016107e6565b0390fd5b6108309061066d565b90565b9061083d90610827565b5f5260205260405f2090565b5f1c90565b90565b61085d61086291610849565b61084e565b90565b61086f9054610851565b90565b5f7f4475706c696361746520746f6b656e0000000000000000000000000000000000910152565b6108a6600f602092610356565b6108af81610872565b0190565b6108c89060208101905f818303910152610899565b90565b156108d257565b6108da61007c565b62461bcd60e51b8152806108f0600482016108b3565b0390fd5b90565b5f5260205f2090565b5490565b61090d81610900565b8210156109275761091f6001916108f7565b910201905f90565b610764565b1b90565b9190600861095091029161094a60018060a01b038461092c565b9261092c565b9181191691161790565b90565b919061097361096e61097b93610827565b61095a565b908354610930565b9055565b90815491680100000000000000008310156109af57826109a79160016109ad95018155610904565b9061095d565b565b610090565b90565b6109cb6109c66109d0926109b4565b610337565b6101da565b90565b634e487b7160e01b5f52601160045260245ffd5b6109f66109fc919392936101da565b926101da565b8201809211610a0757565b6109d3565b5f1b90565b90610a1d5f1991610a0c565b9181191691161790565b610a3b610a36610a40926101da565b610337565b6101da565b90565b90565b90610a5b610a56610a6292610a27565b610a43565b8254610a11565b9055565b610a6f90610639565b90565b610a7b90610a66565b90565b610a879061066d565b90565b60018060401b038111610aa05760208091020190565b610090565b151590565b610ab381610aa5565b03610aba57565b5f80fd5b90505190610acb82610aaa565b565b90929192610ae2610add82610a8a565b6100cb565b9381855260208086019202830192818411610b1f57915b838310610b065750505050565b60208091610b148486610abe565b815201920191610af9565b610107565b9080601f83011215610b4257816020610b3f93519101610acd565b90565b6100e8565b90602082820312610b75575f82015160018060401b038111610b7057610b6d9201610b24565b90565b6100e4565b6100e0565b60209181520190565b60200190565b610b9290610116565b9052565b90610ba381602093610b89565b0190565b60200190565b90610bca610bc4610bbd84610330565b8093610b7a565b92610b83565b905f5b818110610bda5750505090565b909192610bf3610bed6001928651610b96565b94610ba7565b9101919091610bcd565b610c129160208201915f818403910152610bad565b90565b5190565b90610c2382610c15565b811015610c34576020809102010190565b610764565b610c439051610aa5565b90565b610c4f90610116565b9052565b9190610c66905f60208501940190610c46565b565b5f90565b5f7f546172676574206e6f7420696e20756e69766572736500000000000000000000910152565b610ca06016602092610356565b610ca981610c6c565b0190565b610cc29060208101905f818303910152610c93565b90565b15610ccc57565b610cd461007c565b62461bcd60e51b815280610cea60048201610cad565b0390fd5b90610cf8826103e1565b811015610d09576020809102010190565b610764565b610d1890516101da565b90565b5f7f5461726765742073756d00000000000000000000000000000000000000000000910152565b610d4f600a602092610356565b610d5881610d1b565b0190565b610d719060208101905f818303910152610d42565b90565b15610d7b57565b610d8361007c565b62461bcd60e51b815280610d9960048201610d5c565b0390fd5b9493909193610dc6610dae87610330565b610dc0610dba5f61033a565b916101da565b116103b8565b610df2610dd287610330565b610dec610de6610de1876103e1565b6101da565b916101da565b1461043e565b610e1182610e0a610e0461271061046a565b916101da565b11156104df565b610e3081610e29610e2361271061046a565b916101da565b1115610561565b610e5584610e4e610e48610e435f6105a6565b610116565b91610116565b141561060b565b610e5d610634565b5084610e79610e73610e6e5f6105a6565b610116565b91610116565b14155f1461122d57610eac5f610e96610e9188610661565b610679565b63aa6ca80890610ea461007c565b938492610685565b82528180610ebc600482016106be565b03915afa908115611228575f91611206575b5095610ef4610edc88610330565b610eee610ee85f61033a565b916101da565b1161072c565b5b610efe5f61033a565b5b80610f1a610f14610f0f8b610330565b6101da565b916101da565b1015610fcf57610fca90610fc5610f3a610f358b8490610778565b610798565b610f5f81610f58610f52610f4d5f6105a6565b610116565b91610116565b14156107fe565b610f8e610f76610f7160028490610833565b610865565b610f88610f825f61033a565b916101da565b146108cb565b610fa1610f9a5f6108f4565b829061097f565b610fc0610fb884610fb260016109b7565b906109e7565b916002610833565b610a46565b610755565b610eff565b509091929394966110155f610feb610fe689610a72565b610a7e565b633737e8c49061100a8b92610ffe61007c565b95869485938493610685565b835260048301610bfd565b03915afa908115611201575f916111df575b50956110325f61033a565b5b8061104e6110486110438c610330565b6101da565b916101da565b10156110b25761107061106a6110658a8490610c19565b610c39565b15610aa5565b6110825761107d90610755565b611033565b6110976110926110ae928b610778565b610798565b5f91829163040337f760e11b835260048301610c53565b0390fd5b5092955092955092956110c3610c68565b946110cd5f61033a565b955b866110ea6110e46110df89610330565b6101da565b916101da565b10156111aa5761119e6111a4916111858b6111806111786111738d6111186111138f8390610778565b610798565b9461113e8661113761113161112c5f6105a6565b610116565b91610116565b14156107fe565b61116e61115561115060028990610833565b610865565b6111676111615f61033a565b916101da565b1415610cc5565b610cee565b610d0e565b916001610833565b610a46565b6111986111938c8b90610cee565b610d0e565b906109e7565b96610755565b956110cf565b91955093506111d191959296506111cb6111c561271061046a565b916101da565b14610d74565b60805260a05260c05260e052565b6111fb91503d805f833e6111f381836100a4565b810190610b47565b5f611027565b6106c3565b61122291503d805f833e61121a81836100a4565b81019061068b565b5f610ece565b6106c3565b85610ef556fe60806040526004361015610013575b6108e3565b61001d5f356100cc565b80631d46021f146100c75780632630c12f146100c2578063427f91a6146100bd5780634f64b2be146100b857806357e86eeb146100b357806379dbc324146100ae5780638656cf1b146100a95780638bdc2981146100a4578063a5bea1651461009f578063b7cc43471461009a5763c7e8304f0361000e576108ae565b610860565b61082a565b61072a565b6106d1565b610678565b61061a565b6104a5565b61038a565b610258565b6101dd565b60e01c90565b60405190565b5f80fd5b5f80fd5b5f9103126100ea57565b6100dc565b5190565b60209181520190565b60200190565b60018060a01b031690565b61011690610102565b90565b6101229061010d565b9052565b61ffff1690565b61013690610126565b9052565b9060208061015c936101525f8201515f860190610119565b015191019061012d565b565b9061016b8160409361013a565b0190565b60200190565b9061019261018c610185846100ef565b80936100f3565b926100fc565b905f5b8181106101a25750505090565b9091926101bb6101b5600192865161015e565b9461016f565b9101919091610195565b6101da9160208201915f818403910152610175565b90565b3461020d576101ed3660046100e0565b6102096101f8610abb565b6102006100d2565b918291826101c5565b0390f35b6100d8565b7f000000000000000000000000000000000000000000000000000000000000000090565b61023f9061010d565b9052565b9190610256905f60208501940190610236565b565b34610288576102683660046100e0565b610284610273610212565b61027b6100d2565b91829182610243565b0390f35b6100d8565b5f80fd5b61029a8161010d565b036102a157565b5f80fd5b905035906102b282610291565b565b906020828203126102cd576102ca915f016102a5565b90565b6100dc565b90565b6102e96102e46102ee92610102565b6102d2565b610102565b90565b6102fa906102d5565b90565b610306906102f1565b90565b90610313906102fd565b5f5260205260405f2090565b1c90565b90565b61033690600861033b930261031f565b610323565b90565b906103499154610326565b90565b6103629061035d6002915f92610309565b61033e565b90565b90565b61037190610365565b9052565b9190610388905f60208501940190610368565b565b346103ba576103b66103a56103a03660046102b4565b61034c565b6103ad6100d2565b91829182610375565b0390f35b6100d8565b6103c881610365565b036103cf57565b5f80fd5b905035906103e0826103bf565b565b906020828203126103fb576103f8915f016103d3565b90565b6100dc565b634e487b7160e01b5f52603260045260245ffd5b5490565b5f5260205f2090565b61042a81610414565b8210156104445761043c600191610418565b910201905f90565b610400565b60018060a01b031690565b610464906008610469930261031f565b610449565b90565b906104779154610454565b90565b5f61048481610414565b8210156104a15761049e9161049891610421565b9061046c565b90565b5f80fd5b346104d5576104d16104c06104bb3660046103e2565b61047a565b6104c86100d2565b91829182610243565b0390f35b6100d8565b5f80fd5b5f80fd5b5f80fd5b909182601f830112156105205781359167ffffffffffffffff831161051b57602001926020830284011161051657565b6104e2565b6104de565b6104da565b5f80fd5b908160409103126105375790565b610525565b9060808282031261058a57610553815f84016102a5565b92602083013567ffffffffffffffff811161058557610577836105829286016104e6565b939094604001610529565b90565b61028d565b6100dc565b151590565b61059d9061058f565b9052565b5190565b60209181520190565b90825f9392825e0152565b601f801991011690565b6105e26105eb6020936105f0936105d9816105a1565b938480936105a5565b958691016105ae565b6105b9565b0190565b916106179261060a60408201935f830190610594565b60208184039101526105c3565b90565b3461064f5761063661062d36600461053c565b92919091610bfb565b9061064b6106426100d2565b928392836105f4565b0390f35b6100d8565b7f000000000000000000000000000000000000000000000000000000000000000090565b346106a8576106883660046100e0565b6106a4610693610654565b61069b6100d2565b91829182610243565b0390f35b6100d8565b7f000000000000000000000000000000000000000000000000000000000000000090565b34610701576106e13660046100e0565b6106fd6106ec6106ad565b6106f46100d2565b91829182610375565b0390f35b6100d8565b7f000000000000000000000000000000000000000000000000000000000000000090565b3461075a5761073a3660046100e0565b610756610745610706565b61074d6100d2565b91829182610375565b0390f35b6100d8565b909182601f830112156107995781359167ffffffffffffffff831161079457602001926001830284011161078f57565b6104e2565b6104de565b6104da565b906020828203126107cf575f82013567ffffffffffffffff81116107ca576107c6920161075f565b9091565b61028d565b6100dc565b5190565b60209181520190565b61080061080960209361080e936107f7816107d4565b938480936107d8565b958691016105ae565b6105b9565b0190565b6108279160208201915f8184039101526107e1565b90565b3461085b5761085761084661084036600461079e565b9061145d565b61084e6100d2565b91829182610812565b0390f35b6100d8565b34610890576108703660046100e0565b61088c61087b611753565b6108836100d2565b91829182610812565b0390f35b6100d8565b6108ab906108a66001915f92610309565b61033e565b90565b346108de576108da6108c96108c43660046102b4565b610895565b6108d16100d2565b91829182610375565b0390f35b6100d8565b5f80fd5b606090565b634e487b7160e01b5f52604160045260245ffd5b9061090a906105b9565b810190811067ffffffffffffffff82111761092457604052565b6108ec565b9061093c6109356100d2565b9283610900565b565b67ffffffffffffffff81116109565760208091020190565b6108ec565b9061096d6109688361093e565b610929565b918252565b61097c6040610929565b90565b5f90565b5f90565b61098f610972565b906020808361099c61097f565b8152016109a7610983565b81525050565b6109b5610987565b90565b5f5b8281106109c657505050565b6020906109d16109ad565b81840152016109ba565b90610a006109e88361095b565b926020806109f6869361093e565b92019103906109b8565b565b90565b610a19610a14610a1e92610a02565b6102d2565b610365565b90565b6001610a2d9101610365565b90565b5f1c90565b610a41610a4691610a30565b610323565b90565b610a539054610a35565b90565b610a6a610a65610a6f92610365565b6102d2565b610126565b90565b610a7c6040610929565b90565b90610a899061010d565b9052565b90610a9790610126565b9052565b90610aa5826100ef565b811015610ab6576020809102010190565b610400565b610ac36108e7565b50610acd5f610414565b610ad6816109db565b91610ae05f610a05565b5b80610af4610aee85610365565b91610365565b1015610b6f57610b6a90610b63610b15610b0f5f8490610421565b9061046c565b610b50610b33610b2e610b29846001610309565b610a49565b610a56565b610b47610b3e610a72565b935f8501610a7f565b60208301610a8d565b868391610b5d8383610a9b565b52610a9b565b5150610a21565b610ae1565b509050565b5f90565b606090565b610b91610b8c610b9692610a02565b6102d2565b610102565b90565b610ba290610b7d565b90565b5f0190565b67ffffffffffffffff8111610bc857610bc46020916105b9565b0190565b6108ec565b90610bdf610bda83610baa565b610929565b918252565b610bed5f610bcd565b90565b610bf8610be4565b90565b90919250610c07610b74565b50610c10610b78565b50610c196117e6565b80610c34610c2e610c295f610b99565b61010d565b9161010d565b03610de25750610c43906119fd565b90610c4d82611b4b565b80610c60610c5a5f610a05565b91610365565b14610da257610c72610c789184611bdd565b1561058f565b610d6357610c9592610c8c92919091611d51565b9192901561058f565b610d5b5750610ca381611b4b565b9081610cb7610cb15f610a05565b91610365565b14610d1d57610ccf91610cc991611f6e565b1561058f565b610ce157600190610cde610bf0565b90565b5f906004610d1a63a82525ab60e01b610d0b610cfb6100d2565b9384926020840190815201610ba5565b60208201810382520382610900565b90565b50505f906004610d5863e5ded9a960e01b610d49610d396100d2565b9384926020840190815201610ba5565b60208201810382520382610900565b90565b9190505f9190565b5050505f906004610d9f637179ce8160e01b610d90610d806100d2565b9384926020840190815201610ba5565b60208201810382520382610900565b90565b505050505f906004610ddf63f430d06960e01b610dd0610dc06100d2565b9384926020840190815201610ba5565b60208201810382520382610900565b90565b93925050506004610e215f93610e1263040337f760e11b91610e026100d2565b9485936020850190815201610243565b60208201810382520382610900565b90565b606090565b5090565b90565b610e44610e3f610e4992610e2d565b6102d2565b610365565b90565b610e54610be4565b90565b63ffffffff60e01b1690565b1b90565b90610e75610e7c9183610e29565b9135610e57565b9060048110610e8a575b5090565b610ea29063ffffffff60e01b90600403600802610e63565b165f610e86565b5f80fd5b5f80fd5b90939293848311610ed1578411610ecc576001820201920390565b610ead565b610ea9565b91565b610ee290610102565b90565b610eee81610ed9565b03610ef557565b5f80fd5b90503590610f0682610ee5565b565b90602082820312610f2157610f1e915f01610ef9565b90565b6100dc565b610f2f906102f1565b90565b610f3b906102d5565b90565b610f52610f4d610f5792610102565b6102d2565b610365565b90565b90565b610f71610f6c610f7692610f5a565b6102d2565b610365565b90565b905090565b60207f6f7220746f6b656e200000000000000000000000000000000000000000000000917f537461746963416c6c6f636174696f6e3a2066656564206d697373696e6720665f8201520152565b610fd760298092610f79565b610fe081610f7e565b0190565b61100961100092602092610ff7816107d4565b94858093610f79565b938491016105ae565b0190565b9061101a61102092610fcb565b90610fe4565b90565b9061104b61102f6100d2565b809361103f60208301918261100d565b90810382520383610900565b565b60207f2076616c75650000000000000000000000000000000000000000000000000000917f537461746963416c6c6f636174696f6e3a207a65726f20706f7274666f6c696f5f8201520152565b6110a46026610bcd565b906110b16020830161104d565b565b6110bb61109a565b90565b60207f726573686f6c6400000000000000000000000000000000000000000000000000917f537461746963416c6c6f636174696f6e3a2064726966742062656c6f772074685f8201520152565b6111156027610bcd565b90611122602083016110be565b565b61112c61110b565b90565b60207f6f72746564200000000000000000000000000000000000000000000000000000917f537461746963416c6c6f636174696f6e3a20746f6b656e206e6f7420737570705f8201520152565b61118860268092610f79565b6111918161112f565b0190565b906111a26111a89261117c565b90610fe4565b90565b906111d36111b76100d2565b80936111c7602083019182611195565b90810382520383610900565b565b909160608284031261120a576112076111f0845f8501610ef9565b936111fe81602086016103d3565b936040016103d3565b90565b6100dc565b60207f616c616e636520666f7220000000000000000000000000000000000000000000917f537461746963416c6c6f636174696f6e3a20696e73756666696369656e7420625f8201520152565b611268602b8092610f79565b6112718161120f565b0190565b7f20726571756972656420000000000000000000000000000000000000000000009052565b7f20617661696c61626c65200000000000000000000000000000000000000000009052565b6112fe9392600a6112de600b946112d86112ee9561125c565b90610fe4565b6112e781611275565b0190610fe4565b6112f78161129a565b0190610fe4565b90565b9061132e919392936113226113146100d2565b9586936020850193846112bf565b90810382520383610900565b565b60207f2076616c75650000000000000000000000000000000000000000000000000000917f537461746963416c6c6f636174696f6e3a207a65726f207072656469637465645f8201520152565b6113876026610bcd565b9061139460208301611330565b565b61139e61137d565b90565b60207f7369646520746f6c6572616e6365000000000000000000000000000000000000917f537461746963416c6c6f636174696f6e3a20616c6c6f636174696f6e206f75745f8201520152565b6113f8602e610bcd565b90611405602083016113a1565b565b61140f6113ee565b90565b5f7f537461746963416c6c6f636174696f6e3a20756e6b6e6f776e206572726f7200910152565b611443601f610bcd565b9061145060208301611412565b565b61145a611439565b90565b90611466610e24565b50611472828290610e29565b61148561147f6004610e30565b91610365565b106116fb57611495828290610e67565b91826114b06114aa63040337f760e11b610e57565b91610e57565b1461169557826114cf6114c963f430d06960e01b610e57565b91610e57565b1461168757826114ee6114e8637179ce8160e01b610e57565b91610e57565b14611679578261150d611507630a44db2b60e31b610e57565b91610e57565b14611613578261152c611526634e1aab6960e01b610e57565b91610e57565b146115925750508061154d61154763e5ded9a960e01b610e57565b91610e57565b146115865761156b61156563a82525ab60e01b610e57565b91610e57565b1461157b57611578611452565b90565b611583611407565b90565b5061158f611396565b90565b611610925061160a6116046115fe6115d26115ca6115c46115e4976115dc97906115bc6004610e30565b908092610eb1565b90610ed6565b8101906111d5565b9691959095610f26565b949594610f32565b6115f86115f2601492610f3e565b91610f5d565b9061222e565b93612430565b91612430565b91611301565b90565b611676925061165261164d61164561163f6116719561165795906116376004610e30565b908092610eb1565b90610ed6565b810190610f08565b610f26565b610f32565b61166b611665601492610f3e565b91610f5d565b9061222e565b6111ab565b90565b505050611684611124565b90565b5050506116926110b3565b90565b6116f892506116d46116cf6116c76116c16116f3956116d995906116b96004610e30565b908092610eb1565b90610ed6565b810190610f08565b610f26565b610f32565b6116ed6116e7601492610f3e565b91610f5d565b9061222e565b611023565b90565b5050611705610e4c565b90565b5f7f537461746963416c6c6f636174696f6e00000000000000000000000000000000910152565b6117396010610bcd565b9061174660208301611708565b565b61175061172f565b90565b61175b610e24565b50611764611748565b90565b5f90565b611774906102d5565b90565b6117809061176b565b90565b61178c906102f1565b90565b60e01b90565b61179e8161058f565b036117a557565b5f80fd5b905051906117b682611795565b565b906020828203126117d1576117ce915f016117a9565b90565b6100dc565b6117de6100d2565b3d5f823e3d90fd5b6117ee611767565b506117f85f610414565b6118015f610a05565b5b8061181561180f84610365565b91610365565b10156119075761188e602061185161184c7f0000000000000000000000000000000000000000000000000000000000000000611777565b611783565b6375151b639061188361186e6118685f8890610421565b9061046c565b926118776100d2565b9586948593849361178f565b835260048301610243565b03915afa8015611902576118aa915f916118d4575b501561058f565b6118bc576118b790610a21565b611802565b6118d191506118cb905f610421565b9061046c565b90565b6118f5915060203d81116118fb575b6118ed8183610900565b8101906117b8565b5f6118a3565b503d6118e3565b6117d6565b50506119125f610b99565b90565b606090565b67ffffffffffffffff81116119325760208091020190565b6108ec565b906119496119448361191a565b610929565b918252565b369037565b9061197861196083611937565b9260208061196e869361191a565b920191039061194e565b565b611983906102d5565b90565b61198f9061197a565b90565b61199b906102f1565b90565b905051906119ab826103bf565b565b906020828203126119c6576119c3915f0161199e565b90565b6100dc565b5190565b906119d9826119cb565b8110156119ea576020809102010190565b610400565b906119f990610365565b9052565b611a05611915565b50611a0f5f610414565b90611a1982611953565b92611a235f610a05565b5b80611a37611a3186610365565b91610365565b1015611afb57611a91906020611a67611a62611a5d611a575f8690610421565b9061046c565b611986565b611992565b6370a0823190611a868792611a7a6100d2565b9687948593849361178f565b835260048301610243565b03915afa918215611af657611ac392611abe915f91611ac8575b50611ab988918490926119cf565b6119ef565b610a21565b611a24565b611ae9915060203d8111611aef575b611ae18183610900565b8101906119ad565b5f611aab565b503d611ad7565b6117d6565b50915050565b5f90565b611b0f9051610365565b90565b634e487b7160e01b5f52601160045260245ffd5b611b35611b3b91939293610365565b92610365565b8201809211611b4657565b611b12565b90611b54611b01565b50611b5e5f610414565b91611b67611b01565b91611b715f610a05565b925b83611b86611b8087610365565b91610365565b1015611bd557611bc9611bcf91611bc3611baa611ba45f8990610421565b9061046c565b611bbd611bb8888a906119cf565b611b05565b906125c8565b90611b26565b93610a21565b92611b73565b925092505090565b90611be6610b74565b50611bf05f610414565b91611bfa5f610a05565b5b80611c0e611c0886610365565b91610365565b1015611cba57611c6b611c2b611c255f8490610421565b9061046c565b611c65611c60611c58611c5184611c4b611c468a8a906119cf565b611b05565b906125c8565b8890612814565b926001610309565b610a49565b90612881565b611c9d611c977f0000000000000000000000000000000000000000000000000000000000000000610365565b91610365565b1015611cb157611cac90610a21565b611bfb565b50505050600190565b505050505f90565b5090565b5f80fd5b903590600160e00381360303821215611ce1570190565b611cc6565b90821015611d00576020611cfd9202810190611cca565b90565b610400565b35611d0f81610291565b90565b35611d1c816103bf565b90565b604090611d48611d4f9496959396611d3e60608401985f850190610236565b6020830190610368565b0190610368565b565b9091611d5b611915565b50611d64610b74565b50611d6d610b78565b50611d79838290611cc2565b92611d835f610a05565b5b80611d97611d9187610365565b91610365565b1015611f5857611da982848391611ce6565b611dc6611dc0611dbb60208401611d05565b6128c0565b1561058f565b611f0657611de7611de1611ddc60608401611d05565b6128c0565b1561058f565b611eb457611e18611e1086611dfe60208501611d05565b611e0a60408601611d12565b916128f3565b91901561058f565b611e4f575090611e45611e4a928690611e3f6080611e3860608401611d05565b9201611d12565b91612a0d565b610a21565b611d84565b95509593905060049250611eae915093611e9f5f96634e1aab6960e01b92611e856040611e7e60208501611d05565b9301611d12565b9091611e8f6100d2565b9687956020870190815201611d1f565b60208201810382520382610900565b91929190565b959450505050906004611f005f94611ef1611ed96060630a44db2b60e31b9301611d05565b611ee16100d2565b9485936020850190815201610243565b60208201810382520382610900565b91929190565b959450505050906004611f525f94611f43611f2b6020630a44db2b60e31b9301611d05565b611f336100d2565b9485936020850190815201610243565b60208201810382520382610900565b91929190565b5050509050600191611f68610bf0565b91929190565b90611f77610b74565b50611f815f610414565b91611f8b5f610a05565b5b80611f9f611f9986610365565b91610365565b101561204957611ffc611fbc611fb65f8490610421565b9061046c565b611ff6611ff1611fe9611fe284611fdc611fd78a8a906119cf565b611b05565b906125c8565b8890612814565b926001610309565b610a49565b90612881565b61202e6120287f0000000000000000000000000000000000000000000000000000000000000000610365565b91610365565b116120415761203c90610a21565b611f8c565b505050505f90565b50505050600190565b90565b61206961206461206e92612052565b6102d2565b610365565b90565b61208061208691939293610365565b92610365565b91612092838202610365565b9281840414901517156120a157565b611b12565b67ffffffffffffffff81116120c4576120c06020916105b9565b0190565b6108ec565b906120db6120d6836120a6565b610929565b918252565b369037565b9061210a6120f2836120c9565b9260208061210086936120a6565b92019103906120e0565b565b600360fc1b90565b9061211e826105a1565b81101561213057600160209102010190565b610400565b600f60fb1b90565b90565b61215461214f6121599261213d565b6102d2565b610365565b90565b61216590610365565b5f8114612173576001900390565b611b12565b6f181899199a1a9b1b9c1cb0b131b232b360811b90565b612197612178565b90565b90565b6121b16121ac6121b69261219a565b6102d2565b610365565b90565b60f81b90565b60ff1690565b6121d96121d46121de92610e2d565b6102d2565b6121bf565b90565b612200906121fa6121f4612205946121bf565b91610365565b9061031f565b610365565b90565b91602061222992949361222260408201965f830190610368565b0190610368565b565b90565b90612237610e24565b508192612269612264612254600261224f8691612055565b612071565b61225e6002612055565b90611b26565b6120e5565b9161227261210c565b612289846122835f935f1a93610a05565b90612114565b53612292612135565b6122aa846122a46001935f1a93612140565b90612114565b536122d26122c260026122bd8491612055565b612071565b6122cc6001612140565b90611b26565b945b856122e86122e26001612140565b91610365565b111561234e576122f661218f565b81612301600f61219d565b169160108310156123495761231d61233d92612343941a6121b9565b61232c87918a905f1a92612114565b5361233760046121c5565b906121e1565b9561215c565b946122d4565b610400565b9092939194506123666123605f610a05565b91610365565b036123795750506123769061222b565b90565b6123935f92839263e22e27eb60e01b845260048401612208565b0390fd5b906123a29101610365565b90565b906123ca6123b283610bcd565b926020806123c08693610baa565b92019103906120e0565b565b60016123d89103610365565b90565b90565b6123f26123ed6123f7926123db565b6102d2565b610365565b90565b634e487b7160e01b5f52601260045260245ffd5b61241a61242091610365565b91610365565b90811561242b570490565b6123fa565b612438610e24565b5061245561244582612bb9565b61244f6001612140565b90612397565b9061245f826123a5565b91612468611b01565b5060208301015b6001156124d2576124826124ae916123cc565b916f181899199a1a9b1b9c1cb0b131b232b360811b600a82061a83536124a8600a6123de565b9061240e565b806124c16124bb5f610a05565b91610365565b146124cc579061246f565b50505b90565b50506124cf565b6124e2816121bf565b036124e957565b5f80fd5b905051906124fa826124d9565b565b91906040838203126125245780612518612521925f860161199e565b936020016124ed565b90565b6100dc565b906020828203126125425761253f915f016124ed565b90565b6100dc565b612550906121bf565b604d811161255e57600a0a90565b611b12565b90565b61257a61257561257f92612563565b6102d2565b6121bf565b90565b61258e612594916121bf565b916121bf565b90039060ff82116125a157565b611b12565b6125b26125b891610365565b91610365565b9081156125c3570490565b6123fa565b6125d0611b01565b50816125e46125de5f610a05565b91610365565b146127e757612649604061261f61261a7f0000000000000000000000000000000000000000000000000000000000000000611777565b611783565b6341976e099061263e85926126326100d2565b9586948593849361178f565b835260048301610243565b03915afa80156127e2575f809290916127b1575b5090928161267361266d5f610a05565b91610365565b146127a157602061268e6126896126a495611986565b611992565b63313ce5679061269c6100d2565b95869261178f565b825281806126b460048201610ba5565b03915afa92831561279c576126dd936126d7915f9161276e575b50919291612547565b91612eaa565b90806126f26126ec6012612566565b916121bf565b115f146127235761271961271461271f939261270e6012612566565b90612582565b612547565b906125a6565b5b90565b806127376127316012612566565b916121bf565b10612743575b50612720565b61276261275d61276893926127586012612566565b612582565b612547565b90612071565b5f61273d565b61278f915060203d8111612795575b6127878183610900565b810190612529565b5f6126ce565b503d61277d565b6117d6565b505050506127ae5f610a05565b90565b90506127d4915060403d81116127db575b6127cc8183610900565b8101906124fc565b905f61265d565b503d6127c2565b6117d6565b50506127f25f610a05565b90565b90565b61280c612807612811926127f5565b6102d2565b610365565b90565b9061281d611b01565b508061283161282b5f610a05565b91610365565b1461284e5761284b916128456127106127f8565b90612eaa565b90565b50506128595f610a05565b90565b61286b61287191939293610365565b92610365565b820391821161287c57565b611b12565b612889611b01565b508061289d61289784610365565b91610365565b115f146128b257906128ae9161285c565b5b90565b6128bb9161285c565b6128af565b6128d76128dc916128cf610b74565b506002610309565b610a49565b6128ee6128e85f610a05565b91610365565b141590565b9291906128fe610b74565b50612907611b01565b508161291b6129155f610a05565b91610365565b146129fa5761292e612933916002610309565b610a49565b806129466129405f610a05565b91610365565b146129e85761295f906129596001612140565b9061285c565b9061297361296e8584906119cf565b611b05565b61298561297f83610365565b91610365565b106129d1576129ce916129c16129c9926129bc87916129b685916129b16129ac84876119cf565b611b05565b61285c565b926119cf565b6119ef565b6001946119cf565b611b05565b90565b506129e06129e5915f946119cf565b611b05565b90565b505090505f906129f75f610a05565b90565b50509050600190612a0a5f610a05565b90565b919081612a22612a1c5f610a05565b91610365565b14612a9d57612a35612a3a916002610309565b610a49565b9081612a4e612a485f610a05565b91610365565b14612a9857612a9692612a8b612a73612a91939294612a6d6001612140565b9061285c565b91612a86612a8184876119cf565b611b05565b611b26565b926119cf565b6119ef565b565b505050565b505050565b90565b612ab9612ab4612abe92612aa2565b6102d2565b610365565b90565b90565b612ad8612ad3612add92612ac1565b6102d2565b610365565b90565b90565b612af7612af2612afc92612ae0565b6102d2565b610365565b90565b90565b612b16612b11612b1b92612aff565b6102d2565b610365565b90565b90565b612b35612b30612b3a92612b1e565b6102d2565b610365565b90565b90565b612b54612b4f612b5992612b3d565b6102d2565b610365565b90565b90565b612b73612b6e612b7892612b5c565b6102d2565b610365565b90565b90565b612b92612b8d612b9792612b7b565b6102d2565b610365565b90565b90565b612bb1612bac612bb692612b9a565b6102d2565b610365565b90565b612bc1611b01565b50612bcb5f610a05565b9080612bfa612bf47a184f03e93ff9f4daa797ed6e38ed64bf6a1f010000000000000000612aa5565b91610365565b1015612dd2575b80612c22612c1c6d04ee2d6d415b85acef8100000000612ae3565b91610365565b1015612d97575b80612c43612c3d662386f26fc10000612b21565b91610365565b1015612d63575b80612c61612c5b6305f5e100612b5f565b91610365565b1015612d32575b80612c7d612c776127106127f8565b91610365565b1015612d03575b80612c98612c926064612b9d565b91610365565b1015612cd5575b612cb2612cac600a6123de565b91610365565b1015612cbc575b90565b612cd090612cca6001612140565b90612397565b612cb9565b612cec612cfd91612ce66064612b9d565b9061240e565b91612cf76002612055565b90612397565b90612c9f565b612d1b612d2c91612d156127106127f8565b9061240e565b91612d266004610e30565b90612397565b90612c84565b612d4c612d5d91612d466305f5e100612b5f565b9061240e565b91612d576008612b7e565b90612397565b90612c68565b612d80612d9191612d7a662386f26fc10000612b21565b9061240e565b91612d8b6010612b40565b90612397565b90612c4a565b612dbb612dcc91612db56d04ee2d6d415b85acef8100000000612ae3565b9061240e565b91612dc66020612b02565b90612397565b90612c29565b612e03612e1491612dfd7a184f03e93ff9f4daa797ed6e38ed64bf6a1f010000000000000000612aa5565b9061240e565b91612e0e6040612ac4565b90612397565b90612c01565b612e2e612e29612e3392612563565b6102d2565b610365565b90565b612e406012612e1a565b90565b90565b612e5a612e55612e5f92612e43565b6102d2565b610365565b90565b612e6c6011612e46565b90565b90612e7a9103610365565b90565b90612e889102610365565b90565b90565b612ea2612e9d612ea792612e8b565b6102d2565b610365565b90565b90929192612eb6611b01565b50612ec2828290613097565b9190919282612ed9612ed35f610a05565b91610365565b146130865785612ef1612eeb85610365565b91610365565b11156130545761304b9286613051969793612f4293612f0e611b01565b5009908582119003940393600183612f2f5f612f2a8791610a05565b612e6f565b1680809504960493805f03040190612e7d565b1791613045613029613005612fe1612fbd612f99612f6a6003612f658991612e8e565b612e7d565b612f746002612055565b18612f936002612f8e612f888b8590612e7d565b91612055565b612e6f565b90612e7d565b612fb76002612fb2612fac8a8590612e7d565b91612055565b612e6f565b90612e7d565b612fdb6002612fd6612fd0898590612e7d565b91612055565b612e6f565b90612e7d565b612fff6002612ffa612ff4888590612e7d565b91612055565b612e6f565b90612e7d565b613023600261301e613018878590612e7d565b91612055565b612e6f565b90612e7d565b9161304061303a6002928590612e7d565b91612055565b612e6f565b90612e7d565b90612e7d565b90565b6130818661306a6130645f610a05565b91610365565b14613073612e36565b61307b612e62565b916130bc565b6130e0565b50505091613094919261240e565b90565b906130a0611b01565b506130a9611b01565b505f198183099102908180821091030391565b6130d66130dc92936130cc611b01565b50809418916130f0565b90612e7d565b1890565b634e487b715f526020526024601cfd5b6130f8611b01565b5015159056fea2646970667358221220246e61b677b450385d7180a9ae086efb6ffe8f3fcc9cce130eb73b6a84bef0a264736f6c634300081a0033","linkReferences":{}},"methodIdentifiers":{"assetUniverse()":"79dbc324","driftThresholdBps()":"8bdc2981","explainFailure(bytes)":"a5bea165","getAllTargets()":"1d46021f","policyType()":"b7cc4347","priceOracle()":"2630c12f","targetBps(address)":"c7e8304f","tokenIndex(address)":"427f91a6","tokens(uint256)":"4f64b2be","toleranceThresholdBps()":"8656cf1b","validate(address,(string,address,uint256,address,uint256,bytes,bytes)[],(bool,bool))":"57e86eeb"},"id":67}