{
  "_format": "hh-sol-artifact-1",
  "contractName": "YieldVault",
  "sourceName": "contracts/YieldVault.sol",
  "abi": [
    {
      "inputs": [
        {
          "internalType": "string",
          "name": "_vaultId",
          "type": "string"
        },
        {
          "internalType": "address",
          "name": "_underlying",
          "type": "address"
        }
      ],
      "stateMutability": "nonpayable",
      "type": "constructor"
    },
    {
      "anonymous": false,
      "inputs": [
        {
          "indexed": true,
          "internalType": "string",
          "name": "vaultId",
          "type": "string"
        },
        {
          "indexed": false,
          "internalType": "string",
          "name": "action",
          "type": "string"
        },
        {
          "indexed": true,
          "internalType": "address",
          "name": "user",
          "type": "address"
        },
        {
          "indexed": true,
          "internalType": "uint256",
          "name": "amount",
          "type": "uint256"
        },
        {
          "indexed": false,
          "internalType": "bool",
          "name": "success",
          "type": "bool"
        },
        {
          "indexed": false,
          "internalType": "string",
          "name": "message",
          "type": "string"
        }
      ],
      "name": "ActionExecuted",
      "type": "event"
    },
    {
      "anonymous": false,
      "inputs": [
        {
          "indexed": false,
          "internalType": "uint256",
          "name": "yield",
          "type": "uint256"
        },
        {
          "indexed": false,
          "internalType": "uint256",
          "name": "newShares",
          "type": "uint256"
        }
      ],
      "name": "Compound",
      "type": "event"
    },
    {
      "anonymous": false,
      "inputs": [
        {
          "indexed": true,
          "internalType": "address",
          "name": "user",
          "type": "address"
        },
        {
          "indexed": false,
          "internalType": "uint256",
          "name": "amount",
          "type": "uint256"
        },
        {
          "indexed": false,
          "internalType": "uint256",
          "name": "shares",
          "type": "uint256"
        }
      ],
      "name": "Deposit",
      "type": "event"
    },
    {
      "anonymous": false,
      "inputs": [
        {
          "indexed": true,
          "internalType": "string",
          "name": "vaultId",
          "type": "string"
        },
        {
          "indexed": false,
          "internalType": "string",
          "name": "action",
          "type": "string"
        },
        {
          "indexed": true,
          "internalType": "address",
          "name": "user",
          "type": "address"
        },
        {
          "indexed": false,
          "internalType": "uint256",
          "name": "amount",
          "type": "uint256"
        },
        {
          "indexed": false,
          "internalType": "uint256",
          "name": "shares",
          "type": "uint256"
        },
        {
          "indexed": false,
          "internalType": "uint256",
          "name": "timestamp",
          "type": "uint256"
        }
      ],
      "name": "ExecutionRecorded",
      "type": "event"
    },
    {
      "anonymous": false,
      "inputs": [
        {
          "indexed": false,
          "internalType": "uint256",
          "name": "amount",
          "type": "uint256"
        }
      ],
      "name": "FeeDeducted",
      "type": "event"
    },
    {
      "anonymous": false,
      "inputs": [
        {
          "indexed": true,
          "internalType": "address",
          "name": "user",
          "type": "address"
        },
        {
          "indexed": false,
          "internalType": "uint256",
          "name": "yieldAmount",
          "type": "uint256"
        }
      ],
      "name": "Harvest",
      "type": "event"
    },
    {
      "anonymous": false,
      "inputs": [
        {
          "indexed": true,
          "internalType": "address",
          "name": "user",
          "type": "address"
        },
        {
          "indexed": false,
          "internalType": "uint256",
          "name": "shares",
          "type": "uint256"
        },
        {
          "indexed": false,
          "internalType": "uint256",
          "name": "amount",
          "type": "uint256"
        }
      ],
      "name": "Withdraw",
      "type": "event"
    },
    {
      "inputs": [],
      "name": "FEE_PRECISION",
      "outputs": [
        {
          "internalType": "uint256",
          "name": "",
          "type": "uint256"
        }
      ],
      "stateMutability": "view",
      "type": "function"
    },
    {
      "inputs": [],
      "name": "accumulatedYield",
      "outputs": [
        {
          "internalType": "uint256",
          "name": "",
          "type": "uint256"
        }
      ],
      "stateMutability": "view",
      "type": "function"
    },
    {
      "inputs": [
        {
          "internalType": "uint256",
          "name": "shares",
          "type": "uint256"
        }
      ],
      "name": "calculateAssetsFromShares",
      "outputs": [
        {
          "internalType": "uint256",
          "name": "",
          "type": "uint256"
        }
      ],
      "stateMutability": "view",
      "type": "function"
    },
    {
      "inputs": [
        {
          "internalType": "uint256",
          "name": "assets",
          "type": "uint256"
        }
      ],
      "name": "calculateSharesFromAssets",
      "outputs": [
        {
          "internalType": "uint256",
          "name": "",
          "type": "uint256"
        }
      ],
      "stateMutability": "view",
      "type": "function"
    },
    {
      "inputs": [
        {
          "internalType": "address",
          "name": "user",
          "type": "address"
        }
      ],
      "name": "calculateUserYield",
      "outputs": [
        {
          "internalType": "uint256",
          "name": "",
          "type": "uint256"
        }
      ],
      "stateMutability": "view",
      "type": "function"
    },
    {
      "inputs": [],
      "name": "compound",
      "outputs": [
        {
          "internalType": "uint256",
          "name": "newShares",
          "type": "uint256"
        }
      ],
      "stateMutability": "nonpayable",
      "type": "function"
    },
    {
      "inputs": [
        {
          "internalType": "uint256",
          "name": "amount",
          "type": "uint256"
        }
      ],
      "name": "deposit",
      "outputs": [
        {
          "internalType": "uint256",
          "name": "sharesIssued",
          "type": "uint256"
        }
      ],
      "stateMutability": "nonpayable",
      "type": "function"
    },
    {
      "inputs": [],
      "name": "feePercentage",
      "outputs": [
        {
          "internalType": "uint256",
          "name": "",
          "type": "uint256"
        }
      ],
      "stateMutability": "view",
      "type": "function"
    },
    {
      "inputs": [
        {
          "internalType": "address",
          "name": "user",
          "type": "address"
        }
      ],
      "name": "getShareBalance",
      "outputs": [
        {
          "internalType": "uint256",
          "name": "",
          "type": "uint256"
        }
      ],
      "stateMutability": "view",
      "type": "function"
    },
    {
      "inputs": [],
      "name": "getTotalAssets",
      "outputs": [
        {
          "internalType": "uint256",
          "name": "",
          "type": "uint256"
        }
      ],
      "stateMutability": "view",
      "type": "function"
    },
    {
      "inputs": [],
      "name": "getTotalShares",
      "outputs": [
        {
          "internalType": "uint256",
          "name": "",
          "type": "uint256"
        }
      ],
      "stateMutability": "view",
      "type": "function"
    },
    {
      "inputs": [],
      "name": "getVaultInfo",
      "outputs": [
        {
          "internalType": "string",
          "name": "id",
          "type": "string"
        },
        {
          "internalType": "address",
          "name": "tokenAddress",
          "type": "address"
        },
        {
          "internalType": "uint256",
          "name": "total",
          "type": "uint256"
        },
        {
          "internalType": "uint256",
          "name": "shares",
          "type": "uint256"
        }
      ],
      "stateMutability": "view",
      "type": "function"
    },
    {
      "inputs": [],
      "name": "harvest",
      "outputs": [
        {
          "internalType": "uint256",
          "name": "yieldAmount",
          "type": "uint256"
        }
      ],
      "stateMutability": "nonpayable",
      "type": "function"
    },
    {
      "inputs": [
        {
          "internalType": "address",
          "name": "",
          "type": "address"
        }
      ],
      "name": "lastDepositBlock",
      "outputs": [
        {
          "internalType": "uint256",
          "name": "",
          "type": "uint256"
        }
      ],
      "stateMutability": "view",
      "type": "function"
    },
    {
      "inputs": [],
      "name": "owner",
      "outputs": [
        {
          "internalType": "address",
          "name": "",
          "type": "address"
        }
      ],
      "stateMutability": "view",
      "type": "function"
    },
    {
      "inputs": [],
      "name": "pause",
      "outputs": [],
      "stateMutability": "nonpayable",
      "type": "function"
    },
    {
      "inputs": [],
      "name": "paused",
      "outputs": [
        {
          "internalType": "bool",
          "name": "",
          "type": "bool"
        }
      ],
      "stateMutability": "view",
      "type": "function"
    },
    {
      "inputs": [
        {
          "internalType": "uint256",
          "name": "newFee",
          "type": "uint256"
        }
      ],
      "name": "setFeePercentage",
      "outputs": [],
      "stateMutability": "nonpayable",
      "type": "function"
    },
    {
      "inputs": [
        {
          "internalType": "address",
          "name": "",
          "type": "address"
        }
      ],
      "name": "shareBalance",
      "outputs": [
        {
          "internalType": "uint256",
          "name": "",
          "type": "uint256"
        }
      ],
      "stateMutability": "view",
      "type": "function"
    },
    {
      "inputs": [],
      "name": "totalAssets",
      "outputs": [
        {
          "internalType": "uint256",
          "name": "",
          "type": "uint256"
        }
      ],
      "stateMutability": "view",
      "type": "function"
    },
    {
      "inputs": [],
      "name": "totalShares",
      "outputs": [
        {
          "internalType": "uint256",
          "name": "",
          "type": "uint256"
        }
      ],
      "stateMutability": "view",
      "type": "function"
    },
    {
      "inputs": [
        {
          "internalType": "address",
          "name": "newOwner",
          "type": "address"
        }
      ],
      "name": "transferOwnership",
      "outputs": [],
      "stateMutability": "nonpayable",
      "type": "function"
    },
    {
      "inputs": [],
      "name": "underlying",
      "outputs": [
        {
          "internalType": "address",
          "name": "",
          "type": "address"
        }
      ],
      "stateMutability": "view",
      "type": "function"
    },
    {
      "inputs": [],
      "name": "unpause",
      "outputs": [],
      "stateMutability": "nonpayable",
      "type": "function"
    },
    {
      "inputs": [],
      "name": "vaultId",
      "outputs": [
        {
          "internalType": "string",
          "name": "",
          "type": "string"
        }
      ],
      "stateMutability": "view",
      "type": "function"
    },
    {
      "inputs": [
        {
          "internalType": "uint256",
          "name": "shares",
          "type": "uint256"
        }
      ],
      "name": "withdraw",
      "outputs": [
        {
          "internalType": "uint256",
          "name": "amountRedeemed",
          "type": "uint256"
        }
      ],
      "stateMutability": "nonpayable",
      "type": "function"
    }
  ],
  "bytecode": "0x60806040526101f46008553480156200001757600080fd5b5060405162001a7138038062001a718339810160408190526200003a916200015f565b6000825111620000855760405162461bcd60e51b815260206004820152601160248201527015985d5b1d081251081c995c5d5a5c9959607a1b60448201526064015b60405180910390fd5b6001600160a01b038116620000dd5760405162461bcd60e51b815260206004820152601860248201527f496e76616c696420756e6465726c79696e6720746f6b656e000000000000000060448201526064016200007c565b6000620000eb8382620002d8565b50600180546001600160a01b0319166001600160a01b039290921691909117905550600580546001600160a81b0319163360ff60a01b1916179055620003a4565b634e487b7160e01b600052604160045260246000fd5b80516001600160a01b03811681146200015a57600080fd5b919050565b600080604083850312156200017357600080fd5b82516001600160401b03808211156200018b57600080fd5b818501915085601f830112620001a057600080fd5b815181811115620001b557620001b56200012c565b604051601f8201601f19908116603f01168101908382118183101715620001e057620001e06200012c565b81604052828152602093508884848701011115620001fd57600080fd5b600091505b8282101562000221578482018401518183018501529083019062000202565b60008484830101528096505050506200023c81860162000142565b925050509250929050565b600181811c908216806200025c57607f821691505b6020821081036200027d57634e487b7160e01b600052602260045260246000fd5b50919050565b601f821115620002d3576000816000526020600020601f850160051c81016020861015620002ae5750805b601f850160051c820191505b81811015620002cf57828155600101620002ba565b5050505b505050565b81516001600160401b03811115620002f457620002f46200012c565b6200030c8162000305845462000247565b8462000283565b602080601f8311600181146200034457600084156200032b5750858301515b600019600386901b1c1916600185901b178555620002cf565b600085815260208120601f198616915b82811015620003755788860151825594840194600190910190840162000354565b5085821015620003945787850151600019600388901b60f8161c191681555b5050505050600190811b01905550565b6116bd80620003b46000396000f3fe608060405234801561001057600080fd5b506004361061018e5760003560e01c80637f98aa71116100de578063ae06c1b711610097578063e63a391f11610071578063e63a391f14610355578063f2fde38b1461035e578063f69e204614610371578063fcdfd5c51461037957600080fd5b8063ae06c1b714610327578063b6b55f251461033a578063d5002f2e1461034d57600080fd5b80637f98aa71146102ab5780638456cb59146102c357806387793ba3146102cb5780638da5cb5b146102eb5780639ce1024b146102fe578063a001ecdd1461031e57600080fd5b80633f4ba83a1161014b5780635c975abb116101255780635c975abb146102415780636e07302b146102655780636f307dc31461026d5780636f7c99d21461029857600080fd5b80633f4ba83a1461021c5780634641257d146102265780635a13a98f1461022e57600080fd5b806301e1d1141461019357806311437941146101af57806327972e0c146101d85780632e1a7d4d146101eb57806333194c0a146101fe5780633a98ef3914610213575b600080fd5b61019c60035481565b6040519081526020015b60405180910390f35b61019c6101bd36600461117d565b6001600160a01b031660009081526006602052604090205490565b61019c6101e63660046111a6565b610382565b61019c6101f93660046111a6565b6103be565b610206610729565b6040516101a69190611205565b61019c60025481565b6102246107b7565b005b61019c6107f0565b61019c61023c3660046111a6565b610a53565b60055461025590600160a01b900460ff1681565b60405190151581526020016101a6565b60035461019c565b600154610280906001600160a01b031681565b6040516001600160a01b0390911681526020016101a6565b61019c6102a636600461117d565b610a77565b6102b3610ae2565b6040516101a69493929190611218565b610224610ba0565b61019c6102d936600461117d565b60066020526000908152604090205481565b600554610280906001600160a01b031681565b61019c61030c36600461117d565b60076020526000908152604090205481565b61019c60085481565b6102246103353660046111a6565b610bdf565b61019c6103483660046111a6565b610c59565b60025461019c565b61019c61271081565b61022461036c36600461117d565b610ed0565b61019c610f64565b61019c60045481565b6000600354600014806103955750600254155b1561039e575090565b6003546002546103ae9084611266565b6103b8919061127d565b92915050565b600554600090600160a01b900460ff16156103f45760405162461bcd60e51b81526004016103eb9061129f565b60405180910390fd5b81600081116104455760405162461bcd60e51b815260206004820152601d60248201527f416d6f756e74206d7573742062652067726561746572207468616e203000000060448201526064016103eb565b3360009081526006602052604090205483111561049a5760405162461bcd60e51b8152602060048201526013602482015272496e73756666696369656e742073686172657360681b60448201526064016103eb565b6104a383610a53565b9150600082116104ee5760405162461bcd60e51b815260206004820152601660248201527505769746864726177616c20616d6f756e7420697320360541b60448201526064016103eb565b6000612710600854846105019190611266565b61050b919061127d565b9050600061051982856112c8565b3360009081526006602052604081208054929350879290919061053d9084906112c8565b92505081905550846002600082825461055691906112c8565b92505081905550836003600082825461056f91906112c8565b909155505060015460405163a9059cbb60e01b8152336004820152602481018390526001600160a01b039091169063a9059cbb906044016020604051808303816000875af11580156105c5573d6000803e3d6000fd5b505050506040513d601f19601f820116820180604052508101906105e991906112db565b6106275760405162461bcd60e51b815260206004820152600f60248201526e151c985b9cd9995c8819985a5b1959608a1b60448201526064016103eb565b604080518681526020810183905233917ff279e6a1f5e320cca91135676d9cb6e44ca8a08c0b88342bcdb1144f6511b568910160405180910390a26040518281527fb9fd9b3ae5df7ee5d3c3a24f8dff20944fdc1eaa93985eb52486cfbd748706889060200160405180910390a160405133906106a690600090611331565b60405180910390206000805160206116688339815191528388426040516106cf939291906113d2565b60405180910390a380336001600160a01b031660006040516106f19190611331565b604051809103902060008051602061164883398151915260016040516107179190611414565b60405180910390a49250505b50919050565b60008054610736906112fd565b80601f0160208091040260200160405190810160405280929190818152602001828054610762906112fd565b80156107af5780601f10610784576101008083540402835291602001916107af565b820191906000526020600020905b81548152906001019060200180831161079257829003601f168201915b505050505081565b6005546001600160a01b031633146107e15760405162461bcd60e51b81526004016103eb90611477565b6005805460ff60a01b19169055565b600554600090600160a01b900460ff161561081d5760405162461bcd60e51b81526004016103eb9061129f565b336000908152600660205260409020546108705760405162461bcd60e51b8152602060048201526014602482015273139bc81cda185c995cc81d1bc81a185c9d995cdd60621b60448201526064016103eb565b61087933610a77565b9050600081116108c05760405162461bcd60e51b81526020600482015260126024820152714e6f207969656c6420617661696c61626c6560701b60448201526064016103eb565b60015460405163a9059cbb60e01b8152336004820152602481018390526001600160a01b039091169063a9059cbb906044016020604051808303816000875af1158015610911573d6000803e3d6000fd5b505050506040513d601f19601f8201168201806040525081019061093591906112db565b6109795760405162461bcd60e51b8152602060048201526015602482015274165a595b19081d1c985b9cd9995c8819985a5b1959605a1b60448201526064016103eb565b806004600082825461098b919061149f565b909155505060405181815233907fc9695243a805adb74c91f28311176c65b417e842d5699893cef56d18bfa48cba9060200160405180910390a260405133906109d690600090611331565b604051809103902060008051602061166883398151915283600042604051610a00939291906114b2565b60405180910390a380336001600160a01b03166000604051610a229190611331565b60405180910390206000805160206116488339815191526001604051610a4891906114d9565b60405180910390a490565b6000600254600003610a6757506000919050565b6002546003546103ae9084611266565b6001600160a01b0381166000908152600660205260408120548103610a9e57506000919050565b6001600160a01b038216600090815260066020526040812054610ac090610a53565b9050620186a0610ad182601b611266565b610adb919061127d565b9392505050565b6060600080600080600160009054906101000a90046001600160a01b0316600354600254838054610b12906112fd565b80601f0160208091040260200160405190810160405280929190818152602001828054610b3e906112fd565b8015610b8b5780601f10610b6057610100808354040283529160200191610b8b565b820191906000526020600020905b815481529060010190602001808311610b6e57829003601f168201915b50505050509350935093509350935090919293565b6005546001600160a01b03163314610bca5760405162461bcd60e51b81526004016103eb90611477565b6005805460ff60a01b1916600160a01b179055565b6005546001600160a01b03163314610c095760405162461bcd60e51b81526004016103eb90611477565b6103e8811115610c545760405162461bcd60e51b815260206004820152601660248201527546656520746f6f206869676820286d6178203130252960501b60448201526064016103eb565b600855565b600554600090600160a01b900460ff1615610c865760405162461bcd60e51b81526004016103eb9061129f565b8160008111610cd75760405162461bcd60e51b815260206004820152601d60248201527f416d6f756e74206d7573742062652067726561746572207468616e203000000060448201526064016103eb565b6001546040516323b872dd60e01b8152336004820152306024820152604481018590526001600160a01b03909116906323b872dd906064016020604051808303816000875af1158015610d2e573d6000803e3d6000fd5b505050506040513d601f19601f82011682018060405250810190610d5291906112db565b610d905760405162461bcd60e51b815260206004820152600f60248201526e151c985b9cd9995c8819985a5b1959608a1b60448201526064016103eb565b610d9983610382565b33600090815260066020526040812080549294508492909190610dbd90849061149f565b925050819055508160026000828254610dd6919061149f565b925050819055508260036000828254610def919061149f565b90915550503360008181526007602090815260409182902043905581518681529081018590527f90890809c654f11d6e72a28fa60149770a0d11ec6c92319d6ceb2bb0a4ea1a15910160405180910390a26040513390610e5190600090611331565b6040518091039020600080516020611668833981519152858542604051610e7a93929190611538565b60405180910390a382336001600160a01b03166000604051610e9c9190611331565b60405180910390206000805160206116488339815191526001604051610ec2919061155f565b60405180910390a450919050565b6005546001600160a01b03163314610efa5760405162461bcd60e51b81526004016103eb90611477565b6001600160a01b038116610f425760405162461bcd60e51b815260206004820152600f60248201526e496e76616c6964206164647265737360881b60448201526064016103eb565b600580546001600160a01b0319166001600160a01b0392909216919091179055565b600554600090600160a01b900460ff1615610f915760405162461bcd60e51b81526004016103eb9061129f565b33600090815260066020526040902054610fe55760405162461bcd60e51b8152602060048201526015602482015274139bc81cda185c995cc81d1bc818dbdb5c1bdd5b99605a1b60448201526064016103eb565b6000610ff033610a77565b9050600081116110395760405162461bcd60e51b8152602060048201526014602482015273139bc81e5a595b19081d1bc818dbdb5c1bdd5b9960621b60448201526064016103eb565b61104281610382565b3360009081526006602052604081208054929450849290919061106690849061149f565b92505081905550816002600082825461107f919061149f565b925050819055508060036000828254611098919061149f565b9250508190555080600460008282546110b1919061149f565b909155505060408051828152602081018490527fe3c48e43a3cc80f4a0c194845bdd6091fa19b9bb7d22e515c21e9f177e2e22ae910160405180910390a1604051339061110090600090611331565b6040518091039020600080516020611668833981519152838542604051611129939291906115be565b60405180910390a380336001600160a01b0316600060405161114b9190611331565b6040518091039020600080516020611648833981519152600160405161117191906115e6565b60405180910390a45090565b60006020828403121561118f57600080fd5b81356001600160a01b0381168114610adb57600080fd5b6000602082840312156111b857600080fd5b5035919050565b6000815180845260005b818110156111e5576020818501810151868301820152016111c9565b506000602082860101526020601f19601f83011685010191505092915050565b602081526000610adb60208301846111bf565b60808152600061122b60808301876111bf565b6001600160a01b03959095166020830152506040810192909252606090910152919050565b634e487b7160e01b600052601160045260246000fd5b80820281158282048414176103b8576103b8611250565b60008261129a57634e487b7160e01b600052601260045260246000fd5b500490565b6020808252600f908201526e15985d5b1d081a5cc81c185d5cd959608a1b604082015260600190565b818103818111156103b8576103b8611250565b6000602082840312156112ed57600080fd5b81518015158114610adb57600080fd5b600181811c9082168061131157607f821691505b60208210810361072357634e487b7160e01b600052602260045260246000fd5b60008083548160018260011c9150600183168061134f57607f831692505b6020808410820361136e57634e487b7160e01b86526022600452602486fd5b8180156113825760018114611397576113c4565b60ff19861689528415158502890196506113c4565b60008a81526020902060005b868110156113bc5781548b8201529085019083016113a3565b505084890196505b509498975050505050505050565b6080815260006113fa608083016008815267776974686472617760c01b602082015260400190565b602083019590955250604081019290925260609091015290565b60608152600061143c606083016008815267776974686472617760c01b602082015260400190565b921515602083810191909152828403604093840152601584527415da5d1a191c985dd85b081cdd58d8d95cdcd99d5b605a1b90840152500190565b6020808252600e908201526d139bdd08185d5d1a1bdc9a5e995960921b604082015260600190565b808201808211156103b8576103b8611250565b6080815260006113fa6080830160078152661a185c9d995cdd60ca1b602082015260400190565b6060815260006115006060830160078152661a185c9d995cdd60ca1b602082015260400190565b921515602083810191909152828403604093840152601284527112185c9d995cdd081cdd58d8d95cdcd99d5b60721b90840152500190565b6080815260006113fa60808301600781526619195c1bdcda5d60ca1b602082015260400190565b60608152600061158660608301600781526619195c1bdcda5d60ca1b602082015260400190565b921515602083810191909152828403604093840152601284527111195c1bdcda5d081cdd58d8d95cdcd99d5b60721b90840152500190565b6080815260006113fa60808301600881526718dbdb5c1bdd5b9960c21b602082015260400190565b60608152600061160e60608301600881526718dbdb5c1bdd5b9960c21b602082015260400190565b921515602083810191909152828403604093840152601384527210dbdb5c1bdd5b99081cdd58d8d95cdcd99d5b606a1b9084015250019056fe2b85f9d5d5b2115ddbef013b05a97bc4efc4af97e7da67ffa6870a234fc6d8e01f7b25b67a8427cca34f9983a91773c4f94a46977a530f95d3c5b7724b89fbfda2646970667358221220e0f7d7110c61b0054e13dc08d320f01b096f007f030a84d07e6e255eb0bb966464736f6c63430008180033",
  "linkReferences": {},
  "deployedLinkReferences": {}
}